{
	"Openzepellin/Merkle2_Openzeppelin.sol": {
		"MerkleProof2": {
			"abi": [
				{
					"inputs": [
						{
							"internalType": "bytes32",
							"name": "_root",
							"type": "bytes32"
						}
					],
					"stateMutability": "nonpayable",
					"type": "constructor"
				},
				{
					"inputs": [
						{
							"internalType": "bytes32[]",
							"name": "_proof",
							"type": "bytes32[]"
						}
					],
					"name": "claim",
					"outputs": [],
					"stateMutability": "nonpayable",
					"type": "function"
				},
				{
					"inputs": [
						{
							"internalType": "bytes32[]",
							"name": "_proof",
							"type": "bytes32[]"
						},
						{
							"internalType": "bytes32",
							"name": "_root",
							"type": "bytes32"
						},
						{
							"internalType": "bytes32",
							"name": "_leaf",
							"type": "bytes32"
						}
					],
					"name": "verify",
					"outputs": [
						{
							"internalType": "bool",
							"name": "",
							"type": "bool"
						}
					],
					"stateMutability": "pure",
					"type": "function"
				}
			],
			"devdoc": {
				"kind": "dev",
				"methods": {},
				"version": 1
			},
			"evm": {
				"assembly": "    /* \"Openzepellin/Merkle2_Openzeppelin.sol\":151:878  contract MerkleProof2 {... */\n  mstore(0x40, 0x80)\n    /* \"Openzepellin/Merkle2_Openzeppelin.sol\":203:258  constructor(bytes32 _root){... */\n  callvalue\n  dup1\n  iszero\n  tag_1\n  jumpi\n  0x00\n  dup1\n  revert\ntag_1:\n  pop\n  mload(0x40)\n  sub(codesize, bytecodeSize)\n  dup1\n  bytecodeSize\n  dup4\n  codecopy\n  dup2\n  dup2\n  add\n  0x40\n  mstore\n  dup2\n  add\n  swap1\n  tag_2\n  swap2\n  swap1\n  tag_3\n  jump\t// in\ntag_2:\n    /* \"Openzepellin/Merkle2_Openzeppelin.sol\":245:250  _root */\n  dup1\n    /* \"Openzepellin/Merkle2_Openzeppelin.sol\":240:244  root */\n  0x00\n    /* \"Openzepellin/Merkle2_Openzeppelin.sol\":240:250  root=_root */\n  dup2\n  swap1\n  sstore\n  pop\n    /* \"Openzepellin/Merkle2_Openzeppelin.sol\":203:258  constructor(bytes32 _root){... */\n  pop\n    /* \"Openzepellin/Merkle2_Openzeppelin.sol\":151:878  contract MerkleProof2 {... */\n  jump(tag_6)\n    /* \"#utility.yul\":88:205   */\ntag_8:\n    /* \"#utility.yul\":197:198   */\n  0x00\n    /* \"#utility.yul\":194:195   */\n  dup1\n    /* \"#utility.yul\":187:199   */\n  revert\n    /* \"#utility.yul\":334:411   */\ntag_10:\n    /* \"#utility.yul\":371:378   */\n  0x00\n    /* \"#utility.yul\":400:405   */\n  dup2\n    /* \"#utility.yul\":389:405   */\n  swap1\n  pop\n    /* \"#utility.yul\":334:411   */\n  swap2\n  swap1\n  pop\n  jump\t// out\n    /* \"#utility.yul\":417:539   */\ntag_11:\n    /* \"#utility.yul\":490:514   */\n  tag_19\n    /* \"#utility.yul\":508:513   */\n  dup2\n    /* \"#utility.yul\":490:514   */\n  tag_10\n  jump\t// in\ntag_19:\n    /* \"#utility.yul\":483:488   */\n  dup2\n    /* \"#utility.yul\":480:515   */\n  eq\n    /* \"#utility.yul\":470:533   */\n  tag_20\n  jumpi\n    /* \"#utility.yul\":529:530   */\n  0x00\n    /* \"#utility.yul\":526:527   */\n  dup1\n    /* \"#utility.yul\":519:531   */\n  revert\n    /* \"#utility.yul\":470:533   */\ntag_20:\n    /* \"#utility.yul\":417:539   */\n  pop\n  jump\t// out\n    /* \"#utility.yul\":545:688   */\ntag_12:\n    /* \"#utility.yul\":602:607   */\n  0x00\n    /* \"#utility.yul\":633:639   */\n  dup2\n    /* \"#utility.yul\":627:640   */\n  mload\n    /* \"#utility.yul\":618:640   */\n  swap1\n  pop\n    /* \"#utility.yul\":649:682   */\n  tag_22\n    /* \"#utility.yul\":676:681   */\n  dup2\n    /* \"#utility.yul\":649:682   */\n  tag_11\n  jump\t// in\ntag_22:\n    /* \"#utility.yul\":545:688   */\n  swap3\n  swap2\n  pop\n  pop\n  jump\t// out\n    /* \"#utility.yul\":694:1045   */\ntag_3:\n    /* \"#utility.yul\":764:770   */\n  0x00\n    /* \"#utility.yul\":813:815   */\n  0x20\n    /* \"#utility.yul\":801:810   */\n  dup3\n    /* \"#utility.yul\":792:799   */\n  dup5\n    /* \"#utility.yul\":788:811   */\n  sub\n    /* \"#utility.yul\":784:816   */\n  slt\n    /* \"#utility.yul\":781:900   */\n  iszero\n  tag_24\n  jumpi\n    /* \"#utility.yul\":819:898   */\n  tag_25\n  tag_8\n  jump\t// in\ntag_25:\n    /* \"#utility.yul\":781:900   */\ntag_24:\n    /* \"#utility.yul\":939:940   */\n  0x00\n    /* \"#utility.yul\":964:1028   */\n  tag_26\n    /* \"#utility.yul\":1020:1027   */\n  dup5\n    /* \"#utility.yul\":1011:1017   */\n  dup3\n    /* \"#utility.yul\":1000:1009   */\n  dup6\n    /* \"#utility.yul\":996:1018   */\n  add\n    /* \"#utility.yul\":964:1028   */\n  tag_12\n  jump\t// in\ntag_26:\n    /* \"#utility.yul\":954:1028   */\n  swap2\n  pop\n    /* \"#utility.yul\":910:1038   */\n  pop\n    /* \"#utility.yul\":694:1045   */\n  swap3\n  swap2\n  pop\n  pop\n  jump\t// out\n    /* \"Openzepellin/Merkle2_Openzeppelin.sol\":151:878  contract MerkleProof2 {... */\ntag_6:\n  dataSize(sub_0)\n  dup1\n  dataOffset(sub_0)\n  0x00\n  codecopy\n  0x00\n  return\nstop\n\nsub_0: assembly {\n        /* \"Openzepellin/Merkle2_Openzeppelin.sol\":151:878  contract MerkleProof2 {... */\n      mstore(0x40, 0x80)\n      callvalue\n      dup1\n      iszero\n      tag_1\n      jumpi\n      0x00\n      dup1\n      revert\n    tag_1:\n      pop\n      jumpi(tag_2, lt(calldatasize, 0x04))\n      shr(0xe0, calldataload(0x00))\n      dup1\n      0x5a9a49c7\n      eq\n      tag_3\n      jumpi\n      dup1\n      0xb391c508\n      eq\n      tag_4\n      jumpi\n    tag_2:\n      0x00\n      dup1\n      revert\n        /* \"Openzepellin/Merkle2_Openzeppelin.sol\":266:434  function verify (bytes32[] memory _proof, bytes32 _root, bytes32 _leaf) public pure returns (bool) {... */\n    tag_3:\n      tag_5\n      0x04\n      dup1\n      calldatasize\n      sub\n      dup2\n      add\n      swap1\n      tag_6\n      swap2\n      swap1\n      tag_7\n      jump\t// in\n    tag_6:\n      tag_8\n      jump\t// in\n    tag_5:\n      mload(0x40)\n      tag_9\n      swap2\n      swap1\n      tag_10\n      jump\t// in\n    tag_9:\n      mload(0x40)\n      dup1\n      swap2\n      sub\n      swap1\n      return\n        /* \"Openzepellin/Merkle2_Openzeppelin.sol\":530:865  function claim (bytes32[] memory _proof) public  {... */\n    tag_4:\n      tag_11\n      0x04\n      dup1\n      calldatasize\n      sub\n      dup2\n      add\n      swap1\n      tag_12\n      swap2\n      swap1\n      tag_13\n      jump\t// in\n    tag_12:\n      tag_14\n      jump\t// in\n    tag_11:\n      stop\n        /* \"Openzepellin/Merkle2_Openzeppelin.sol\":266:434  function verify (bytes32[] memory _proof, bytes32 _root, bytes32 _leaf) public pure returns (bool) {... */\n    tag_8:\n        /* \"Openzepellin/Merkle2_Openzeppelin.sol\":359:363  bool */\n      0x00\n        /* \"Openzepellin/Merkle2_Openzeppelin.sol\":383:426  MerkleProof.verify( _proof,  _root,  _leaf) */\n      tag_16\n        /* \"Openzepellin/Merkle2_Openzeppelin.sol\":403:409  _proof */\n      dup5\n        /* \"Openzepellin/Merkle2_Openzeppelin.sol\":412:417  _root */\n      dup5\n        /* \"Openzepellin/Merkle2_Openzeppelin.sol\":420:425  _leaf */\n      dup5\n        /* \"Openzepellin/Merkle2_Openzeppelin.sol\":383:401  MerkleProof.verify */\n      tag_17\n        /* \"Openzepellin/Merkle2_Openzeppelin.sol\":383:426  MerkleProof.verify( _proof,  _root,  _leaf) */\n      jump\t// in\n    tag_16:\n        /* \"Openzepellin/Merkle2_Openzeppelin.sol\":376:426  return MerkleProof.verify( _proof,  _root,  _leaf) */\n      swap1\n      pop\n        /* \"Openzepellin/Merkle2_Openzeppelin.sol\":266:434  function verify (bytes32[] memory _proof, bytes32 _root, bytes32 _leaf) public pure returns (bool) {... */\n      swap4\n      swap3\n      pop\n      pop\n      pop\n      jump\t// out\n        /* \"Openzepellin/Merkle2_Openzeppelin.sol\":530:865  function claim (bytes32[] memory _proof) public  {... */\n    tag_14:\n        /* \"Openzepellin/Merkle2_Openzeppelin.sol\":599:615  whitelistClaimed */\n      0x01\n        /* \"Openzepellin/Merkle2_Openzeppelin.sol\":599:627  whitelistClaimed[msg.sender] */\n      0x00\n        /* \"Openzepellin/Merkle2_Openzeppelin.sol\":616:626  msg.sender */\n      caller\n        /* \"Openzepellin/Merkle2_Openzeppelin.sol\":599:627  whitelistClaimed[msg.sender] */\n      0xffffffffffffffffffffffffffffffffffffffff\n      and\n      0xffffffffffffffffffffffffffffffffffffffff\n      and\n      dup2\n      mstore\n      0x20\n      add\n      swap1\n      dup2\n      mstore\n      0x20\n      add\n      0x00\n      keccak256\n      0x00\n      swap1\n      sload\n      swap1\n      0x0100\n      exp\n      swap1\n      div\n      0xff\n      and\n        /* \"Openzepellin/Merkle2_Openzeppelin.sol\":598:627  !whitelistClaimed[msg.sender] */\n      iszero\n        /* \"Openzepellin/Merkle2_Openzeppelin.sol\":590:654  require(!whitelistClaimed[msg.sender],\"Ya Claimeaste pss causa\") */\n      tag_19\n      jumpi\n      mload(0x40)\n      0x08c379a000000000000000000000000000000000000000000000000000000000\n      dup2\n      mstore\n      0x04\n      add\n      tag_20\n      swap1\n      tag_21\n      jump\t// in\n    tag_20:\n      mload(0x40)\n      dup1\n      swap2\n      sub\n      swap1\n      revert\n    tag_19:\n        /* \"Openzepellin/Merkle2_Openzeppelin.sol\":665:677  bytes32 leaf */\n      0x00\n        /* \"Openzepellin/Merkle2_Openzeppelin.sol\":707:717  msg.sender */\n      caller\n        /* \"Openzepellin/Merkle2_Openzeppelin.sol\":690:718  abi.encodePacked(msg.sender) */\n      add(0x20, mload(0x40))\n      tag_22\n      swap2\n      swap1\n      tag_23\n      jump\t// in\n    tag_22:\n      mload(0x40)\n      0x20\n      dup2\n      dup4\n      sub\n      sub\n      dup2\n      mstore\n      swap1\n      0x40\n      mstore\n        /* \"Openzepellin/Merkle2_Openzeppelin.sol\":680:719  keccak256(abi.encodePacked(msg.sender)) */\n      dup1\n      mload\n      swap1\n      0x20\n      add\n      keccak256\n        /* \"Openzepellin/Merkle2_Openzeppelin.sol\":665:719  bytes32 leaf = keccak256(abi.encodePacked(msg.sender)) */\n      swap1\n      pop\n        /* \"Openzepellin/Merkle2_Openzeppelin.sol\":742:778  MerkleProof.verify(_proof,root,leaf) */\n      tag_24\n        /* \"Openzepellin/Merkle2_Openzeppelin.sol\":761:767  _proof */\n      dup3\n        /* \"Openzepellin/Merkle2_Openzeppelin.sol\":768:772  root */\n      sload(0x00)\n        /* \"Openzepellin/Merkle2_Openzeppelin.sol\":773:777  leaf */\n      dup4\n        /* \"Openzepellin/Merkle2_Openzeppelin.sol\":742:760  MerkleProof.verify */\n      tag_17\n        /* \"Openzepellin/Merkle2_Openzeppelin.sol\":742:778  MerkleProof.verify(_proof,root,leaf) */\n      jump\t// in\n    tag_24:\n        /* \"Openzepellin/Merkle2_Openzeppelin.sol\":734:807  require(MerkleProof.verify(_proof,root,leaf), \"No estas en la whitelist\") */\n      tag_25\n      jumpi\n      mload(0x40)\n      0x08c379a000000000000000000000000000000000000000000000000000000000\n      dup2\n      mstore\n      0x04\n      add\n      tag_26\n      swap1\n      tag_27\n      jump\t// in\n    tag_26:\n      mload(0x40)\n      dup1\n      swap2\n      sub\n      swap1\n      revert\n    tag_25:\n        /* \"Openzepellin/Merkle2_Openzeppelin.sol\":849:853  true */\n      0x01\n        /* \"Openzepellin/Merkle2_Openzeppelin.sol\":820:836  whitelistClaimed */\n      dup1\n        /* \"Openzepellin/Merkle2_Openzeppelin.sol\":820:848  whitelistClaimed[msg.sender] */\n      0x00\n        /* \"Openzepellin/Merkle2_Openzeppelin.sol\":837:847  msg.sender */\n      caller\n        /* \"Openzepellin/Merkle2_Openzeppelin.sol\":820:848  whitelistClaimed[msg.sender] */\n      0xffffffffffffffffffffffffffffffffffffffff\n      and\n      0xffffffffffffffffffffffffffffffffffffffff\n      and\n      dup2\n      mstore\n      0x20\n      add\n      swap1\n      dup2\n      mstore\n      0x20\n      add\n      0x00\n      keccak256\n      0x00\n        /* \"Openzepellin/Merkle2_Openzeppelin.sol\":820:853  whitelistClaimed[msg.sender]=true */\n      0x0100\n      exp\n      dup2\n      sload\n      dup2\n      0xff\n      mul\n      not\n      and\n      swap1\n      dup4\n      iszero\n      iszero\n      mul\n      or\n      swap1\n      sstore\n      pop\n        /* \"Openzepellin/Merkle2_Openzeppelin.sol\":579:865  {... */\n      pop\n        /* \"Openzepellin/Merkle2_Openzeppelin.sol\":530:865  function claim (bytes32[] memory _proof) public  {... */\n      pop\n      jump\t// out\n        /* \"@openzeppelin/contracts/utils/cryptography/MerkleProof.sol\":1156:1340  function verify(... */\n    tag_17:\n        /* \"@openzeppelin/contracts/utils/cryptography/MerkleProof.sol\":1277:1281  bool */\n      0x00\n        /* \"@openzeppelin/contracts/utils/cryptography/MerkleProof.sol\":1329:1333  root */\n      dup3\n        /* \"@openzeppelin/contracts/utils/cryptography/MerkleProof.sol\":1300:1325  processProof(proof, leaf) */\n      tag_29\n        /* \"@openzeppelin/contracts/utils/cryptography/MerkleProof.sol\":1313:1318  proof */\n      dup6\n        /* \"@openzeppelin/contracts/utils/cryptography/MerkleProof.sol\":1320:1324  leaf */\n      dup5\n        /* \"@openzeppelin/contracts/utils/cryptography/MerkleProof.sol\":1300:1312  processProof */\n      tag_30\n        /* \"@openzeppelin/contracts/utils/cryptography/MerkleProof.sol\":1300:1325  processProof(proof, leaf) */\n      jump\t// in\n    tag_29:\n        /* \"@openzeppelin/contracts/utils/cryptography/MerkleProof.sol\":1300:1333  processProof(proof, leaf) == root */\n      eq\n        /* \"@openzeppelin/contracts/utils/cryptography/MerkleProof.sol\":1293:1333  return processProof(proof, leaf) == root */\n      swap1\n      pop\n        /* \"@openzeppelin/contracts/utils/cryptography/MerkleProof.sol\":1156:1340  function verify(... */\n      swap4\n      swap3\n      pop\n      pop\n      pop\n      jump\t// out\n        /* \"@openzeppelin/contracts/utils/cryptography/MerkleProof.sol\":1994:2284  function processProof(bytes32[] memory proof, bytes32 leaf) internal pure returns (bytes32) {... */\n    tag_30:\n        /* \"@openzeppelin/contracts/utils/cryptography/MerkleProof.sol\":2077:2084  bytes32 */\n      0x00\n        /* \"@openzeppelin/contracts/utils/cryptography/MerkleProof.sol\":2096:2116  bytes32 computedHash */\n      dup1\n        /* \"@openzeppelin/contracts/utils/cryptography/MerkleProof.sol\":2119:2123  leaf */\n      dup3\n        /* \"@openzeppelin/contracts/utils/cryptography/MerkleProof.sol\":2096:2123  bytes32 computedHash = leaf */\n      swap1\n      pop\n        /* \"@openzeppelin/contracts/utils/cryptography/MerkleProof.sol\":2138:2147  uint256 i */\n      0x00\n        /* \"@openzeppelin/contracts/utils/cryptography/MerkleProof.sol\":2133:2249  for (uint256 i = 0; i < proof.length; i++) {... */\n    tag_32:\n        /* \"@openzeppelin/contracts/utils/cryptography/MerkleProof.sol\":2157:2162  proof */\n      dup5\n        /* \"@openzeppelin/contracts/utils/cryptography/MerkleProof.sol\":2157:2169  proof.length */\n      mload\n        /* \"@openzeppelin/contracts/utils/cryptography/MerkleProof.sol\":2153:2154  i */\n      dup2\n        /* \"@openzeppelin/contracts/utils/cryptography/MerkleProof.sol\":2153:2169  i < proof.length */\n      lt\n        /* \"@openzeppelin/contracts/utils/cryptography/MerkleProof.sol\":2133:2249  for (uint256 i = 0; i < proof.length; i++) {... */\n      iszero\n      tag_33\n      jumpi\n        /* \"@openzeppelin/contracts/utils/cryptography/MerkleProof.sol\":2205:2238  _hashPair(computedHash, proof[i]) */\n      tag_35\n        /* \"@openzeppelin/contracts/utils/cryptography/MerkleProof.sol\":2215:2227  computedHash */\n      dup3\n        /* \"@openzeppelin/contracts/utils/cryptography/MerkleProof.sol\":2229:2234  proof */\n      dup7\n        /* \"@openzeppelin/contracts/utils/cryptography/MerkleProof.sol\":2235:2236  i */\n      dup4\n        /* \"@openzeppelin/contracts/utils/cryptography/MerkleProof.sol\":2229:2237  proof[i] */\n      dup2\n      mload\n      dup2\n      lt\n      tag_36\n      jumpi\n      tag_37\n      tag_38\n      jump\t// in\n    tag_37:\n    tag_36:\n      0x20\n      mul\n      0x20\n      add\n      add\n      mload\n        /* \"@openzeppelin/contracts/utils/cryptography/MerkleProof.sol\":2205:2214  _hashPair */\n      tag_39\n        /* \"@openzeppelin/contracts/utils/cryptography/MerkleProof.sol\":2205:2238  _hashPair(computedHash, proof[i]) */\n      jump\t// in\n    tag_35:\n        /* \"@openzeppelin/contracts/utils/cryptography/MerkleProof.sol\":2190:2238  computedHash = _hashPair(computedHash, proof[i]) */\n      swap2\n      pop\n        /* \"@openzeppelin/contracts/utils/cryptography/MerkleProof.sol\":2171:2174  i++ */\n      dup1\n      dup1\n      tag_40\n      swap1\n      tag_41\n      jump\t// in\n    tag_40:\n      swap2\n      pop\n      pop\n        /* \"@openzeppelin/contracts/utils/cryptography/MerkleProof.sol\":2133:2249  for (uint256 i = 0; i < proof.length; i++) {... */\n      jump(tag_32)\n    tag_33:\n      pop\n        /* \"@openzeppelin/contracts/utils/cryptography/MerkleProof.sol\":2265:2277  computedHash */\n      dup1\n        /* \"@openzeppelin/contracts/utils/cryptography/MerkleProof.sol\":2258:2277  return computedHash */\n      swap2\n      pop\n      pop\n        /* \"@openzeppelin/contracts/utils/cryptography/MerkleProof.sol\":1994:2284  function processProof(bytes32[] memory proof, bytes32 leaf) internal pure returns (bytes32) {... */\n      swap3\n      swap2\n      pop\n      pop\n      jump\t// out\n        /* \"@openzeppelin/contracts/utils/cryptography/MerkleProof.sol\":8879:9026  function _hashPair(bytes32 a, bytes32 b) private pure returns (bytes32) {... */\n    tag_39:\n        /* \"@openzeppelin/contracts/utils/cryptography/MerkleProof.sol\":8942:8949  bytes32 */\n      0x00\n        /* \"@openzeppelin/contracts/utils/cryptography/MerkleProof.sol\":8972:8973  b */\n      dup2\n        /* \"@openzeppelin/contracts/utils/cryptography/MerkleProof.sol\":8968:8969  a */\n      dup4\n        /* \"@openzeppelin/contracts/utils/cryptography/MerkleProof.sol\":8968:8973  a < b */\n      lt\n        /* \"@openzeppelin/contracts/utils/cryptography/MerkleProof.sol\":8968:9019  a < b ? _efficientHash(a, b) : _efficientHash(b, a) */\n      tag_43\n      jumpi\n        /* \"@openzeppelin/contracts/utils/cryptography/MerkleProof.sol\":8999:9019  _efficientHash(b, a) */\n      tag_44\n        /* \"@openzeppelin/contracts/utils/cryptography/MerkleProof.sol\":9014:9015  b */\n      dup3\n        /* \"@openzeppelin/contracts/utils/cryptography/MerkleProof.sol\":9017:9018  a */\n      dup5\n        /* \"@openzeppelin/contracts/utils/cryptography/MerkleProof.sol\":8999:9013  _efficientHash */\n      tag_45\n        /* \"@openzeppelin/contracts/utils/cryptography/MerkleProof.sol\":8999:9019  _efficientHash(b, a) */\n      jump\t// in\n    tag_44:\n        /* \"@openzeppelin/contracts/utils/cryptography/MerkleProof.sol\":8968:9019  a < b ? _efficientHash(a, b) : _efficientHash(b, a) */\n      jump(tag_46)\n    tag_43:\n        /* \"@openzeppelin/contracts/utils/cryptography/MerkleProof.sol\":8976:8996  _efficientHash(a, b) */\n      tag_47\n        /* \"@openzeppelin/contracts/utils/cryptography/MerkleProof.sol\":8991:8992  a */\n      dup4\n        /* \"@openzeppelin/contracts/utils/cryptography/MerkleProof.sol\":8994:8995  b */\n      dup4\n        /* \"@openzeppelin/contracts/utils/cryptography/MerkleProof.sol\":8976:8990  _efficientHash */\n      tag_45\n        /* \"@openzeppelin/contracts/utils/cryptography/MerkleProof.sol\":8976:8996  _efficientHash(a, b) */\n      jump\t// in\n    tag_47:\n        /* \"@openzeppelin/contracts/utils/cryptography/MerkleProof.sol\":8968:9019  a < b ? _efficientHash(a, b) : _efficientHash(b, a) */\n    tag_46:\n        /* \"@openzeppelin/contracts/utils/cryptography/MerkleProof.sol\":8961:9019  return a < b ? _efficientHash(a, b) : _efficientHash(b, a) */\n      swap1\n      pop\n        /* \"@openzeppelin/contracts/utils/cryptography/MerkleProof.sol\":8879:9026  function _hashPair(bytes32 a, bytes32 b) private pure returns (bytes32) {... */\n      swap3\n      swap2\n      pop\n      pop\n      jump\t// out\n        /* \"@openzeppelin/contracts/utils/cryptography/MerkleProof.sol\":9032:9293  function _efficientHash(bytes32 a, bytes32 b) private pure returns (bytes32 value) {... */\n    tag_45:\n        /* \"@openzeppelin/contracts/utils/cryptography/MerkleProof.sol\":9100:9113  bytes32 value */\n      0x00\n        /* \"@openzeppelin/contracts/utils/cryptography/MerkleProof.sol\":9204:9205  a */\n      dup3\n        /* \"@openzeppelin/contracts/utils/cryptography/MerkleProof.sol\":9198:9202  0x00 */\n      0x00\n        /* \"@openzeppelin/contracts/utils/cryptography/MerkleProof.sol\":9191:9206  mstore(0x00, a) */\n      mstore\n        /* \"@openzeppelin/contracts/utils/cryptography/MerkleProof.sol\":9232:9233  b */\n      dup2\n        /* \"@openzeppelin/contracts/utils/cryptography/MerkleProof.sol\":9226:9230  0x20 */\n      0x20\n        /* \"@openzeppelin/contracts/utils/cryptography/MerkleProof.sol\":9219:9234  mstore(0x20, b) */\n      mstore\n        /* \"@openzeppelin/contracts/utils/cryptography/MerkleProof.sol\":9272:9276  0x40 */\n      0x40\n        /* \"@openzeppelin/contracts/utils/cryptography/MerkleProof.sol\":9266:9270  0x00 */\n      0x00\n        /* \"@openzeppelin/contracts/utils/cryptography/MerkleProof.sol\":9256:9277  keccak256(0x00, 0x40) */\n      keccak256\n        /* \"@openzeppelin/contracts/utils/cryptography/MerkleProof.sol\":9247:9277  value := keccak256(0x00, 0x40) */\n      swap1\n      pop\n        /* \"@openzeppelin/contracts/utils/cryptography/MerkleProof.sol\":9032:9293  function _efficientHash(bytes32 a, bytes32 b) private pure returns (bytes32 value) {... */\n      swap3\n      swap2\n      pop\n      pop\n      jump\t// out\n        /* \"#utility.yul\":7:82   */\n    tag_49:\n        /* \"#utility.yul\":40:46   */\n      0x00\n        /* \"#utility.yul\":73:75   */\n      0x40\n        /* \"#utility.yul\":67:76   */\n      mload\n        /* \"#utility.yul\":57:76   */\n      swap1\n      pop\n        /* \"#utility.yul\":7:82   */\n      swap1\n      jump\t// out\n        /* \"#utility.yul\":88:205   */\n    tag_50:\n        /* \"#utility.yul\":197:198   */\n      0x00\n        /* \"#utility.yul\":194:195   */\n      dup1\n        /* \"#utility.yul\":187:199   */\n      revert\n        /* \"#utility.yul\":211:328   */\n    tag_51:\n        /* \"#utility.yul\":320:321   */\n      0x00\n        /* \"#utility.yul\":317:318   */\n      dup1\n        /* \"#utility.yul\":310:322   */\n      revert\n        /* \"#utility.yul\":334:451   */\n    tag_52:\n        /* \"#utility.yul\":443:444   */\n      0x00\n        /* \"#utility.yul\":440:441   */\n      dup1\n        /* \"#utility.yul\":433:445   */\n      revert\n        /* \"#utility.yul\":457:559   */\n    tag_53:\n        /* \"#utility.yul\":498:504   */\n      0x00\n        /* \"#utility.yul\":549:551   */\n      0x1f\n        /* \"#utility.yul\":545:552   */\n      not\n        /* \"#utility.yul\":540:542   */\n      0x1f\n        /* \"#utility.yul\":533:538   */\n      dup4\n        /* \"#utility.yul\":529:543   */\n      add\n        /* \"#utility.yul\":525:553   */\n      and\n        /* \"#utility.yul\":515:553   */\n      swap1\n      pop\n        /* \"#utility.yul\":457:559   */\n      swap2\n      swap1\n      pop\n      jump\t// out\n        /* \"#utility.yul\":565:745   */\n    tag_54:\n        /* \"#utility.yul\":613:690   */\n      0x4e487b7100000000000000000000000000000000000000000000000000000000\n        /* \"#utility.yul\":610:611   */\n      0x00\n        /* \"#utility.yul\":603:691   */\n      mstore\n        /* \"#utility.yul\":710:714   */\n      0x41\n        /* \"#utility.yul\":707:708   */\n      0x04\n        /* \"#utility.yul\":700:715   */\n      mstore\n        /* \"#utility.yul\":734:738   */\n      0x24\n        /* \"#utility.yul\":731:732   */\n      0x00\n        /* \"#utility.yul\":724:739   */\n      revert\n        /* \"#utility.yul\":751:1032   */\n    tag_55:\n        /* \"#utility.yul\":834:861   */\n      tag_87\n        /* \"#utility.yul\":856:860   */\n      dup3\n        /* \"#utility.yul\":834:861   */\n      tag_53\n      jump\t// in\n    tag_87:\n        /* \"#utility.yul\":826:832   */\n      dup2\n        /* \"#utility.yul\":822:862   */\n      add\n        /* \"#utility.yul\":964:970   */\n      dup2\n        /* \"#utility.yul\":952:962   */\n      dup2\n        /* \"#utility.yul\":949:971   */\n      lt\n        /* \"#utility.yul\":928:946   */\n      0xffffffffffffffff\n        /* \"#utility.yul\":916:926   */\n      dup3\n        /* \"#utility.yul\":913:947   */\n      gt\n        /* \"#utility.yul\":910:972   */\n      or\n        /* \"#utility.yul\":907:995   */\n      iszero\n      tag_88\n      jumpi\n        /* \"#utility.yul\":975:993   */\n      tag_89\n      tag_54\n      jump\t// in\n    tag_89:\n        /* \"#utility.yul\":907:995   */\n    tag_88:\n        /* \"#utility.yul\":1015:1025   */\n      dup1\n        /* \"#utility.yul\":1011:1013   */\n      0x40\n        /* \"#utility.yul\":1004:1026   */\n      mstore\n        /* \"#utility.yul\":794:1032   */\n      pop\n        /* \"#utility.yul\":751:1032   */\n      pop\n      pop\n      jump\t// out\n        /* \"#utility.yul\":1038:1167   */\n    tag_56:\n        /* \"#utility.yul\":1072:1078   */\n      0x00\n        /* \"#utility.yul\":1099:1119   */\n      tag_91\n      tag_49\n      jump\t// in\n    tag_91:\n        /* \"#utility.yul\":1089:1119   */\n      swap1\n      pop\n        /* \"#utility.yul\":1128:1161   */\n      tag_92\n        /* \"#utility.yul\":1156:1160   */\n      dup3\n        /* \"#utility.yul\":1148:1154   */\n      dup3\n        /* \"#utility.yul\":1128:1161   */\n      tag_55\n      jump\t// in\n    tag_92:\n        /* \"#utility.yul\":1038:1167   */\n      swap2\n      swap1\n      pop\n      jump\t// out\n        /* \"#utility.yul\":1173:1484   */\n    tag_57:\n        /* \"#utility.yul\":1250:1254   */\n      0x00\n        /* \"#utility.yul\":1340:1358   */\n      0xffffffffffffffff\n        /* \"#utility.yul\":1332:1338   */\n      dup3\n        /* \"#utility.yul\":1329:1359   */\n      gt\n        /* \"#utility.yul\":1326:1382   */\n      iszero\n      tag_94\n      jumpi\n        /* \"#utility.yul\":1362:1380   */\n      tag_95\n      tag_54\n      jump\t// in\n    tag_95:\n        /* \"#utility.yul\":1326:1382   */\n    tag_94:\n        /* \"#utility.yul\":1412:1416   */\n      0x20\n        /* \"#utility.yul\":1404:1410   */\n      dup3\n        /* \"#utility.yul\":1400:1417   */\n      mul\n        /* \"#utility.yul\":1392:1417   */\n      swap1\n      pop\n        /* \"#utility.yul\":1472:1476   */\n      0x20\n        /* \"#utility.yul\":1466:1470   */\n      dup2\n        /* \"#utility.yul\":1462:1477   */\n      add\n        /* \"#utility.yul\":1454:1477   */\n      swap1\n      pop\n        /* \"#utility.yul\":1173:1484   */\n      swap2\n      swap1\n      pop\n      jump\t// out\n        /* \"#utility.yul\":1490:1607   */\n    tag_58:\n        /* \"#utility.yul\":1599:1600   */\n      0x00\n        /* \"#utility.yul\":1596:1597   */\n      dup1\n        /* \"#utility.yul\":1589:1601   */\n      revert\n        /* \"#utility.yul\":1613:1690   */\n    tag_59:\n        /* \"#utility.yul\":1650:1657   */\n      0x00\n        /* \"#utility.yul\":1679:1684   */\n      dup2\n        /* \"#utility.yul\":1668:1684   */\n      swap1\n      pop\n        /* \"#utility.yul\":1613:1690   */\n      swap2\n      swap1\n      pop\n      jump\t// out\n        /* \"#utility.yul\":1696:1818   */\n    tag_60:\n        /* \"#utility.yul\":1769:1793   */\n      tag_99\n        /* \"#utility.yul\":1787:1792   */\n      dup2\n        /* \"#utility.yul\":1769:1793   */\n      tag_59\n      jump\t// in\n    tag_99:\n        /* \"#utility.yul\":1762:1767   */\n      dup2\n        /* \"#utility.yul\":1759:1794   */\n      eq\n        /* \"#utility.yul\":1749:1812   */\n      tag_100\n      jumpi\n        /* \"#utility.yul\":1808:1809   */\n      0x00\n        /* \"#utility.yul\":1805:1806   */\n      dup1\n        /* \"#utility.yul\":1798:1810   */\n      revert\n        /* \"#utility.yul\":1749:1812   */\n    tag_100:\n        /* \"#utility.yul\":1696:1818   */\n      pop\n      jump\t// out\n        /* \"#utility.yul\":1824:1963   */\n    tag_61:\n        /* \"#utility.yul\":1870:1875   */\n      0x00\n        /* \"#utility.yul\":1908:1914   */\n      dup2\n        /* \"#utility.yul\":1895:1915   */\n      calldataload\n        /* \"#utility.yul\":1886:1915   */\n      swap1\n      pop\n        /* \"#utility.yul\":1924:1957   */\n      tag_102\n        /* \"#utility.yul\":1951:1956   */\n      dup2\n        /* \"#utility.yul\":1924:1957   */\n      tag_60\n      jump\t// in\n    tag_102:\n        /* \"#utility.yul\":1824:1963   */\n      swap3\n      swap2\n      pop\n      pop\n      jump\t// out\n        /* \"#utility.yul\":1986:2696   */\n    tag_62:\n        /* \"#utility.yul\":2082:2087   */\n      0x00\n        /* \"#utility.yul\":2107:2188   */\n      tag_104\n        /* \"#utility.yul\":2123:2187   */\n      tag_105\n        /* \"#utility.yul\":2180:2186   */\n      dup5\n        /* \"#utility.yul\":2123:2187   */\n      tag_57\n      jump\t// in\n    tag_105:\n        /* \"#utility.yul\":2107:2188   */\n      tag_56\n      jump\t// in\n    tag_104:\n        /* \"#utility.yul\":2098:2188   */\n      swap1\n      pop\n        /* \"#utility.yul\":2208:2213   */\n      dup1\n        /* \"#utility.yul\":2237:2243   */\n      dup4\n        /* \"#utility.yul\":2230:2235   */\n      dup3\n        /* \"#utility.yul\":2223:2244   */\n      mstore\n        /* \"#utility.yul\":2271:2275   */\n      0x20\n        /* \"#utility.yul\":2264:2269   */\n      dup3\n        /* \"#utility.yul\":2260:2276   */\n      add\n        /* \"#utility.yul\":2253:2276   */\n      swap1\n      pop\n        /* \"#utility.yul\":2324:2328   */\n      0x20\n        /* \"#utility.yul\":2316:2322   */\n      dup5\n        /* \"#utility.yul\":2312:2329   */\n      mul\n        /* \"#utility.yul\":2304:2310   */\n      dup4\n        /* \"#utility.yul\":2300:2330   */\n      add\n        /* \"#utility.yul\":2353:2356   */\n      dup6\n        /* \"#utility.yul\":2345:2351   */\n      dup2\n        /* \"#utility.yul\":2342:2357   */\n      gt\n        /* \"#utility.yul\":2339:2461   */\n      iszero\n      tag_106\n      jumpi\n        /* \"#utility.yul\":2372:2451   */\n      tag_107\n      tag_58\n      jump\t// in\n    tag_107:\n        /* \"#utility.yul\":2339:2461   */\n    tag_106:\n        /* \"#utility.yul\":2487:2493   */\n      dup4\n        /* \"#utility.yul\":2470:2690   */\n    tag_108:\n        /* \"#utility.yul\":2504:2510   */\n      dup2\n        /* \"#utility.yul\":2499:2502   */\n      dup2\n        /* \"#utility.yul\":2496:2511   */\n      lt\n        /* \"#utility.yul\":2470:2690   */\n      iszero\n      tag_110\n      jumpi\n        /* \"#utility.yul\":2579:2582   */\n      dup1\n        /* \"#utility.yul\":2608:2645   */\n      tag_111\n        /* \"#utility.yul\":2641:2644   */\n      dup9\n        /* \"#utility.yul\":2629:2639   */\n      dup3\n        /* \"#utility.yul\":2608:2645   */\n      tag_61\n      jump\t// in\n    tag_111:\n        /* \"#utility.yul\":2603:2606   */\n      dup5\n        /* \"#utility.yul\":2596:2646   */\n      mstore\n        /* \"#utility.yul\":2675:2679   */\n      0x20\n        /* \"#utility.yul\":2670:2673   */\n      dup5\n        /* \"#utility.yul\":2666:2680   */\n      add\n        /* \"#utility.yul\":2659:2680   */\n      swap4\n      pop\n        /* \"#utility.yul\":2546:2690   */\n      pop\n        /* \"#utility.yul\":2530:2534   */\n      0x20\n        /* \"#utility.yul\":2525:2528   */\n      dup2\n        /* \"#utility.yul\":2521:2535   */\n      add\n        /* \"#utility.yul\":2514:2535   */\n      swap1\n      pop\n        /* \"#utility.yul\":2470:2690   */\n      jump(tag_108)\n    tag_110:\n        /* \"#utility.yul\":2474:2495   */\n      pop\n        /* \"#utility.yul\":2088:2696   */\n      pop\n      pop\n        /* \"#utility.yul\":1986:2696   */\n      swap4\n      swap3\n      pop\n      pop\n      pop\n      jump\t// out\n        /* \"#utility.yul\":2719:3089   */\n    tag_63:\n        /* \"#utility.yul\":2790:2795   */\n      0x00\n        /* \"#utility.yul\":2839:2842   */\n      dup3\n        /* \"#utility.yul\":2832:2836   */\n      0x1f\n        /* \"#utility.yul\":2824:2830   */\n      dup4\n        /* \"#utility.yul\":2820:2837   */\n      add\n        /* \"#utility.yul\":2816:2843   */\n      slt\n        /* \"#utility.yul\":2806:2928   */\n      tag_113\n      jumpi\n        /* \"#utility.yul\":2847:2926   */\n      tag_114\n      tag_52\n      jump\t// in\n    tag_114:\n        /* \"#utility.yul\":2806:2928   */\n    tag_113:\n        /* \"#utility.yul\":2964:2970   */\n      dup2\n        /* \"#utility.yul\":2951:2971   */\n      calldataload\n        /* \"#utility.yul\":2989:3083   */\n      tag_115\n        /* \"#utility.yul\":3079:3082   */\n      dup5\n        /* \"#utility.yul\":3071:3077   */\n      dup3\n        /* \"#utility.yul\":3064:3068   */\n      0x20\n        /* \"#utility.yul\":3056:3062   */\n      dup7\n        /* \"#utility.yul\":3052:3069   */\n      add\n        /* \"#utility.yul\":2989:3083   */\n      tag_62\n      jump\t// in\n    tag_115:\n        /* \"#utility.yul\":2980:3083   */\n      swap2\n      pop\n        /* \"#utility.yul\":2796:3089   */\n      pop\n        /* \"#utility.yul\":2719:3089   */\n      swap3\n      swap2\n      pop\n      pop\n      jump\t// out\n        /* \"#utility.yul\":3095:3924   */\n    tag_7:\n        /* \"#utility.yul\":3197:3203   */\n      0x00\n        /* \"#utility.yul\":3205:3211   */\n      dup1\n        /* \"#utility.yul\":3213:3219   */\n      0x00\n        /* \"#utility.yul\":3262:3264   */\n      0x60\n        /* \"#utility.yul\":3250:3259   */\n      dup5\n        /* \"#utility.yul\":3241:3248   */\n      dup7\n        /* \"#utility.yul\":3237:3260   */\n      sub\n        /* \"#utility.yul\":3233:3265   */\n      slt\n        /* \"#utility.yul\":3230:3349   */\n      iszero\n      tag_117\n      jumpi\n        /* \"#utility.yul\":3268:3347   */\n      tag_118\n      tag_50\n      jump\t// in\n    tag_118:\n        /* \"#utility.yul\":3230:3349   */\n    tag_117:\n        /* \"#utility.yul\":3416:3417   */\n      0x00\n        /* \"#utility.yul\":3405:3414   */\n      dup5\n        /* \"#utility.yul\":3401:3418   */\n      add\n        /* \"#utility.yul\":3388:3419   */\n      calldataload\n        /* \"#utility.yul\":3446:3464   */\n      0xffffffffffffffff\n        /* \"#utility.yul\":3438:3444   */\n      dup2\n        /* \"#utility.yul\":3435:3465   */\n      gt\n        /* \"#utility.yul\":3432:3549   */\n      iszero\n      tag_119\n      jumpi\n        /* \"#utility.yul\":3468:3547   */\n      tag_120\n      tag_51\n      jump\t// in\n    tag_120:\n        /* \"#utility.yul\":3432:3549   */\n    tag_119:\n        /* \"#utility.yul\":3573:3651   */\n      tag_121\n        /* \"#utility.yul\":3643:3650   */\n      dup7\n        /* \"#utility.yul\":3634:3640   */\n      dup3\n        /* \"#utility.yul\":3623:3632   */\n      dup8\n        /* \"#utility.yul\":3619:3641   */\n      add\n        /* \"#utility.yul\":3573:3651   */\n      tag_63\n      jump\t// in\n    tag_121:\n        /* \"#utility.yul\":3563:3651   */\n      swap4\n      pop\n        /* \"#utility.yul\":3359:3661   */\n      pop\n        /* \"#utility.yul\":3700:3702   */\n      0x20\n        /* \"#utility.yul\":3726:3779   */\n      tag_122\n        /* \"#utility.yul\":3771:3778   */\n      dup7\n        /* \"#utility.yul\":3762:3768   */\n      dup3\n        /* \"#utility.yul\":3751:3760   */\n      dup8\n        /* \"#utility.yul\":3747:3769   */\n      add\n        /* \"#utility.yul\":3726:3779   */\n      tag_61\n      jump\t// in\n    tag_122:\n        /* \"#utility.yul\":3716:3779   */\n      swap3\n      pop\n        /* \"#utility.yul\":3671:3789   */\n      pop\n        /* \"#utility.yul\":3828:3830   */\n      0x40\n        /* \"#utility.yul\":3854:3907   */\n      tag_123\n        /* \"#utility.yul\":3899:3906   */\n      dup7\n        /* \"#utility.yul\":3890:3896   */\n      dup3\n        /* \"#utility.yul\":3879:3888   */\n      dup8\n        /* \"#utility.yul\":3875:3897   */\n      add\n        /* \"#utility.yul\":3854:3907   */\n      tag_61\n      jump\t// in\n    tag_123:\n        /* \"#utility.yul\":3844:3907   */\n      swap2\n      pop\n        /* \"#utility.yul\":3799:3917   */\n      pop\n        /* \"#utility.yul\":3095:3924   */\n      swap3\n      pop\n      swap3\n      pop\n      swap3\n      jump\t// out\n        /* \"#utility.yul\":3930:4020   */\n    tag_64:\n        /* \"#utility.yul\":3964:3971   */\n      0x00\n        /* \"#utility.yul\":4007:4012   */\n      dup2\n        /* \"#utility.yul\":4000:4013   */\n      iszero\n        /* \"#utility.yul\":3993:4014   */\n      iszero\n        /* \"#utility.yul\":3982:4014   */\n      swap1\n      pop\n        /* \"#utility.yul\":3930:4020   */\n      swap2\n      swap1\n      pop\n      jump\t// out\n        /* \"#utility.yul\":4026:4135   */\n    tag_65:\n        /* \"#utility.yul\":4107:4128   */\n      tag_126\n        /* \"#utility.yul\":4122:4127   */\n      dup2\n        /* \"#utility.yul\":4107:4128   */\n      tag_64\n      jump\t// in\n    tag_126:\n        /* \"#utility.yul\":4102:4105   */\n      dup3\n        /* \"#utility.yul\":4095:4129   */\n      mstore\n        /* \"#utility.yul\":4026:4135   */\n      pop\n      pop\n      jump\t// out\n        /* \"#utility.yul\":4141:4351   */\n    tag_10:\n        /* \"#utility.yul\":4228:4232   */\n      0x00\n        /* \"#utility.yul\":4266:4268   */\n      0x20\n        /* \"#utility.yul\":4255:4264   */\n      dup3\n        /* \"#utility.yul\":4251:4269   */\n      add\n        /* \"#utility.yul\":4243:4269   */\n      swap1\n      pop\n        /* \"#utility.yul\":4279:4344   */\n      tag_128\n        /* \"#utility.yul\":4341:4342   */\n      0x00\n        /* \"#utility.yul\":4330:4339   */\n      dup4\n        /* \"#utility.yul\":4326:4343   */\n      add\n        /* \"#utility.yul\":4317:4323   */\n      dup5\n        /* \"#utility.yul\":4279:4344   */\n      tag_65\n      jump\t// in\n    tag_128:\n        /* \"#utility.yul\":4141:4351   */\n      swap3\n      swap2\n      pop\n      pop\n      jump\t// out\n        /* \"#utility.yul\":4357:4896   */\n    tag_13:\n        /* \"#utility.yul\":4441:4447   */\n      0x00\n        /* \"#utility.yul\":4490:4492   */\n      0x20\n        /* \"#utility.yul\":4478:4487   */\n      dup3\n        /* \"#utility.yul\":4469:4476   */\n      dup5\n        /* \"#utility.yul\":4465:4488   */\n      sub\n        /* \"#utility.yul\":4461:4493   */\n      slt\n        /* \"#utility.yul\":4458:4577   */\n      iszero\n      tag_130\n      jumpi\n        /* \"#utility.yul\":4496:4575   */\n      tag_131\n      tag_50\n      jump\t// in\n    tag_131:\n        /* \"#utility.yul\":4458:4577   */\n    tag_130:\n        /* \"#utility.yul\":4644:4645   */\n      0x00\n        /* \"#utility.yul\":4633:4642   */\n      dup3\n        /* \"#utility.yul\":4629:4646   */\n      add\n        /* \"#utility.yul\":4616:4647   */\n      calldataload\n        /* \"#utility.yul\":4674:4692   */\n      0xffffffffffffffff\n        /* \"#utility.yul\":4666:4672   */\n      dup2\n        /* \"#utility.yul\":4663:4693   */\n      gt\n        /* \"#utility.yul\":4660:4777   */\n      iszero\n      tag_132\n      jumpi\n        /* \"#utility.yul\":4696:4775   */\n      tag_133\n      tag_51\n      jump\t// in\n    tag_133:\n        /* \"#utility.yul\":4660:4777   */\n    tag_132:\n        /* \"#utility.yul\":4801:4879   */\n      tag_134\n        /* \"#utility.yul\":4871:4878   */\n      dup5\n        /* \"#utility.yul\":4862:4868   */\n      dup3\n        /* \"#utility.yul\":4851:4860   */\n      dup6\n        /* \"#utility.yul\":4847:4869   */\n      add\n        /* \"#utility.yul\":4801:4879   */\n      tag_63\n      jump\t// in\n    tag_134:\n        /* \"#utility.yul\":4791:4879   */\n      swap2\n      pop\n        /* \"#utility.yul\":4587:4889   */\n      pop\n        /* \"#utility.yul\":4357:4896   */\n      swap3\n      swap2\n      pop\n      pop\n      jump\t// out\n        /* \"#utility.yul\":4902:5071   */\n    tag_66:\n        /* \"#utility.yul\":4986:4997   */\n      0x00\n        /* \"#utility.yul\":5020:5026   */\n      dup3\n        /* \"#utility.yul\":5015:5018   */\n      dup3\n        /* \"#utility.yul\":5008:5027   */\n      mstore\n        /* \"#utility.yul\":5060:5064   */\n      0x20\n        /* \"#utility.yul\":5055:5058   */\n      dup3\n        /* \"#utility.yul\":5051:5065   */\n      add\n        /* \"#utility.yul\":5036:5065   */\n      swap1\n      pop\n        /* \"#utility.yul\":4902:5071   */\n      swap3\n      swap2\n      pop\n      pop\n      jump\t// out\n        /* \"#utility.yul\":5077:5250   */\n    tag_67:\n        /* \"#utility.yul\":5217:5242   */\n      0x596120436c61696d656173746520707373206361757361000000000000000000\n        /* \"#utility.yul\":5213:5214   */\n      0x00\n        /* \"#utility.yul\":5205:5211   */\n      dup3\n        /* \"#utility.yul\":5201:5215   */\n      add\n        /* \"#utility.yul\":5194:5243   */\n      mstore\n        /* \"#utility.yul\":5077:5250   */\n      pop\n      jump\t// out\n        /* \"#utility.yul\":5256:5622   */\n    tag_68:\n        /* \"#utility.yul\":5398:5401   */\n      0x00\n        /* \"#utility.yul\":5419:5486   */\n      tag_138\n        /* \"#utility.yul\":5483:5485   */\n      0x17\n        /* \"#utility.yul\":5478:5481   */\n      dup4\n        /* \"#utility.yul\":5419:5486   */\n      tag_66\n      jump\t// in\n    tag_138:\n        /* \"#utility.yul\":5412:5486   */\n      swap2\n      pop\n        /* \"#utility.yul\":5495:5588   */\n      tag_139\n        /* \"#utility.yul\":5584:5587   */\n      dup3\n        /* \"#utility.yul\":5495:5588   */\n      tag_67\n      jump\t// in\n    tag_139:\n        /* \"#utility.yul\":5613:5615   */\n      0x20\n        /* \"#utility.yul\":5608:5611   */\n      dup3\n        /* \"#utility.yul\":5604:5616   */\n      add\n        /* \"#utility.yul\":5597:5616   */\n      swap1\n      pop\n        /* \"#utility.yul\":5256:5622   */\n      swap2\n      swap1\n      pop\n      jump\t// out\n        /* \"#utility.yul\":5628:6047   */\n    tag_21:\n        /* \"#utility.yul\":5794:5798   */\n      0x00\n        /* \"#utility.yul\":5832:5834   */\n      0x20\n        /* \"#utility.yul\":5821:5830   */\n      dup3\n        /* \"#utility.yul\":5817:5835   */\n      add\n        /* \"#utility.yul\":5809:5835   */\n      swap1\n      pop\n        /* \"#utility.yul\":5881:5890   */\n      dup2\n        /* \"#utility.yul\":5875:5879   */\n      dup2\n        /* \"#utility.yul\":5871:5891   */\n      sub\n        /* \"#utility.yul\":5867:5868   */\n      0x00\n        /* \"#utility.yul\":5856:5865   */\n      dup4\n        /* \"#utility.yul\":5852:5869   */\n      add\n        /* \"#utility.yul\":5845:5892   */\n      mstore\n        /* \"#utility.yul\":5909:6040   */\n      tag_141\n        /* \"#utility.yul\":6035:6039   */\n      dup2\n        /* \"#utility.yul\":5909:6040   */\n      tag_68\n      jump\t// in\n    tag_141:\n        /* \"#utility.yul\":5901:6040   */\n      swap1\n      pop\n        /* \"#utility.yul\":5628:6047   */\n      swap2\n      swap1\n      pop\n      jump\t// out\n        /* \"#utility.yul\":6053:6179   */\n    tag_69:\n        /* \"#utility.yul\":6090:6097   */\n      0x00\n        /* \"#utility.yul\":6130:6172   */\n      0xffffffffffffffffffffffffffffffffffffffff\n        /* \"#utility.yul\":6123:6128   */\n      dup3\n        /* \"#utility.yul\":6119:6173   */\n      and\n        /* \"#utility.yul\":6108:6173   */\n      swap1\n      pop\n        /* \"#utility.yul\":6053:6179   */\n      swap2\n      swap1\n      pop\n      jump\t// out\n        /* \"#utility.yul\":6185:6281   */\n    tag_70:\n        /* \"#utility.yul\":6222:6229   */\n      0x00\n        /* \"#utility.yul\":6251:6275   */\n      tag_144\n        /* \"#utility.yul\":6269:6274   */\n      dup3\n        /* \"#utility.yul\":6251:6275   */\n      tag_69\n      jump\t// in\n    tag_144:\n        /* \"#utility.yul\":6240:6275   */\n      swap1\n      pop\n        /* \"#utility.yul\":6185:6281   */\n      swap2\n      swap1\n      pop\n      jump\t// out\n        /* \"#utility.yul\":6287:6381   */\n    tag_71:\n        /* \"#utility.yul\":6320:6328   */\n      0x00\n        /* \"#utility.yul\":6368:6373   */\n      dup2\n        /* \"#utility.yul\":6364:6366   */\n      0x60\n        /* \"#utility.yul\":6360:6374   */\n      shl\n        /* \"#utility.yul\":6339:6374   */\n      swap1\n      pop\n        /* \"#utility.yul\":6287:6381   */\n      swap2\n      swap1\n      pop\n      jump\t// out\n        /* \"#utility.yul\":6387:6481   */\n    tag_72:\n        /* \"#utility.yul\":6426:6433   */\n      0x00\n        /* \"#utility.yul\":6455:6475   */\n      tag_147\n        /* \"#utility.yul\":6469:6474   */\n      dup3\n        /* \"#utility.yul\":6455:6475   */\n      tag_71\n      jump\t// in\n    tag_147:\n        /* \"#utility.yul\":6444:6475   */\n      swap1\n      pop\n        /* \"#utility.yul\":6387:6481   */\n      swap2\n      swap1\n      pop\n      jump\t// out\n        /* \"#utility.yul\":6487:6587   */\n    tag_73:\n        /* \"#utility.yul\":6526:6533   */\n      0x00\n        /* \"#utility.yul\":6555:6581   */\n      tag_149\n        /* \"#utility.yul\":6575:6580   */\n      dup3\n        /* \"#utility.yul\":6555:6581   */\n      tag_72\n      jump\t// in\n    tag_149:\n        /* \"#utility.yul\":6544:6581   */\n      swap1\n      pop\n        /* \"#utility.yul\":6487:6587   */\n      swap2\n      swap1\n      pop\n      jump\t// out\n        /* \"#utility.yul\":6593:6750   */\n    tag_74:\n        /* \"#utility.yul\":6698:6743   */\n      tag_151\n        /* \"#utility.yul\":6718:6742   */\n      tag_152\n        /* \"#utility.yul\":6736:6741   */\n      dup3\n        /* \"#utility.yul\":6718:6742   */\n      tag_70\n      jump\t// in\n    tag_152:\n        /* \"#utility.yul\":6698:6743   */\n      tag_73\n      jump\t// in\n    tag_151:\n        /* \"#utility.yul\":6693:6696   */\n      dup3\n        /* \"#utility.yul\":6686:6744   */\n      mstore\n        /* \"#utility.yul\":6593:6750   */\n      pop\n      pop\n      jump\t// out\n        /* \"#utility.yul\":6756:7012   */\n    tag_23:\n        /* \"#utility.yul\":6868:6871   */\n      0x00\n        /* \"#utility.yul\":6883:6958   */\n      tag_154\n        /* \"#utility.yul\":6954:6957   */\n      dup3\n        /* \"#utility.yul\":6945:6951   */\n      dup5\n        /* \"#utility.yul\":6883:6958   */\n      tag_74\n      jump\t// in\n    tag_154:\n        /* \"#utility.yul\":6983:6985   */\n      0x14\n        /* \"#utility.yul\":6978:6981   */\n      dup3\n        /* \"#utility.yul\":6974:6986   */\n      add\n        /* \"#utility.yul\":6967:6986   */\n      swap2\n      pop\n        /* \"#utility.yul\":7003:7006   */\n      dup2\n        /* \"#utility.yul\":6996:7006   */\n      swap1\n      pop\n        /* \"#utility.yul\":6756:7012   */\n      swap3\n      swap2\n      pop\n      pop\n      jump\t// out\n        /* \"#utility.yul\":7018:7192   */\n    tag_75:\n        /* \"#utility.yul\":7158:7184   */\n      0x4e6f20657374617320656e206c612077686974656c6973740000000000000000\n        /* \"#utility.yul\":7154:7155   */\n      0x00\n        /* \"#utility.yul\":7146:7152   */\n      dup3\n        /* \"#utility.yul\":7142:7156   */\n      add\n        /* \"#utility.yul\":7135:7185   */\n      mstore\n        /* \"#utility.yul\":7018:7192   */\n      pop\n      jump\t// out\n        /* \"#utility.yul\":7198:7564   */\n    tag_76:\n        /* \"#utility.yul\":7340:7343   */\n      0x00\n        /* \"#utility.yul\":7361:7428   */\n      tag_157\n        /* \"#utility.yul\":7425:7427   */\n      0x18\n        /* \"#utility.yul\":7420:7423   */\n      dup4\n        /* \"#utility.yul\":7361:7428   */\n      tag_66\n      jump\t// in\n    tag_157:\n        /* \"#utility.yul\":7354:7428   */\n      swap2\n      pop\n        /* \"#utility.yul\":7437:7530   */\n      tag_158\n        /* \"#utility.yul\":7526:7529   */\n      dup3\n        /* \"#utility.yul\":7437:7530   */\n      tag_75\n      jump\t// in\n    tag_158:\n        /* \"#utility.yul\":7555:7557   */\n      0x20\n        /* \"#utility.yul\":7550:7553   */\n      dup3\n        /* \"#utility.yul\":7546:7558   */\n      add\n        /* \"#utility.yul\":7539:7558   */\n      swap1\n      pop\n        /* \"#utility.yul\":7198:7564   */\n      swap2\n      swap1\n      pop\n      jump\t// out\n        /* \"#utility.yul\":7570:7989   */\n    tag_27:\n        /* \"#utility.yul\":7736:7740   */\n      0x00\n        /* \"#utility.yul\":7774:7776   */\n      0x20\n        /* \"#utility.yul\":7763:7772   */\n      dup3\n        /* \"#utility.yul\":7759:7777   */\n      add\n        /* \"#utility.yul\":7751:7777   */\n      swap1\n      pop\n        /* \"#utility.yul\":7823:7832   */\n      dup2\n        /* \"#utility.yul\":7817:7821   */\n      dup2\n        /* \"#utility.yul\":7813:7833   */\n      sub\n        /* \"#utility.yul\":7809:7810   */\n      0x00\n        /* \"#utility.yul\":7798:7807   */\n      dup4\n        /* \"#utility.yul\":7794:7811   */\n      add\n        /* \"#utility.yul\":7787:7834   */\n      mstore\n        /* \"#utility.yul\":7851:7982   */\n      tag_160\n        /* \"#utility.yul\":7977:7981   */\n      dup2\n        /* \"#utility.yul\":7851:7982   */\n      tag_76\n      jump\t// in\n    tag_160:\n        /* \"#utility.yul\":7843:7982   */\n      swap1\n      pop\n        /* \"#utility.yul\":7570:7989   */\n      swap2\n      swap1\n      pop\n      jump\t// out\n        /* \"#utility.yul\":7995:8175   */\n    tag_38:\n        /* \"#utility.yul\":8043:8120   */\n      0x4e487b7100000000000000000000000000000000000000000000000000000000\n        /* \"#utility.yul\":8040:8041   */\n      0x00\n        /* \"#utility.yul\":8033:8121   */\n      mstore\n        /* \"#utility.yul\":8140:8144   */\n      0x32\n        /* \"#utility.yul\":8137:8138   */\n      0x04\n        /* \"#utility.yul\":8130:8145   */\n      mstore\n        /* \"#utility.yul\":8164:8168   */\n      0x24\n        /* \"#utility.yul\":8161:8162   */\n      0x00\n        /* \"#utility.yul\":8154:8169   */\n      revert\n        /* \"#utility.yul\":8181:8361   */\n    tag_77:\n        /* \"#utility.yul\":8229:8306   */\n      0x4e487b7100000000000000000000000000000000000000000000000000000000\n        /* \"#utility.yul\":8226:8227   */\n      0x00\n        /* \"#utility.yul\":8219:8307   */\n      mstore\n        /* \"#utility.yul\":8326:8330   */\n      0x11\n        /* \"#utility.yul\":8323:8324   */\n      0x04\n        /* \"#utility.yul\":8316:8331   */\n      mstore\n        /* \"#utility.yul\":8350:8354   */\n      0x24\n        /* \"#utility.yul\":8347:8348   */\n      0x00\n        /* \"#utility.yul\":8340:8355   */\n      revert\n        /* \"#utility.yul\":8367:8444   */\n    tag_78:\n        /* \"#utility.yul\":8404:8411   */\n      0x00\n        /* \"#utility.yul\":8433:8438   */\n      dup2\n        /* \"#utility.yul\":8422:8438   */\n      swap1\n      pop\n        /* \"#utility.yul\":8367:8444   */\n      swap2\n      swap1\n      pop\n      jump\t// out\n        /* \"#utility.yul\":8450:8683   */\n    tag_41:\n        /* \"#utility.yul\":8489:8492   */\n      0x00\n        /* \"#utility.yul\":8512:8536   */\n      tag_165\n        /* \"#utility.yul\":8530:8535   */\n      dup3\n        /* \"#utility.yul\":8512:8536   */\n      tag_78\n      jump\t// in\n    tag_165:\n        /* \"#utility.yul\":8503:8536   */\n      swap2\n      pop\n        /* \"#utility.yul\":8558:8624   */\n      0xffffffffffffffffffffffffffffffffffffffffffffffffffffffffffffffff\n        /* \"#utility.yul\":8551:8556   */\n      dup3\n        /* \"#utility.yul\":8548:8625   */\n      sub\n        /* \"#utility.yul\":8545:8648   */\n      tag_166\n      jumpi\n        /* \"#utility.yul\":8628:8646   */\n      tag_167\n      tag_77\n      jump\t// in\n    tag_167:\n        /* \"#utility.yul\":8545:8648   */\n    tag_166:\n        /* \"#utility.yul\":8675:8676   */\n      0x01\n        /* \"#utility.yul\":8668:8673   */\n      dup3\n        /* \"#utility.yul\":8664:8677   */\n      add\n        /* \"#utility.yul\":8657:8677   */\n      swap1\n      pop\n        /* \"#utility.yul\":8450:8683   */\n      swap2\n      swap1\n      pop\n      jump\t// out\n\n    auxdata: 0xa2646970667358221220c54ce8f345f6d3b54f0b7ba5f4ec48d0945cce2922ed4a02beab6cee064b521f64736f6c63430008110033\n}\n",
				"bytecode": {
					"linkReferences": {},
					"object": "608060405234801561001057600080fd5b506040516108563803806108568339818101604052810190610032919061007a565b80600081905550506100a7565b600080fd5b6000819050919050565b61005781610044565b811461006257600080fd5b50565b6000815190506100748161004e565b92915050565b6000602082840312156100905761008f61003f565b5b600061009e84828501610065565b91505092915050565b6107a0806100b66000396000f3fe608060405234801561001057600080fd5b50600436106100365760003560e01c80635a9a49c71461003b578063b391c5081461006b575b600080fd5b6100556004803603810190610050919061044e565b610087565b60405161006291906104d8565b60405180910390f35b610085600480360381019061008091906104f3565b61009d565b005b60006100948484846101fc565b90509392505050565b600160003373ffffffffffffffffffffffffffffffffffffffff1673ffffffffffffffffffffffffffffffffffffffff16815260200190815260200160002060009054906101000a900460ff161561012a576040517f08c379a000000000000000000000000000000000000000000000000000000000815260040161012190610599565b60405180910390fd5b60003360405160200161013d9190610633565b60405160208183030381529060405280519060200120905061016282600054836101fc565b6101a1576040517f08c379a00000000000000000000000000000000000000000000000000000000081526004016101989061069a565b60405180910390fd5b60018060003373ffffffffffffffffffffffffffffffffffffffff1673ffffffffffffffffffffffffffffffffffffffff16815260200190815260200160002060006101000a81548160ff0219169083151502179055505050565b6000826102098584610213565b1490509392505050565b60008082905060005b845181101561025e576102498286838151811061023c5761023b6106ba565b5b6020026020010151610269565b9150808061025690610722565b91505061021c565b508091505092915050565b60008183106102815761027c8284610294565b61028c565b61028b8383610294565b5b905092915050565b600082600052816020526040600020905092915050565b6000604051905090565b600080fd5b600080fd5b600080fd5b6000601f19601f8301169050919050565b7f4e487b7100000000000000000000000000000000000000000000000000000000600052604160045260246000fd5b61030d826102c4565b810181811067ffffffffffffffff8211171561032c5761032b6102d5565b5b80604052505050565b600061033f6102ab565b905061034b8282610304565b919050565b600067ffffffffffffffff82111561036b5761036a6102d5565b5b602082029050602081019050919050565b600080fd5b6000819050919050565b61039481610381565b811461039f57600080fd5b50565b6000813590506103b18161038b565b92915050565b60006103ca6103c584610350565b610335565b905080838252602082019050602084028301858111156103ed576103ec61037c565b5b835b81811015610416578061040288826103a2565b8452602084019350506020810190506103ef565b5050509392505050565b600082601f830112610435576104346102bf565b5b81356104458482602086016103b7565b91505092915050565b600080600060608486031215610467576104666102b5565b5b600084013567ffffffffffffffff811115610485576104846102ba565b5b61049186828701610420565b93505060206104a2868287016103a2565b92505060406104b3868287016103a2565b9150509250925092565b60008115159050919050565b6104d2816104bd565b82525050565b60006020820190506104ed60008301846104c9565b92915050565b600060208284031215610509576105086102b5565b5b600082013567ffffffffffffffff811115610527576105266102ba565b5b61053384828501610420565b91505092915050565b600082825260208201905092915050565b7f596120436c61696d656173746520707373206361757361000000000000000000600082015250565b600061058360178361053c565b915061058e8261054d565b602082019050919050565b600060208201905081810360008301526105b281610576565b9050919050565b600073ffffffffffffffffffffffffffffffffffffffff82169050919050565b60006105e4826105b9565b9050919050565b60008160601b9050919050565b6000610603826105eb565b9050919050565b6000610615826105f8565b9050919050565b61062d610628826105d9565b61060a565b82525050565b600061063f828461061c565b60148201915081905092915050565b7f4e6f20657374617320656e206c612077686974656c6973740000000000000000600082015250565b600061068460188361053c565b915061068f8261064e565b602082019050919050565b600060208201905081810360008301526106b381610677565b9050919050565b7f4e487b7100000000000000000000000000000000000000000000000000000000600052603260045260246000fd5b7f4e487b7100000000000000000000000000000000000000000000000000000000600052601160045260246000fd5b6000819050919050565b600061072d82610718565b91507fffffffffffffffffffffffffffffffffffffffffffffffffffffffffffffffff820361075f5761075e6106e9565b5b60018201905091905056fea2646970667358221220c54ce8f345f6d3b54f0b7ba5f4ec48d0945cce2922ed4a02beab6cee064b521f64736f6c63430008110033",
					"opcodes": "PUSH1 0x80 PUSH1 0x40 MSTORE CALLVALUE DUP1 ISZERO PUSH2 0x10 JUMPI PUSH1 0x0 DUP1 REVERT JUMPDEST POP PUSH1 0x40 MLOAD PUSH2 0x856 CODESIZE SUB DUP1 PUSH2 0x856 DUP4 CODECOPY DUP2 DUP2 ADD PUSH1 0x40 MSTORE DUP2 ADD SWAP1 PUSH2 0x32 SWAP2 SWAP1 PUSH2 0x7A JUMP JUMPDEST DUP1 PUSH1 0x0 DUP2 SWAP1 SSTORE POP POP PUSH2 0xA7 JUMP JUMPDEST PUSH1 0x0 DUP1 REVERT JUMPDEST PUSH1 0x0 DUP2 SWAP1 POP SWAP2 SWAP1 POP JUMP JUMPDEST PUSH2 0x57 DUP2 PUSH2 0x44 JUMP JUMPDEST DUP2 EQ PUSH2 0x62 JUMPI PUSH1 0x0 DUP1 REVERT JUMPDEST POP JUMP JUMPDEST PUSH1 0x0 DUP2 MLOAD SWAP1 POP PUSH2 0x74 DUP2 PUSH2 0x4E JUMP JUMPDEST SWAP3 SWAP2 POP POP JUMP JUMPDEST PUSH1 0x0 PUSH1 0x20 DUP3 DUP5 SUB SLT ISZERO PUSH2 0x90 JUMPI PUSH2 0x8F PUSH2 0x3F JUMP JUMPDEST JUMPDEST PUSH1 0x0 PUSH2 0x9E DUP5 DUP3 DUP6 ADD PUSH2 0x65 JUMP JUMPDEST SWAP2 POP POP SWAP3 SWAP2 POP POP JUMP JUMPDEST PUSH2 0x7A0 DUP1 PUSH2 0xB6 PUSH1 0x0 CODECOPY PUSH1 0x0 RETURN INVALID PUSH1 0x80 PUSH1 0x40 MSTORE CALLVALUE DUP1 ISZERO PUSH2 0x10 JUMPI PUSH1 0x0 DUP1 REVERT JUMPDEST POP PUSH1 0x4 CALLDATASIZE LT PUSH2 0x36 JUMPI PUSH1 0x0 CALLDATALOAD PUSH1 0xE0 SHR DUP1 PUSH4 0x5A9A49C7 EQ PUSH2 0x3B JUMPI DUP1 PUSH4 0xB391C508 EQ PUSH2 0x6B JUMPI JUMPDEST PUSH1 0x0 DUP1 REVERT JUMPDEST PUSH2 0x55 PUSH1 0x4 DUP1 CALLDATASIZE SUB DUP2 ADD SWAP1 PUSH2 0x50 SWAP2 SWAP1 PUSH2 0x44E JUMP JUMPDEST PUSH2 0x87 JUMP JUMPDEST PUSH1 0x40 MLOAD PUSH2 0x62 SWAP2 SWAP1 PUSH2 0x4D8 JUMP JUMPDEST PUSH1 0x40 MLOAD DUP1 SWAP2 SUB SWAP1 RETURN JUMPDEST PUSH2 0x85 PUSH1 0x4 DUP1 CALLDATASIZE SUB DUP2 ADD SWAP1 PUSH2 0x80 SWAP2 SWAP1 PUSH2 0x4F3 JUMP JUMPDEST PUSH2 0x9D JUMP JUMPDEST STOP JUMPDEST PUSH1 0x0 PUSH2 0x94 DUP5 DUP5 DUP5 PUSH2 0x1FC JUMP JUMPDEST SWAP1 POP SWAP4 SWAP3 POP POP POP JUMP JUMPDEST PUSH1 0x1 PUSH1 0x0 CALLER PUSH20 0xFFFFFFFFFFFFFFFFFFFFFFFFFFFFFFFFFFFFFFFF AND PUSH20 0xFFFFFFFFFFFFFFFFFFFFFFFFFFFFFFFFFFFFFFFF AND DUP2 MSTORE PUSH1 0x20 ADD SWAP1 DUP2 MSTORE PUSH1 0x20 ADD PUSH1 0x0 KECCAK256 PUSH1 0x0 SWAP1 SLOAD SWAP1 PUSH2 0x100 EXP SWAP1 DIV PUSH1 0xFF AND ISZERO PUSH2 0x12A JUMPI PUSH1 0x40 MLOAD PUSH32 0x8C379A000000000000000000000000000000000000000000000000000000000 DUP2 MSTORE PUSH1 0x4 ADD PUSH2 0x121 SWAP1 PUSH2 0x599 JUMP JUMPDEST PUSH1 0x40 MLOAD DUP1 SWAP2 SUB SWAP1 REVERT JUMPDEST PUSH1 0x0 CALLER PUSH1 0x40 MLOAD PUSH1 0x20 ADD PUSH2 0x13D SWAP2 SWAP1 PUSH2 0x633 JUMP JUMPDEST PUSH1 0x40 MLOAD PUSH1 0x20 DUP2 DUP4 SUB SUB DUP2 MSTORE SWAP1 PUSH1 0x40 MSTORE DUP1 MLOAD SWAP1 PUSH1 0x20 ADD KECCAK256 SWAP1 POP PUSH2 0x162 DUP3 PUSH1 0x0 SLOAD DUP4 PUSH2 0x1FC JUMP JUMPDEST PUSH2 0x1A1 JUMPI PUSH1 0x40 MLOAD PUSH32 0x8C379A000000000000000000000000000000000000000000000000000000000 DUP2 MSTORE PUSH1 0x4 ADD PUSH2 0x198 SWAP1 PUSH2 0x69A JUMP JUMPDEST PUSH1 0x40 MLOAD DUP1 SWAP2 SUB SWAP1 REVERT JUMPDEST PUSH1 0x1 DUP1 PUSH1 0x0 CALLER PUSH20 0xFFFFFFFFFFFFFFFFFFFFFFFFFFFFFFFFFFFFFFFF AND PUSH20 0xFFFFFFFFFFFFFFFFFFFFFFFFFFFFFFFFFFFFFFFF AND DUP2 MSTORE PUSH1 0x20 ADD SWAP1 DUP2 MSTORE PUSH1 0x20 ADD PUSH1 0x0 KECCAK256 PUSH1 0x0 PUSH2 0x100 EXP DUP2 SLOAD DUP2 PUSH1 0xFF MUL NOT AND SWAP1 DUP4 ISZERO ISZERO MUL OR SWAP1 SSTORE POP POP POP JUMP JUMPDEST PUSH1 0x0 DUP3 PUSH2 0x209 DUP6 DUP5 PUSH2 0x213 JUMP JUMPDEST EQ SWAP1 POP SWAP4 SWAP3 POP POP POP JUMP JUMPDEST PUSH1 0x0 DUP1 DUP3 SWAP1 POP PUSH1 0x0 JUMPDEST DUP5 MLOAD DUP2 LT ISZERO PUSH2 0x25E JUMPI PUSH2 0x249 DUP3 DUP7 DUP4 DUP2 MLOAD DUP2 LT PUSH2 0x23C JUMPI PUSH2 0x23B PUSH2 0x6BA JUMP JUMPDEST JUMPDEST PUSH1 0x20 MUL PUSH1 0x20 ADD ADD MLOAD PUSH2 0x269 JUMP JUMPDEST SWAP2 POP DUP1 DUP1 PUSH2 0x256 SWAP1 PUSH2 0x722 JUMP JUMPDEST SWAP2 POP POP PUSH2 0x21C JUMP JUMPDEST POP DUP1 SWAP2 POP POP SWAP3 SWAP2 POP POP JUMP JUMPDEST PUSH1 0x0 DUP2 DUP4 LT PUSH2 0x281 JUMPI PUSH2 0x27C DUP3 DUP5 PUSH2 0x294 JUMP JUMPDEST PUSH2 0x28C JUMP JUMPDEST PUSH2 0x28B DUP4 DUP4 PUSH2 0x294 JUMP JUMPDEST JUMPDEST SWAP1 POP SWAP3 SWAP2 POP POP JUMP JUMPDEST PUSH1 0x0 DUP3 PUSH1 0x0 MSTORE DUP2 PUSH1 0x20 MSTORE PUSH1 0x40 PUSH1 0x0 KECCAK256 SWAP1 POP SWAP3 SWAP2 POP POP JUMP JUMPDEST PUSH1 0x0 PUSH1 0x40 MLOAD SWAP1 POP SWAP1 JUMP JUMPDEST PUSH1 0x0 DUP1 REVERT JUMPDEST PUSH1 0x0 DUP1 REVERT JUMPDEST PUSH1 0x0 DUP1 REVERT JUMPDEST PUSH1 0x0 PUSH1 0x1F NOT PUSH1 0x1F DUP4 ADD AND SWAP1 POP SWAP2 SWAP1 POP JUMP JUMPDEST PUSH32 0x4E487B7100000000000000000000000000000000000000000000000000000000 PUSH1 0x0 MSTORE PUSH1 0x41 PUSH1 0x4 MSTORE PUSH1 0x24 PUSH1 0x0 REVERT JUMPDEST PUSH2 0x30D DUP3 PUSH2 0x2C4 JUMP JUMPDEST DUP2 ADD DUP2 DUP2 LT PUSH8 0xFFFFFFFFFFFFFFFF DUP3 GT OR ISZERO PUSH2 0x32C JUMPI PUSH2 0x32B PUSH2 0x2D5 JUMP JUMPDEST JUMPDEST DUP1 PUSH1 0x40 MSTORE POP POP POP JUMP JUMPDEST PUSH1 0x0 PUSH2 0x33F PUSH2 0x2AB JUMP JUMPDEST SWAP1 POP PUSH2 0x34B DUP3 DUP3 PUSH2 0x304 JUMP JUMPDEST SWAP2 SWAP1 POP JUMP JUMPDEST PUSH1 0x0 PUSH8 0xFFFFFFFFFFFFFFFF DUP3 GT ISZERO PUSH2 0x36B JUMPI PUSH2 0x36A PUSH2 0x2D5 JUMP JUMPDEST JUMPDEST PUSH1 0x20 DUP3 MUL SWAP1 POP PUSH1 0x20 DUP2 ADD SWAP1 POP SWAP2 SWAP1 POP JUMP JUMPDEST PUSH1 0x0 DUP1 REVERT JUMPDEST PUSH1 0x0 DUP2 SWAP1 POP SWAP2 SWAP1 POP JUMP JUMPDEST PUSH2 0x394 DUP2 PUSH2 0x381 JUMP JUMPDEST DUP2 EQ PUSH2 0x39F JUMPI PUSH1 0x0 DUP1 REVERT JUMPDEST POP JUMP JUMPDEST PUSH1 0x0 DUP2 CALLDATALOAD SWAP1 POP PUSH2 0x3B1 DUP2 PUSH2 0x38B JUMP JUMPDEST SWAP3 SWAP2 POP POP JUMP JUMPDEST PUSH1 0x0 PUSH2 0x3CA PUSH2 0x3C5 DUP5 PUSH2 0x350 JUMP JUMPDEST PUSH2 0x335 JUMP JUMPDEST SWAP1 POP DUP1 DUP4 DUP3 MSTORE PUSH1 0x20 DUP3 ADD SWAP1 POP PUSH1 0x20 DUP5 MUL DUP4 ADD DUP6 DUP2 GT ISZERO PUSH2 0x3ED JUMPI PUSH2 0x3EC PUSH2 0x37C JUMP JUMPDEST JUMPDEST DUP4 JUMPDEST DUP2 DUP2 LT ISZERO PUSH2 0x416 JUMPI DUP1 PUSH2 0x402 DUP9 DUP3 PUSH2 0x3A2 JUMP JUMPDEST DUP5 MSTORE PUSH1 0x20 DUP5 ADD SWAP4 POP POP PUSH1 0x20 DUP2 ADD SWAP1 POP PUSH2 0x3EF JUMP JUMPDEST POP POP POP SWAP4 SWAP3 POP POP POP JUMP JUMPDEST PUSH1 0x0 DUP3 PUSH1 0x1F DUP4 ADD SLT PUSH2 0x435 JUMPI PUSH2 0x434 PUSH2 0x2BF JUMP JUMPDEST JUMPDEST DUP2 CALLDATALOAD PUSH2 0x445 DUP5 DUP3 PUSH1 0x20 DUP7 ADD PUSH2 0x3B7 JUMP JUMPDEST SWAP2 POP POP SWAP3 SWAP2 POP POP JUMP JUMPDEST PUSH1 0x0 DUP1 PUSH1 0x0 PUSH1 0x60 DUP5 DUP7 SUB SLT ISZERO PUSH2 0x467 JUMPI PUSH2 0x466 PUSH2 0x2B5 JUMP JUMPDEST JUMPDEST PUSH1 0x0 DUP5 ADD CALLDATALOAD PUSH8 0xFFFFFFFFFFFFFFFF DUP2 GT ISZERO PUSH2 0x485 JUMPI PUSH2 0x484 PUSH2 0x2BA JUMP JUMPDEST JUMPDEST PUSH2 0x491 DUP7 DUP3 DUP8 ADD PUSH2 0x420 JUMP JUMPDEST SWAP4 POP POP PUSH1 0x20 PUSH2 0x4A2 DUP7 DUP3 DUP8 ADD PUSH2 0x3A2 JUMP JUMPDEST SWAP3 POP POP PUSH1 0x40 PUSH2 0x4B3 DUP7 DUP3 DUP8 ADD PUSH2 0x3A2 JUMP JUMPDEST SWAP2 POP POP SWAP3 POP SWAP3 POP SWAP3 JUMP JUMPDEST PUSH1 0x0 DUP2 ISZERO ISZERO SWAP1 POP SWAP2 SWAP1 POP JUMP JUMPDEST PUSH2 0x4D2 DUP2 PUSH2 0x4BD JUMP JUMPDEST DUP3 MSTORE POP POP JUMP JUMPDEST PUSH1 0x0 PUSH1 0x20 DUP3 ADD SWAP1 POP PUSH2 0x4ED PUSH1 0x0 DUP4 ADD DUP5 PUSH2 0x4C9 JUMP JUMPDEST SWAP3 SWAP2 POP POP JUMP JUMPDEST PUSH1 0x0 PUSH1 0x20 DUP3 DUP5 SUB SLT ISZERO PUSH2 0x509 JUMPI PUSH2 0x508 PUSH2 0x2B5 JUMP JUMPDEST JUMPDEST PUSH1 0x0 DUP3 ADD CALLDATALOAD PUSH8 0xFFFFFFFFFFFFFFFF DUP2 GT ISZERO PUSH2 0x527 JUMPI PUSH2 0x526 PUSH2 0x2BA JUMP JUMPDEST JUMPDEST PUSH2 0x533 DUP5 DUP3 DUP6 ADD PUSH2 0x420 JUMP JUMPDEST SWAP2 POP POP SWAP3 SWAP2 POP POP JUMP JUMPDEST PUSH1 0x0 DUP3 DUP3 MSTORE PUSH1 0x20 DUP3 ADD SWAP1 POP SWAP3 SWAP2 POP POP JUMP JUMPDEST PUSH32 0x596120436C61696D656173746520707373206361757361000000000000000000 PUSH1 0x0 DUP3 ADD MSTORE POP JUMP JUMPDEST PUSH1 0x0 PUSH2 0x583 PUSH1 0x17 DUP4 PUSH2 0x53C JUMP JUMPDEST SWAP2 POP PUSH2 0x58E DUP3 PUSH2 0x54D JUMP JUMPDEST PUSH1 0x20 DUP3 ADD SWAP1 POP SWAP2 SWAP1 POP JUMP JUMPDEST PUSH1 0x0 PUSH1 0x20 DUP3 ADD SWAP1 POP DUP2 DUP2 SUB PUSH1 0x0 DUP4 ADD MSTORE PUSH2 0x5B2 DUP2 PUSH2 0x576 JUMP JUMPDEST SWAP1 POP SWAP2 SWAP1 POP JUMP JUMPDEST PUSH1 0x0 PUSH20 0xFFFFFFFFFFFFFFFFFFFFFFFFFFFFFFFFFFFFFFFF DUP3 AND SWAP1 POP SWAP2 SWAP1 POP JUMP JUMPDEST PUSH1 0x0 PUSH2 0x5E4 DUP3 PUSH2 0x5B9 JUMP JUMPDEST SWAP1 POP SWAP2 SWAP1 POP JUMP JUMPDEST PUSH1 0x0 DUP2 PUSH1 0x60 SHL SWAP1 POP SWAP2 SWAP1 POP JUMP JUMPDEST PUSH1 0x0 PUSH2 0x603 DUP3 PUSH2 0x5EB JUMP JUMPDEST SWAP1 POP SWAP2 SWAP1 POP JUMP JUMPDEST PUSH1 0x0 PUSH2 0x615 DUP3 PUSH2 0x5F8 JUMP JUMPDEST SWAP1 POP SWAP2 SWAP1 POP JUMP JUMPDEST PUSH2 0x62D PUSH2 0x628 DUP3 PUSH2 0x5D9 JUMP JUMPDEST PUSH2 0x60A JUMP JUMPDEST DUP3 MSTORE POP POP JUMP JUMPDEST PUSH1 0x0 PUSH2 0x63F DUP3 DUP5 PUSH2 0x61C JUMP JUMPDEST PUSH1 0x14 DUP3 ADD SWAP2 POP DUP2 SWAP1 POP SWAP3 SWAP2 POP POP JUMP JUMPDEST PUSH32 0x4E6F20657374617320656E206C612077686974656C6973740000000000000000 PUSH1 0x0 DUP3 ADD MSTORE POP JUMP JUMPDEST PUSH1 0x0 PUSH2 0x684 PUSH1 0x18 DUP4 PUSH2 0x53C JUMP JUMPDEST SWAP2 POP PUSH2 0x68F DUP3 PUSH2 0x64E JUMP JUMPDEST PUSH1 0x20 DUP3 ADD SWAP1 POP SWAP2 SWAP1 POP JUMP JUMPDEST PUSH1 0x0 PUSH1 0x20 DUP3 ADD SWAP1 POP DUP2 DUP2 SUB PUSH1 0x0 DUP4 ADD MSTORE PUSH2 0x6B3 DUP2 PUSH2 0x677 JUMP JUMPDEST SWAP1 POP SWAP2 SWAP1 POP JUMP JUMPDEST PUSH32 0x4E487B7100000000000000000000000000000000000000000000000000000000 PUSH1 0x0 MSTORE PUSH1 0x32 PUSH1 0x4 MSTORE PUSH1 0x24 PUSH1 0x0 REVERT JUMPDEST PUSH32 0x4E487B7100000000000000000000000000000000000000000000000000000000 PUSH1 0x0 MSTORE PUSH1 0x11 PUSH1 0x4 MSTORE PUSH1 0x24 PUSH1 0x0 REVERT JUMPDEST PUSH1 0x0 DUP2 SWAP1 POP SWAP2 SWAP1 POP JUMP JUMPDEST PUSH1 0x0 PUSH2 0x72D DUP3 PUSH2 0x718 JUMP JUMPDEST SWAP2 POP PUSH32 0xFFFFFFFFFFFFFFFFFFFFFFFFFFFFFFFFFFFFFFFFFFFFFFFFFFFFFFFFFFFFFFFF DUP3 SUB PUSH2 0x75F JUMPI PUSH2 0x75E PUSH2 0x6E9 JUMP JUMPDEST JUMPDEST PUSH1 0x1 DUP3 ADD SWAP1 POP SWAP2 SWAP1 POP JUMP INVALID LOG2 PUSH5 0x6970667358 0x22 SLT KECCAK256 0xC5 0x4C 0xE8 RETURN GASLIMIT 0xF6 0xD3 0xB5 0x4F SIGNEXTEND PUSH28 0xA5F4EC48D0945CCE2922ED4A02BEAB6CEE064B521F64736F6C634300 ADDMOD GT STOP CALLER "
				},
				"gasEstimates": {
					"creation": {
						"codeDepositCost": "390400",
						"executionCost": "infinite",
						"totalCost": "infinite"
					},
					"external": {
						"claim(bytes32[])": "infinite",
						"verify(bytes32[],bytes32,bytes32)": "infinite"
					}
				},
				"methodIdentifiers": {
					"claim(bytes32[])": "b391c508",
					"verify(bytes32[],bytes32,bytes32)": "5a9a49c7"
				}
			},
			"storageLayout": {
				"storage": [
					{
						"astId": 506,
						"contract": "Openzepellin/Merkle2_Openzeppelin.sol:MerkleProof2",
						"label": "root",
						"offset": 0,
						"slot": "0",
						"type": "t_bytes32"
					},
					{
						"astId": 540,
						"contract": "Openzepellin/Merkle2_Openzeppelin.sol:MerkleProof2",
						"label": "whitelistClaimed",
						"offset": 0,
						"slot": "1",
						"type": "t_mapping(t_address,t_bool)"
					}
				],
				"types": {
					"t_address": {
						"encoding": "inplace",
						"label": "address",
						"numberOfBytes": "20"
					},
					"t_bool": {
						"encoding": "inplace",
						"label": "bool",
						"numberOfBytes": "1"
					},
					"t_bytes32": {
						"encoding": "inplace",
						"label": "bytes32",
						"numberOfBytes": "32"
					},
					"t_mapping(t_address,t_bool)": {
						"encoding": "mapping",
						"key": "t_address",
						"label": "mapping(address => bool)",
						"numberOfBytes": "32",
						"value": "t_bool"
					}
				}
			},
			"userdoc": {
				"kind": "user",
				"methods": {},
				"version": 1
			}
		}
	}
}