{
	"Openzepellin/OwnableOpZ.sol": {
		"OwnableOpZ": {
			"abi": [
				{
					"inputs": [],
					"stateMutability": "nonpayable",
					"type": "constructor"
				},
				{
					"anonymous": false,
					"inputs": [
						{
							"indexed": true,
							"internalType": "bytes32",
							"name": "role",
							"type": "bytes32"
						},
						{
							"indexed": true,
							"internalType": "bytes32",
							"name": "previousAdminRole",
							"type": "bytes32"
						},
						{
							"indexed": true,
							"internalType": "bytes32",
							"name": "newAdminRole",
							"type": "bytes32"
						}
					],
					"name": "RoleAdminChanged",
					"type": "event"
				},
				{
					"anonymous": false,
					"inputs": [
						{
							"indexed": true,
							"internalType": "bytes32",
							"name": "role",
							"type": "bytes32"
						},
						{
							"indexed": true,
							"internalType": "address",
							"name": "account",
							"type": "address"
						},
						{
							"indexed": true,
							"internalType": "address",
							"name": "sender",
							"type": "address"
						}
					],
					"name": "RoleGranted",
					"type": "event"
				},
				{
					"anonymous": false,
					"inputs": [
						{
							"indexed": true,
							"internalType": "bytes32",
							"name": "role",
							"type": "bytes32"
						},
						{
							"indexed": true,
							"internalType": "address",
							"name": "account",
							"type": "address"
						},
						{
							"indexed": true,
							"internalType": "address",
							"name": "sender",
							"type": "address"
						}
					],
					"name": "RoleRevoked",
					"type": "event"
				},
				{
					"inputs": [],
					"name": "DEFAULT_ADMIN_ROLE",
					"outputs": [
						{
							"internalType": "bytes32",
							"name": "",
							"type": "bytes32"
						}
					],
					"stateMutability": "view",
					"type": "function"
				},
				{
					"inputs": [],
					"name": "WRITER_ROL",
					"outputs": [
						{
							"internalType": "bytes32",
							"name": "",
							"type": "bytes32"
						}
					],
					"stateMutability": "view",
					"type": "function"
				},
				{
					"inputs": [
						{
							"internalType": "bytes32",
							"name": "role",
							"type": "bytes32"
						}
					],
					"name": "getRoleAdmin",
					"outputs": [
						{
							"internalType": "bytes32",
							"name": "",
							"type": "bytes32"
						}
					],
					"stateMutability": "view",
					"type": "function"
				},
				{
					"inputs": [
						{
							"internalType": "bytes32",
							"name": "role",
							"type": "bytes32"
						},
						{
							"internalType": "address",
							"name": "account",
							"type": "address"
						}
					],
					"name": "grantRole",
					"outputs": [],
					"stateMutability": "nonpayable",
					"type": "function"
				},
				{
					"inputs": [
						{
							"internalType": "bytes32",
							"name": "role",
							"type": "bytes32"
						},
						{
							"internalType": "address",
							"name": "account",
							"type": "address"
						}
					],
					"name": "hasRole",
					"outputs": [
						{
							"internalType": "bool",
							"name": "",
							"type": "bool"
						}
					],
					"stateMutability": "view",
					"type": "function"
				},
				{
					"inputs": [
						{
							"internalType": "bytes32",
							"name": "role",
							"type": "bytes32"
						},
						{
							"internalType": "address",
							"name": "account",
							"type": "address"
						}
					],
					"name": "renounceRole",
					"outputs": [],
					"stateMutability": "nonpayable",
					"type": "function"
				},
				{
					"inputs": [
						{
							"internalType": "bytes32",
							"name": "role",
							"type": "bytes32"
						},
						{
							"internalType": "address",
							"name": "account",
							"type": "address"
						}
					],
					"name": "revokeRole",
					"outputs": [],
					"stateMutability": "nonpayable",
					"type": "function"
				},
				{
					"inputs": [
						{
							"internalType": "uint256",
							"name": "a",
							"type": "uint256"
						},
						{
							"internalType": "uint256",
							"name": "b",
							"type": "uint256"
						}
					],
					"name": "soloAdmin",
					"outputs": [
						{
							"internalType": "uint256",
							"name": "",
							"type": "uint256"
						}
					],
					"stateMutability": "view",
					"type": "function"
				},
				{
					"inputs": [
						{
							"internalType": "uint256",
							"name": "a",
							"type": "uint256"
						},
						{
							"internalType": "uint256",
							"name": "b",
							"type": "uint256"
						}
					],
					"name": "soloWriter",
					"outputs": [
						{
							"internalType": "uint256",
							"name": "",
							"type": "uint256"
						}
					],
					"stateMutability": "view",
					"type": "function"
				},
				{
					"inputs": [
						{
							"internalType": "bytes4",
							"name": "interfaceId",
							"type": "bytes4"
						}
					],
					"name": "supportsInterface",
					"outputs": [
						{
							"internalType": "bool",
							"name": "",
							"type": "bool"
						}
					],
					"stateMutability": "view",
					"type": "function"
				}
			],
			"devdoc": {
				"kind": "dev",
				"methods": {
					"getRoleAdmin(bytes32)": {
						"details": "Returns the admin role that controls `role`. See {grantRole} and {revokeRole}. To change a role's admin, use {_setRoleAdmin}."
					},
					"grantRole(bytes32,address)": {
						"details": "Grants `role` to `account`. If `account` had not been already granted `role`, emits a {RoleGranted} event. Requirements: - the caller must have ``role``'s admin role. May emit a {RoleGranted} event."
					},
					"hasRole(bytes32,address)": {
						"details": "Returns `true` if `account` has been granted `role`."
					},
					"renounceRole(bytes32,address)": {
						"details": "Revokes `role` from the calling account. Roles are often managed via {grantRole} and {revokeRole}: this function's purpose is to provide a mechanism for accounts to lose their privileges if they are compromised (such as when a trusted device is misplaced). If the calling account had been revoked `role`, emits a {RoleRevoked} event. Requirements: - the caller must be `account`. May emit a {RoleRevoked} event."
					},
					"revokeRole(bytes32,address)": {
						"details": "Revokes `role` from `account`. If `account` had been granted `role`, emits a {RoleRevoked} event. Requirements: - the caller must have ``role``'s admin role. May emit a {RoleRevoked} event."
					},
					"supportsInterface(bytes4)": {
						"details": "See {IERC165-supportsInterface}."
					}
				},
				"version": 1
			},
			"evm": {
				"assembly": "    /* \"Openzepellin/OwnableOpZ.sol\":195:617  contract OwnableOpZ is AccessControl{\r... */\n  mstore(0x40, 0x80)\n    /* \"Openzepellin/OwnableOpZ.sol\":301:370  constructor () {\r... */\n  callvalue\n  dup1\n  iszero\n  tag_1\n  jumpi\n  0x00\n  dup1\n  revert\ntag_1:\n  pop\n    /* \"Openzepellin/OwnableOpZ.sol\":323:364  _grantRole(DEFAULT_ADMIN_ROLE,msg.sender) */\n  tag_4\n    /* \"https://github.com/OpenZeppelin/openzeppelin-contracts/blob/master/contracts/access/AccessControl.sol\":2072:2076  0x00 */\n  0x00\n    /* \"Openzepellin/OwnableOpZ.sol\":334:352  DEFAULT_ADMIN_ROLE */\n  dup1\n  shl\n    /* \"Openzepellin/OwnableOpZ.sol\":353:363  msg.sender */\n  caller\n    /* \"Openzepellin/OwnableOpZ.sol\":323:333  _grantRole */\n  shl(0x20, tag_5)\n    /* \"Openzepellin/OwnableOpZ.sol\":323:364  _grantRole(DEFAULT_ADMIN_ROLE,msg.sender) */\n  0x20\n  shr\n  jump\t// in\ntag_4:\n    /* \"Openzepellin/OwnableOpZ.sol\":195:617  contract OwnableOpZ is AccessControl{\r... */\n  jump(tag_6)\n    /* \"https://github.com/OpenZeppelin/openzeppelin-contracts/blob/master/contracts/access/AccessControl.sol\":7461:7694  function _grantRole(bytes32 role, address account) internal virtual {... */\ntag_5:\n    /* \"https://github.com/OpenZeppelin/openzeppelin-contracts/blob/master/contracts/access/AccessControl.sol\":7544:7566  hasRole(role, account) */\n  tag_8\n    /* \"https://github.com/OpenZeppelin/openzeppelin-contracts/blob/master/contracts/access/AccessControl.sol\":7552:7556  role */\n  dup3\n    /* \"https://github.com/OpenZeppelin/openzeppelin-contracts/blob/master/contracts/access/AccessControl.sol\":7558:7565  account */\n  dup3\n    /* \"https://github.com/OpenZeppelin/openzeppelin-contracts/blob/master/contracts/access/AccessControl.sol\":7544:7551  hasRole */\n  shl(0x20, tag_9)\n    /* \"https://github.com/OpenZeppelin/openzeppelin-contracts/blob/master/contracts/access/AccessControl.sol\":7544:7566  hasRole(role, account) */\n  0x20\n  shr\n  jump\t// in\ntag_8:\n    /* \"https://github.com/OpenZeppelin/openzeppelin-contracts/blob/master/contracts/access/AccessControl.sol\":7539:7688  if (!hasRole(role, account)) {... */\n  tag_10\n  jumpi\n    /* \"https://github.com/OpenZeppelin/openzeppelin-contracts/blob/master/contracts/access/AccessControl.sol\":7614:7618  true */\n  0x01\n    /* \"https://github.com/OpenZeppelin/openzeppelin-contracts/blob/master/contracts/access/AccessControl.sol\":7582:7588  _roles */\n  0x00\n    /* \"https://github.com/OpenZeppelin/openzeppelin-contracts/blob/master/contracts/access/AccessControl.sol\":7582:7594  _roles[role] */\n  dup1\n    /* \"https://github.com/OpenZeppelin/openzeppelin-contracts/blob/master/contracts/access/AccessControl.sol\":7589:7593  role */\n  dup5\n    /* \"https://github.com/OpenZeppelin/openzeppelin-contracts/blob/master/contracts/access/AccessControl.sol\":7582:7594  _roles[role] */\n  dup2\n  mstore\n  0x20\n  add\n  swap1\n  dup2\n  mstore\n  0x20\n  add\n  0x00\n  keccak256\n    /* \"https://github.com/OpenZeppelin/openzeppelin-contracts/blob/master/contracts/access/AccessControl.sol\":7582:7602  _roles[role].members */\n  0x00\n  add\n    /* \"https://github.com/OpenZeppelin/openzeppelin-contracts/blob/master/contracts/access/AccessControl.sol\":7582:7611  _roles[role].members[account] */\n  0x00\n    /* \"https://github.com/OpenZeppelin/openzeppelin-contracts/blob/master/contracts/access/AccessControl.sol\":7603:7610  account */\n  dup4\n    /* \"https://github.com/OpenZeppelin/openzeppelin-contracts/blob/master/contracts/access/AccessControl.sol\":7582:7611  _roles[role].members[account] */\n  0xffffffffffffffffffffffffffffffffffffffff\n  and\n  0xffffffffffffffffffffffffffffffffffffffff\n  and\n  dup2\n  mstore\n  0x20\n  add\n  swap1\n  dup2\n  mstore\n  0x20\n  add\n  0x00\n  keccak256\n  0x00\n    /* \"https://github.com/OpenZeppelin/openzeppelin-contracts/blob/master/contracts/access/AccessControl.sol\":7582:7618  _roles[role].members[account] = true */\n  0x0100\n  exp\n  dup2\n  sload\n  dup2\n  0xff\n  mul\n  not\n  and\n  swap1\n  dup4\n  iszero\n  iszero\n  mul\n  or\n  swap1\n  sstore\n  pop\n    /* \"https://github.com/OpenZeppelin/openzeppelin-contracts/blob/master/contracts/access/AccessControl.sol\":7664:7676  _msgSender() */\n  tag_11\n    /* \"https://github.com/OpenZeppelin/openzeppelin-contracts/blob/master/contracts/access/AccessControl.sol\":7664:7674  _msgSender */\n  shl(0x20, tag_12)\n    /* \"https://github.com/OpenZeppelin/openzeppelin-contracts/blob/master/contracts/access/AccessControl.sol\":7664:7676  _msgSender() */\n  0x20\n  shr\n  jump\t// in\ntag_11:\n    /* \"https://github.com/OpenZeppelin/openzeppelin-contracts/blob/master/contracts/access/AccessControl.sol\":7637:7677  RoleGranted(role, account, _msgSender()) */\n  0xffffffffffffffffffffffffffffffffffffffff\n  and\n    /* \"https://github.com/OpenZeppelin/openzeppelin-contracts/blob/master/contracts/access/AccessControl.sol\":7655:7662  account */\n  dup2\n    /* \"https://github.com/OpenZeppelin/openzeppelin-contracts/blob/master/contracts/access/AccessControl.sol\":7637:7677  RoleGranted(role, account, _msgSender()) */\n  0xffffffffffffffffffffffffffffffffffffffff\n  and\n    /* \"https://github.com/OpenZeppelin/openzeppelin-contracts/blob/master/contracts/access/AccessControl.sol\":7649:7653  role */\n  dup4\n    /* \"https://github.com/OpenZeppelin/openzeppelin-contracts/blob/master/contracts/access/AccessControl.sol\":7637:7677  RoleGranted(role, account, _msgSender()) */\n  0x2f8788117e7eff1d82e926ec794901d17c78024a50270940304540a733656f0d\n  mload(0x40)\n  mload(0x40)\n  dup1\n  swap2\n  sub\n  swap1\n  log4\n    /* \"https://github.com/OpenZeppelin/openzeppelin-contracts/blob/master/contracts/access/AccessControl.sol\":7539:7688  if (!hasRole(role, account)) {... */\ntag_10:\n    /* \"https://github.com/OpenZeppelin/openzeppelin-contracts/blob/master/contracts/access/AccessControl.sol\":7461:7694  function _grantRole(bytes32 role, address account) internal virtual {... */\n  pop\n  pop\n  jump\t// out\n    /* \"https://github.com/OpenZeppelin/openzeppelin-contracts/blob/master/contracts/access/AccessControl.sol\":2895:3040  function hasRole(bytes32 role, address account) public view virtual override returns (bool) {... */\ntag_9:\n    /* \"https://github.com/OpenZeppelin/openzeppelin-contracts/blob/master/contracts/access/AccessControl.sol\":2981:2985  bool */\n  0x00\n    /* \"https://github.com/OpenZeppelin/openzeppelin-contracts/blob/master/contracts/access/AccessControl.sol\":3004:3010  _roles */\n  dup1\n    /* \"https://github.com/OpenZeppelin/openzeppelin-contracts/blob/master/contracts/access/AccessControl.sol\":3004:3016  _roles[role] */\n  0x00\n    /* \"https://github.com/OpenZeppelin/openzeppelin-contracts/blob/master/contracts/access/AccessControl.sol\":3011:3015  role */\n  dup5\n    /* \"https://github.com/OpenZeppelin/openzeppelin-contracts/blob/master/contracts/access/AccessControl.sol\":3004:3016  _roles[role] */\n  dup2\n  mstore\n  0x20\n  add\n  swap1\n  dup2\n  mstore\n  0x20\n  add\n  0x00\n  keccak256\n    /* \"https://github.com/OpenZeppelin/openzeppelin-contracts/blob/master/contracts/access/AccessControl.sol\":3004:3024  _roles[role].members */\n  0x00\n  add\n    /* \"https://github.com/OpenZeppelin/openzeppelin-contracts/blob/master/contracts/access/AccessControl.sol\":3004:3033  _roles[role].members[account] */\n  0x00\n    /* \"https://github.com/OpenZeppelin/openzeppelin-contracts/blob/master/contracts/access/AccessControl.sol\":3025:3032  account */\n  dup4\n    /* \"https://github.com/OpenZeppelin/openzeppelin-contracts/blob/master/contracts/access/AccessControl.sol\":3004:3033  _roles[role].members[account] */\n  0xffffffffffffffffffffffffffffffffffffffff\n  and\n  0xffffffffffffffffffffffffffffffffffffffff\n  and\n  dup2\n  mstore\n  0x20\n  add\n  swap1\n  dup2\n  mstore\n  0x20\n  add\n  0x00\n  keccak256\n  0x00\n  swap1\n  sload\n  swap1\n  0x0100\n  exp\n  swap1\n  div\n  0xff\n  and\n    /* \"https://github.com/OpenZeppelin/openzeppelin-contracts/blob/master/contracts/access/AccessControl.sol\":2997:3033  return _roles[role].members[account] */\n  swap1\n  pop\n    /* \"https://github.com/OpenZeppelin/openzeppelin-contracts/blob/master/contracts/access/AccessControl.sol\":2895:3040  function hasRole(bytes32 role, address account) public view virtual override returns (bool) {... */\n  swap3\n  swap2\n  pop\n  pop\n  jump\t// out\n    /* \"https://github.com/OpenZeppelin/openzeppelin-contracts/blob/master/contracts/utils/Context.sol\":640:736  function _msgSender() internal view virtual returns (address) {... */\ntag_12:\n    /* \"https://github.com/OpenZeppelin/openzeppelin-contracts/blob/master/contracts/utils/Context.sol\":693:700  address */\n  0x00\n    /* \"https://github.com/OpenZeppelin/openzeppelin-contracts/blob/master/contracts/utils/Context.sol\":719:729  msg.sender */\n  caller\n    /* \"https://github.com/OpenZeppelin/openzeppelin-contracts/blob/master/contracts/utils/Context.sol\":712:729  return msg.sender */\n  swap1\n  pop\n    /* \"https://github.com/OpenZeppelin/openzeppelin-contracts/blob/master/contracts/utils/Context.sol\":640:736  function _msgSender() internal view virtual returns (address) {... */\n  swap1\n  jump\t// out\n    /* \"Openzepellin/OwnableOpZ.sol\":195:617  contract OwnableOpZ is AccessControl{\r... */\ntag_6:\n  dataSize(sub_0)\n  dup1\n  dataOffset(sub_0)\n  0x00\n  codecopy\n  0x00\n  return\nstop\n\nsub_0: assembly {\n        /* \"Openzepellin/OwnableOpZ.sol\":195:617  contract OwnableOpZ is AccessControl{\r... */\n      mstore(0x40, 0x80)\n      callvalue\n      dup1\n      iszero\n      tag_1\n      jumpi\n      0x00\n      dup1\n      revert\n    tag_1:\n      pop\n      jumpi(tag_2, lt(calldatasize, 0x04))\n      shr(0xe0, calldataload(0x00))\n      dup1\n      0x91d14854\n      gt\n      tag_13\n      jumpi\n      dup1\n      0x91d14854\n      eq\n      tag_8\n      jumpi\n      dup1\n      0xa217fddf\n      eq\n      tag_9\n      jumpi\n      dup1\n      0xb137050d\n      eq\n      tag_10\n      jumpi\n      dup1\n      0xd547741f\n      eq\n      tag_11\n      jumpi\n      dup1\n      0xe01c3119\n      eq\n      tag_12\n      jumpi\n      jump(tag_2)\n    tag_13:\n      dup1\n      0x01ffc9a7\n      eq\n      tag_3\n      jumpi\n      dup1\n      0x248a9ca3\n      eq\n      tag_4\n      jumpi\n      dup1\n      0x2f2ff15d\n      eq\n      tag_5\n      jumpi\n      dup1\n      0x36568abe\n      eq\n      tag_6\n      jumpi\n      dup1\n      0x426dbd9c\n      eq\n      tag_7\n      jumpi\n    tag_2:\n      0x00\n      dup1\n      revert\n        /* \"https://github.com/OpenZeppelin/openzeppelin-contracts/blob/master/contracts/access/AccessControl.sol\":2606:2808  function supportsInterface(bytes4 interfaceId) public view virtual override returns (bool) {... */\n    tag_3:\n      tag_14\n      0x04\n      dup1\n      calldatasize\n      sub\n      dup2\n      add\n      swap1\n      tag_15\n      swap2\n      swap1\n      tag_16\n      jump\t// in\n    tag_15:\n      tag_17\n      jump\t// in\n    tag_14:\n      mload(0x40)\n      tag_18\n      swap2\n      swap1\n      tag_19\n      jump\t// in\n    tag_18:\n      mload(0x40)\n      dup1\n      swap2\n      sub\n      swap1\n      return\n        /* \"https://github.com/OpenZeppelin/openzeppelin-contracts/blob/master/contracts/access/AccessControl.sol\":4378:4507  function getRoleAdmin(bytes32 role) public view virtual override returns (bytes32) {... */\n    tag_4:\n      tag_20\n      0x04\n      dup1\n      calldatasize\n      sub\n      dup2\n      add\n      swap1\n      tag_21\n      swap2\n      swap1\n      tag_22\n      jump\t// in\n    tag_21:\n      tag_23\n      jump\t// in\n    tag_20:\n      mload(0x40)\n      tag_24\n      swap2\n      swap1\n      tag_25\n      jump\t// in\n    tag_24:\n      mload(0x40)\n      dup1\n      swap2\n      sub\n      swap1\n      return\n        /* \"https://github.com/OpenZeppelin/openzeppelin-contracts/blob/master/contracts/access/AccessControl.sol\":4803:4948  function grantRole(bytes32 role, address account) public virtual override onlyRole(getRoleAdmin(role)) {... */\n    tag_5:\n      tag_26\n      0x04\n      dup1\n      calldatasize\n      sub\n      dup2\n      add\n      swap1\n      tag_27\n      swap2\n      swap1\n      tag_28\n      jump\t// in\n    tag_27:\n      tag_29\n      jump\t// in\n    tag_26:\n      stop\n        /* \"https://github.com/OpenZeppelin/openzeppelin-contracts/blob/master/contracts/access/AccessControl.sol\":5912:6126  function renounceRole(bytes32 role, address account) public virtual override {... */\n    tag_6:\n      tag_30\n      0x04\n      dup1\n      calldatasize\n      sub\n      dup2\n      add\n      swap1\n      tag_31\n      swap2\n      swap1\n      tag_28\n      jump\t// in\n    tag_31:\n      tag_32\n      jump\t// in\n    tag_30:\n      stop\n        /* \"Openzepellin/OwnableOpZ.sol\":236:294  bytes32 public constant WRITER_ROL = keccak256(\"ADMI_ROL\") */\n    tag_7:\n      tag_33\n      tag_34\n      jump\t// in\n    tag_33:\n      mload(0x40)\n      tag_35\n      swap2\n      swap1\n      tag_25\n      jump\t// in\n    tag_35:\n      mload(0x40)\n      dup1\n      swap2\n      sub\n      swap1\n      return\n        /* \"https://github.com/OpenZeppelin/openzeppelin-contracts/blob/master/contracts/access/AccessControl.sol\":2895:3040  function hasRole(bytes32 role, address account) public view virtual override returns (bool) {... */\n    tag_8:\n      tag_36\n      0x04\n      dup1\n      calldatasize\n      sub\n      dup2\n      add\n      swap1\n      tag_37\n      swap2\n      swap1\n      tag_28\n      jump\t// in\n    tag_37:\n      tag_38\n      jump\t// in\n    tag_36:\n      mload(0x40)\n      tag_39\n      swap2\n      swap1\n      tag_19\n      jump\t// in\n    tag_39:\n      mload(0x40)\n      dup1\n      swap2\n      sub\n      swap1\n      return\n        /* \"https://github.com/OpenZeppelin/openzeppelin-contracts/blob/master/contracts/access/AccessControl.sol\":2027:2076  bytes32 public constant DEFAULT_ADMIN_ROLE = 0x00 */\n    tag_9:\n      tag_40\n      tag_41\n      jump\t// in\n    tag_40:\n      mload(0x40)\n      tag_42\n      swap2\n      swap1\n      tag_25\n      jump\t// in\n    tag_42:\n      mload(0x40)\n      dup1\n      swap2\n      sub\n      swap1\n      return\n        /* \"Openzepellin/OwnableOpZ.sol\":376:497  function soloAdmin(uint a , uint b) public view onlyRole(DEFAULT_ADMIN_ROLE) returns (uint) {\r... */\n    tag_10:\n      tag_43\n      0x04\n      dup1\n      calldatasize\n      sub\n      dup2\n      add\n      swap1\n      tag_44\n      swap2\n      swap1\n      tag_45\n      jump\t// in\n    tag_44:\n      tag_46\n      jump\t// in\n    tag_43:\n      mload(0x40)\n      tag_47\n      swap2\n      swap1\n      tag_48\n      jump\t// in\n    tag_47:\n      mload(0x40)\n      dup1\n      swap2\n      sub\n      swap1\n      return\n        /* \"https://github.com/OpenZeppelin/openzeppelin-contracts/blob/master/contracts/access/AccessControl.sol\":5228:5375  function revokeRole(bytes32 role, address account) public virtual override onlyRole(getRoleAdmin(role)) {... */\n    tag_11:\n      tag_49\n      0x04\n      dup1\n      calldatasize\n      sub\n      dup2\n      add\n      swap1\n      tag_50\n      swap2\n      swap1\n      tag_28\n      jump\t// in\n    tag_50:\n      tag_51\n      jump\t// in\n    tag_49:\n      stop\n        /* \"Openzepellin/OwnableOpZ.sol\":503:610  function soloWriter (uint a, uint b) public view onlyRole(WRITER_ROL) returns(uint) {\r... */\n    tag_12:\n      tag_52\n      0x04\n      dup1\n      calldatasize\n      sub\n      dup2\n      add\n      swap1\n      tag_53\n      swap2\n      swap1\n      tag_45\n      jump\t// in\n    tag_53:\n      tag_54\n      jump\t// in\n    tag_52:\n      mload(0x40)\n      tag_55\n      swap2\n      swap1\n      tag_48\n      jump\t// in\n    tag_55:\n      mload(0x40)\n      dup1\n      swap2\n      sub\n      swap1\n      return\n        /* \"https://github.com/OpenZeppelin/openzeppelin-contracts/blob/master/contracts/access/AccessControl.sol\":2606:2808  function supportsInterface(bytes4 interfaceId) public view virtual override returns (bool) {... */\n    tag_17:\n        /* \"https://github.com/OpenZeppelin/openzeppelin-contracts/blob/master/contracts/access/AccessControl.sol\":2691:2695  bool */\n      0x00\n        /* \"https://github.com/OpenZeppelin/openzeppelin-contracts/blob/master/contracts/access/AccessControl.sol\":2729:2761  type(IAccessControl).interfaceId */\n      0x7965db0b00000000000000000000000000000000000000000000000000000000\n        /* \"https://github.com/OpenZeppelin/openzeppelin-contracts/blob/master/contracts/access/AccessControl.sol\":2714:2761  interfaceId == type(IAccessControl).interfaceId */\n      not(0xffffffffffffffffffffffffffffffffffffffffffffffffffffffff)\n      and\n        /* \"https://github.com/OpenZeppelin/openzeppelin-contracts/blob/master/contracts/access/AccessControl.sol\":2714:2725  interfaceId */\n      dup3\n        /* \"https://github.com/OpenZeppelin/openzeppelin-contracts/blob/master/contracts/access/AccessControl.sol\":2714:2761  interfaceId == type(IAccessControl).interfaceId */\n      not(0xffffffffffffffffffffffffffffffffffffffffffffffffffffffff)\n      and\n      eq\n        /* \"https://github.com/OpenZeppelin/openzeppelin-contracts/blob/master/contracts/access/AccessControl.sol\":2714:2801  interfaceId == type(IAccessControl).interfaceId || super.supportsInterface(interfaceId) */\n      dup1\n      tag_57\n      jumpi\n      pop\n        /* \"https://github.com/OpenZeppelin/openzeppelin-contracts/blob/master/contracts/access/AccessControl.sol\":2765:2801  super.supportsInterface(interfaceId) */\n      tag_58\n        /* \"https://github.com/OpenZeppelin/openzeppelin-contracts/blob/master/contracts/access/AccessControl.sol\":2789:2800  interfaceId */\n      dup3\n        /* \"https://github.com/OpenZeppelin/openzeppelin-contracts/blob/master/contracts/access/AccessControl.sol\":2765:2788  super.supportsInterface */\n      tag_59\n        /* \"https://github.com/OpenZeppelin/openzeppelin-contracts/blob/master/contracts/access/AccessControl.sol\":2765:2801  super.supportsInterface(interfaceId) */\n      jump\t// in\n    tag_58:\n        /* \"https://github.com/OpenZeppelin/openzeppelin-contracts/blob/master/contracts/access/AccessControl.sol\":2714:2801  interfaceId == type(IAccessControl).interfaceId || super.supportsInterface(interfaceId) */\n    tag_57:\n        /* \"https://github.com/OpenZeppelin/openzeppelin-contracts/blob/master/contracts/access/AccessControl.sol\":2707:2801  return interfaceId == type(IAccessControl).interfaceId || super.supportsInterface(interfaceId) */\n      swap1\n      pop\n        /* \"https://github.com/OpenZeppelin/openzeppelin-contracts/blob/master/contracts/access/AccessControl.sol\":2606:2808  function supportsInterface(bytes4 interfaceId) public view virtual override returns (bool) {... */\n      swap2\n      swap1\n      pop\n      jump\t// out\n        /* \"https://github.com/OpenZeppelin/openzeppelin-contracts/blob/master/contracts/access/AccessControl.sol\":4378:4507  function getRoleAdmin(bytes32 role) public view virtual override returns (bytes32) {... */\n    tag_23:\n        /* \"https://github.com/OpenZeppelin/openzeppelin-contracts/blob/master/contracts/access/AccessControl.sol\":4452:4459  bytes32 */\n      0x00\n        /* \"https://github.com/OpenZeppelin/openzeppelin-contracts/blob/master/contracts/access/AccessControl.sol\":4478:4484  _roles */\n      dup1\n        /* \"https://github.com/OpenZeppelin/openzeppelin-contracts/blob/master/contracts/access/AccessControl.sol\":4478:4490  _roles[role] */\n      0x00\n        /* \"https://github.com/OpenZeppelin/openzeppelin-contracts/blob/master/contracts/access/AccessControl.sol\":4485:4489  role */\n      dup4\n        /* \"https://github.com/OpenZeppelin/openzeppelin-contracts/blob/master/contracts/access/AccessControl.sol\":4478:4490  _roles[role] */\n      dup2\n      mstore\n      0x20\n      add\n      swap1\n      dup2\n      mstore\n      0x20\n      add\n      0x00\n      keccak256\n        /* \"https://github.com/OpenZeppelin/openzeppelin-contracts/blob/master/contracts/access/AccessControl.sol\":4478:4500  _roles[role].adminRole */\n      0x01\n      add\n      sload\n        /* \"https://github.com/OpenZeppelin/openzeppelin-contracts/blob/master/contracts/access/AccessControl.sol\":4471:4500  return _roles[role].adminRole */\n      swap1\n      pop\n        /* \"https://github.com/OpenZeppelin/openzeppelin-contracts/blob/master/contracts/access/AccessControl.sol\":4378:4507  function getRoleAdmin(bytes32 role) public view virtual override returns (bytes32) {... */\n      swap2\n      swap1\n      pop\n      jump\t// out\n        /* \"https://github.com/OpenZeppelin/openzeppelin-contracts/blob/master/contracts/access/AccessControl.sol\":4803:4948  function grantRole(bytes32 role, address account) public virtual override onlyRole(getRoleAdmin(role)) {... */\n    tag_29:\n        /* \"https://github.com/OpenZeppelin/openzeppelin-contracts/blob/master/contracts/access/AccessControl.sol\":4886:4904  getRoleAdmin(role) */\n      tag_61\n        /* \"https://github.com/OpenZeppelin/openzeppelin-contracts/blob/master/contracts/access/AccessControl.sol\":4899:4903  role */\n      dup3\n        /* \"https://github.com/OpenZeppelin/openzeppelin-contracts/blob/master/contracts/access/AccessControl.sol\":4886:4898  getRoleAdmin */\n      tag_23\n        /* \"https://github.com/OpenZeppelin/openzeppelin-contracts/blob/master/contracts/access/AccessControl.sol\":4886:4904  getRoleAdmin(role) */\n      jump\t// in\n    tag_61:\n        /* \"https://github.com/OpenZeppelin/openzeppelin-contracts/blob/master/contracts/access/AccessControl.sol\":2505:2521  _checkRole(role) */\n      tag_63\n        /* \"https://github.com/OpenZeppelin/openzeppelin-contracts/blob/master/contracts/access/AccessControl.sol\":2516:2520  role */\n      dup2\n        /* \"https://github.com/OpenZeppelin/openzeppelin-contracts/blob/master/contracts/access/AccessControl.sol\":2505:2515  _checkRole */\n      tag_64\n        /* \"https://github.com/OpenZeppelin/openzeppelin-contracts/blob/master/contracts/access/AccessControl.sol\":2505:2521  _checkRole(role) */\n      jump\t// in\n    tag_63:\n        /* \"https://github.com/OpenZeppelin/openzeppelin-contracts/blob/master/contracts/access/AccessControl.sol\":4916:4941  _grantRole(role, account) */\n      tag_66\n        /* \"https://github.com/OpenZeppelin/openzeppelin-contracts/blob/master/contracts/access/AccessControl.sol\":4927:4931  role */\n      dup4\n        /* \"https://github.com/OpenZeppelin/openzeppelin-contracts/blob/master/contracts/access/AccessControl.sol\":4933:4940  account */\n      dup4\n        /* \"https://github.com/OpenZeppelin/openzeppelin-contracts/blob/master/contracts/access/AccessControl.sol\":4916:4926  _grantRole */\n      tag_67\n        /* \"https://github.com/OpenZeppelin/openzeppelin-contracts/blob/master/contracts/access/AccessControl.sol\":4916:4941  _grantRole(role, account) */\n      jump\t// in\n    tag_66:\n        /* \"https://github.com/OpenZeppelin/openzeppelin-contracts/blob/master/contracts/access/AccessControl.sol\":4803:4948  function grantRole(bytes32 role, address account) public virtual override onlyRole(getRoleAdmin(role)) {... */\n      pop\n      pop\n      pop\n      jump\t// out\n        /* \"https://github.com/OpenZeppelin/openzeppelin-contracts/blob/master/contracts/access/AccessControl.sol\":5912:6126  function renounceRole(bytes32 role, address account) public virtual override {... */\n    tag_32:\n        /* \"https://github.com/OpenZeppelin/openzeppelin-contracts/blob/master/contracts/access/AccessControl.sol\":6018:6030  _msgSender() */\n      tag_69\n        /* \"https://github.com/OpenZeppelin/openzeppelin-contracts/blob/master/contracts/access/AccessControl.sol\":6018:6028  _msgSender */\n      tag_70\n        /* \"https://github.com/OpenZeppelin/openzeppelin-contracts/blob/master/contracts/access/AccessControl.sol\":6018:6030  _msgSender() */\n      jump\t// in\n    tag_69:\n        /* \"https://github.com/OpenZeppelin/openzeppelin-contracts/blob/master/contracts/access/AccessControl.sol\":6007:6030  account == _msgSender() */\n      0xffffffffffffffffffffffffffffffffffffffff\n      and\n        /* \"https://github.com/OpenZeppelin/openzeppelin-contracts/blob/master/contracts/access/AccessControl.sol\":6007:6014  account */\n      dup2\n        /* \"https://github.com/OpenZeppelin/openzeppelin-contracts/blob/master/contracts/access/AccessControl.sol\":6007:6030  account == _msgSender() */\n      0xffffffffffffffffffffffffffffffffffffffff\n      and\n      eq\n        /* \"https://github.com/OpenZeppelin/openzeppelin-contracts/blob/master/contracts/access/AccessControl.sol\":5999:6082  require(account == _msgSender(), \"AccessControl: can only renounce roles for self\") */\n      tag_71\n      jumpi\n      mload(0x40)\n      0x08c379a000000000000000000000000000000000000000000000000000000000\n      dup2\n      mstore\n      0x04\n      add\n      tag_72\n      swap1\n      tag_73\n      jump\t// in\n    tag_72:\n      mload(0x40)\n      dup1\n      swap2\n      sub\n      swap1\n      revert\n    tag_71:\n        /* \"https://github.com/OpenZeppelin/openzeppelin-contracts/blob/master/contracts/access/AccessControl.sol\":6093:6119  _revokeRole(role, account) */\n      tag_74\n        /* \"https://github.com/OpenZeppelin/openzeppelin-contracts/blob/master/contracts/access/AccessControl.sol\":6105:6109  role */\n      dup3\n        /* \"https://github.com/OpenZeppelin/openzeppelin-contracts/blob/master/contracts/access/AccessControl.sol\":6111:6118  account */\n      dup3\n        /* \"https://github.com/OpenZeppelin/openzeppelin-contracts/blob/master/contracts/access/AccessControl.sol\":6093:6104  _revokeRole */\n      tag_75\n        /* \"https://github.com/OpenZeppelin/openzeppelin-contracts/blob/master/contracts/access/AccessControl.sol\":6093:6119  _revokeRole(role, account) */\n      jump\t// in\n    tag_74:\n        /* \"https://github.com/OpenZeppelin/openzeppelin-contracts/blob/master/contracts/access/AccessControl.sol\":5912:6126  function renounceRole(bytes32 role, address account) public virtual override {... */\n      pop\n      pop\n      jump\t// out\n        /* \"Openzepellin/OwnableOpZ.sol\":236:294  bytes32 public constant WRITER_ROL = keccak256(\"ADMI_ROL\") */\n    tag_34:\n        /* \"Openzepellin/OwnableOpZ.sol\":273:294  keccak256(\"ADMI_ROL\") */\n      0x0d08ba49c85b8f4efedcab2f953c61f86e8944d3d6185fd4fa77665e1274cfc4\n        /* \"Openzepellin/OwnableOpZ.sol\":236:294  bytes32 public constant WRITER_ROL = keccak256(\"ADMI_ROL\") */\n      dup2\n      jump\t// out\n        /* \"https://github.com/OpenZeppelin/openzeppelin-contracts/blob/master/contracts/access/AccessControl.sol\":2895:3040  function hasRole(bytes32 role, address account) public view virtual override returns (bool) {... */\n    tag_38:\n        /* \"https://github.com/OpenZeppelin/openzeppelin-contracts/blob/master/contracts/access/AccessControl.sol\":2981:2985  bool */\n      0x00\n        /* \"https://github.com/OpenZeppelin/openzeppelin-contracts/blob/master/contracts/access/AccessControl.sol\":3004:3010  _roles */\n      dup1\n        /* \"https://github.com/OpenZeppelin/openzeppelin-contracts/blob/master/contracts/access/AccessControl.sol\":3004:3016  _roles[role] */\n      0x00\n        /* \"https://github.com/OpenZeppelin/openzeppelin-contracts/blob/master/contracts/access/AccessControl.sol\":3011:3015  role */\n      dup5\n        /* \"https://github.com/OpenZeppelin/openzeppelin-contracts/blob/master/contracts/access/AccessControl.sol\":3004:3016  _roles[role] */\n      dup2\n      mstore\n      0x20\n      add\n      swap1\n      dup2\n      mstore\n      0x20\n      add\n      0x00\n      keccak256\n        /* \"https://github.com/OpenZeppelin/openzeppelin-contracts/blob/master/contracts/access/AccessControl.sol\":3004:3024  _roles[role].members */\n      0x00\n      add\n        /* \"https://github.com/OpenZeppelin/openzeppelin-contracts/blob/master/contracts/access/AccessControl.sol\":3004:3033  _roles[role].members[account] */\n      0x00\n        /* \"https://github.com/OpenZeppelin/openzeppelin-contracts/blob/master/contracts/access/AccessControl.sol\":3025:3032  account */\n      dup4\n        /* \"https://github.com/OpenZeppelin/openzeppelin-contracts/blob/master/contracts/access/AccessControl.sol\":3004:3033  _roles[role].members[account] */\n      0xffffffffffffffffffffffffffffffffffffffff\n      and\n      0xffffffffffffffffffffffffffffffffffffffff\n      and\n      dup2\n      mstore\n      0x20\n      add\n      swap1\n      dup2\n      mstore\n      0x20\n      add\n      0x00\n      keccak256\n      0x00\n      swap1\n      sload\n      swap1\n      0x0100\n      exp\n      swap1\n      div\n      0xff\n      and\n        /* \"https://github.com/OpenZeppelin/openzeppelin-contracts/blob/master/contracts/access/AccessControl.sol\":2997:3033  return _roles[role].members[account] */\n      swap1\n      pop\n        /* \"https://github.com/OpenZeppelin/openzeppelin-contracts/blob/master/contracts/access/AccessControl.sol\":2895:3040  function hasRole(bytes32 role, address account) public view virtual override returns (bool) {... */\n      swap3\n      swap2\n      pop\n      pop\n      jump\t// out\n        /* \"https://github.com/OpenZeppelin/openzeppelin-contracts/blob/master/contracts/access/AccessControl.sol\":2027:2076  bytes32 public constant DEFAULT_ADMIN_ROLE = 0x00 */\n    tag_41:\n        /* \"https://github.com/OpenZeppelin/openzeppelin-contracts/blob/master/contracts/access/AccessControl.sol\":2072:2076  0x00 */\n      0x00\n        /* \"https://github.com/OpenZeppelin/openzeppelin-contracts/blob/master/contracts/access/AccessControl.sol\":2027:2076  bytes32 public constant DEFAULT_ADMIN_ROLE = 0x00 */\n      dup1\n      shl\n      dup2\n      jump\t// out\n        /* \"Openzepellin/OwnableOpZ.sol\":376:497  function soloAdmin(uint a , uint b) public view onlyRole(DEFAULT_ADMIN_ROLE) returns (uint) {\r... */\n    tag_46:\n        /* \"Openzepellin/OwnableOpZ.sol\":462:466  uint */\n      0x00\n        /* \"https://github.com/OpenZeppelin/openzeppelin-contracts/blob/master/contracts/access/AccessControl.sol\":2072:2076  0x00 */\n      dup1\n        /* \"Openzepellin/OwnableOpZ.sol\":433:451  DEFAULT_ADMIN_ROLE */\n      0x00\n      shl\n        /* \"https://github.com/OpenZeppelin/openzeppelin-contracts/blob/master/contracts/access/AccessControl.sol\":2505:2521  _checkRole(role) */\n      tag_78\n        /* \"https://github.com/OpenZeppelin/openzeppelin-contracts/blob/master/contracts/access/AccessControl.sol\":2516:2520  role */\n      dup2\n        /* \"https://github.com/OpenZeppelin/openzeppelin-contracts/blob/master/contracts/access/AccessControl.sol\":2505:2515  _checkRole */\n      tag_64\n        /* \"https://github.com/OpenZeppelin/openzeppelin-contracts/blob/master/contracts/access/AccessControl.sol\":2505:2521  _checkRole(role) */\n      jump\t// in\n    tag_78:\n        /* \"Openzepellin/OwnableOpZ.sol\":490:491  b */\n      dup3\n        /* \"Openzepellin/OwnableOpZ.sol\":488:489  a */\n      dup5\n        /* \"Openzepellin/OwnableOpZ.sol\":488:491  a+b */\n      tag_80\n      swap2\n      swap1\n      tag_81\n      jump\t// in\n    tag_80:\n        /* \"Openzepellin/OwnableOpZ.sol\":481:491  return a+b */\n      swap2\n      pop\n        /* \"Openzepellin/OwnableOpZ.sol\":376:497  function soloAdmin(uint a , uint b) public view onlyRole(DEFAULT_ADMIN_ROLE) returns (uint) {\r... */\n      pop\n      swap3\n      swap2\n      pop\n      pop\n      jump\t// out\n        /* \"https://github.com/OpenZeppelin/openzeppelin-contracts/blob/master/contracts/access/AccessControl.sol\":5228:5375  function revokeRole(bytes32 role, address account) public virtual override onlyRole(getRoleAdmin(role)) {... */\n    tag_51:\n        /* \"https://github.com/OpenZeppelin/openzeppelin-contracts/blob/master/contracts/access/AccessControl.sol\":5312:5330  getRoleAdmin(role) */\n      tag_82\n        /* \"https://github.com/OpenZeppelin/openzeppelin-contracts/blob/master/contracts/access/AccessControl.sol\":5325:5329  role */\n      dup3\n        /* \"https://github.com/OpenZeppelin/openzeppelin-contracts/blob/master/contracts/access/AccessControl.sol\":5312:5324  getRoleAdmin */\n      tag_23\n        /* \"https://github.com/OpenZeppelin/openzeppelin-contracts/blob/master/contracts/access/AccessControl.sol\":5312:5330  getRoleAdmin(role) */\n      jump\t// in\n    tag_82:\n        /* \"https://github.com/OpenZeppelin/openzeppelin-contracts/blob/master/contracts/access/AccessControl.sol\":2505:2521  _checkRole(role) */\n      tag_84\n        /* \"https://github.com/OpenZeppelin/openzeppelin-contracts/blob/master/contracts/access/AccessControl.sol\":2516:2520  role */\n      dup2\n        /* \"https://github.com/OpenZeppelin/openzeppelin-contracts/blob/master/contracts/access/AccessControl.sol\":2505:2515  _checkRole */\n      tag_64\n        /* \"https://github.com/OpenZeppelin/openzeppelin-contracts/blob/master/contracts/access/AccessControl.sol\":2505:2521  _checkRole(role) */\n      jump\t// in\n    tag_84:\n        /* \"https://github.com/OpenZeppelin/openzeppelin-contracts/blob/master/contracts/access/AccessControl.sol\":5342:5368  _revokeRole(role, account) */\n      tag_86\n        /* \"https://github.com/OpenZeppelin/openzeppelin-contracts/blob/master/contracts/access/AccessControl.sol\":5354:5358  role */\n      dup4\n        /* \"https://github.com/OpenZeppelin/openzeppelin-contracts/blob/master/contracts/access/AccessControl.sol\":5360:5367  account */\n      dup4\n        /* \"https://github.com/OpenZeppelin/openzeppelin-contracts/blob/master/contracts/access/AccessControl.sol\":5342:5353  _revokeRole */\n      tag_75\n        /* \"https://github.com/OpenZeppelin/openzeppelin-contracts/blob/master/contracts/access/AccessControl.sol\":5342:5368  _revokeRole(role, account) */\n      jump\t// in\n    tag_86:\n        /* \"https://github.com/OpenZeppelin/openzeppelin-contracts/blob/master/contracts/access/AccessControl.sol\":5228:5375  function revokeRole(bytes32 role, address account) public virtual override onlyRole(getRoleAdmin(role)) {... */\n      pop\n      pop\n      pop\n      jump\t// out\n        /* \"Openzepellin/OwnableOpZ.sol\":503:610  function soloWriter (uint a, uint b) public view onlyRole(WRITER_ROL) returns(uint) {\r... */\n    tag_54:\n        /* \"Openzepellin/OwnableOpZ.sol\":581:585  uint */\n      0x00\n        /* \"Openzepellin/OwnableOpZ.sol\":273:294  keccak256(\"ADMI_ROL\") */\n      0x0d08ba49c85b8f4efedcab2f953c61f86e8944d3d6185fd4fa77665e1274cfc4\n        /* \"https://github.com/OpenZeppelin/openzeppelin-contracts/blob/master/contracts/access/AccessControl.sol\":2505:2521  _checkRole(role) */\n      tag_88\n        /* \"https://github.com/OpenZeppelin/openzeppelin-contracts/blob/master/contracts/access/AccessControl.sol\":2516:2520  role */\n      dup2\n        /* \"https://github.com/OpenZeppelin/openzeppelin-contracts/blob/master/contracts/access/AccessControl.sol\":2505:2515  _checkRole */\n      tag_64\n        /* \"https://github.com/OpenZeppelin/openzeppelin-contracts/blob/master/contracts/access/AccessControl.sol\":2505:2521  _checkRole(role) */\n      jump\t// in\n    tag_88:\n        /* \"Openzepellin/OwnableOpZ.sol\":605:606  b */\n      dup3\n        /* \"Openzepellin/OwnableOpZ.sol\":603:604  a */\n      dup5\n        /* \"Openzepellin/OwnableOpZ.sol\":603:606  a*b */\n      tag_90\n      swap2\n      swap1\n      tag_91\n      jump\t// in\n    tag_90:\n        /* \"Openzepellin/OwnableOpZ.sol\":596:606  return a*b */\n      swap2\n      pop\n        /* \"Openzepellin/OwnableOpZ.sol\":503:610  function soloWriter (uint a, uint b) public view onlyRole(WRITER_ROL) returns(uint) {\r... */\n      pop\n      swap3\n      swap2\n      pop\n      pop\n      jump\t// out\n        /* \"https://github.com/OpenZeppelin/openzeppelin-contracts/blob/master/contracts/utils/introspection/ERC165.sol\":829:984  function supportsInterface(bytes4 interfaceId) public view virtual override returns (bool) {... */\n    tag_59:\n        /* \"https://github.com/OpenZeppelin/openzeppelin-contracts/blob/master/contracts/utils/introspection/ERC165.sol\":914:918  bool */\n      0x00\n        /* \"https://github.com/OpenZeppelin/openzeppelin-contracts/blob/master/contracts/utils/introspection/ERC165.sol\":952:977  type(IERC165).interfaceId */\n      0x01ffc9a700000000000000000000000000000000000000000000000000000000\n        /* \"https://github.com/OpenZeppelin/openzeppelin-contracts/blob/master/contracts/utils/introspection/ERC165.sol\":937:977  interfaceId == type(IERC165).interfaceId */\n      not(0xffffffffffffffffffffffffffffffffffffffffffffffffffffffff)\n      and\n        /* \"https://github.com/OpenZeppelin/openzeppelin-contracts/blob/master/contracts/utils/introspection/ERC165.sol\":937:948  interfaceId */\n      dup3\n        /* \"https://github.com/OpenZeppelin/openzeppelin-contracts/blob/master/contracts/utils/introspection/ERC165.sol\":937:977  interfaceId == type(IERC165).interfaceId */\n      not(0xffffffffffffffffffffffffffffffffffffffffffffffffffffffff)\n      and\n      eq\n        /* \"https://github.com/OpenZeppelin/openzeppelin-contracts/blob/master/contracts/utils/introspection/ERC165.sol\":930:977  return interfaceId == type(IERC165).interfaceId */\n      swap1\n      pop\n        /* \"https://github.com/OpenZeppelin/openzeppelin-contracts/blob/master/contracts/utils/introspection/ERC165.sol\":829:984  function supportsInterface(bytes4 interfaceId) public view virtual override returns (bool) {... */\n      swap2\n      swap1\n      pop\n      jump\t// out\n        /* \"https://github.com/OpenZeppelin/openzeppelin-contracts/blob/master/contracts/access/AccessControl.sol\":3334:3437  function _checkRole(bytes32 role) internal view virtual {... */\n    tag_64:\n        /* \"https://github.com/OpenZeppelin/openzeppelin-contracts/blob/master/contracts/access/AccessControl.sol\":3400:3430  _checkRole(role, _msgSender()) */\n      tag_94\n        /* \"https://github.com/OpenZeppelin/openzeppelin-contracts/blob/master/contracts/access/AccessControl.sol\":3411:3415  role */\n      dup2\n        /* \"https://github.com/OpenZeppelin/openzeppelin-contracts/blob/master/contracts/access/AccessControl.sol\":3417:3429  _msgSender() */\n      tag_95\n        /* \"https://github.com/OpenZeppelin/openzeppelin-contracts/blob/master/contracts/access/AccessControl.sol\":3417:3427  _msgSender */\n      tag_70\n        /* \"https://github.com/OpenZeppelin/openzeppelin-contracts/blob/master/contracts/access/AccessControl.sol\":3417:3429  _msgSender() */\n      jump\t// in\n    tag_95:\n        /* \"https://github.com/OpenZeppelin/openzeppelin-contracts/blob/master/contracts/access/AccessControl.sol\":3400:3410  _checkRole */\n      tag_96\n        /* \"https://github.com/OpenZeppelin/openzeppelin-contracts/blob/master/contracts/access/AccessControl.sol\":3400:3430  _checkRole(role, _msgSender()) */\n      jump\t// in\n    tag_94:\n        /* \"https://github.com/OpenZeppelin/openzeppelin-contracts/blob/master/contracts/access/AccessControl.sol\":3334:3437  function _checkRole(bytes32 role) internal view virtual {... */\n      pop\n      jump\t// out\n        /* \"https://github.com/OpenZeppelin/openzeppelin-contracts/blob/master/contracts/access/AccessControl.sol\":7461:7694  function _grantRole(bytes32 role, address account) internal virtual {... */\n    tag_67:\n        /* \"https://github.com/OpenZeppelin/openzeppelin-contracts/blob/master/contracts/access/AccessControl.sol\":7544:7566  hasRole(role, account) */\n      tag_98\n        /* \"https://github.com/OpenZeppelin/openzeppelin-contracts/blob/master/contracts/access/AccessControl.sol\":7552:7556  role */\n      dup3\n        /* \"https://github.com/OpenZeppelin/openzeppelin-contracts/blob/master/contracts/access/AccessControl.sol\":7558:7565  account */\n      dup3\n        /* \"https://github.com/OpenZeppelin/openzeppelin-contracts/blob/master/contracts/access/AccessControl.sol\":7544:7551  hasRole */\n      tag_38\n        /* \"https://github.com/OpenZeppelin/openzeppelin-contracts/blob/master/contracts/access/AccessControl.sol\":7544:7566  hasRole(role, account) */\n      jump\t// in\n    tag_98:\n        /* \"https://github.com/OpenZeppelin/openzeppelin-contracts/blob/master/contracts/access/AccessControl.sol\":7539:7688  if (!hasRole(role, account)) {... */\n      tag_99\n      jumpi\n        /* \"https://github.com/OpenZeppelin/openzeppelin-contracts/blob/master/contracts/access/AccessControl.sol\":7614:7618  true */\n      0x01\n        /* \"https://github.com/OpenZeppelin/openzeppelin-contracts/blob/master/contracts/access/AccessControl.sol\":7582:7588  _roles */\n      0x00\n        /* \"https://github.com/OpenZeppelin/openzeppelin-contracts/blob/master/contracts/access/AccessControl.sol\":7582:7594  _roles[role] */\n      dup1\n        /* \"https://github.com/OpenZeppelin/openzeppelin-contracts/blob/master/contracts/access/AccessControl.sol\":7589:7593  role */\n      dup5\n        /* \"https://github.com/OpenZeppelin/openzeppelin-contracts/blob/master/contracts/access/AccessControl.sol\":7582:7594  _roles[role] */\n      dup2\n      mstore\n      0x20\n      add\n      swap1\n      dup2\n      mstore\n      0x20\n      add\n      0x00\n      keccak256\n        /* \"https://github.com/OpenZeppelin/openzeppelin-contracts/blob/master/contracts/access/AccessControl.sol\":7582:7602  _roles[role].members */\n      0x00\n      add\n        /* \"https://github.com/OpenZeppelin/openzeppelin-contracts/blob/master/contracts/access/AccessControl.sol\":7582:7611  _roles[role].members[account] */\n      0x00\n        /* \"https://github.com/OpenZeppelin/openzeppelin-contracts/blob/master/contracts/access/AccessControl.sol\":7603:7610  account */\n      dup4\n        /* \"https://github.com/OpenZeppelin/openzeppelin-contracts/blob/master/contracts/access/AccessControl.sol\":7582:7611  _roles[role].members[account] */\n      0xffffffffffffffffffffffffffffffffffffffff\n      and\n      0xffffffffffffffffffffffffffffffffffffffff\n      and\n      dup2\n      mstore\n      0x20\n      add\n      swap1\n      dup2\n      mstore\n      0x20\n      add\n      0x00\n      keccak256\n      0x00\n        /* \"https://github.com/OpenZeppelin/openzeppelin-contracts/blob/master/contracts/access/AccessControl.sol\":7582:7618  _roles[role].members[account] = true */\n      0x0100\n      exp\n      dup2\n      sload\n      dup2\n      0xff\n      mul\n      not\n      and\n      swap1\n      dup4\n      iszero\n      iszero\n      mul\n      or\n      swap1\n      sstore\n      pop\n        /* \"https://github.com/OpenZeppelin/openzeppelin-contracts/blob/master/contracts/access/AccessControl.sol\":7664:7676  _msgSender() */\n      tag_100\n        /* \"https://github.com/OpenZeppelin/openzeppelin-contracts/blob/master/contracts/access/AccessControl.sol\":7664:7674  _msgSender */\n      tag_70\n        /* \"https://github.com/OpenZeppelin/openzeppelin-contracts/blob/master/contracts/access/AccessControl.sol\":7664:7676  _msgSender() */\n      jump\t// in\n    tag_100:\n        /* \"https://github.com/OpenZeppelin/openzeppelin-contracts/blob/master/contracts/access/AccessControl.sol\":7637:7677  RoleGranted(role, account, _msgSender()) */\n      0xffffffffffffffffffffffffffffffffffffffff\n      and\n        /* \"https://github.com/OpenZeppelin/openzeppelin-contracts/blob/master/contracts/access/AccessControl.sol\":7655:7662  account */\n      dup2\n        /* \"https://github.com/OpenZeppelin/openzeppelin-contracts/blob/master/contracts/access/AccessControl.sol\":7637:7677  RoleGranted(role, account, _msgSender()) */\n      0xffffffffffffffffffffffffffffffffffffffff\n      and\n        /* \"https://github.com/OpenZeppelin/openzeppelin-contracts/blob/master/contracts/access/AccessControl.sol\":7649:7653  role */\n      dup4\n        /* \"https://github.com/OpenZeppelin/openzeppelin-contracts/blob/master/contracts/access/AccessControl.sol\":7637:7677  RoleGranted(role, account, _msgSender()) */\n      0x2f8788117e7eff1d82e926ec794901d17c78024a50270940304540a733656f0d\n      mload(0x40)\n      mload(0x40)\n      dup1\n      swap2\n      sub\n      swap1\n      log4\n        /* \"https://github.com/OpenZeppelin/openzeppelin-contracts/blob/master/contracts/access/AccessControl.sol\":7539:7688  if (!hasRole(role, account)) {... */\n    tag_99:\n        /* \"https://github.com/OpenZeppelin/openzeppelin-contracts/blob/master/contracts/access/AccessControl.sol\":7461:7694  function _grantRole(bytes32 role, address account) internal virtual {... */\n      pop\n      pop\n      jump\t// out\n        /* \"https://github.com/OpenZeppelin/openzeppelin-contracts/blob/master/contracts/utils/Context.sol\":640:736  function _msgSender() internal view virtual returns (address) {... */\n    tag_70:\n        /* \"https://github.com/OpenZeppelin/openzeppelin-contracts/blob/master/contracts/utils/Context.sol\":693:700  address */\n      0x00\n        /* \"https://github.com/OpenZeppelin/openzeppelin-contracts/blob/master/contracts/utils/Context.sol\":719:729  msg.sender */\n      caller\n        /* \"https://github.com/OpenZeppelin/openzeppelin-contracts/blob/master/contracts/utils/Context.sol\":712:729  return msg.sender */\n      swap1\n      pop\n        /* \"https://github.com/OpenZeppelin/openzeppelin-contracts/blob/master/contracts/utils/Context.sol\":640:736  function _msgSender() internal view virtual returns (address) {... */\n      swap1\n      jump\t// out\n        /* \"https://github.com/OpenZeppelin/openzeppelin-contracts/blob/master/contracts/access/AccessControl.sol\":7865:8099  function _revokeRole(bytes32 role, address account) internal virtual {... */\n    tag_75:\n        /* \"https://github.com/OpenZeppelin/openzeppelin-contracts/blob/master/contracts/access/AccessControl.sol\":7948:7970  hasRole(role, account) */\n      tag_103\n        /* \"https://github.com/OpenZeppelin/openzeppelin-contracts/blob/master/contracts/access/AccessControl.sol\":7956:7960  role */\n      dup3\n        /* \"https://github.com/OpenZeppelin/openzeppelin-contracts/blob/master/contracts/access/AccessControl.sol\":7962:7969  account */\n      dup3\n        /* \"https://github.com/OpenZeppelin/openzeppelin-contracts/blob/master/contracts/access/AccessControl.sol\":7948:7955  hasRole */\n      tag_38\n        /* \"https://github.com/OpenZeppelin/openzeppelin-contracts/blob/master/contracts/access/AccessControl.sol\":7948:7970  hasRole(role, account) */\n      jump\t// in\n    tag_103:\n        /* \"https://github.com/OpenZeppelin/openzeppelin-contracts/blob/master/contracts/access/AccessControl.sol\":7944:8093  if (hasRole(role, account)) {... */\n      iszero\n      tag_104\n      jumpi\n        /* \"https://github.com/OpenZeppelin/openzeppelin-contracts/blob/master/contracts/access/AccessControl.sol\":8018:8023  false */\n      0x00\n        /* \"https://github.com/OpenZeppelin/openzeppelin-contracts/blob/master/contracts/access/AccessControl.sol\":7986:7992  _roles */\n      dup1\n        /* \"https://github.com/OpenZeppelin/openzeppelin-contracts/blob/master/contracts/access/AccessControl.sol\":7986:7998  _roles[role] */\n      0x00\n        /* \"https://github.com/OpenZeppelin/openzeppelin-contracts/blob/master/contracts/access/AccessControl.sol\":7993:7997  role */\n      dup5\n        /* \"https://github.com/OpenZeppelin/openzeppelin-contracts/blob/master/contracts/access/AccessControl.sol\":7986:7998  _roles[role] */\n      dup2\n      mstore\n      0x20\n      add\n      swap1\n      dup2\n      mstore\n      0x20\n      add\n      0x00\n      keccak256\n        /* \"https://github.com/OpenZeppelin/openzeppelin-contracts/blob/master/contracts/access/AccessControl.sol\":7986:8006  _roles[role].members */\n      0x00\n      add\n        /* \"https://github.com/OpenZeppelin/openzeppelin-contracts/blob/master/contracts/access/AccessControl.sol\":7986:8015  _roles[role].members[account] */\n      0x00\n        /* \"https://github.com/OpenZeppelin/openzeppelin-contracts/blob/master/contracts/access/AccessControl.sol\":8007:8014  account */\n      dup4\n        /* \"https://github.com/OpenZeppelin/openzeppelin-contracts/blob/master/contracts/access/AccessControl.sol\":7986:8015  _roles[role].members[account] */\n      0xffffffffffffffffffffffffffffffffffffffff\n      and\n      0xffffffffffffffffffffffffffffffffffffffff\n      and\n      dup2\n      mstore\n      0x20\n      add\n      swap1\n      dup2\n      mstore\n      0x20\n      add\n      0x00\n      keccak256\n      0x00\n        /* \"https://github.com/OpenZeppelin/openzeppelin-contracts/blob/master/contracts/access/AccessControl.sol\":7986:8023  _roles[role].members[account] = false */\n      0x0100\n      exp\n      dup2\n      sload\n      dup2\n      0xff\n      mul\n      not\n      and\n      swap1\n      dup4\n      iszero\n      iszero\n      mul\n      or\n      swap1\n      sstore\n      pop\n        /* \"https://github.com/OpenZeppelin/openzeppelin-contracts/blob/master/contracts/access/AccessControl.sol\":8069:8081  _msgSender() */\n      tag_105\n        /* \"https://github.com/OpenZeppelin/openzeppelin-contracts/blob/master/contracts/access/AccessControl.sol\":8069:8079  _msgSender */\n      tag_70\n        /* \"https://github.com/OpenZeppelin/openzeppelin-contracts/blob/master/contracts/access/AccessControl.sol\":8069:8081  _msgSender() */\n      jump\t// in\n    tag_105:\n        /* \"https://github.com/OpenZeppelin/openzeppelin-contracts/blob/master/contracts/access/AccessControl.sol\":8042:8082  RoleRevoked(role, account, _msgSender()) */\n      0xffffffffffffffffffffffffffffffffffffffff\n      and\n        /* \"https://github.com/OpenZeppelin/openzeppelin-contracts/blob/master/contracts/access/AccessControl.sol\":8060:8067  account */\n      dup2\n        /* \"https://github.com/OpenZeppelin/openzeppelin-contracts/blob/master/contracts/access/AccessControl.sol\":8042:8082  RoleRevoked(role, account, _msgSender()) */\n      0xffffffffffffffffffffffffffffffffffffffff\n      and\n        /* \"https://github.com/OpenZeppelin/openzeppelin-contracts/blob/master/contracts/access/AccessControl.sol\":8054:8058  role */\n      dup4\n        /* \"https://github.com/OpenZeppelin/openzeppelin-contracts/blob/master/contracts/access/AccessControl.sol\":8042:8082  RoleRevoked(role, account, _msgSender()) */\n      0xf6391f5c32d9c69d2a47ea670b442974b53935d1edc7fd64eb21e047a839171b\n      mload(0x40)\n      mload(0x40)\n      dup1\n      swap2\n      sub\n      swap1\n      log4\n        /* \"https://github.com/OpenZeppelin/openzeppelin-contracts/blob/master/contracts/access/AccessControl.sol\":7944:8093  if (hasRole(role, account)) {... */\n    tag_104:\n        /* \"https://github.com/OpenZeppelin/openzeppelin-contracts/blob/master/contracts/access/AccessControl.sol\":7865:8099  function _revokeRole(bytes32 role, address account) internal virtual {... */\n      pop\n      pop\n      jump\t// out\n        /* \"https://github.com/OpenZeppelin/openzeppelin-contracts/blob/master/contracts/access/AccessControl.sol\":3718:4197  function _checkRole(bytes32 role, address account) internal view virtual {... */\n    tag_96:\n        /* \"https://github.com/OpenZeppelin/openzeppelin-contracts/blob/master/contracts/access/AccessControl.sol\":3806:3828  hasRole(role, account) */\n      tag_107\n        /* \"https://github.com/OpenZeppelin/openzeppelin-contracts/blob/master/contracts/access/AccessControl.sol\":3814:3818  role */\n      dup3\n        /* \"https://github.com/OpenZeppelin/openzeppelin-contracts/blob/master/contracts/access/AccessControl.sol\":3820:3827  account */\n      dup3\n        /* \"https://github.com/OpenZeppelin/openzeppelin-contracts/blob/master/contracts/access/AccessControl.sol\":3806:3813  hasRole */\n      tag_38\n        /* \"https://github.com/OpenZeppelin/openzeppelin-contracts/blob/master/contracts/access/AccessControl.sol\":3806:3828  hasRole(role, account) */\n      jump\t// in\n    tag_107:\n        /* \"https://github.com/OpenZeppelin/openzeppelin-contracts/blob/master/contracts/access/AccessControl.sol\":3801:4191  if (!hasRole(role, account)) {... */\n      tag_108\n      jumpi\n        /* \"https://github.com/OpenZeppelin/openzeppelin-contracts/blob/master/contracts/access/AccessControl.sol\":3989:4017  Strings.toHexString(account) */\n      tag_109\n        /* \"https://github.com/OpenZeppelin/openzeppelin-contracts/blob/master/contracts/access/AccessControl.sol\":4009:4016  account */\n      dup2\n        /* \"https://github.com/OpenZeppelin/openzeppelin-contracts/blob/master/contracts/access/AccessControl.sol\":3989:4008  Strings.toHexString */\n      tag_110\n        /* \"https://github.com/OpenZeppelin/openzeppelin-contracts/blob/master/contracts/access/AccessControl.sol\":3989:4017  Strings.toHexString(account) */\n      jump\t// in\n    tag_109:\n        /* \"https://github.com/OpenZeppelin/openzeppelin-contracts/blob/master/contracts/access/AccessControl.sol\":4088:4126  Strings.toHexString(uint256(role), 32) */\n      tag_111\n        /* \"https://github.com/OpenZeppelin/openzeppelin-contracts/blob/master/contracts/access/AccessControl.sol\":4116:4120  role */\n      dup4\n        /* \"https://github.com/OpenZeppelin/openzeppelin-contracts/blob/master/contracts/access/AccessControl.sol\":4108:4121  uint256(role) */\n      0x00\n      shr\n        /* \"https://github.com/OpenZeppelin/openzeppelin-contracts/blob/master/contracts/access/AccessControl.sol\":4123:4125  32 */\n      0x20\n        /* \"https://github.com/OpenZeppelin/openzeppelin-contracts/blob/master/contracts/access/AccessControl.sol\":4088:4107  Strings.toHexString */\n      tag_112\n        /* \"https://github.com/OpenZeppelin/openzeppelin-contracts/blob/master/contracts/access/AccessControl.sol\":4088:4126  Strings.toHexString(uint256(role), 32) */\n      jump\t// in\n    tag_111:\n        /* \"https://github.com/OpenZeppelin/openzeppelin-contracts/blob/master/contracts/access/AccessControl.sol\":3896:4148  abi.encodePacked(... */\n      add(0x20, mload(0x40))\n      tag_113\n      swap3\n      swap2\n      swap1\n      tag_114\n      jump\t// in\n    tag_113:\n      mload(0x40)\n      0x20\n      dup2\n      dup4\n      sub\n      sub\n      dup2\n      mstore\n      swap1\n      0x40\n      mstore\n        /* \"https://github.com/OpenZeppelin/openzeppelin-contracts/blob/master/contracts/access/AccessControl.sol\":3844:4180  revert(... */\n      mload(0x40)\n      0x08c379a000000000000000000000000000000000000000000000000000000000\n      dup2\n      mstore\n      0x04\n      add\n      tag_115\n      swap2\n      swap1\n      tag_116\n      jump\t// in\n    tag_115:\n      mload(0x40)\n      dup1\n      swap2\n      sub\n      swap1\n      revert\n        /* \"https://github.com/OpenZeppelin/openzeppelin-contracts/blob/master/contracts/access/AccessControl.sol\":3801:4191  if (!hasRole(role, account)) {... */\n    tag_108:\n        /* \"https://github.com/OpenZeppelin/openzeppelin-contracts/blob/master/contracts/access/AccessControl.sol\":3718:4197  function _checkRole(bytes32 role, address account) internal view virtual {... */\n      pop\n      pop\n      jump\t// out\n        /* \"https://github.com/OpenZeppelin/openzeppelin-contracts/blob/master/contracts/utils/Strings.sol\":2102:2251  function toHexString(address addr) internal pure returns (string memory) {... */\n    tag_110:\n        /* \"https://github.com/OpenZeppelin/openzeppelin-contracts/blob/master/contracts/utils/Strings.sol\":2160:2173  string memory */\n      0x60\n        /* \"https://github.com/OpenZeppelin/openzeppelin-contracts/blob/master/contracts/utils/Strings.sol\":2192:2244  toHexString(uint256(uint160(addr)), _ADDRESS_LENGTH) */\n      tag_118\n        /* \"https://github.com/OpenZeppelin/openzeppelin-contracts/blob/master/contracts/utils/Strings.sol\":2220:2224  addr */\n      dup3\n        /* \"https://github.com/OpenZeppelin/openzeppelin-contracts/blob/master/contracts/utils/Strings.sol\":2204:2226  uint256(uint160(addr)) */\n      0xffffffffffffffffffffffffffffffffffffffff\n      and\n        /* \"https://github.com/OpenZeppelin/openzeppelin-contracts/blob/master/contracts/utils/Strings.sol\":311:313  20 */\n      0x14\n        /* \"https://github.com/OpenZeppelin/openzeppelin-contracts/blob/master/contracts/utils/Strings.sol\":2192:2244  toHexString(uint256(uint160(addr)), _ADDRESS_LENGTH) */\n      0xff\n      and\n        /* \"https://github.com/OpenZeppelin/openzeppelin-contracts/blob/master/contracts/utils/Strings.sol\":2192:2203  toHexString */\n      tag_112\n        /* \"https://github.com/OpenZeppelin/openzeppelin-contracts/blob/master/contracts/utils/Strings.sol\":2192:2244  toHexString(uint256(uint160(addr)), _ADDRESS_LENGTH) */\n      jump\t// in\n    tag_118:\n        /* \"https://github.com/OpenZeppelin/openzeppelin-contracts/blob/master/contracts/utils/Strings.sol\":2185:2244  return toHexString(uint256(uint160(addr)), _ADDRESS_LENGTH) */\n      swap1\n      pop\n        /* \"https://github.com/OpenZeppelin/openzeppelin-contracts/blob/master/contracts/utils/Strings.sol\":2102:2251  function toHexString(address addr) internal pure returns (string memory) {... */\n      swap2\n      swap1\n      pop\n      jump\t// out\n        /* \"https://github.com/OpenZeppelin/openzeppelin-contracts/blob/master/contracts/utils/Strings.sol\":1513:1950  function toHexString(uint256 value, uint256 length) internal pure returns (string memory) {... */\n    tag_112:\n        /* \"https://github.com/OpenZeppelin/openzeppelin-contracts/blob/master/contracts/utils/Strings.sol\":1588:1601  string memory */\n      0x60\n        /* \"https://github.com/OpenZeppelin/openzeppelin-contracts/blob/master/contracts/utils/Strings.sol\":1613:1632  bytes memory buffer */\n      0x00\n        /* \"https://github.com/OpenZeppelin/openzeppelin-contracts/blob/master/contracts/utils/Strings.sol\":1658:1659  2 */\n      0x02\n        /* \"https://github.com/OpenZeppelin/openzeppelin-contracts/blob/master/contracts/utils/Strings.sol\":1649:1655  length */\n      dup4\n        /* \"https://github.com/OpenZeppelin/openzeppelin-contracts/blob/master/contracts/utils/Strings.sol\":1645:1646  2 */\n      0x02\n        /* \"https://github.com/OpenZeppelin/openzeppelin-contracts/blob/master/contracts/utils/Strings.sol\":1645:1655  2 * length */\n      tag_120\n      swap2\n      swap1\n      tag_91\n      jump\t// in\n    tag_120:\n        /* \"https://github.com/OpenZeppelin/openzeppelin-contracts/blob/master/contracts/utils/Strings.sol\":1645:1659  2 * length + 2 */\n      tag_121\n      swap2\n      swap1\n      tag_81\n      jump\t// in\n    tag_121:\n        /* \"https://github.com/OpenZeppelin/openzeppelin-contracts/blob/master/contracts/utils/Strings.sol\":1635:1660  new bytes(2 * length + 2) */\n      0xffffffffffffffff\n      dup2\n      gt\n      iszero\n      tag_122\n      jumpi\n      tag_123\n      tag_124\n      jump\t// in\n    tag_123:\n    tag_122:\n      mload(0x40)\n      swap1\n      dup1\n      dup3\n      mstore\n      dup1\n      0x1f\n      add\n      not(0x1f)\n      and\n      0x20\n      add\n      dup3\n      add\n      0x40\n      mstore\n      dup1\n      iszero\n      tag_125\n      jumpi\n      dup2\n      0x20\n      add\n      0x01\n      dup3\n      mul\n      dup1\n      calldatasize\n      dup4\n      calldatacopy\n      dup1\n      dup3\n      add\n      swap2\n      pop\n      pop\n      swap1\n      pop\n    tag_125:\n      pop\n        /* \"https://github.com/OpenZeppelin/openzeppelin-contracts/blob/master/contracts/utils/Strings.sol\":1613:1660  bytes memory buffer = new bytes(2 * length + 2) */\n      swap1\n      pop\n        /* \"https://github.com/OpenZeppelin/openzeppelin-contracts/blob/master/contracts/utils/Strings.sol\":1670:1685  buffer[0] = \"0\" */\n      0x3000000000000000000000000000000000000000000000000000000000000000\n        /* \"https://github.com/OpenZeppelin/openzeppelin-contracts/blob/master/contracts/utils/Strings.sol\":1670:1676  buffer */\n      dup2\n        /* \"https://github.com/OpenZeppelin/openzeppelin-contracts/blob/master/contracts/utils/Strings.sol\":1677:1678  0 */\n      0x00\n        /* \"https://github.com/OpenZeppelin/openzeppelin-contracts/blob/master/contracts/utils/Strings.sol\":1670:1679  buffer[0] */\n      dup2\n      mload\n      dup2\n      lt\n      tag_126\n      jumpi\n      tag_127\n      tag_128\n      jump\t// in\n    tag_127:\n    tag_126:\n      0x20\n      add\n      add\n        /* \"https://github.com/OpenZeppelin/openzeppelin-contracts/blob/master/contracts/utils/Strings.sol\":1670:1685  buffer[0] = \"0\" */\n      swap1\n      not(0xffffffffffffffffffffffffffffffffffffffffffffffffffffffffffffff)\n      and\n      swap1\n      dup2\n      0x00\n      byte\n      swap1\n      mstore8\n      pop\n        /* \"https://github.com/OpenZeppelin/openzeppelin-contracts/blob/master/contracts/utils/Strings.sol\":1695:1710  buffer[1] = \"x\" */\n      0x7800000000000000000000000000000000000000000000000000000000000000\n        /* \"https://github.com/OpenZeppelin/openzeppelin-contracts/blob/master/contracts/utils/Strings.sol\":1695:1701  buffer */\n      dup2\n        /* \"https://github.com/OpenZeppelin/openzeppelin-contracts/blob/master/contracts/utils/Strings.sol\":1702:1703  1 */\n      0x01\n        /* \"https://github.com/OpenZeppelin/openzeppelin-contracts/blob/master/contracts/utils/Strings.sol\":1695:1704  buffer[1] */\n      dup2\n      mload\n      dup2\n      lt\n      tag_129\n      jumpi\n      tag_130\n      tag_128\n      jump\t// in\n    tag_130:\n    tag_129:\n      0x20\n      add\n      add\n        /* \"https://github.com/OpenZeppelin/openzeppelin-contracts/blob/master/contracts/utils/Strings.sol\":1695:1710  buffer[1] = \"x\" */\n      swap1\n      not(0xffffffffffffffffffffffffffffffffffffffffffffffffffffffffffffff)\n      and\n      swap1\n      dup2\n      0x00\n      byte\n      swap1\n      mstore8\n      pop\n        /* \"https://github.com/OpenZeppelin/openzeppelin-contracts/blob/master/contracts/utils/Strings.sol\":1725:1734  uint256 i */\n      0x00\n        /* \"https://github.com/OpenZeppelin/openzeppelin-contracts/blob/master/contracts/utils/Strings.sol\":1750:1751  1 */\n      0x01\n        /* \"https://github.com/OpenZeppelin/openzeppelin-contracts/blob/master/contracts/utils/Strings.sol\":1741:1747  length */\n      dup5\n        /* \"https://github.com/OpenZeppelin/openzeppelin-contracts/blob/master/contracts/utils/Strings.sol\":1737:1738  2 */\n      0x02\n        /* \"https://github.com/OpenZeppelin/openzeppelin-contracts/blob/master/contracts/utils/Strings.sol\":1737:1747  2 * length */\n      tag_134\n      swap2\n      swap1\n      tag_91\n      jump\t// in\n    tag_134:\n        /* \"https://github.com/OpenZeppelin/openzeppelin-contracts/blob/master/contracts/utils/Strings.sol\":1737:1751  2 * length + 1 */\n      tag_135\n      swap2\n      swap1\n      tag_81\n      jump\t// in\n    tag_135:\n        /* \"https://github.com/OpenZeppelin/openzeppelin-contracts/blob/master/contracts/utils/Strings.sol\":1725:1751  uint256 i = 2 * length + 1 */\n      swap1\n      pop\n        /* \"https://github.com/OpenZeppelin/openzeppelin-contracts/blob/master/contracts/utils/Strings.sol\":1720:1848  for (uint256 i = 2 * length + 1; i > 1; --i) {... */\n    tag_131:\n        /* \"https://github.com/OpenZeppelin/openzeppelin-contracts/blob/master/contracts/utils/Strings.sol\":1757:1758  1 */\n      0x01\n        /* \"https://github.com/OpenZeppelin/openzeppelin-contracts/blob/master/contracts/utils/Strings.sol\":1753:1754  i */\n      dup2\n        /* \"https://github.com/OpenZeppelin/openzeppelin-contracts/blob/master/contracts/utils/Strings.sol\":1753:1758  i > 1 */\n      gt\n        /* \"https://github.com/OpenZeppelin/openzeppelin-contracts/blob/master/contracts/utils/Strings.sol\":1720:1848  for (uint256 i = 2 * length + 1; i > 1; --i) {... */\n      iszero\n      tag_132\n      jumpi\n        /* \"https://github.com/OpenZeppelin/openzeppelin-contracts/blob/master/contracts/utils/Strings.sol\":1791:1799  _SYMBOLS */\n      0x3031323334353637383961626364656600000000000000000000000000000000\n        /* \"https://github.com/OpenZeppelin/openzeppelin-contracts/blob/master/contracts/utils/Strings.sol\":1808:1811  0xf */\n      0x0f\n        /* \"https://github.com/OpenZeppelin/openzeppelin-contracts/blob/master/contracts/utils/Strings.sol\":1800:1805  value */\n      dup7\n        /* \"https://github.com/OpenZeppelin/openzeppelin-contracts/blob/master/contracts/utils/Strings.sol\":1800:1811  value & 0xf */\n      and\n        /* \"https://github.com/OpenZeppelin/openzeppelin-contracts/blob/master/contracts/utils/Strings.sol\":1791:1812  _SYMBOLS[value & 0xf] */\n      0x10\n      dup2\n      lt\n      tag_136\n      jumpi\n      tag_137\n      tag_128\n      jump\t// in\n    tag_137:\n    tag_136:\n      byte\n      0xf8\n      shl\n        /* \"https://github.com/OpenZeppelin/openzeppelin-contracts/blob/master/contracts/utils/Strings.sol\":1779:1785  buffer */\n      dup3\n        /* \"https://github.com/OpenZeppelin/openzeppelin-contracts/blob/master/contracts/utils/Strings.sol\":1786:1787  i */\n      dup3\n        /* \"https://github.com/OpenZeppelin/openzeppelin-contracts/blob/master/contracts/utils/Strings.sol\":1779:1788  buffer[i] */\n      dup2\n      mload\n      dup2\n      lt\n      tag_138\n      jumpi\n      tag_139\n      tag_128\n      jump\t// in\n    tag_139:\n    tag_138:\n      0x20\n      add\n      add\n        /* \"https://github.com/OpenZeppelin/openzeppelin-contracts/blob/master/contracts/utils/Strings.sol\":1779:1812  buffer[i] = _SYMBOLS[value & 0xf] */\n      swap1\n      not(0xffffffffffffffffffffffffffffffffffffffffffffffffffffffffffffff)\n      and\n      swap1\n      dup2\n      0x00\n      byte\n      swap1\n      mstore8\n      pop\n        /* \"https://github.com/OpenZeppelin/openzeppelin-contracts/blob/master/contracts/utils/Strings.sol\":1836:1837  4 */\n      0x04\n        /* \"https://github.com/OpenZeppelin/openzeppelin-contracts/blob/master/contracts/utils/Strings.sol\":1826:1837  value >>= 4 */\n      dup6\n      swap1\n      shr\n      swap5\n      pop\n        /* \"https://github.com/OpenZeppelin/openzeppelin-contracts/blob/master/contracts/utils/Strings.sol\":1760:1763  --i */\n      dup1\n      tag_140\n      swap1\n      tag_141\n      jump\t// in\n    tag_140:\n      swap1\n      pop\n        /* \"https://github.com/OpenZeppelin/openzeppelin-contracts/blob/master/contracts/utils/Strings.sol\":1720:1848  for (uint256 i = 2 * length + 1; i > 1; --i) {... */\n      jump(tag_131)\n    tag_132:\n      pop\n        /* \"https://github.com/OpenZeppelin/openzeppelin-contracts/blob/master/contracts/utils/Strings.sol\":1874:1875  0 */\n      0x00\n        /* \"https://github.com/OpenZeppelin/openzeppelin-contracts/blob/master/contracts/utils/Strings.sol\":1865:1870  value */\n      dup5\n        /* \"https://github.com/OpenZeppelin/openzeppelin-contracts/blob/master/contracts/utils/Strings.sol\":1865:1875  value == 0 */\n      eq\n        /* \"https://github.com/OpenZeppelin/openzeppelin-contracts/blob/master/contracts/utils/Strings.sol\":1857:1912  require(value == 0, \"Strings: hex length insufficient\") */\n      tag_142\n      jumpi\n      mload(0x40)\n      0x08c379a000000000000000000000000000000000000000000000000000000000\n      dup2\n      mstore\n      0x04\n      add\n      tag_143\n      swap1\n      tag_144\n      jump\t// in\n    tag_143:\n      mload(0x40)\n      dup1\n      swap2\n      sub\n      swap1\n      revert\n    tag_142:\n        /* \"https://github.com/OpenZeppelin/openzeppelin-contracts/blob/master/contracts/utils/Strings.sol\":1936:1942  buffer */\n      dup1\n        /* \"https://github.com/OpenZeppelin/openzeppelin-contracts/blob/master/contracts/utils/Strings.sol\":1922:1943  return string(buffer) */\n      swap2\n      pop\n      pop\n        /* \"https://github.com/OpenZeppelin/openzeppelin-contracts/blob/master/contracts/utils/Strings.sol\":1513:1950  function toHexString(uint256 value, uint256 length) internal pure returns (string memory) {... */\n      swap3\n      swap2\n      pop\n      pop\n      jump\t// out\n        /* \"#utility.yul\":7:146   */\n    tag_146:\n        /* \"#utility.yul\":53:58   */\n      0x00\n        /* \"#utility.yul\":91:97   */\n      dup2\n        /* \"#utility.yul\":78:98   */\n      calldataload\n        /* \"#utility.yul\":69:98   */\n      swap1\n      pop\n        /* \"#utility.yul\":107:140   */\n      tag_148\n        /* \"#utility.yul\":134:139   */\n      dup2\n        /* \"#utility.yul\":107:140   */\n      tag_149\n      jump\t// in\n    tag_148:\n        /* \"#utility.yul\":7:146   */\n      swap3\n      swap2\n      pop\n      pop\n      jump\t// out\n        /* \"#utility.yul\":152:291   */\n    tag_150:\n        /* \"#utility.yul\":198:203   */\n      0x00\n        /* \"#utility.yul\":236:242   */\n      dup2\n        /* \"#utility.yul\":223:243   */\n      calldataload\n        /* \"#utility.yul\":214:243   */\n      swap1\n      pop\n        /* \"#utility.yul\":252:285   */\n      tag_152\n        /* \"#utility.yul\":279:284   */\n      dup2\n        /* \"#utility.yul\":252:285   */\n      tag_153\n      jump\t// in\n    tag_152:\n        /* \"#utility.yul\":152:291   */\n      swap3\n      swap2\n      pop\n      pop\n      jump\t// out\n        /* \"#utility.yul\":297:434   */\n    tag_154:\n        /* \"#utility.yul\":342:347   */\n      0x00\n        /* \"#utility.yul\":380:386   */\n      dup2\n        /* \"#utility.yul\":367:387   */\n      calldataload\n        /* \"#utility.yul\":358:387   */\n      swap1\n      pop\n        /* \"#utility.yul\":396:428   */\n      tag_156\n        /* \"#utility.yul\":422:427   */\n      dup2\n        /* \"#utility.yul\":396:428   */\n      tag_157\n      jump\t// in\n    tag_156:\n        /* \"#utility.yul\":297:434   */\n      swap3\n      swap2\n      pop\n      pop\n      jump\t// out\n        /* \"#utility.yul\":440:579   */\n    tag_158:\n        /* \"#utility.yul\":486:491   */\n      0x00\n        /* \"#utility.yul\":524:530   */\n      dup2\n        /* \"#utility.yul\":511:531   */\n      calldataload\n        /* \"#utility.yul\":502:531   */\n      swap1\n      pop\n        /* \"#utility.yul\":540:573   */\n      tag_160\n        /* \"#utility.yul\":567:572   */\n      dup2\n        /* \"#utility.yul\":540:573   */\n      tag_161\n      jump\t// in\n    tag_160:\n        /* \"#utility.yul\":440:579   */\n      swap3\n      swap2\n      pop\n      pop\n      jump\t// out\n        /* \"#utility.yul\":585:914   */\n    tag_22:\n        /* \"#utility.yul\":644:650   */\n      0x00\n        /* \"#utility.yul\":693:695   */\n      0x20\n        /* \"#utility.yul\":681:690   */\n      dup3\n        /* \"#utility.yul\":672:679   */\n      dup5\n        /* \"#utility.yul\":668:691   */\n      sub\n        /* \"#utility.yul\":664:696   */\n      slt\n        /* \"#utility.yul\":661:780   */\n      iszero\n      tag_163\n      jumpi\n        /* \"#utility.yul\":699:778   */\n      tag_164\n      tag_165\n      jump\t// in\n    tag_164:\n        /* \"#utility.yul\":661:780   */\n    tag_163:\n        /* \"#utility.yul\":819:820   */\n      0x00\n        /* \"#utility.yul\":844:897   */\n      tag_166\n        /* \"#utility.yul\":889:896   */\n      dup5\n        /* \"#utility.yul\":880:886   */\n      dup3\n        /* \"#utility.yul\":869:878   */\n      dup6\n        /* \"#utility.yul\":865:887   */\n      add\n        /* \"#utility.yul\":844:897   */\n      tag_150\n      jump\t// in\n    tag_166:\n        /* \"#utility.yul\":834:897   */\n      swap2\n      pop\n        /* \"#utility.yul\":790:907   */\n      pop\n        /* \"#utility.yul\":585:914   */\n      swap3\n      swap2\n      pop\n      pop\n      jump\t// out\n        /* \"#utility.yul\":920:1394   */\n    tag_28:\n        /* \"#utility.yul\":988:994   */\n      0x00\n        /* \"#utility.yul\":996:1002   */\n      dup1\n        /* \"#utility.yul\":1045:1047   */\n      0x40\n        /* \"#utility.yul\":1033:1042   */\n      dup4\n        /* \"#utility.yul\":1024:1031   */\n      dup6\n        /* \"#utility.yul\":1020:1043   */\n      sub\n        /* \"#utility.yul\":1016:1048   */\n      slt\n        /* \"#utility.yul\":1013:1132   */\n      iszero\n      tag_168\n      jumpi\n        /* \"#utility.yul\":1051:1130   */\n      tag_169\n      tag_165\n      jump\t// in\n    tag_169:\n        /* \"#utility.yul\":1013:1132   */\n    tag_168:\n        /* \"#utility.yul\":1171:1172   */\n      0x00\n        /* \"#utility.yul\":1196:1249   */\n      tag_170\n        /* \"#utility.yul\":1241:1248   */\n      dup6\n        /* \"#utility.yul\":1232:1238   */\n      dup3\n        /* \"#utility.yul\":1221:1230   */\n      dup7\n        /* \"#utility.yul\":1217:1239   */\n      add\n        /* \"#utility.yul\":1196:1249   */\n      tag_150\n      jump\t// in\n    tag_170:\n        /* \"#utility.yul\":1186:1249   */\n      swap3\n      pop\n        /* \"#utility.yul\":1142:1259   */\n      pop\n        /* \"#utility.yul\":1298:1300   */\n      0x20\n        /* \"#utility.yul\":1324:1377   */\n      tag_171\n        /* \"#utility.yul\":1369:1376   */\n      dup6\n        /* \"#utility.yul\":1360:1366   */\n      dup3\n        /* \"#utility.yul\":1349:1358   */\n      dup7\n        /* \"#utility.yul\":1345:1367   */\n      add\n        /* \"#utility.yul\":1324:1377   */\n      tag_146\n      jump\t// in\n    tag_171:\n        /* \"#utility.yul\":1314:1377   */\n      swap2\n      pop\n        /* \"#utility.yul\":1269:1387   */\n      pop\n        /* \"#utility.yul\":920:1394   */\n      swap3\n      pop\n      swap3\n      swap1\n      pop\n      jump\t// out\n        /* \"#utility.yul\":1400:1727   */\n    tag_16:\n        /* \"#utility.yul\":1458:1464   */\n      0x00\n        /* \"#utility.yul\":1507:1509   */\n      0x20\n        /* \"#utility.yul\":1495:1504   */\n      dup3\n        /* \"#utility.yul\":1486:1493   */\n      dup5\n        /* \"#utility.yul\":1482:1505   */\n      sub\n        /* \"#utility.yul\":1478:1510   */\n      slt\n        /* \"#utility.yul\":1475:1594   */\n      iszero\n      tag_173\n      jumpi\n        /* \"#utility.yul\":1513:1592   */\n      tag_174\n      tag_165\n      jump\t// in\n    tag_174:\n        /* \"#utility.yul\":1475:1594   */\n    tag_173:\n        /* \"#utility.yul\":1633:1634   */\n      0x00\n        /* \"#utility.yul\":1658:1710   */\n      tag_175\n        /* \"#utility.yul\":1702:1709   */\n      dup5\n        /* \"#utility.yul\":1693:1699   */\n      dup3\n        /* \"#utility.yul\":1682:1691   */\n      dup6\n        /* \"#utility.yul\":1678:1700   */\n      add\n        /* \"#utility.yul\":1658:1710   */\n      tag_154\n      jump\t// in\n    tag_175:\n        /* \"#utility.yul\":1648:1710   */\n      swap2\n      pop\n        /* \"#utility.yul\":1604:1720   */\n      pop\n        /* \"#utility.yul\":1400:1727   */\n      swap3\n      swap2\n      pop\n      pop\n      jump\t// out\n        /* \"#utility.yul\":1733:2207   */\n    tag_45:\n        /* \"#utility.yul\":1801:1807   */\n      0x00\n        /* \"#utility.yul\":1809:1815   */\n      dup1\n        /* \"#utility.yul\":1858:1860   */\n      0x40\n        /* \"#utility.yul\":1846:1855   */\n      dup4\n        /* \"#utility.yul\":1837:1844   */\n      dup6\n        /* \"#utility.yul\":1833:1856   */\n      sub\n        /* \"#utility.yul\":1829:1861   */\n      slt\n        /* \"#utility.yul\":1826:1945   */\n      iszero\n      tag_177\n      jumpi\n        /* \"#utility.yul\":1864:1943   */\n      tag_178\n      tag_165\n      jump\t// in\n    tag_178:\n        /* \"#utility.yul\":1826:1945   */\n    tag_177:\n        /* \"#utility.yul\":1984:1985   */\n      0x00\n        /* \"#utility.yul\":2009:2062   */\n      tag_179\n        /* \"#utility.yul\":2054:2061   */\n      dup6\n        /* \"#utility.yul\":2045:2051   */\n      dup3\n        /* \"#utility.yul\":2034:2043   */\n      dup7\n        /* \"#utility.yul\":2030:2052   */\n      add\n        /* \"#utility.yul\":2009:2062   */\n      tag_158\n      jump\t// in\n    tag_179:\n        /* \"#utility.yul\":1999:2062   */\n      swap3\n      pop\n        /* \"#utility.yul\":1955:2072   */\n      pop\n        /* \"#utility.yul\":2111:2113   */\n      0x20\n        /* \"#utility.yul\":2137:2190   */\n      tag_180\n        /* \"#utility.yul\":2182:2189   */\n      dup6\n        /* \"#utility.yul\":2173:2179   */\n      dup3\n        /* \"#utility.yul\":2162:2171   */\n      dup7\n        /* \"#utility.yul\":2158:2180   */\n      add\n        /* \"#utility.yul\":2137:2190   */\n      tag_158\n      jump\t// in\n    tag_180:\n        /* \"#utility.yul\":2127:2190   */\n      swap2\n      pop\n        /* \"#utility.yul\":2082:2200   */\n      pop\n        /* \"#utility.yul\":1733:2207   */\n      swap3\n      pop\n      swap3\n      swap1\n      pop\n      jump\t// out\n        /* \"#utility.yul\":2213:2322   */\n    tag_181:\n        /* \"#utility.yul\":2294:2315   */\n      tag_183\n        /* \"#utility.yul\":2309:2314   */\n      dup2\n        /* \"#utility.yul\":2294:2315   */\n      tag_184\n      jump\t// in\n    tag_183:\n        /* \"#utility.yul\":2289:2292   */\n      dup3\n        /* \"#utility.yul\":2282:2316   */\n      mstore\n        /* \"#utility.yul\":2213:2322   */\n      pop\n      pop\n      jump\t// out\n        /* \"#utility.yul\":2328:2446   */\n    tag_185:\n        /* \"#utility.yul\":2415:2439   */\n      tag_187\n        /* \"#utility.yul\":2433:2438   */\n      dup2\n        /* \"#utility.yul\":2415:2439   */\n      tag_188\n      jump\t// in\n    tag_187:\n        /* \"#utility.yul\":2410:2413   */\n      dup3\n        /* \"#utility.yul\":2403:2440   */\n      mstore\n        /* \"#utility.yul\":2328:2446   */\n      pop\n      pop\n      jump\t// out\n        /* \"#utility.yul\":2452:2816   */\n    tag_189:\n        /* \"#utility.yul\":2540:2543   */\n      0x00\n        /* \"#utility.yul\":2568:2607   */\n      tag_191\n        /* \"#utility.yul\":2601:2606   */\n      dup3\n        /* \"#utility.yul\":2568:2607   */\n      tag_192\n      jump\t// in\n    tag_191:\n        /* \"#utility.yul\":2623:2694   */\n      tag_193\n        /* \"#utility.yul\":2687:2693   */\n      dup2\n        /* \"#utility.yul\":2682:2685   */\n      dup6\n        /* \"#utility.yul\":2623:2694   */\n      tag_194\n      jump\t// in\n    tag_193:\n        /* \"#utility.yul\":2616:2694   */\n      swap4\n      pop\n        /* \"#utility.yul\":2703:2755   */\n      tag_195\n        /* \"#utility.yul\":2748:2754   */\n      dup2\n        /* \"#utility.yul\":2743:2746   */\n      dup6\n        /* \"#utility.yul\":2736:2740   */\n      0x20\n        /* \"#utility.yul\":2729:2734   */\n      dup7\n        /* \"#utility.yul\":2725:2741   */\n      add\n        /* \"#utility.yul\":2703:2755   */\n      tag_196\n      jump\t// in\n    tag_195:\n        /* \"#utility.yul\":2780:2809   */\n      tag_197\n        /* \"#utility.yul\":2802:2808   */\n      dup2\n        /* \"#utility.yul\":2780:2809   */\n      tag_198\n      jump\t// in\n    tag_197:\n        /* \"#utility.yul\":2775:2778   */\n      dup5\n        /* \"#utility.yul\":2771:2810   */\n      add\n        /* \"#utility.yul\":2764:2810   */\n      swap2\n      pop\n        /* \"#utility.yul\":2544:2816   */\n      pop\n        /* \"#utility.yul\":2452:2816   */\n      swap3\n      swap2\n      pop\n      pop\n      jump\t// out\n        /* \"#utility.yul\":2822:3199   */\n    tag_199:\n        /* \"#utility.yul\":2928:2931   */\n      0x00\n        /* \"#utility.yul\":2956:2995   */\n      tag_201\n        /* \"#utility.yul\":2989:2994   */\n      dup3\n        /* \"#utility.yul\":2956:2995   */\n      tag_192\n      jump\t// in\n    tag_201:\n        /* \"#utility.yul\":3011:3100   */\n      tag_202\n        /* \"#utility.yul\":3093:3099   */\n      dup2\n        /* \"#utility.yul\":3088:3091   */\n      dup6\n        /* \"#utility.yul\":3011:3100   */\n      tag_203\n      jump\t// in\n    tag_202:\n        /* \"#utility.yul\":3004:3100   */\n      swap4\n      pop\n        /* \"#utility.yul\":3109:3161   */\n      tag_204\n        /* \"#utility.yul\":3154:3160   */\n      dup2\n        /* \"#utility.yul\":3149:3152   */\n      dup6\n        /* \"#utility.yul\":3142:3146   */\n      0x20\n        /* \"#utility.yul\":3135:3140   */\n      dup7\n        /* \"#utility.yul\":3131:3147   */\n      add\n        /* \"#utility.yul\":3109:3161   */\n      tag_196\n      jump\t// in\n    tag_204:\n        /* \"#utility.yul\":3186:3192   */\n      dup1\n        /* \"#utility.yul\":3181:3184   */\n      dup5\n        /* \"#utility.yul\":3177:3193   */\n      add\n        /* \"#utility.yul\":3170:3193   */\n      swap2\n      pop\n        /* \"#utility.yul\":2932:3199   */\n      pop\n        /* \"#utility.yul\":2822:3199   */\n      swap3\n      swap2\n      pop\n      pop\n      jump\t// out\n        /* \"#utility.yul\":3205:3571   */\n    tag_205:\n        /* \"#utility.yul\":3347:3350   */\n      0x00\n        /* \"#utility.yul\":3368:3435   */\n      tag_207\n        /* \"#utility.yul\":3432:3434   */\n      0x20\n        /* \"#utility.yul\":3427:3430   */\n      dup4\n        /* \"#utility.yul\":3368:3435   */\n      tag_194\n      jump\t// in\n    tag_207:\n        /* \"#utility.yul\":3361:3435   */\n      swap2\n      pop\n        /* \"#utility.yul\":3444:3537   */\n      tag_208\n        /* \"#utility.yul\":3533:3536   */\n      dup3\n        /* \"#utility.yul\":3444:3537   */\n      tag_209\n      jump\t// in\n    tag_208:\n        /* \"#utility.yul\":3562:3564   */\n      0x20\n        /* \"#utility.yul\":3557:3560   */\n      dup3\n        /* \"#utility.yul\":3553:3565   */\n      add\n        /* \"#utility.yul\":3546:3565   */\n      swap1\n      pop\n        /* \"#utility.yul\":3205:3571   */\n      swap2\n      swap1\n      pop\n      jump\t// out\n        /* \"#utility.yul\":3577:3979   */\n    tag_210:\n        /* \"#utility.yul\":3737:3740   */\n      0x00\n        /* \"#utility.yul\":3758:3843   */\n      tag_212\n        /* \"#utility.yul\":3840:3842   */\n      0x17\n        /* \"#utility.yul\":3835:3838   */\n      dup4\n        /* \"#utility.yul\":3758:3843   */\n      tag_203\n      jump\t// in\n    tag_212:\n        /* \"#utility.yul\":3751:3843   */\n      swap2\n      pop\n        /* \"#utility.yul\":3852:3945   */\n      tag_213\n        /* \"#utility.yul\":3941:3944   */\n      dup3\n        /* \"#utility.yul\":3852:3945   */\n      tag_214\n      jump\t// in\n    tag_213:\n        /* \"#utility.yul\":3970:3972   */\n      0x17\n        /* \"#utility.yul\":3965:3968   */\n      dup3\n        /* \"#utility.yul\":3961:3973   */\n      add\n        /* \"#utility.yul\":3954:3973   */\n      swap1\n      pop\n        /* \"#utility.yul\":3577:3979   */\n      swap2\n      swap1\n      pop\n      jump\t// out\n        /* \"#utility.yul\":3985:4387   */\n    tag_215:\n        /* \"#utility.yul\":4145:4148   */\n      0x00\n        /* \"#utility.yul\":4166:4251   */\n      tag_217\n        /* \"#utility.yul\":4248:4250   */\n      0x11\n        /* \"#utility.yul\":4243:4246   */\n      dup4\n        /* \"#utility.yul\":4166:4251   */\n      tag_203\n      jump\t// in\n    tag_217:\n        /* \"#utility.yul\":4159:4251   */\n      swap2\n      pop\n        /* \"#utility.yul\":4260:4353   */\n      tag_218\n        /* \"#utility.yul\":4349:4352   */\n      dup3\n        /* \"#utility.yul\":4260:4353   */\n      tag_219\n      jump\t// in\n    tag_218:\n        /* \"#utility.yul\":4378:4380   */\n      0x11\n        /* \"#utility.yul\":4373:4376   */\n      dup3\n        /* \"#utility.yul\":4369:4381   */\n      add\n        /* \"#utility.yul\":4362:4381   */\n      swap1\n      pop\n        /* \"#utility.yul\":3985:4387   */\n      swap2\n      swap1\n      pop\n      jump\t// out\n        /* \"#utility.yul\":4393:4759   */\n    tag_220:\n        /* \"#utility.yul\":4535:4538   */\n      0x00\n        /* \"#utility.yul\":4556:4623   */\n      tag_222\n        /* \"#utility.yul\":4620:4622   */\n      0x2f\n        /* \"#utility.yul\":4615:4618   */\n      dup4\n        /* \"#utility.yul\":4556:4623   */\n      tag_194\n      jump\t// in\n    tag_222:\n        /* \"#utility.yul\":4549:4623   */\n      swap2\n      pop\n        /* \"#utility.yul\":4632:4725   */\n      tag_223\n        /* \"#utility.yul\":4721:4724   */\n      dup3\n        /* \"#utility.yul\":4632:4725   */\n      tag_224\n      jump\t// in\n    tag_223:\n        /* \"#utility.yul\":4750:4752   */\n      0x40\n        /* \"#utility.yul\":4745:4748   */\n      dup3\n        /* \"#utility.yul\":4741:4753   */\n      add\n        /* \"#utility.yul\":4734:4753   */\n      swap1\n      pop\n        /* \"#utility.yul\":4393:4759   */\n      swap2\n      swap1\n      pop\n      jump\t// out\n        /* \"#utility.yul\":4765:4883   */\n    tag_225:\n        /* \"#utility.yul\":4852:4876   */\n      tag_227\n        /* \"#utility.yul\":4870:4875   */\n      dup2\n        /* \"#utility.yul\":4852:4876   */\n      tag_228\n      jump\t// in\n    tag_227:\n        /* \"#utility.yul\":4847:4850   */\n      dup3\n        /* \"#utility.yul\":4840:4877   */\n      mstore\n        /* \"#utility.yul\":4765:4883   */\n      pop\n      pop\n      jump\t// out\n        /* \"#utility.yul\":4889:5856   */\n    tag_114:\n        /* \"#utility.yul\":5271:5274   */\n      0x00\n        /* \"#utility.yul\":5293:5441   */\n      tag_230\n        /* \"#utility.yul\":5437:5440   */\n      dup3\n        /* \"#utility.yul\":5293:5441   */\n      tag_210\n      jump\t// in\n    tag_230:\n        /* \"#utility.yul\":5286:5441   */\n      swap2\n      pop\n        /* \"#utility.yul\":5458:5553   */\n      tag_231\n        /* \"#utility.yul\":5549:5552   */\n      dup3\n        /* \"#utility.yul\":5540:5546   */\n      dup6\n        /* \"#utility.yul\":5458:5553   */\n      tag_199\n      jump\t// in\n    tag_231:\n        /* \"#utility.yul\":5451:5553   */\n      swap2\n      pop\n        /* \"#utility.yul\":5570:5718   */\n      tag_232\n        /* \"#utility.yul\":5714:5717   */\n      dup3\n        /* \"#utility.yul\":5570:5718   */\n      tag_215\n      jump\t// in\n    tag_232:\n        /* \"#utility.yul\":5563:5718   */\n      swap2\n      pop\n        /* \"#utility.yul\":5735:5830   */\n      tag_233\n        /* \"#utility.yul\":5826:5829   */\n      dup3\n        /* \"#utility.yul\":5817:5823   */\n      dup5\n        /* \"#utility.yul\":5735:5830   */\n      tag_199\n      jump\t// in\n    tag_233:\n        /* \"#utility.yul\":5728:5830   */\n      swap2\n      pop\n        /* \"#utility.yul\":5847:5850   */\n      dup2\n        /* \"#utility.yul\":5840:5850   */\n      swap1\n      pop\n        /* \"#utility.yul\":4889:5856   */\n      swap4\n      swap3\n      pop\n      pop\n      pop\n      jump\t// out\n        /* \"#utility.yul\":5862:6072   */\n    tag_19:\n        /* \"#utility.yul\":5949:5953   */\n      0x00\n        /* \"#utility.yul\":5987:5989   */\n      0x20\n        /* \"#utility.yul\":5976:5985   */\n      dup3\n        /* \"#utility.yul\":5972:5990   */\n      add\n        /* \"#utility.yul\":5964:5990   */\n      swap1\n      pop\n        /* \"#utility.yul\":6000:6065   */\n      tag_235\n        /* \"#utility.yul\":6062:6063   */\n      0x00\n        /* \"#utility.yul\":6051:6060   */\n      dup4\n        /* \"#utility.yul\":6047:6064   */\n      add\n        /* \"#utility.yul\":6038:6044   */\n      dup5\n        /* \"#utility.yul\":6000:6065   */\n      tag_181\n      jump\t// in\n    tag_235:\n        /* \"#utility.yul\":5862:6072   */\n      swap3\n      swap2\n      pop\n      pop\n      jump\t// out\n        /* \"#utility.yul\":6078:6300   */\n    tag_25:\n        /* \"#utility.yul\":6171:6175   */\n      0x00\n        /* \"#utility.yul\":6209:6211   */\n      0x20\n        /* \"#utility.yul\":6198:6207   */\n      dup3\n        /* \"#utility.yul\":6194:6212   */\n      add\n        /* \"#utility.yul\":6186:6212   */\n      swap1\n      pop\n        /* \"#utility.yul\":6222:6293   */\n      tag_237\n        /* \"#utility.yul\":6290:6291   */\n      0x00\n        /* \"#utility.yul\":6279:6288   */\n      dup4\n        /* \"#utility.yul\":6275:6292   */\n      add\n        /* \"#utility.yul\":6266:6272   */\n      dup5\n        /* \"#utility.yul\":6222:6293   */\n      tag_185\n      jump\t// in\n    tag_237:\n        /* \"#utility.yul\":6078:6300   */\n      swap3\n      swap2\n      pop\n      pop\n      jump\t// out\n        /* \"#utility.yul\":6306:6619   */\n    tag_116:\n        /* \"#utility.yul\":6419:6423   */\n      0x00\n        /* \"#utility.yul\":6457:6459   */\n      0x20\n        /* \"#utility.yul\":6446:6455   */\n      dup3\n        /* \"#utility.yul\":6442:6460   */\n      add\n        /* \"#utility.yul\":6434:6460   */\n      swap1\n      pop\n        /* \"#utility.yul\":6506:6515   */\n      dup2\n        /* \"#utility.yul\":6500:6504   */\n      dup2\n        /* \"#utility.yul\":6496:6516   */\n      sub\n        /* \"#utility.yul\":6492:6493   */\n      0x00\n        /* \"#utility.yul\":6481:6490   */\n      dup4\n        /* \"#utility.yul\":6477:6494   */\n      add\n        /* \"#utility.yul\":6470:6517   */\n      mstore\n        /* \"#utility.yul\":6534:6612   */\n      tag_239\n        /* \"#utility.yul\":6607:6611   */\n      dup2\n        /* \"#utility.yul\":6598:6604   */\n      dup5\n        /* \"#utility.yul\":6534:6612   */\n      tag_189\n      jump\t// in\n    tag_239:\n        /* \"#utility.yul\":6526:6612   */\n      swap1\n      pop\n        /* \"#utility.yul\":6306:6619   */\n      swap3\n      swap2\n      pop\n      pop\n      jump\t// out\n        /* \"#utility.yul\":6625:7044   */\n    tag_144:\n        /* \"#utility.yul\":6791:6795   */\n      0x00\n        /* \"#utility.yul\":6829:6831   */\n      0x20\n        /* \"#utility.yul\":6818:6827   */\n      dup3\n        /* \"#utility.yul\":6814:6832   */\n      add\n        /* \"#utility.yul\":6806:6832   */\n      swap1\n      pop\n        /* \"#utility.yul\":6878:6887   */\n      dup2\n        /* \"#utility.yul\":6872:6876   */\n      dup2\n        /* \"#utility.yul\":6868:6888   */\n      sub\n        /* \"#utility.yul\":6864:6865   */\n      0x00\n        /* \"#utility.yul\":6853:6862   */\n      dup4\n        /* \"#utility.yul\":6849:6866   */\n      add\n        /* \"#utility.yul\":6842:6889   */\n      mstore\n        /* \"#utility.yul\":6906:7037   */\n      tag_241\n        /* \"#utility.yul\":7032:7036   */\n      dup2\n        /* \"#utility.yul\":6906:7037   */\n      tag_205\n      jump\t// in\n    tag_241:\n        /* \"#utility.yul\":6898:7037   */\n      swap1\n      pop\n        /* \"#utility.yul\":6625:7044   */\n      swap2\n      swap1\n      pop\n      jump\t// out\n        /* \"#utility.yul\":7050:7469   */\n    tag_73:\n        /* \"#utility.yul\":7216:7220   */\n      0x00\n        /* \"#utility.yul\":7254:7256   */\n      0x20\n        /* \"#utility.yul\":7243:7252   */\n      dup3\n        /* \"#utility.yul\":7239:7257   */\n      add\n        /* \"#utility.yul\":7231:7257   */\n      swap1\n      pop\n        /* \"#utility.yul\":7303:7312   */\n      dup2\n        /* \"#utility.yul\":7297:7301   */\n      dup2\n        /* \"#utility.yul\":7293:7313   */\n      sub\n        /* \"#utility.yul\":7289:7290   */\n      0x00\n        /* \"#utility.yul\":7278:7287   */\n      dup4\n        /* \"#utility.yul\":7274:7291   */\n      add\n        /* \"#utility.yul\":7267:7314   */\n      mstore\n        /* \"#utility.yul\":7331:7462   */\n      tag_243\n        /* \"#utility.yul\":7457:7461   */\n      dup2\n        /* \"#utility.yul\":7331:7462   */\n      tag_220\n      jump\t// in\n    tag_243:\n        /* \"#utility.yul\":7323:7462   */\n      swap1\n      pop\n        /* \"#utility.yul\":7050:7469   */\n      swap2\n      swap1\n      pop\n      jump\t// out\n        /* \"#utility.yul\":7475:7697   */\n    tag_48:\n        /* \"#utility.yul\":7568:7572   */\n      0x00\n        /* \"#utility.yul\":7606:7608   */\n      0x20\n        /* \"#utility.yul\":7595:7604   */\n      dup3\n        /* \"#utility.yul\":7591:7609   */\n      add\n        /* \"#utility.yul\":7583:7609   */\n      swap1\n      pop\n        /* \"#utility.yul\":7619:7690   */\n      tag_245\n        /* \"#utility.yul\":7687:7688   */\n      0x00\n        /* \"#utility.yul\":7676:7685   */\n      dup4\n        /* \"#utility.yul\":7672:7689   */\n      add\n        /* \"#utility.yul\":7663:7669   */\n      dup5\n        /* \"#utility.yul\":7619:7690   */\n      tag_225\n      jump\t// in\n    tag_245:\n        /* \"#utility.yul\":7475:7697   */\n      swap3\n      swap2\n      pop\n      pop\n      jump\t// out\n        /* \"#utility.yul\":7784:7883   */\n    tag_192:\n        /* \"#utility.yul\":7836:7842   */\n      0x00\n        /* \"#utility.yul\":7870:7875   */\n      dup2\n        /* \"#utility.yul\":7864:7876   */\n      mload\n        /* \"#utility.yul\":7854:7876   */\n      swap1\n      pop\n        /* \"#utility.yul\":7784:7883   */\n      swap2\n      swap1\n      pop\n      jump\t// out\n        /* \"#utility.yul\":7889:8058   */\n    tag_194:\n        /* \"#utility.yul\":7973:7984   */\n      0x00\n        /* \"#utility.yul\":8007:8013   */\n      dup3\n        /* \"#utility.yul\":8002:8005   */\n      dup3\n        /* \"#utility.yul\":7995:8014   */\n      mstore\n        /* \"#utility.yul\":8047:8051   */\n      0x20\n        /* \"#utility.yul\":8042:8045   */\n      dup3\n        /* \"#utility.yul\":8038:8052   */\n      add\n        /* \"#utility.yul\":8023:8052   */\n      swap1\n      pop\n        /* \"#utility.yul\":7889:8058   */\n      swap3\n      swap2\n      pop\n      pop\n      jump\t// out\n        /* \"#utility.yul\":8064:8212   */\n    tag_203:\n        /* \"#utility.yul\":8166:8177   */\n      0x00\n        /* \"#utility.yul\":8203:8206   */\n      dup2\n        /* \"#utility.yul\":8188:8206   */\n      swap1\n      pop\n        /* \"#utility.yul\":8064:8212   */\n      swap3\n      swap2\n      pop\n      pop\n      jump\t// out\n        /* \"#utility.yul\":8218:8523   */\n    tag_81:\n        /* \"#utility.yul\":8258:8261   */\n      0x00\n        /* \"#utility.yul\":8277:8297   */\n      tag_252\n        /* \"#utility.yul\":8295:8296   */\n      dup3\n        /* \"#utility.yul\":8277:8297   */\n      tag_228\n      jump\t// in\n    tag_252:\n        /* \"#utility.yul\":8272:8297   */\n      swap2\n      pop\n        /* \"#utility.yul\":8311:8331   */\n      tag_253\n        /* \"#utility.yul\":8329:8330   */\n      dup4\n        /* \"#utility.yul\":8311:8331   */\n      tag_228\n      jump\t// in\n    tag_253:\n        /* \"#utility.yul\":8306:8331   */\n      swap3\n      pop\n        /* \"#utility.yul\":8465:8466   */\n      dup3\n        /* \"#utility.yul\":8397:8463   */\n      0xffffffffffffffffffffffffffffffffffffffffffffffffffffffffffffffff\n        /* \"#utility.yul\":8393:8467   */\n      sub\n        /* \"#utility.yul\":8390:8391   */\n      dup3\n        /* \"#utility.yul\":8387:8468   */\n      gt\n        /* \"#utility.yul\":8384:8491   */\n      iszero\n      tag_254\n      jumpi\n        /* \"#utility.yul\":8471:8489   */\n      tag_255\n      tag_256\n      jump\t// in\n    tag_255:\n        /* \"#utility.yul\":8384:8491   */\n    tag_254:\n        /* \"#utility.yul\":8515:8516   */\n      dup3\n        /* \"#utility.yul\":8512:8513   */\n      dup3\n        /* \"#utility.yul\":8508:8517   */\n      add\n        /* \"#utility.yul\":8501:8517   */\n      swap1\n      pop\n        /* \"#utility.yul\":8218:8523   */\n      swap3\n      swap2\n      pop\n      pop\n      jump\t// out\n        /* \"#utility.yul\":8529:8877   */\n    tag_91:\n        /* \"#utility.yul\":8569:8576   */\n      0x00\n        /* \"#utility.yul\":8592:8612   */\n      tag_258\n        /* \"#utility.yul\":8610:8611   */\n      dup3\n        /* \"#utility.yul\":8592:8612   */\n      tag_228\n      jump\t// in\n    tag_258:\n        /* \"#utility.yul\":8587:8612   */\n      swap2\n      pop\n        /* \"#utility.yul\":8626:8646   */\n      tag_259\n        /* \"#utility.yul\":8644:8645   */\n      dup4\n        /* \"#utility.yul\":8626:8646   */\n      tag_228\n      jump\t// in\n    tag_259:\n        /* \"#utility.yul\":8621:8646   */\n      swap3\n      pop\n        /* \"#utility.yul\":8814:8815   */\n      dup2\n        /* \"#utility.yul\":8746:8812   */\n      0xffffffffffffffffffffffffffffffffffffffffffffffffffffffffffffffff\n        /* \"#utility.yul\":8742:8816   */\n      div\n        /* \"#utility.yul\":8739:8740   */\n      dup4\n        /* \"#utility.yul\":8736:8817   */\n      gt\n        /* \"#utility.yul\":8731:8732   */\n      dup3\n        /* \"#utility.yul\":8724:8733   */\n      iszero\n        /* \"#utility.yul\":8717:8734   */\n      iszero\n        /* \"#utility.yul\":8713:8818   */\n      and\n        /* \"#utility.yul\":8710:8841   */\n      iszero\n      tag_260\n      jumpi\n        /* \"#utility.yul\":8821:8839   */\n      tag_261\n      tag_256\n      jump\t// in\n    tag_261:\n        /* \"#utility.yul\":8710:8841   */\n    tag_260:\n        /* \"#utility.yul\":8869:8870   */\n      dup3\n        /* \"#utility.yul\":8866:8867   */\n      dup3\n        /* \"#utility.yul\":8862:8871   */\n      mul\n        /* \"#utility.yul\":8851:8871   */\n      swap1\n      pop\n        /* \"#utility.yul\":8529:8877   */\n      swap3\n      swap2\n      pop\n      pop\n      jump\t// out\n        /* \"#utility.yul\":8883:8979   */\n    tag_262:\n        /* \"#utility.yul\":8920:8927   */\n      0x00\n        /* \"#utility.yul\":8949:8973   */\n      tag_264\n        /* \"#utility.yul\":8967:8972   */\n      dup3\n        /* \"#utility.yul\":8949:8973   */\n      tag_265\n      jump\t// in\n    tag_264:\n        /* \"#utility.yul\":8938:8973   */\n      swap1\n      pop\n        /* \"#utility.yul\":8883:8979   */\n      swap2\n      swap1\n      pop\n      jump\t// out\n        /* \"#utility.yul\":8985:9075   */\n    tag_184:\n        /* \"#utility.yul\":9019:9026   */\n      0x00\n        /* \"#utility.yul\":9062:9067   */\n      dup2\n        /* \"#utility.yul\":9055:9068   */\n      iszero\n        /* \"#utility.yul\":9048:9069   */\n      iszero\n        /* \"#utility.yul\":9037:9069   */\n      swap1\n      pop\n        /* \"#utility.yul\":8985:9075   */\n      swap2\n      swap1\n      pop\n      jump\t// out\n        /* \"#utility.yul\":9081:9158   */\n    tag_188:\n        /* \"#utility.yul\":9118:9125   */\n      0x00\n        /* \"#utility.yul\":9147:9152   */\n      dup2\n        /* \"#utility.yul\":9136:9152   */\n      swap1\n      pop\n        /* \"#utility.yul\":9081:9158   */\n      swap2\n      swap1\n      pop\n      jump\t// out\n        /* \"#utility.yul\":9164:9313   */\n    tag_268:\n        /* \"#utility.yul\":9200:9207   */\n      0x00\n        /* \"#utility.yul\":9240:9306   */\n      0xffffffff00000000000000000000000000000000000000000000000000000000\n        /* \"#utility.yul\":9233:9238   */\n      dup3\n        /* \"#utility.yul\":9229:9307   */\n      and\n        /* \"#utility.yul\":9218:9307   */\n      swap1\n      pop\n        /* \"#utility.yul\":9164:9313   */\n      swap2\n      swap1\n      pop\n      jump\t// out\n        /* \"#utility.yul\":9319:9445   */\n    tag_265:\n        /* \"#utility.yul\":9356:9363   */\n      0x00\n        /* \"#utility.yul\":9396:9438   */\n      0xffffffffffffffffffffffffffffffffffffffff\n        /* \"#utility.yul\":9389:9394   */\n      dup3\n        /* \"#utility.yul\":9385:9439   */\n      and\n        /* \"#utility.yul\":9374:9439   */\n      swap1\n      pop\n        /* \"#utility.yul\":9319:9445   */\n      swap2\n      swap1\n      pop\n      jump\t// out\n        /* \"#utility.yul\":9451:9528   */\n    tag_228:\n        /* \"#utility.yul\":9488:9495   */\n      0x00\n        /* \"#utility.yul\":9517:9522   */\n      dup2\n        /* \"#utility.yul\":9506:9522   */\n      swap1\n      pop\n        /* \"#utility.yul\":9451:9528   */\n      swap2\n      swap1\n      pop\n      jump\t// out\n        /* \"#utility.yul\":9534:9841   */\n    tag_196:\n        /* \"#utility.yul\":9602:9603   */\n      0x00\n        /* \"#utility.yul\":9612:9725   */\n    tag_273:\n        /* \"#utility.yul\":9626:9632   */\n      dup4\n        /* \"#utility.yul\":9623:9624   */\n      dup2\n        /* \"#utility.yul\":9620:9633   */\n      lt\n        /* \"#utility.yul\":9612:9725   */\n      iszero\n      tag_275\n      jumpi\n        /* \"#utility.yul\":9711:9712   */\n      dup1\n        /* \"#utility.yul\":9706:9709   */\n      dup3\n        /* \"#utility.yul\":9702:9713   */\n      add\n        /* \"#utility.yul\":9696:9714   */\n      mload\n        /* \"#utility.yul\":9692:9693   */\n      dup2\n        /* \"#utility.yul\":9687:9690   */\n      dup5\n        /* \"#utility.yul\":9683:9694   */\n      add\n        /* \"#utility.yul\":9676:9715   */\n      mstore\n        /* \"#utility.yul\":9648:9650   */\n      0x20\n        /* \"#utility.yul\":9645:9646   */\n      dup2\n        /* \"#utility.yul\":9641:9651   */\n      add\n        /* \"#utility.yul\":9636:9651   */\n      swap1\n      pop\n        /* \"#utility.yul\":9612:9725   */\n      jump(tag_273)\n    tag_275:\n        /* \"#utility.yul\":9743:9749   */\n      dup4\n        /* \"#utility.yul\":9740:9741   */\n      dup2\n        /* \"#utility.yul\":9737:9750   */\n      gt\n        /* \"#utility.yul\":9734:9835   */\n      iszero\n      tag_276\n      jumpi\n        /* \"#utility.yul\":9823:9824   */\n      0x00\n        /* \"#utility.yul\":9814:9820   */\n      dup5\n        /* \"#utility.yul\":9809:9812   */\n      dup5\n        /* \"#utility.yul\":9805:9821   */\n      add\n        /* \"#utility.yul\":9798:9825   */\n      mstore\n        /* \"#utility.yul\":9734:9835   */\n    tag_276:\n        /* \"#utility.yul\":9583:9841   */\n      pop\n        /* \"#utility.yul\":9534:9841   */\n      pop\n      pop\n      pop\n      jump\t// out\n        /* \"#utility.yul\":9847:10018   */\n    tag_141:\n        /* \"#utility.yul\":9886:9889   */\n      0x00\n        /* \"#utility.yul\":9909:9933   */\n      tag_278\n        /* \"#utility.yul\":9927:9932   */\n      dup3\n        /* \"#utility.yul\":9909:9933   */\n      tag_228\n      jump\t// in\n    tag_278:\n        /* \"#utility.yul\":9900:9933   */\n      swap2\n      pop\n        /* \"#utility.yul\":9955:9959   */\n      0x00\n        /* \"#utility.yul\":9948:9953   */\n      dup3\n        /* \"#utility.yul\":9945:9960   */\n      eq\n        /* \"#utility.yul\":9942:9983   */\n      iszero\n      tag_279\n      jumpi\n        /* \"#utility.yul\":9963:9981   */\n      tag_280\n      tag_256\n      jump\t// in\n    tag_280:\n        /* \"#utility.yul\":9942:9983   */\n    tag_279:\n        /* \"#utility.yul\":10010:10011   */\n      0x01\n        /* \"#utility.yul\":10003:10008   */\n      dup3\n        /* \"#utility.yul\":9999:10012   */\n      sub\n        /* \"#utility.yul\":9992:10012   */\n      swap1\n      pop\n        /* \"#utility.yul\":9847:10018   */\n      swap2\n      swap1\n      pop\n      jump\t// out\n        /* \"#utility.yul\":10024:10204   */\n    tag_256:\n        /* \"#utility.yul\":10072:10149   */\n      0x4e487b7100000000000000000000000000000000000000000000000000000000\n        /* \"#utility.yul\":10069:10070   */\n      0x00\n        /* \"#utility.yul\":10062:10150   */\n      mstore\n        /* \"#utility.yul\":10169:10173   */\n      0x11\n        /* \"#utility.yul\":10166:10167   */\n      0x04\n        /* \"#utility.yul\":10159:10174   */\n      mstore\n        /* \"#utility.yul\":10193:10197   */\n      0x24\n        /* \"#utility.yul\":10190:10191   */\n      0x00\n        /* \"#utility.yul\":10183:10198   */\n      revert\n        /* \"#utility.yul\":10210:10390   */\n    tag_128:\n        /* \"#utility.yul\":10258:10335   */\n      0x4e487b7100000000000000000000000000000000000000000000000000000000\n        /* \"#utility.yul\":10255:10256   */\n      0x00\n        /* \"#utility.yul\":10248:10336   */\n      mstore\n        /* \"#utility.yul\":10355:10359   */\n      0x32\n        /* \"#utility.yul\":10352:10353   */\n      0x04\n        /* \"#utility.yul\":10345:10360   */\n      mstore\n        /* \"#utility.yul\":10379:10383   */\n      0x24\n        /* \"#utility.yul\":10376:10377   */\n      0x00\n        /* \"#utility.yul\":10369:10384   */\n      revert\n        /* \"#utility.yul\":10396:10576   */\n    tag_124:\n        /* \"#utility.yul\":10444:10521   */\n      0x4e487b7100000000000000000000000000000000000000000000000000000000\n        /* \"#utility.yul\":10441:10442   */\n      0x00\n        /* \"#utility.yul\":10434:10522   */\n      mstore\n        /* \"#utility.yul\":10541:10545   */\n      0x41\n        /* \"#utility.yul\":10538:10539   */\n      0x04\n        /* \"#utility.yul\":10531:10546   */\n      mstore\n        /* \"#utility.yul\":10565:10569   */\n      0x24\n        /* \"#utility.yul\":10562:10563   */\n      0x00\n        /* \"#utility.yul\":10555:10570   */\n      revert\n        /* \"#utility.yul\":10705:10822   */\n    tag_165:\n        /* \"#utility.yul\":10814:10815   */\n      0x00\n        /* \"#utility.yul\":10811:10812   */\n      dup1\n        /* \"#utility.yul\":10804:10816   */\n      revert\n        /* \"#utility.yul\":10828:10930   */\n    tag_198:\n        /* \"#utility.yul\":10869:10875   */\n      0x00\n        /* \"#utility.yul\":10920:10922   */\n      0x1f\n        /* \"#utility.yul\":10916:10923   */\n      not\n        /* \"#utility.yul\":10911:10913   */\n      0x1f\n        /* \"#utility.yul\":10904:10909   */\n      dup4\n        /* \"#utility.yul\":10900:10914   */\n      add\n        /* \"#utility.yul\":10896:10924   */\n      and\n        /* \"#utility.yul\":10886:10924   */\n      swap1\n      pop\n        /* \"#utility.yul\":10828:10930   */\n      swap2\n      swap1\n      pop\n      jump\t// out\n        /* \"#utility.yul\":10936:11118   */\n    tag_209:\n        /* \"#utility.yul\":11076:11110   */\n      0x537472696e67733a20686578206c656e67746820696e73756666696369656e74\n        /* \"#utility.yul\":11072:11073   */\n      0x00\n        /* \"#utility.yul\":11064:11070   */\n      dup3\n        /* \"#utility.yul\":11060:11074   */\n      add\n        /* \"#utility.yul\":11053:11111   */\n      mstore\n        /* \"#utility.yul\":10936:11118   */\n      pop\n      jump\t// out\n        /* \"#utility.yul\":11124:11297   */\n    tag_214:\n        /* \"#utility.yul\":11264:11289   */\n      0x416363657373436f6e74726f6c3a206163636f756e7420000000000000000000\n        /* \"#utility.yul\":11260:11261   */\n      0x00\n        /* \"#utility.yul\":11252:11258   */\n      dup3\n        /* \"#utility.yul\":11248:11262   */\n      add\n        /* \"#utility.yul\":11241:11290   */\n      mstore\n        /* \"#utility.yul\":11124:11297   */\n      pop\n      jump\t// out\n        /* \"#utility.yul\":11303:11470   */\n    tag_219:\n        /* \"#utility.yul\":11443:11462   */\n      0x206973206d697373696e6720726f6c6520000000000000000000000000000000\n        /* \"#utility.yul\":11439:11440   */\n      0x00\n        /* \"#utility.yul\":11431:11437   */\n      dup3\n        /* \"#utility.yul\":11427:11441   */\n      add\n        /* \"#utility.yul\":11420:11463   */\n      mstore\n        /* \"#utility.yul\":11303:11470   */\n      pop\n      jump\t// out\n        /* \"#utility.yul\":11476:11710   */\n    tag_224:\n        /* \"#utility.yul\":11616:11650   */\n      0x416363657373436f6e74726f6c3a2063616e206f6e6c792072656e6f756e6365\n        /* \"#utility.yul\":11612:11613   */\n      0x00\n        /* \"#utility.yul\":11604:11610   */\n      dup3\n        /* \"#utility.yul\":11600:11614   */\n      add\n        /* \"#utility.yul\":11593:11651   */\n      mstore\n        /* \"#utility.yul\":11685:11702   */\n      0x20726f6c657320666f722073656c660000000000000000000000000000000000\n        /* \"#utility.yul\":11680:11682   */\n      0x20\n        /* \"#utility.yul\":11672:11678   */\n      dup3\n        /* \"#utility.yul\":11668:11683   */\n      add\n        /* \"#utility.yul\":11661:11703   */\n      mstore\n        /* \"#utility.yul\":11476:11710   */\n      pop\n      jump\t// out\n        /* \"#utility.yul\":11716:11838   */\n    tag_149:\n        /* \"#utility.yul\":11789:11813   */\n      tag_293\n        /* \"#utility.yul\":11807:11812   */\n      dup2\n        /* \"#utility.yul\":11789:11813   */\n      tag_262\n      jump\t// in\n    tag_293:\n        /* \"#utility.yul\":11782:11787   */\n      dup2\n        /* \"#utility.yul\":11779:11814   */\n      eq\n        /* \"#utility.yul\":11769:11832   */\n      tag_294\n      jumpi\n        /* \"#utility.yul\":11828:11829   */\n      0x00\n        /* \"#utility.yul\":11825:11826   */\n      dup1\n        /* \"#utility.yul\":11818:11830   */\n      revert\n        /* \"#utility.yul\":11769:11832   */\n    tag_294:\n        /* \"#utility.yul\":11716:11838   */\n      pop\n      jump\t// out\n        /* \"#utility.yul\":11844:11966   */\n    tag_153:\n        /* \"#utility.yul\":11917:11941   */\n      tag_296\n        /* \"#utility.yul\":11935:11940   */\n      dup2\n        /* \"#utility.yul\":11917:11941   */\n      tag_188\n      jump\t// in\n    tag_296:\n        /* \"#utility.yul\":11910:11915   */\n      dup2\n        /* \"#utility.yul\":11907:11942   */\n      eq\n        /* \"#utility.yul\":11897:11960   */\n      tag_297\n      jumpi\n        /* \"#utility.yul\":11956:11957   */\n      0x00\n        /* \"#utility.yul\":11953:11954   */\n      dup1\n        /* \"#utility.yul\":11946:11958   */\n      revert\n        /* \"#utility.yul\":11897:11960   */\n    tag_297:\n        /* \"#utility.yul\":11844:11966   */\n      pop\n      jump\t// out\n        /* \"#utility.yul\":11972:12092   */\n    tag_157:\n        /* \"#utility.yul\":12044:12067   */\n      tag_299\n        /* \"#utility.yul\":12061:12066   */\n      dup2\n        /* \"#utility.yul\":12044:12067   */\n      tag_268\n      jump\t// in\n    tag_299:\n        /* \"#utility.yul\":12037:12042   */\n      dup2\n        /* \"#utility.yul\":12034:12068   */\n      eq\n        /* \"#utility.yul\":12024:12086   */\n      tag_300\n      jumpi\n        /* \"#utility.yul\":12082:12083   */\n      0x00\n        /* \"#utility.yul\":12079:12080   */\n      dup1\n        /* \"#utility.yul\":12072:12084   */\n      revert\n        /* \"#utility.yul\":12024:12086   */\n    tag_300:\n        /* \"#utility.yul\":11972:12092   */\n      pop\n      jump\t// out\n        /* \"#utility.yul\":12098:12220   */\n    tag_161:\n        /* \"#utility.yul\":12171:12195   */\n      tag_302\n        /* \"#utility.yul\":12189:12194   */\n      dup2\n        /* \"#utility.yul\":12171:12195   */\n      tag_228\n      jump\t// in\n    tag_302:\n        /* \"#utility.yul\":12164:12169   */\n      dup2\n        /* \"#utility.yul\":12161:12196   */\n      eq\n        /* \"#utility.yul\":12151:12214   */\n      tag_303\n      jumpi\n        /* \"#utility.yul\":12210:12211   */\n      0x00\n        /* \"#utility.yul\":12207:12208   */\n      dup1\n        /* \"#utility.yul\":12200:12212   */\n      revert\n        /* \"#utility.yul\":12151:12214   */\n    tag_303:\n        /* \"#utility.yul\":12098:12220   */\n      pop\n      jump\t// out\n\n    auxdata: 0xa2646970667358221220b94fca4e4406cf71f361b15d40c817cb89e8862953026473bae9bcfd2ca76a3464736f6c63430008070033\n}\n",
				"bytecode": {
					"linkReferences": {},
					"object": "608060405234801561001057600080fd5b506100246000801b3361002960201b60201c565b610187565b610039828261011560201b60201c565b61011157600160008084815260200190815260200160002060000160008373ffffffffffffffffffffffffffffffffffffffff1673ffffffffffffffffffffffffffffffffffffffff16815260200190815260200160002060006101000a81548160ff0219169083151502179055506100b661017f60201b60201c565b73ffffffffffffffffffffffffffffffffffffffff168173ffffffffffffffffffffffffffffffffffffffff16837f2f8788117e7eff1d82e926ec794901d17c78024a50270940304540a733656f0d60405160405180910390a45b5050565b600080600084815260200190815260200160002060000160008373ffffffffffffffffffffffffffffffffffffffff1673ffffffffffffffffffffffffffffffffffffffff16815260200190815260200160002060009054906101000a900460ff16905092915050565b600033905090565b61109f806101966000396000f3fe608060405234801561001057600080fd5b506004361061009e5760003560e01c806391d148541161006657806391d1485414610159578063a217fddf14610189578063b137050d146101a7578063d547741f146101d7578063e01c3119146101f35761009e565b806301ffc9a7146100a3578063248a9ca3146100d35780632f2ff15d1461010357806336568abe1461011f578063426dbd9c1461013b575b600080fd5b6100bd60048036038101906100b89190610a71565b610223565b6040516100ca9190610c3b565b60405180910390f35b6100ed60048036038101906100e89190610a04565b61029d565b6040516100fa9190610c56565b60405180910390f35b61011d60048036038101906101189190610a31565b6102bc565b005b61013960048036038101906101349190610a31565b6102dd565b005b610143610360565b6040516101509190610c56565b60405180910390f35b610173600480360381019061016e9190610a31565b610384565b6040516101809190610c3b565b60405180910390f35b6101916103ee565b60405161019e9190610c56565b60405180910390f35b6101c160048036038101906101bc9190610a9e565b6103f5565b6040516101ce9190610cd3565b60405180910390f35b6101f160048036038101906101ec9190610a31565b610419565b005b61020d60048036038101906102089190610a9e565b61043a565b60405161021a9190610cd3565b60405180910390f35b60007f7965db0b000000000000000000000000000000000000000000000000000000007bffffffffffffffffffffffffffffffffffffffffffffffffffffffff1916827bffffffffffffffffffffffffffffffffffffffffffffffffffffffff1916148061029657506102958261047b565b5b9050919050565b6000806000838152602001908152602001600020600101549050919050565b6102c58261029d565b6102ce816104e5565b6102d883836104f9565b505050565b6102e56105d9565b73ffffffffffffffffffffffffffffffffffffffff168173ffffffffffffffffffffffffffffffffffffffff1614610352576040517f08c379a000000000000000000000000000000000000000000000000000000000815260040161034990610cb3565b60405180910390fd5b61035c82826105e1565b5050565b7f0d08ba49c85b8f4efedcab2f953c61f86e8944d3d6185fd4fa77665e1274cfc481565b600080600084815260200190815260200160002060000160008373ffffffffffffffffffffffffffffffffffffffff1673ffffffffffffffffffffffffffffffffffffffff16815260200190815260200160002060009054906101000a900460ff16905092915050565b6000801b81565b60008060001b610404816104e5565b82846104109190610d15565b91505092915050565b6104228261029d565b61042b816104e5565b61043583836105e1565b505050565b60007f0d08ba49c85b8f4efedcab2f953c61f86e8944d3d6185fd4fa77665e1274cfc4610466816104e5565b82846104729190610d6b565b91505092915050565b60007f01ffc9a7000000000000000000000000000000000000000000000000000000007bffffffffffffffffffffffffffffffffffffffffffffffffffffffff1916827bffffffffffffffffffffffffffffffffffffffffffffffffffffffff1916149050919050565b6104f6816104f16105d9565b6106c2565b50565b6105038282610384565b6105d557600160008084815260200190815260200160002060000160008373ffffffffffffffffffffffffffffffffffffffff1673ffffffffffffffffffffffffffffffffffffffff16815260200190815260200160002060006101000a81548160ff02191690831515021790555061057a6105d9565b73ffffffffffffffffffffffffffffffffffffffff168173ffffffffffffffffffffffffffffffffffffffff16837f2f8788117e7eff1d82e926ec794901d17c78024a50270940304540a733656f0d60405160405180910390a45b5050565b600033905090565b6105eb8282610384565b156106be57600080600084815260200190815260200160002060000160008373ffffffffffffffffffffffffffffffffffffffff1673ffffffffffffffffffffffffffffffffffffffff16815260200190815260200160002060006101000a81548160ff0219169083151502179055506106636105d9565b73ffffffffffffffffffffffffffffffffffffffff168173ffffffffffffffffffffffffffffffffffffffff16837ff6391f5c32d9c69d2a47ea670b442974b53935d1edc7fd64eb21e047a839171b60405160405180910390a45b5050565b6106cc8282610384565b610743576106d981610747565b6106e78360001c6020610774565b6040516020016106f8929190610c01565b6040516020818303038152906040526040517f08c379a000000000000000000000000000000000000000000000000000000000815260040161073a9190610c71565b60405180910390fd5b5050565b606061076d8273ffffffffffffffffffffffffffffffffffffffff16601460ff16610774565b9050919050565b6060600060028360026107879190610d6b565b6107919190610d15565b67ffffffffffffffff8111156107aa576107a9610efe565b5b6040519080825280601f01601f1916602001820160405280156107dc5781602001600182028036833780820191505090505b5090507f30000000000000000000000000000000000000000000000000000000000000008160008151811061081457610813610ecf565b5b60200101907effffffffffffffffffffffffffffffffffffffffffffffffffffffffffffff1916908160001a9053507f78000000000000000000000000000000000000000000000000000000000000008160018151811061087857610877610ecf565b5b60200101907effffffffffffffffffffffffffffffffffffffffffffffffffffffffffffff1916908160001a905350600060018460026108b89190610d6b565b6108c29190610d15565b90505b6001811115610962577f3031323334353637383961626364656600000000000000000000000000000000600f86166010811061090457610903610ecf565b5b1a60f81b82828151811061091b5761091a610ecf565b5b60200101907effffffffffffffffffffffffffffffffffffffffffffffffffffffffffffff1916908160001a905350600485901c94508061095b90610e76565b90506108c5565b50600084146109a6576040517f08c379a000000000000000000000000000000000000000000000000000000000815260040161099d90610c93565b60405180910390fd5b8091505092915050565b6000813590506109bf8161100d565b92915050565b6000813590506109d481611024565b92915050565b6000813590506109e98161103b565b92915050565b6000813590506109fe81611052565b92915050565b600060208284031215610a1a57610a19610f2d565b5b6000610a28848285016109c5565b91505092915050565b60008060408385031215610a4857610a47610f2d565b5b6000610a56858286016109c5565b9250506020610a67858286016109b0565b9150509250929050565b600060208284031215610a8757610a86610f2d565b5b6000610a95848285016109da565b91505092915050565b60008060408385031215610ab557610ab4610f2d565b5b6000610ac3858286016109ef565b9250506020610ad4858286016109ef565b9150509250929050565b610ae781610dd7565b82525050565b610af681610de3565b82525050565b6000610b0782610cee565b610b118185610cf9565b9350610b21818560208601610e43565b610b2a81610f32565b840191505092915050565b6000610b4082610cee565b610b4a8185610d0a565b9350610b5a818560208601610e43565b80840191505092915050565b6000610b73602083610cf9565b9150610b7e82610f43565b602082019050919050565b6000610b96601783610d0a565b9150610ba182610f6c565b601782019050919050565b6000610bb9601183610d0a565b9150610bc482610f95565b601182019050919050565b6000610bdc602f83610cf9565b9150610be782610fbe565b604082019050919050565b610bfb81610e39565b82525050565b6000610c0c82610b89565b9150610c188285610b35565b9150610c2382610bac565b9150610c2f8284610b35565b91508190509392505050565b6000602082019050610c506000830184610ade565b92915050565b6000602082019050610c6b6000830184610aed565b92915050565b60006020820190508181036000830152610c8b8184610afc565b905092915050565b60006020820190508181036000830152610cac81610b66565b9050919050565b60006020820190508181036000830152610ccc81610bcf565b9050919050565b6000602082019050610ce86000830184610bf2565b92915050565b600081519050919050565b600082825260208201905092915050565b600081905092915050565b6000610d2082610e39565b9150610d2b83610e39565b9250827fffffffffffffffffffffffffffffffffffffffffffffffffffffffffffffffff03821115610d6057610d5f610ea0565b5b828201905092915050565b6000610d7682610e39565b9150610d8183610e39565b9250817fffffffffffffffffffffffffffffffffffffffffffffffffffffffffffffffff0483118215151615610dba57610db9610ea0565b5b828202905092915050565b6000610dd082610e19565b9050919050565b60008115159050919050565b6000819050919050565b60007fffffffff0000000000000000000000000000000000000000000000000000000082169050919050565b600073ffffffffffffffffffffffffffffffffffffffff82169050919050565b6000819050919050565b60005b83811015610e61578082015181840152602081019050610e46565b83811115610e70576000848401525b50505050565b6000610e8182610e39565b91506000821415610e9557610e94610ea0565b5b600182039050919050565b7f4e487b7100000000000000000000000000000000000000000000000000000000600052601160045260246000fd5b7f4e487b7100000000000000000000000000000000000000000000000000000000600052603260045260246000fd5b7f4e487b7100000000000000000000000000000000000000000000000000000000600052604160045260246000fd5b600080fd5b6000601f19601f8301169050919050565b7f537472696e67733a20686578206c656e67746820696e73756666696369656e74600082015250565b7f416363657373436f6e74726f6c3a206163636f756e7420000000000000000000600082015250565b7f206973206d697373696e6720726f6c6520000000000000000000000000000000600082015250565b7f416363657373436f6e74726f6c3a2063616e206f6e6c792072656e6f756e636560008201527f20726f6c657320666f722073656c660000000000000000000000000000000000602082015250565b61101681610dc5565b811461102157600080fd5b50565b61102d81610de3565b811461103857600080fd5b50565b61104481610ded565b811461104f57600080fd5b50565b61105b81610e39565b811461106657600080fd5b5056fea2646970667358221220b94fca4e4406cf71f361b15d40c817cb89e8862953026473bae9bcfd2ca76a3464736f6c63430008070033",
					"opcodes": "PUSH1 0x80 PUSH1 0x40 MSTORE CALLVALUE DUP1 ISZERO PUSH2 0x10 JUMPI PUSH1 0x0 DUP1 REVERT JUMPDEST POP PUSH2 0x24 PUSH1 0x0 DUP1 SHL CALLER PUSH2 0x29 PUSH1 0x20 SHL PUSH1 0x20 SHR JUMP JUMPDEST PUSH2 0x187 JUMP JUMPDEST PUSH2 0x39 DUP3 DUP3 PUSH2 0x115 PUSH1 0x20 SHL PUSH1 0x20 SHR JUMP JUMPDEST PUSH2 0x111 JUMPI PUSH1 0x1 PUSH1 0x0 DUP1 DUP5 DUP2 MSTORE PUSH1 0x20 ADD SWAP1 DUP2 MSTORE PUSH1 0x20 ADD PUSH1 0x0 KECCAK256 PUSH1 0x0 ADD PUSH1 0x0 DUP4 PUSH20 0xFFFFFFFFFFFFFFFFFFFFFFFFFFFFFFFFFFFFFFFF AND PUSH20 0xFFFFFFFFFFFFFFFFFFFFFFFFFFFFFFFFFFFFFFFF AND DUP2 MSTORE PUSH1 0x20 ADD SWAP1 DUP2 MSTORE PUSH1 0x20 ADD PUSH1 0x0 KECCAK256 PUSH1 0x0 PUSH2 0x100 EXP DUP2 SLOAD DUP2 PUSH1 0xFF MUL NOT AND SWAP1 DUP4 ISZERO ISZERO MUL OR SWAP1 SSTORE POP PUSH2 0xB6 PUSH2 0x17F PUSH1 0x20 SHL PUSH1 0x20 SHR JUMP JUMPDEST PUSH20 0xFFFFFFFFFFFFFFFFFFFFFFFFFFFFFFFFFFFFFFFF AND DUP2 PUSH20 0xFFFFFFFFFFFFFFFFFFFFFFFFFFFFFFFFFFFFFFFF AND DUP4 PUSH32 0x2F8788117E7EFF1D82E926EC794901D17C78024A50270940304540A733656F0D PUSH1 0x40 MLOAD PUSH1 0x40 MLOAD DUP1 SWAP2 SUB SWAP1 LOG4 JUMPDEST POP POP JUMP JUMPDEST PUSH1 0x0 DUP1 PUSH1 0x0 DUP5 DUP2 MSTORE PUSH1 0x20 ADD SWAP1 DUP2 MSTORE PUSH1 0x20 ADD PUSH1 0x0 KECCAK256 PUSH1 0x0 ADD PUSH1 0x0 DUP4 PUSH20 0xFFFFFFFFFFFFFFFFFFFFFFFFFFFFFFFFFFFFFFFF AND PUSH20 0xFFFFFFFFFFFFFFFFFFFFFFFFFFFFFFFFFFFFFFFF AND DUP2 MSTORE PUSH1 0x20 ADD SWAP1 DUP2 MSTORE PUSH1 0x20 ADD PUSH1 0x0 KECCAK256 PUSH1 0x0 SWAP1 SLOAD SWAP1 PUSH2 0x100 EXP SWAP1 DIV PUSH1 0xFF AND SWAP1 POP SWAP3 SWAP2 POP POP JUMP JUMPDEST PUSH1 0x0 CALLER SWAP1 POP SWAP1 JUMP JUMPDEST PUSH2 0x109F DUP1 PUSH2 0x196 PUSH1 0x0 CODECOPY PUSH1 0x0 RETURN INVALID PUSH1 0x80 PUSH1 0x40 MSTORE CALLVALUE DUP1 ISZERO PUSH2 0x10 JUMPI PUSH1 0x0 DUP1 REVERT JUMPDEST POP PUSH1 0x4 CALLDATASIZE LT PUSH2 0x9E JUMPI PUSH1 0x0 CALLDATALOAD PUSH1 0xE0 SHR DUP1 PUSH4 0x91D14854 GT PUSH2 0x66 JUMPI DUP1 PUSH4 0x91D14854 EQ PUSH2 0x159 JUMPI DUP1 PUSH4 0xA217FDDF EQ PUSH2 0x189 JUMPI DUP1 PUSH4 0xB137050D EQ PUSH2 0x1A7 JUMPI DUP1 PUSH4 0xD547741F EQ PUSH2 0x1D7 JUMPI DUP1 PUSH4 0xE01C3119 EQ PUSH2 0x1F3 JUMPI PUSH2 0x9E JUMP JUMPDEST DUP1 PUSH4 0x1FFC9A7 EQ PUSH2 0xA3 JUMPI DUP1 PUSH4 0x248A9CA3 EQ PUSH2 0xD3 JUMPI DUP1 PUSH4 0x2F2FF15D EQ PUSH2 0x103 JUMPI DUP1 PUSH4 0x36568ABE EQ PUSH2 0x11F JUMPI DUP1 PUSH4 0x426DBD9C EQ PUSH2 0x13B JUMPI JUMPDEST PUSH1 0x0 DUP1 REVERT JUMPDEST PUSH2 0xBD PUSH1 0x4 DUP1 CALLDATASIZE SUB DUP2 ADD SWAP1 PUSH2 0xB8 SWAP2 SWAP1 PUSH2 0xA71 JUMP JUMPDEST PUSH2 0x223 JUMP JUMPDEST PUSH1 0x40 MLOAD PUSH2 0xCA SWAP2 SWAP1 PUSH2 0xC3B JUMP JUMPDEST PUSH1 0x40 MLOAD DUP1 SWAP2 SUB SWAP1 RETURN JUMPDEST PUSH2 0xED PUSH1 0x4 DUP1 CALLDATASIZE SUB DUP2 ADD SWAP1 PUSH2 0xE8 SWAP2 SWAP1 PUSH2 0xA04 JUMP JUMPDEST PUSH2 0x29D JUMP JUMPDEST PUSH1 0x40 MLOAD PUSH2 0xFA SWAP2 SWAP1 PUSH2 0xC56 JUMP JUMPDEST PUSH1 0x40 MLOAD DUP1 SWAP2 SUB SWAP1 RETURN JUMPDEST PUSH2 0x11D PUSH1 0x4 DUP1 CALLDATASIZE SUB DUP2 ADD SWAP1 PUSH2 0x118 SWAP2 SWAP1 PUSH2 0xA31 JUMP JUMPDEST PUSH2 0x2BC JUMP JUMPDEST STOP JUMPDEST PUSH2 0x139 PUSH1 0x4 DUP1 CALLDATASIZE SUB DUP2 ADD SWAP1 PUSH2 0x134 SWAP2 SWAP1 PUSH2 0xA31 JUMP JUMPDEST PUSH2 0x2DD JUMP JUMPDEST STOP JUMPDEST PUSH2 0x143 PUSH2 0x360 JUMP JUMPDEST PUSH1 0x40 MLOAD PUSH2 0x150 SWAP2 SWAP1 PUSH2 0xC56 JUMP JUMPDEST PUSH1 0x40 MLOAD DUP1 SWAP2 SUB SWAP1 RETURN JUMPDEST PUSH2 0x173 PUSH1 0x4 DUP1 CALLDATASIZE SUB DUP2 ADD SWAP1 PUSH2 0x16E SWAP2 SWAP1 PUSH2 0xA31 JUMP JUMPDEST PUSH2 0x384 JUMP JUMPDEST PUSH1 0x40 MLOAD PUSH2 0x180 SWAP2 SWAP1 PUSH2 0xC3B JUMP JUMPDEST PUSH1 0x40 MLOAD DUP1 SWAP2 SUB SWAP1 RETURN JUMPDEST PUSH2 0x191 PUSH2 0x3EE JUMP JUMPDEST PUSH1 0x40 MLOAD PUSH2 0x19E SWAP2 SWAP1 PUSH2 0xC56 JUMP JUMPDEST PUSH1 0x40 MLOAD DUP1 SWAP2 SUB SWAP1 RETURN JUMPDEST PUSH2 0x1C1 PUSH1 0x4 DUP1 CALLDATASIZE SUB DUP2 ADD SWAP1 PUSH2 0x1BC SWAP2 SWAP1 PUSH2 0xA9E JUMP JUMPDEST PUSH2 0x3F5 JUMP JUMPDEST PUSH1 0x40 MLOAD PUSH2 0x1CE SWAP2 SWAP1 PUSH2 0xCD3 JUMP JUMPDEST PUSH1 0x40 MLOAD DUP1 SWAP2 SUB SWAP1 RETURN JUMPDEST PUSH2 0x1F1 PUSH1 0x4 DUP1 CALLDATASIZE SUB DUP2 ADD SWAP1 PUSH2 0x1EC SWAP2 SWAP1 PUSH2 0xA31 JUMP JUMPDEST PUSH2 0x419 JUMP JUMPDEST STOP JUMPDEST PUSH2 0x20D PUSH1 0x4 DUP1 CALLDATASIZE SUB DUP2 ADD SWAP1 PUSH2 0x208 SWAP2 SWAP1 PUSH2 0xA9E JUMP JUMPDEST PUSH2 0x43A JUMP JUMPDEST PUSH1 0x40 MLOAD PUSH2 0x21A SWAP2 SWAP1 PUSH2 0xCD3 JUMP JUMPDEST PUSH1 0x40 MLOAD DUP1 SWAP2 SUB SWAP1 RETURN JUMPDEST PUSH1 0x0 PUSH32 0x7965DB0B00000000000000000000000000000000000000000000000000000000 PUSH28 0xFFFFFFFFFFFFFFFFFFFFFFFFFFFFFFFFFFFFFFFFFFFFFFFFFFFFFFFF NOT AND DUP3 PUSH28 0xFFFFFFFFFFFFFFFFFFFFFFFFFFFFFFFFFFFFFFFFFFFFFFFFFFFFFFFF NOT AND EQ DUP1 PUSH2 0x296 JUMPI POP PUSH2 0x295 DUP3 PUSH2 0x47B JUMP JUMPDEST JUMPDEST SWAP1 POP SWAP2 SWAP1 POP JUMP JUMPDEST PUSH1 0x0 DUP1 PUSH1 0x0 DUP4 DUP2 MSTORE PUSH1 0x20 ADD SWAP1 DUP2 MSTORE PUSH1 0x20 ADD PUSH1 0x0 KECCAK256 PUSH1 0x1 ADD SLOAD SWAP1 POP SWAP2 SWAP1 POP JUMP JUMPDEST PUSH2 0x2C5 DUP3 PUSH2 0x29D JUMP JUMPDEST PUSH2 0x2CE DUP2 PUSH2 0x4E5 JUMP JUMPDEST PUSH2 0x2D8 DUP4 DUP4 PUSH2 0x4F9 JUMP JUMPDEST POP POP POP JUMP JUMPDEST PUSH2 0x2E5 PUSH2 0x5D9 JUMP JUMPDEST PUSH20 0xFFFFFFFFFFFFFFFFFFFFFFFFFFFFFFFFFFFFFFFF AND DUP2 PUSH20 0xFFFFFFFFFFFFFFFFFFFFFFFFFFFFFFFFFFFFFFFF AND EQ PUSH2 0x352 JUMPI PUSH1 0x40 MLOAD PUSH32 0x8C379A000000000000000000000000000000000000000000000000000000000 DUP2 MSTORE PUSH1 0x4 ADD PUSH2 0x349 SWAP1 PUSH2 0xCB3 JUMP JUMPDEST PUSH1 0x40 MLOAD DUP1 SWAP2 SUB SWAP1 REVERT JUMPDEST PUSH2 0x35C DUP3 DUP3 PUSH2 0x5E1 JUMP JUMPDEST POP POP JUMP JUMPDEST PUSH32 0xD08BA49C85B8F4EFEDCAB2F953C61F86E8944D3D6185FD4FA77665E1274CFC4 DUP2 JUMP JUMPDEST PUSH1 0x0 DUP1 PUSH1 0x0 DUP5 DUP2 MSTORE PUSH1 0x20 ADD SWAP1 DUP2 MSTORE PUSH1 0x20 ADD PUSH1 0x0 KECCAK256 PUSH1 0x0 ADD PUSH1 0x0 DUP4 PUSH20 0xFFFFFFFFFFFFFFFFFFFFFFFFFFFFFFFFFFFFFFFF AND PUSH20 0xFFFFFFFFFFFFFFFFFFFFFFFFFFFFFFFFFFFFFFFF AND DUP2 MSTORE PUSH1 0x20 ADD SWAP1 DUP2 MSTORE PUSH1 0x20 ADD PUSH1 0x0 KECCAK256 PUSH1 0x0 SWAP1 SLOAD SWAP1 PUSH2 0x100 EXP SWAP1 DIV PUSH1 0xFF AND SWAP1 POP SWAP3 SWAP2 POP POP JUMP JUMPDEST PUSH1 0x0 DUP1 SHL DUP2 JUMP JUMPDEST PUSH1 0x0 DUP1 PUSH1 0x0 SHL PUSH2 0x404 DUP2 PUSH2 0x4E5 JUMP JUMPDEST DUP3 DUP5 PUSH2 0x410 SWAP2 SWAP1 PUSH2 0xD15 JUMP JUMPDEST SWAP2 POP POP SWAP3 SWAP2 POP POP JUMP JUMPDEST PUSH2 0x422 DUP3 PUSH2 0x29D JUMP JUMPDEST PUSH2 0x42B DUP2 PUSH2 0x4E5 JUMP JUMPDEST PUSH2 0x435 DUP4 DUP4 PUSH2 0x5E1 JUMP JUMPDEST POP POP POP JUMP JUMPDEST PUSH1 0x0 PUSH32 0xD08BA49C85B8F4EFEDCAB2F953C61F86E8944D3D6185FD4FA77665E1274CFC4 PUSH2 0x466 DUP2 PUSH2 0x4E5 JUMP JUMPDEST DUP3 DUP5 PUSH2 0x472 SWAP2 SWAP1 PUSH2 0xD6B JUMP JUMPDEST SWAP2 POP POP SWAP3 SWAP2 POP POP JUMP JUMPDEST PUSH1 0x0 PUSH32 0x1FFC9A700000000000000000000000000000000000000000000000000000000 PUSH28 0xFFFFFFFFFFFFFFFFFFFFFFFFFFFFFFFFFFFFFFFFFFFFFFFFFFFFFFFF NOT AND DUP3 PUSH28 0xFFFFFFFFFFFFFFFFFFFFFFFFFFFFFFFFFFFFFFFFFFFFFFFFFFFFFFFF NOT AND EQ SWAP1 POP SWAP2 SWAP1 POP JUMP JUMPDEST PUSH2 0x4F6 DUP2 PUSH2 0x4F1 PUSH2 0x5D9 JUMP JUMPDEST PUSH2 0x6C2 JUMP JUMPDEST POP JUMP JUMPDEST PUSH2 0x503 DUP3 DUP3 PUSH2 0x384 JUMP JUMPDEST PUSH2 0x5D5 JUMPI PUSH1 0x1 PUSH1 0x0 DUP1 DUP5 DUP2 MSTORE PUSH1 0x20 ADD SWAP1 DUP2 MSTORE PUSH1 0x20 ADD PUSH1 0x0 KECCAK256 PUSH1 0x0 ADD PUSH1 0x0 DUP4 PUSH20 0xFFFFFFFFFFFFFFFFFFFFFFFFFFFFFFFFFFFFFFFF AND PUSH20 0xFFFFFFFFFFFFFFFFFFFFFFFFFFFFFFFFFFFFFFFF AND DUP2 MSTORE PUSH1 0x20 ADD SWAP1 DUP2 MSTORE PUSH1 0x20 ADD PUSH1 0x0 KECCAK256 PUSH1 0x0 PUSH2 0x100 EXP DUP2 SLOAD DUP2 PUSH1 0xFF MUL NOT AND SWAP1 DUP4 ISZERO ISZERO MUL OR SWAP1 SSTORE POP PUSH2 0x57A PUSH2 0x5D9 JUMP JUMPDEST PUSH20 0xFFFFFFFFFFFFFFFFFFFFFFFFFFFFFFFFFFFFFFFF AND DUP2 PUSH20 0xFFFFFFFFFFFFFFFFFFFFFFFFFFFFFFFFFFFFFFFF AND DUP4 PUSH32 0x2F8788117E7EFF1D82E926EC794901D17C78024A50270940304540A733656F0D PUSH1 0x40 MLOAD PUSH1 0x40 MLOAD DUP1 SWAP2 SUB SWAP1 LOG4 JUMPDEST POP POP JUMP JUMPDEST PUSH1 0x0 CALLER SWAP1 POP SWAP1 JUMP JUMPDEST PUSH2 0x5EB DUP3 DUP3 PUSH2 0x384 JUMP JUMPDEST ISZERO PUSH2 0x6BE JUMPI PUSH1 0x0 DUP1 PUSH1 0x0 DUP5 DUP2 MSTORE PUSH1 0x20 ADD SWAP1 DUP2 MSTORE PUSH1 0x20 ADD PUSH1 0x0 KECCAK256 PUSH1 0x0 ADD PUSH1 0x0 DUP4 PUSH20 0xFFFFFFFFFFFFFFFFFFFFFFFFFFFFFFFFFFFFFFFF AND PUSH20 0xFFFFFFFFFFFFFFFFFFFFFFFFFFFFFFFFFFFFFFFF AND DUP2 MSTORE PUSH1 0x20 ADD SWAP1 DUP2 MSTORE PUSH1 0x20 ADD PUSH1 0x0 KECCAK256 PUSH1 0x0 PUSH2 0x100 EXP DUP2 SLOAD DUP2 PUSH1 0xFF MUL NOT AND SWAP1 DUP4 ISZERO ISZERO MUL OR SWAP1 SSTORE POP PUSH2 0x663 PUSH2 0x5D9 JUMP JUMPDEST PUSH20 0xFFFFFFFFFFFFFFFFFFFFFFFFFFFFFFFFFFFFFFFF AND DUP2 PUSH20 0xFFFFFFFFFFFFFFFFFFFFFFFFFFFFFFFFFFFFFFFF AND DUP4 PUSH32 0xF6391F5C32D9C69D2A47EA670B442974B53935D1EDC7FD64EB21E047A839171B PUSH1 0x40 MLOAD PUSH1 0x40 MLOAD DUP1 SWAP2 SUB SWAP1 LOG4 JUMPDEST POP POP JUMP JUMPDEST PUSH2 0x6CC DUP3 DUP3 PUSH2 0x384 JUMP JUMPDEST PUSH2 0x743 JUMPI PUSH2 0x6D9 DUP2 PUSH2 0x747 JUMP JUMPDEST PUSH2 0x6E7 DUP4 PUSH1 0x0 SHR PUSH1 0x20 PUSH2 0x774 JUMP JUMPDEST PUSH1 0x40 MLOAD PUSH1 0x20 ADD PUSH2 0x6F8 SWAP3 SWAP2 SWAP1 PUSH2 0xC01 JUMP JUMPDEST PUSH1 0x40 MLOAD PUSH1 0x20 DUP2 DUP4 SUB SUB DUP2 MSTORE SWAP1 PUSH1 0x40 MSTORE PUSH1 0x40 MLOAD PUSH32 0x8C379A000000000000000000000000000000000000000000000000000000000 DUP2 MSTORE PUSH1 0x4 ADD PUSH2 0x73A SWAP2 SWAP1 PUSH2 0xC71 JUMP JUMPDEST PUSH1 0x40 MLOAD DUP1 SWAP2 SUB SWAP1 REVERT JUMPDEST POP POP JUMP JUMPDEST PUSH1 0x60 PUSH2 0x76D DUP3 PUSH20 0xFFFFFFFFFFFFFFFFFFFFFFFFFFFFFFFFFFFFFFFF AND PUSH1 0x14 PUSH1 0xFF AND PUSH2 0x774 JUMP JUMPDEST SWAP1 POP SWAP2 SWAP1 POP JUMP JUMPDEST PUSH1 0x60 PUSH1 0x0 PUSH1 0x2 DUP4 PUSH1 0x2 PUSH2 0x787 SWAP2 SWAP1 PUSH2 0xD6B JUMP JUMPDEST PUSH2 0x791 SWAP2 SWAP1 PUSH2 0xD15 JUMP JUMPDEST PUSH8 0xFFFFFFFFFFFFFFFF DUP2 GT ISZERO PUSH2 0x7AA JUMPI PUSH2 0x7A9 PUSH2 0xEFE JUMP JUMPDEST JUMPDEST PUSH1 0x40 MLOAD SWAP1 DUP1 DUP3 MSTORE DUP1 PUSH1 0x1F ADD PUSH1 0x1F NOT AND PUSH1 0x20 ADD DUP3 ADD PUSH1 0x40 MSTORE DUP1 ISZERO PUSH2 0x7DC JUMPI DUP2 PUSH1 0x20 ADD PUSH1 0x1 DUP3 MUL DUP1 CALLDATASIZE DUP4 CALLDATACOPY DUP1 DUP3 ADD SWAP2 POP POP SWAP1 POP JUMPDEST POP SWAP1 POP PUSH32 0x3000000000000000000000000000000000000000000000000000000000000000 DUP2 PUSH1 0x0 DUP2 MLOAD DUP2 LT PUSH2 0x814 JUMPI PUSH2 0x813 PUSH2 0xECF JUMP JUMPDEST JUMPDEST PUSH1 0x20 ADD ADD SWAP1 PUSH31 0xFFFFFFFFFFFFFFFFFFFFFFFFFFFFFFFFFFFFFFFFFFFFFFFFFFFFFFFFFFFFFF NOT AND SWAP1 DUP2 PUSH1 0x0 BYTE SWAP1 MSTORE8 POP PUSH32 0x7800000000000000000000000000000000000000000000000000000000000000 DUP2 PUSH1 0x1 DUP2 MLOAD DUP2 LT PUSH2 0x878 JUMPI PUSH2 0x877 PUSH2 0xECF JUMP JUMPDEST JUMPDEST PUSH1 0x20 ADD ADD SWAP1 PUSH31 0xFFFFFFFFFFFFFFFFFFFFFFFFFFFFFFFFFFFFFFFFFFFFFFFFFFFFFFFFFFFFFF NOT AND SWAP1 DUP2 PUSH1 0x0 BYTE SWAP1 MSTORE8 POP PUSH1 0x0 PUSH1 0x1 DUP5 PUSH1 0x2 PUSH2 0x8B8 SWAP2 SWAP1 PUSH2 0xD6B JUMP JUMPDEST PUSH2 0x8C2 SWAP2 SWAP1 PUSH2 0xD15 JUMP JUMPDEST SWAP1 POP JUMPDEST PUSH1 0x1 DUP2 GT ISZERO PUSH2 0x962 JUMPI PUSH32 0x3031323334353637383961626364656600000000000000000000000000000000 PUSH1 0xF DUP7 AND PUSH1 0x10 DUP2 LT PUSH2 0x904 JUMPI PUSH2 0x903 PUSH2 0xECF JUMP JUMPDEST JUMPDEST BYTE PUSH1 0xF8 SHL DUP3 DUP3 DUP2 MLOAD DUP2 LT PUSH2 0x91B JUMPI PUSH2 0x91A PUSH2 0xECF JUMP JUMPDEST JUMPDEST PUSH1 0x20 ADD ADD SWAP1 PUSH31 0xFFFFFFFFFFFFFFFFFFFFFFFFFFFFFFFFFFFFFFFFFFFFFFFFFFFFFFFFFFFFFF NOT AND SWAP1 DUP2 PUSH1 0x0 BYTE SWAP1 MSTORE8 POP PUSH1 0x4 DUP6 SWAP1 SHR SWAP5 POP DUP1 PUSH2 0x95B SWAP1 PUSH2 0xE76 JUMP JUMPDEST SWAP1 POP PUSH2 0x8C5 JUMP JUMPDEST POP PUSH1 0x0 DUP5 EQ PUSH2 0x9A6 JUMPI PUSH1 0x40 MLOAD PUSH32 0x8C379A000000000000000000000000000000000000000000000000000000000 DUP2 MSTORE PUSH1 0x4 ADD PUSH2 0x99D SWAP1 PUSH2 0xC93 JUMP JUMPDEST PUSH1 0x40 MLOAD DUP1 SWAP2 SUB SWAP1 REVERT JUMPDEST DUP1 SWAP2 POP POP SWAP3 SWAP2 POP POP JUMP JUMPDEST PUSH1 0x0 DUP2 CALLDATALOAD SWAP1 POP PUSH2 0x9BF DUP2 PUSH2 0x100D JUMP JUMPDEST SWAP3 SWAP2 POP POP JUMP JUMPDEST PUSH1 0x0 DUP2 CALLDATALOAD SWAP1 POP PUSH2 0x9D4 DUP2 PUSH2 0x1024 JUMP JUMPDEST SWAP3 SWAP2 POP POP JUMP JUMPDEST PUSH1 0x0 DUP2 CALLDATALOAD SWAP1 POP PUSH2 0x9E9 DUP2 PUSH2 0x103B JUMP JUMPDEST SWAP3 SWAP2 POP POP JUMP JUMPDEST PUSH1 0x0 DUP2 CALLDATALOAD SWAP1 POP PUSH2 0x9FE DUP2 PUSH2 0x1052 JUMP JUMPDEST SWAP3 SWAP2 POP POP JUMP JUMPDEST PUSH1 0x0 PUSH1 0x20 DUP3 DUP5 SUB SLT ISZERO PUSH2 0xA1A JUMPI PUSH2 0xA19 PUSH2 0xF2D JUMP JUMPDEST JUMPDEST PUSH1 0x0 PUSH2 0xA28 DUP5 DUP3 DUP6 ADD PUSH2 0x9C5 JUMP JUMPDEST SWAP2 POP POP SWAP3 SWAP2 POP POP JUMP JUMPDEST PUSH1 0x0 DUP1 PUSH1 0x40 DUP4 DUP6 SUB SLT ISZERO PUSH2 0xA48 JUMPI PUSH2 0xA47 PUSH2 0xF2D JUMP JUMPDEST JUMPDEST PUSH1 0x0 PUSH2 0xA56 DUP6 DUP3 DUP7 ADD PUSH2 0x9C5 JUMP JUMPDEST SWAP3 POP POP PUSH1 0x20 PUSH2 0xA67 DUP6 DUP3 DUP7 ADD PUSH2 0x9B0 JUMP JUMPDEST SWAP2 POP POP SWAP3 POP SWAP3 SWAP1 POP JUMP JUMPDEST PUSH1 0x0 PUSH1 0x20 DUP3 DUP5 SUB SLT ISZERO PUSH2 0xA87 JUMPI PUSH2 0xA86 PUSH2 0xF2D JUMP JUMPDEST JUMPDEST PUSH1 0x0 PUSH2 0xA95 DUP5 DUP3 DUP6 ADD PUSH2 0x9DA JUMP JUMPDEST SWAP2 POP POP SWAP3 SWAP2 POP POP JUMP JUMPDEST PUSH1 0x0 DUP1 PUSH1 0x40 DUP4 DUP6 SUB SLT ISZERO PUSH2 0xAB5 JUMPI PUSH2 0xAB4 PUSH2 0xF2D JUMP JUMPDEST JUMPDEST PUSH1 0x0 PUSH2 0xAC3 DUP6 DUP3 DUP7 ADD PUSH2 0x9EF JUMP JUMPDEST SWAP3 POP POP PUSH1 0x20 PUSH2 0xAD4 DUP6 DUP3 DUP7 ADD PUSH2 0x9EF JUMP JUMPDEST SWAP2 POP POP SWAP3 POP SWAP3 SWAP1 POP JUMP JUMPDEST PUSH2 0xAE7 DUP2 PUSH2 0xDD7 JUMP JUMPDEST DUP3 MSTORE POP POP JUMP JUMPDEST PUSH2 0xAF6 DUP2 PUSH2 0xDE3 JUMP JUMPDEST DUP3 MSTORE POP POP JUMP JUMPDEST PUSH1 0x0 PUSH2 0xB07 DUP3 PUSH2 0xCEE JUMP JUMPDEST PUSH2 0xB11 DUP2 DUP6 PUSH2 0xCF9 JUMP JUMPDEST SWAP4 POP PUSH2 0xB21 DUP2 DUP6 PUSH1 0x20 DUP7 ADD PUSH2 0xE43 JUMP JUMPDEST PUSH2 0xB2A DUP2 PUSH2 0xF32 JUMP JUMPDEST DUP5 ADD SWAP2 POP POP SWAP3 SWAP2 POP POP JUMP JUMPDEST PUSH1 0x0 PUSH2 0xB40 DUP3 PUSH2 0xCEE JUMP JUMPDEST PUSH2 0xB4A DUP2 DUP6 PUSH2 0xD0A JUMP JUMPDEST SWAP4 POP PUSH2 0xB5A DUP2 DUP6 PUSH1 0x20 DUP7 ADD PUSH2 0xE43 JUMP JUMPDEST DUP1 DUP5 ADD SWAP2 POP POP SWAP3 SWAP2 POP POP JUMP JUMPDEST PUSH1 0x0 PUSH2 0xB73 PUSH1 0x20 DUP4 PUSH2 0xCF9 JUMP JUMPDEST SWAP2 POP PUSH2 0xB7E DUP3 PUSH2 0xF43 JUMP JUMPDEST PUSH1 0x20 DUP3 ADD SWAP1 POP SWAP2 SWAP1 POP JUMP JUMPDEST PUSH1 0x0 PUSH2 0xB96 PUSH1 0x17 DUP4 PUSH2 0xD0A JUMP JUMPDEST SWAP2 POP PUSH2 0xBA1 DUP3 PUSH2 0xF6C JUMP JUMPDEST PUSH1 0x17 DUP3 ADD SWAP1 POP SWAP2 SWAP1 POP JUMP JUMPDEST PUSH1 0x0 PUSH2 0xBB9 PUSH1 0x11 DUP4 PUSH2 0xD0A JUMP JUMPDEST SWAP2 POP PUSH2 0xBC4 DUP3 PUSH2 0xF95 JUMP JUMPDEST PUSH1 0x11 DUP3 ADD SWAP1 POP SWAP2 SWAP1 POP JUMP JUMPDEST PUSH1 0x0 PUSH2 0xBDC PUSH1 0x2F DUP4 PUSH2 0xCF9 JUMP JUMPDEST SWAP2 POP PUSH2 0xBE7 DUP3 PUSH2 0xFBE JUMP JUMPDEST PUSH1 0x40 DUP3 ADD SWAP1 POP SWAP2 SWAP1 POP JUMP JUMPDEST PUSH2 0xBFB DUP2 PUSH2 0xE39 JUMP JUMPDEST DUP3 MSTORE POP POP JUMP JUMPDEST PUSH1 0x0 PUSH2 0xC0C DUP3 PUSH2 0xB89 JUMP JUMPDEST SWAP2 POP PUSH2 0xC18 DUP3 DUP6 PUSH2 0xB35 JUMP JUMPDEST SWAP2 POP PUSH2 0xC23 DUP3 PUSH2 0xBAC JUMP JUMPDEST SWAP2 POP PUSH2 0xC2F DUP3 DUP5 PUSH2 0xB35 JUMP JUMPDEST SWAP2 POP DUP2 SWAP1 POP SWAP4 SWAP3 POP POP POP JUMP JUMPDEST PUSH1 0x0 PUSH1 0x20 DUP3 ADD SWAP1 POP PUSH2 0xC50 PUSH1 0x0 DUP4 ADD DUP5 PUSH2 0xADE JUMP JUMPDEST SWAP3 SWAP2 POP POP JUMP JUMPDEST PUSH1 0x0 PUSH1 0x20 DUP3 ADD SWAP1 POP PUSH2 0xC6B PUSH1 0x0 DUP4 ADD DUP5 PUSH2 0xAED JUMP JUMPDEST SWAP3 SWAP2 POP POP JUMP JUMPDEST PUSH1 0x0 PUSH1 0x20 DUP3 ADD SWAP1 POP DUP2 DUP2 SUB PUSH1 0x0 DUP4 ADD MSTORE PUSH2 0xC8B DUP2 DUP5 PUSH2 0xAFC JUMP JUMPDEST SWAP1 POP SWAP3 SWAP2 POP POP JUMP JUMPDEST PUSH1 0x0 PUSH1 0x20 DUP3 ADD SWAP1 POP DUP2 DUP2 SUB PUSH1 0x0 DUP4 ADD MSTORE PUSH2 0xCAC DUP2 PUSH2 0xB66 JUMP JUMPDEST SWAP1 POP SWAP2 SWAP1 POP JUMP JUMPDEST PUSH1 0x0 PUSH1 0x20 DUP3 ADD SWAP1 POP DUP2 DUP2 SUB PUSH1 0x0 DUP4 ADD MSTORE PUSH2 0xCCC DUP2 PUSH2 0xBCF JUMP JUMPDEST SWAP1 POP SWAP2 SWAP1 POP JUMP JUMPDEST PUSH1 0x0 PUSH1 0x20 DUP3 ADD SWAP1 POP PUSH2 0xCE8 PUSH1 0x0 DUP4 ADD DUP5 PUSH2 0xBF2 JUMP JUMPDEST SWAP3 SWAP2 POP POP JUMP JUMPDEST PUSH1 0x0 DUP2 MLOAD SWAP1 POP SWAP2 SWAP1 POP JUMP JUMPDEST PUSH1 0x0 DUP3 DUP3 MSTORE PUSH1 0x20 DUP3 ADD SWAP1 POP SWAP3 SWAP2 POP POP JUMP JUMPDEST PUSH1 0x0 DUP2 SWAP1 POP SWAP3 SWAP2 POP POP JUMP JUMPDEST PUSH1 0x0 PUSH2 0xD20 DUP3 PUSH2 0xE39 JUMP JUMPDEST SWAP2 POP PUSH2 0xD2B DUP4 PUSH2 0xE39 JUMP JUMPDEST SWAP3 POP DUP3 PUSH32 0xFFFFFFFFFFFFFFFFFFFFFFFFFFFFFFFFFFFFFFFFFFFFFFFFFFFFFFFFFFFFFFFF SUB DUP3 GT ISZERO PUSH2 0xD60 JUMPI PUSH2 0xD5F PUSH2 0xEA0 JUMP JUMPDEST JUMPDEST DUP3 DUP3 ADD SWAP1 POP SWAP3 SWAP2 POP POP JUMP JUMPDEST PUSH1 0x0 PUSH2 0xD76 DUP3 PUSH2 0xE39 JUMP JUMPDEST SWAP2 POP PUSH2 0xD81 DUP4 PUSH2 0xE39 JUMP JUMPDEST SWAP3 POP DUP2 PUSH32 0xFFFFFFFFFFFFFFFFFFFFFFFFFFFFFFFFFFFFFFFFFFFFFFFFFFFFFFFFFFFFFFFF DIV DUP4 GT DUP3 ISZERO ISZERO AND ISZERO PUSH2 0xDBA JUMPI PUSH2 0xDB9 PUSH2 0xEA0 JUMP JUMPDEST JUMPDEST DUP3 DUP3 MUL SWAP1 POP SWAP3 SWAP2 POP POP JUMP JUMPDEST PUSH1 0x0 PUSH2 0xDD0 DUP3 PUSH2 0xE19 JUMP JUMPDEST SWAP1 POP SWAP2 SWAP1 POP JUMP JUMPDEST PUSH1 0x0 DUP2 ISZERO ISZERO SWAP1 POP SWAP2 SWAP1 POP JUMP JUMPDEST PUSH1 0x0 DUP2 SWAP1 POP SWAP2 SWAP1 POP JUMP JUMPDEST PUSH1 0x0 PUSH32 0xFFFFFFFF00000000000000000000000000000000000000000000000000000000 DUP3 AND SWAP1 POP SWAP2 SWAP1 POP JUMP JUMPDEST PUSH1 0x0 PUSH20 0xFFFFFFFFFFFFFFFFFFFFFFFFFFFFFFFFFFFFFFFF DUP3 AND SWAP1 POP SWAP2 SWAP1 POP JUMP JUMPDEST PUSH1 0x0 DUP2 SWAP1 POP SWAP2 SWAP1 POP JUMP JUMPDEST PUSH1 0x0 JUMPDEST DUP4 DUP2 LT ISZERO PUSH2 0xE61 JUMPI DUP1 DUP3 ADD MLOAD DUP2 DUP5 ADD MSTORE PUSH1 0x20 DUP2 ADD SWAP1 POP PUSH2 0xE46 JUMP JUMPDEST DUP4 DUP2 GT ISZERO PUSH2 0xE70 JUMPI PUSH1 0x0 DUP5 DUP5 ADD MSTORE JUMPDEST POP POP POP POP JUMP JUMPDEST PUSH1 0x0 PUSH2 0xE81 DUP3 PUSH2 0xE39 JUMP JUMPDEST SWAP2 POP PUSH1 0x0 DUP3 EQ ISZERO PUSH2 0xE95 JUMPI PUSH2 0xE94 PUSH2 0xEA0 JUMP JUMPDEST JUMPDEST PUSH1 0x1 DUP3 SUB SWAP1 POP SWAP2 SWAP1 POP JUMP JUMPDEST PUSH32 0x4E487B7100000000000000000000000000000000000000000000000000000000 PUSH1 0x0 MSTORE PUSH1 0x11 PUSH1 0x4 MSTORE PUSH1 0x24 PUSH1 0x0 REVERT JUMPDEST PUSH32 0x4E487B7100000000000000000000000000000000000000000000000000000000 PUSH1 0x0 MSTORE PUSH1 0x32 PUSH1 0x4 MSTORE PUSH1 0x24 PUSH1 0x0 REVERT JUMPDEST PUSH32 0x4E487B7100000000000000000000000000000000000000000000000000000000 PUSH1 0x0 MSTORE PUSH1 0x41 PUSH1 0x4 MSTORE PUSH1 0x24 PUSH1 0x0 REVERT JUMPDEST PUSH1 0x0 DUP1 REVERT JUMPDEST PUSH1 0x0 PUSH1 0x1F NOT PUSH1 0x1F DUP4 ADD AND SWAP1 POP SWAP2 SWAP1 POP JUMP JUMPDEST PUSH32 0x537472696E67733A20686578206C656E67746820696E73756666696369656E74 PUSH1 0x0 DUP3 ADD MSTORE POP JUMP JUMPDEST PUSH32 0x416363657373436F6E74726F6C3A206163636F756E7420000000000000000000 PUSH1 0x0 DUP3 ADD MSTORE POP JUMP JUMPDEST PUSH32 0x206973206D697373696E6720726F6C6520000000000000000000000000000000 PUSH1 0x0 DUP3 ADD MSTORE POP JUMP JUMPDEST PUSH32 0x416363657373436F6E74726F6C3A2063616E206F6E6C792072656E6F756E6365 PUSH1 0x0 DUP3 ADD MSTORE PUSH32 0x20726F6C657320666F722073656C660000000000000000000000000000000000 PUSH1 0x20 DUP3 ADD MSTORE POP JUMP JUMPDEST PUSH2 0x1016 DUP2 PUSH2 0xDC5 JUMP JUMPDEST DUP2 EQ PUSH2 0x1021 JUMPI PUSH1 0x0 DUP1 REVERT JUMPDEST POP JUMP JUMPDEST PUSH2 0x102D DUP2 PUSH2 0xDE3 JUMP JUMPDEST DUP2 EQ PUSH2 0x1038 JUMPI PUSH1 0x0 DUP1 REVERT JUMPDEST POP JUMP JUMPDEST PUSH2 0x1044 DUP2 PUSH2 0xDED JUMP JUMPDEST DUP2 EQ PUSH2 0x104F JUMPI PUSH1 0x0 DUP1 REVERT JUMPDEST POP JUMP JUMPDEST PUSH2 0x105B DUP2 PUSH2 0xE39 JUMP JUMPDEST DUP2 EQ PUSH2 0x1066 JUMPI PUSH1 0x0 DUP1 REVERT JUMPDEST POP JUMP INVALID LOG2 PUSH5 0x6970667358 0x22 SLT KECCAK256 0xB9 0x4F 0xCA 0x4E DIFFICULTY MOD 0xCF PUSH18 0xF361B15D40C817CB89E8862953026473BAE9 0xBC REVERT 0x2C 0xA7 PUSH11 0x3464736F6C634300080700 CALLER "
				},
				"gasEstimates": {
					"creation": {
						"codeDepositCost": "851000",
						"executionCost": "infinite",
						"totalCost": "infinite"
					},
					"external": {
						"DEFAULT_ADMIN_ROLE()": "357",
						"WRITER_ROL()": "418",
						"getRoleAdmin(bytes32)": "infinite",
						"grantRole(bytes32,address)": "infinite",
						"hasRole(bytes32,address)": "3140",
						"renounceRole(bytes32,address)": "infinite",
						"revokeRole(bytes32,address)": "infinite",
						"soloAdmin(uint256,uint256)": "infinite",
						"soloWriter(uint256,uint256)": "infinite",
						"supportsInterface(bytes4)": "728"
					}
				},
				"methodIdentifiers": {
					"DEFAULT_ADMIN_ROLE()": "a217fddf",
					"WRITER_ROL()": "426dbd9c",
					"getRoleAdmin(bytes32)": "248a9ca3",
					"grantRole(bytes32,address)": "2f2ff15d",
					"hasRole(bytes32,address)": "91d14854",
					"renounceRole(bytes32,address)": "36568abe",
					"revokeRole(bytes32,address)": "d547741f",
					"soloAdmin(uint256,uint256)": "b137050d",
					"soloWriter(uint256,uint256)": "e01c3119",
					"supportsInterface(bytes4)": "01ffc9a7"
				}
			},
			"storageLayout": {
				"storage": [
					{
						"astId": 79,
						"contract": "Openzepellin/OwnableOpZ.sol:OwnableOpZ",
						"label": "_roles",
						"offset": 0,
						"slot": "0",
						"type": "t_mapping(t_bytes32,t_struct(RoleData)74_storage)"
					}
				],
				"types": {
					"t_address": {
						"encoding": "inplace",
						"label": "address",
						"numberOfBytes": "20"
					},
					"t_bool": {
						"encoding": "inplace",
						"label": "bool",
						"numberOfBytes": "1"
					},
					"t_bytes32": {
						"encoding": "inplace",
						"label": "bytes32",
						"numberOfBytes": "32"
					},
					"t_mapping(t_address,t_bool)": {
						"encoding": "mapping",
						"key": "t_address",
						"label": "mapping(address => bool)",
						"numberOfBytes": "32",
						"value": "t_bool"
					},
					"t_mapping(t_bytes32,t_struct(RoleData)74_storage)": {
						"encoding": "mapping",
						"key": "t_bytes32",
						"label": "mapping(bytes32 => struct AccessControl.RoleData)",
						"numberOfBytes": "32",
						"value": "t_struct(RoleData)74_storage"
					},
					"t_struct(RoleData)74_storage": {
						"encoding": "inplace",
						"label": "struct AccessControl.RoleData",
						"members": [
							{
								"astId": 71,
								"contract": "Openzepellin/OwnableOpZ.sol:OwnableOpZ",
								"label": "members",
								"offset": 0,
								"slot": "0",
								"type": "t_mapping(t_address,t_bool)"
							},
							{
								"astId": 73,
								"contract": "Openzepellin/OwnableOpZ.sol:OwnableOpZ",
								"label": "adminRole",
								"offset": 0,
								"slot": "1",
								"type": "t_bytes32"
							}
						],
						"numberOfBytes": "64"
					}
				}
			},
			"userdoc": {
				"kind": "user",
				"methods": {},
				"version": 1
			}
		}
	}
}