{
	"Openzepellin/Merkle1.sol": {
		"TestMerkleProof": {
			"abi": [
				{
					"inputs": [],
					"stateMutability": "nonpayable",
					"type": "constructor"
				},
				{
					"inputs": [],
					"name": "getRoot",
					"outputs": [
						{
							"internalType": "bytes32",
							"name": "",
							"type": "bytes32"
						}
					],
					"stateMutability": "view",
					"type": "function"
				},
				{
					"inputs": [
						{
							"internalType": "uint256",
							"name": "",
							"type": "uint256"
						}
					],
					"name": "hashes",
					"outputs": [
						{
							"internalType": "bytes32",
							"name": "",
							"type": "bytes32"
						}
					],
					"stateMutability": "view",
					"type": "function"
				},
				{
					"inputs": [
						{
							"internalType": "bytes32[]",
							"name": "proof",
							"type": "bytes32[]"
						},
						{
							"internalType": "bytes32",
							"name": "root",
							"type": "bytes32"
						},
						{
							"internalType": "bytes32",
							"name": "leaf",
							"type": "bytes32"
						},
						{
							"internalType": "uint256",
							"name": "index",
							"type": "uint256"
						}
					],
					"name": "verify",
					"outputs": [
						{
							"internalType": "bool",
							"name": "",
							"type": "bool"
						}
					],
					"stateMutability": "pure",
					"type": "function"
				}
			],
			"devdoc": {
				"kind": "dev",
				"methods": {},
				"version": 1
			},
			"evm": {
				"assembly": "    /* \"Openzepellin/Merkle1.sol\":919:3160  contract TestMerkleProof is MerkleProof {... */\n  mstore(0x40, 0x80)\n    /* \"Openzepellin/Merkle1.sol\":1000:1684  constructor() {... */\n  callvalue\n  dup1\n  iszero\n  tag_1\n  jumpi\n  0x00\n  dup1\n  revert\ntag_1:\n  pop\n    /* \"Openzepellin/Merkle1.sol\":1027:1059  string[4]  memory   transactions */\n  0x00\n    /* \"Openzepellin/Merkle1.sol\":1027:1189  string[4]  memory   transactions = [... */\n  mload(0x40)\n  dup1\n  0x80\n  add\n  0x40\n  mstore\n  dup1\n  mload(0x40)\n  dup1\n  0x40\n  add\n  0x40\n  mstore\n  dup1\n  0x0c\n  dup2\n  mstore\n  0x20\n  add\n  0x616c696365202d3e20626f620000000000000000000000000000000000000000\n  dup2\n  mstore\n  pop\n  dup2\n  mstore\n  0x20\n  add\n  mload(0x40)\n  dup1\n  0x40\n  add\n  0x40\n  mstore\n  dup1\n  0x0b\n  dup2\n  mstore\n  0x20\n  add\n  0x626f62202d3e2064617665000000000000000000000000000000000000000000\n  dup2\n  mstore\n  pop\n  dup2\n  mstore\n  0x20\n  add\n  mload(0x40)\n  dup1\n  0x40\n  add\n  0x40\n  mstore\n  dup1\n  0x0e\n  dup2\n  mstore\n  0x20\n  add\n  0x6361726f6c202d3e20616c696365000000000000000000000000000000000000\n  dup2\n  mstore\n  pop\n  dup2\n  mstore\n  0x20\n  add\n  mload(0x40)\n  dup1\n  0x40\n  add\n  0x40\n  mstore\n  dup1\n  0x0b\n  dup2\n  mstore\n  0x20\n  add\n  0x64617665202d3e20626f62000000000000000000000000000000000000000000\n  dup2\n  mstore\n  pop\n  dup2\n  mstore\n  pop\n  swap1\n  pop\n    /* \"Openzepellin/Merkle1.sol\":1207:1213  uint i */\n  0x00\n    /* \"Openzepellin/Merkle1.sol\":1202:1333  for (uint i = 0; i < transactions.length; i++) {... */\ntag_4:\n    /* \"Openzepellin/Merkle1.sol\":1223:1242  transactions.length */\n  0x04\n    /* \"Openzepellin/Merkle1.sol\":1219:1220  i */\n  dup2\n    /* \"Openzepellin/Merkle1.sol\":1219:1242  i < transactions.length */\n  lt\n    /* \"Openzepellin/Merkle1.sol\":1202:1333  for (uint i = 0; i < transactions.length; i++) {... */\n  iszero\n  tag_5\n  jumpi\n    /* \"Openzepellin/Merkle1.sol\":1264:1270  hashes */\n  0x00\n    /* \"Openzepellin/Merkle1.sol\":1303:1315  transactions */\n  dup3\n    /* \"Openzepellin/Merkle1.sol\":1316:1317  i */\n  dup3\n    /* \"Openzepellin/Merkle1.sol\":1303:1318  transactions[i] */\n  0x04\n  dup2\n  lt\n  tag_7\n  jumpi\n  tag_8\n  tag_9\n  jump\t// in\ntag_8:\ntag_7:\n  0x20\n  mul\n  add\n  mload\n    /* \"Openzepellin/Merkle1.sol\":1286:1319  abi.encodePacked(transactions[i]) */\n  add(0x20, mload(0x40))\n  tag_10\n  swap2\n  swap1\n  tag_11\n  jump\t// in\ntag_10:\n  mload(0x40)\n  0x20\n  dup2\n  dup4\n  sub\n  sub\n  dup2\n  mstore\n  swap1\n  0x40\n  mstore\n    /* \"Openzepellin/Merkle1.sol\":1276:1320  keccak256(abi.encodePacked(transactions[i])) */\n  dup1\n  mload\n  swap1\n  0x20\n  add\n  keccak256\n    /* \"Openzepellin/Merkle1.sol\":1264:1321  hashes.push(keccak256(abi.encodePacked(transactions[i]))) */\n  swap1\n  dup1\n  0x01\n  dup2\n  sload\n  add\n  dup1\n  dup3\n  sstore\n  dup1\n  swap2\n  pop\n  pop\n  0x01\n  swap1\n  sub\n  swap1\n  0x00\n  mstore\n  keccak256(0x00, 0x20)\n  add\n  0x00\n  swap1\n  swap2\n  swap1\n  swap2\n  swap1\n  swap2\n  pop\n  sstore\n    /* \"Openzepellin/Merkle1.sol\":1244:1247  i++ */\n  dup1\n  dup1\n  tag_13\n  swap1\n  tag_14\n  jump\t// in\ntag_13:\n  swap2\n  pop\n  pop\n    /* \"Openzepellin/Merkle1.sol\":1202:1333  for (uint i = 0; i < transactions.length; i++) {... */\n  jump(tag_4)\ntag_5:\n  pop\n    /* \"Openzepellin/Merkle1.sol\":1345:1351  uint n */\n  0x00\n    /* \"Openzepellin/Merkle1.sol\":1354:1373  transactions.length */\n  0x04\n    /* \"Openzepellin/Merkle1.sol\":1345:1373  uint n = transactions.length */\n  swap1\n  pop\n    /* \"Openzepellin/Merkle1.sol\":1384:1395  uint offset */\n  0x00\n    /* \"Openzepellin/Merkle1.sol\":1412:1677  while (n > 0) {... */\ntag_15:\n    /* \"Openzepellin/Merkle1.sol\":1423:1424  0 */\n  0x00\n    /* \"Openzepellin/Merkle1.sol\":1419:1420  n */\n  dup3\n    /* \"Openzepellin/Merkle1.sol\":1419:1424  n > 0 */\n  gt\n    /* \"Openzepellin/Merkle1.sol\":1412:1677  while (n > 0) {... */\n  iszero\n  tag_16\n  jumpi\n    /* \"Openzepellin/Merkle1.sol\":1446:1452  uint i */\n  0x00\n    /* \"Openzepellin/Merkle1.sol\":1441:1616  for (uint i = 0; i < n - 1; i += 2) {... */\ntag_17:\n    /* \"Openzepellin/Merkle1.sol\":1466:1467  1 */\n  0x01\n    /* \"Openzepellin/Merkle1.sol\":1462:1463  n */\n  dup4\n    /* \"Openzepellin/Merkle1.sol\":1462:1467  n - 1 */\n  tag_20\n  swap2\n  swap1\n  tag_21\n  jump\t// in\ntag_20:\n    /* \"Openzepellin/Merkle1.sol\":1458:1459  i */\n  dup2\n    /* \"Openzepellin/Merkle1.sol\":1458:1467  i < n - 1 */\n  lt\n    /* \"Openzepellin/Merkle1.sol\":1441:1616  for (uint i = 0; i < n - 1; i += 2) {... */\n  iszero\n  tag_18\n  jumpi\n    /* \"Openzepellin/Merkle1.sol\":1496:1502  hashes */\n  0x00\n    /* \"Openzepellin/Merkle1.sol\":1536:1542  hashes */\n  dup1\n    /* \"Openzepellin/Merkle1.sol\":1552:1553  i */\n  dup3\n    /* \"Openzepellin/Merkle1.sol\":1543:1549  offset */\n  dup5\n    /* \"Openzepellin/Merkle1.sol\":1543:1553  offset + i */\n  tag_22\n  swap2\n  swap1\n  tag_23\n  jump\t// in\ntag_22:\n    /* \"Openzepellin/Merkle1.sol\":1536:1554  hashes[offset + i] */\n  dup2\n  sload\n  dup2\n  lt\n  tag_24\n  jumpi\n  tag_25\n  tag_9\n  jump\t// in\ntag_25:\ntag_24:\n  swap1\n  0x00\n  mstore\n  keccak256(0x00, 0x20)\n  add\n  sload\n    /* \"Openzepellin/Merkle1.sol\":1556:1562  hashes */\n  0x00\n    /* \"Openzepellin/Merkle1.sol\":1576:1577  1 */\n  0x01\n    /* \"Openzepellin/Merkle1.sol\":1572:1573  i */\n  dup5\n    /* \"Openzepellin/Merkle1.sol\":1563:1569  offset */\n  dup7\n    /* \"Openzepellin/Merkle1.sol\":1563:1573  offset + i */\n  tag_27\n  swap2\n  swap1\n  tag_23\n  jump\t// in\ntag_27:\n    /* \"Openzepellin/Merkle1.sol\":1563:1577  offset + i + 1 */\n  tag_28\n  swap2\n  swap1\n  tag_23\n  jump\t// in\ntag_28:\n    /* \"Openzepellin/Merkle1.sol\":1556:1578  hashes[offset + i + 1] */\n  dup2\n  sload\n  dup2\n  lt\n  tag_29\n  jumpi\n  tag_30\n  tag_9\n  jump\t// in\ntag_30:\ntag_29:\n  swap1\n  0x00\n  mstore\n  keccak256(0x00, 0x20)\n  add\n  sload\n    /* \"Openzepellin/Merkle1.sol\":1519:1579  abi.encodePacked(hashes[offset + i], hashes[offset + i + 1]) */\n  add(0x20, mload(0x40))\n  tag_32\n  swap3\n  swap2\n  swap1\n  tag_33\n  jump\t// in\ntag_32:\n  mload(0x40)\n  0x20\n  dup2\n  dup4\n  sub\n  sub\n  dup2\n  mstore\n  swap1\n  0x40\n  mstore\n    /* \"Openzepellin/Merkle1.sol\":1509:1581  keccak256(abi.encodePacked(hashes[offset + i], hashes[offset + i + 1]) ) */\n  dup1\n  mload\n  swap1\n  0x20\n  add\n  keccak256\n    /* \"Openzepellin/Merkle1.sol\":1496:1600  hashes.push( keccak256(abi.encodePacked(hashes[offset + i], hashes[offset + i + 1]) )... */\n  swap1\n  dup1\n  0x01\n  dup2\n  sload\n  add\n  dup1\n  dup3\n  sstore\n  dup1\n  swap2\n  pop\n  pop\n  0x01\n  swap1\n  sub\n  swap1\n  0x00\n  mstore\n  keccak256(0x00, 0x20)\n  add\n  0x00\n  swap1\n  swap2\n  swap1\n  swap2\n  swap1\n  swap2\n  pop\n  sstore\n    /* \"Openzepellin/Merkle1.sol\":1474:1475  2 */\n  0x02\n    /* \"Openzepellin/Merkle1.sol\":1469:1475  i += 2 */\n  dup2\n  tag_35\n  swap2\n  swap1\n  tag_23\n  jump\t// in\ntag_35:\n  swap1\n  pop\n    /* \"Openzepellin/Merkle1.sol\":1441:1616  for (uint i = 0; i < n - 1; i += 2) {... */\n  jump(tag_17)\ntag_18:\n  pop\n    /* \"Openzepellin/Merkle1.sol\":1640:1641  n */\n  dup2\n    /* \"Openzepellin/Merkle1.sol\":1630:1641  offset += n */\n  dup2\n  tag_36\n  swap2\n  swap1\n  tag_23\n  jump\t// in\ntag_36:\n  swap1\n  pop\n    /* \"Openzepellin/Merkle1.sol\":1664:1665  2 */\n  0x02\n    /* \"Openzepellin/Merkle1.sol\":1660:1661  n */\n  dup3\n    /* \"Openzepellin/Merkle1.sol\":1660:1665  n / 2 */\n  tag_37\n  swap2\n  swap1\n  tag_38\n  jump\t// in\ntag_37:\n    /* \"Openzepellin/Merkle1.sol\":1656:1665  n = n / 2 */\n  swap2\n  pop\n    /* \"Openzepellin/Merkle1.sol\":1412:1677  while (n > 0) {... */\n  jump(tag_15)\ntag_16:\n    /* \"Openzepellin/Merkle1.sol\":1014:1684  {... */\n  pop\n  pop\n  pop\n    /* \"Openzepellin/Merkle1.sol\":919:3160  contract TestMerkleProof is MerkleProof {... */\n  jump(tag_39)\n    /* \"#utility.yul\":7:187   */\ntag_9:\n    /* \"#utility.yul\":55:132   */\n  0x4e487b7100000000000000000000000000000000000000000000000000000000\n    /* \"#utility.yul\":52:53   */\n  0x00\n    /* \"#utility.yul\":45:133   */\n  mstore\n    /* \"#utility.yul\":152:156   */\n  0x32\n    /* \"#utility.yul\":149:150   */\n  0x04\n    /* \"#utility.yul\":142:157   */\n  mstore\n    /* \"#utility.yul\":176:180   */\n  0x24\n    /* \"#utility.yul\":173:174   */\n  0x00\n    /* \"#utility.yul\":166:181   */\n  revert\n    /* \"#utility.yul\":193:292   */\ntag_40:\n    /* \"#utility.yul\":245:251   */\n  0x00\n    /* \"#utility.yul\":279:284   */\n  dup2\n    /* \"#utility.yul\":273:285   */\n  mload\n    /* \"#utility.yul\":263:285   */\n  swap1\n  pop\n    /* \"#utility.yul\":193:292   */\n  swap2\n  swap1\n  pop\n  jump\t// out\n    /* \"#utility.yul\":298:446   */\ntag_41:\n    /* \"#utility.yul\":400:411   */\n  0x00\n    /* \"#utility.yul\":437:440   */\n  dup2\n    /* \"#utility.yul\":422:440   */\n  swap1\n  pop\n    /* \"#utility.yul\":298:446   */\n  swap3\n  swap2\n  pop\n  pop\n  jump\t// out\n    /* \"#utility.yul\":452:698   */\ntag_42:\n    /* \"#utility.yul\":533:534   */\n  0x00\n    /* \"#utility.yul\":543:656   */\ntag_55:\n    /* \"#utility.yul\":557:563   */\n  dup4\n    /* \"#utility.yul\":554:555   */\n  dup2\n    /* \"#utility.yul\":551:564   */\n  lt\n    /* \"#utility.yul\":543:656   */\n  iszero\n  tag_57\n  jumpi\n    /* \"#utility.yul\":642:643   */\n  dup1\n    /* \"#utility.yul\":637:640   */\n  dup3\n    /* \"#utility.yul\":633:644   */\n  add\n    /* \"#utility.yul\":627:645   */\n  mload\n    /* \"#utility.yul\":623:624   */\n  dup2\n    /* \"#utility.yul\":618:621   */\n  dup5\n    /* \"#utility.yul\":614:625   */\n  add\n    /* \"#utility.yul\":607:646   */\n  mstore\n    /* \"#utility.yul\":579:581   */\n  0x20\n    /* \"#utility.yul\":576:577   */\n  dup2\n    /* \"#utility.yul\":572:582   */\n  add\n    /* \"#utility.yul\":567:582   */\n  swap1\n  pop\n    /* \"#utility.yul\":543:656   */\n  jump(tag_55)\ntag_57:\n    /* \"#utility.yul\":690:691   */\n  0x00\n    /* \"#utility.yul\":681:687   */\n  dup5\n    /* \"#utility.yul\":676:679   */\n  dup5\n    /* \"#utility.yul\":672:688   */\n  add\n    /* \"#utility.yul\":665:692   */\n  mstore\n    /* \"#utility.yul\":514:698   */\n  pop\n    /* \"#utility.yul\":452:698   */\n  pop\n  pop\n  pop\n  jump\t// out\n    /* \"#utility.yul\":704:1094   */\ntag_43:\n    /* \"#utility.yul\":810:813   */\n  0x00\n    /* \"#utility.yul\":838:877   */\n  tag_59\n    /* \"#utility.yul\":871:876   */\n  dup3\n    /* \"#utility.yul\":838:877   */\n  tag_40\n  jump\t// in\ntag_59:\n    /* \"#utility.yul\":893:982   */\n  tag_60\n    /* \"#utility.yul\":975:981   */\n  dup2\n    /* \"#utility.yul\":970:973   */\n  dup6\n    /* \"#utility.yul\":893:982   */\n  tag_41\n  jump\t// in\ntag_60:\n    /* \"#utility.yul\":886:982   */\n  swap4\n  pop\n    /* \"#utility.yul\":991:1056   */\n  tag_61\n    /* \"#utility.yul\":1049:1055   */\n  dup2\n    /* \"#utility.yul\":1044:1047   */\n  dup6\n    /* \"#utility.yul\":1037:1041   */\n  0x20\n    /* \"#utility.yul\":1030:1035   */\n  dup7\n    /* \"#utility.yul\":1026:1042   */\n  add\n    /* \"#utility.yul\":991:1056   */\n  tag_42\n  jump\t// in\ntag_61:\n    /* \"#utility.yul\":1081:1087   */\n  dup1\n    /* \"#utility.yul\":1076:1079   */\n  dup5\n    /* \"#utility.yul\":1072:1088   */\n  add\n    /* \"#utility.yul\":1065:1088   */\n  swap2\n  pop\n    /* \"#utility.yul\":814:1094   */\n  pop\n    /* \"#utility.yul\":704:1094   */\n  swap3\n  swap2\n  pop\n  pop\n  jump\t// out\n    /* \"#utility.yul\":1100:1375   */\ntag_11:\n    /* \"#utility.yul\":1232:1235   */\n  0x00\n    /* \"#utility.yul\":1254:1349   */\n  tag_63\n    /* \"#utility.yul\":1345:1348   */\n  dup3\n    /* \"#utility.yul\":1336:1342   */\n  dup5\n    /* \"#utility.yul\":1254:1349   */\n  tag_43\n  jump\t// in\ntag_63:\n    /* \"#utility.yul\":1247:1349   */\n  swap2\n  pop\n    /* \"#utility.yul\":1366:1369   */\n  dup2\n    /* \"#utility.yul\":1359:1369   */\n  swap1\n  pop\n    /* \"#utility.yul\":1100:1375   */\n  swap3\n  swap2\n  pop\n  pop\n  jump\t// out\n    /* \"#utility.yul\":1381:1561   */\ntag_44:\n    /* \"#utility.yul\":1429:1506   */\n  0x4e487b7100000000000000000000000000000000000000000000000000000000\n    /* \"#utility.yul\":1426:1427   */\n  0x00\n    /* \"#utility.yul\":1419:1507   */\n  mstore\n    /* \"#utility.yul\":1526:1530   */\n  0x11\n    /* \"#utility.yul\":1523:1524   */\n  0x04\n    /* \"#utility.yul\":1516:1531   */\n  mstore\n    /* \"#utility.yul\":1550:1554   */\n  0x24\n    /* \"#utility.yul\":1547:1548   */\n  0x00\n    /* \"#utility.yul\":1540:1555   */\n  revert\n    /* \"#utility.yul\":1567:1644   */\ntag_45:\n    /* \"#utility.yul\":1604:1611   */\n  0x00\n    /* \"#utility.yul\":1633:1638   */\n  dup2\n    /* \"#utility.yul\":1622:1638   */\n  swap1\n  pop\n    /* \"#utility.yul\":1567:1644   */\n  swap2\n  swap1\n  pop\n  jump\t// out\n    /* \"#utility.yul\":1650:1883   */\ntag_14:\n    /* \"#utility.yul\":1689:1692   */\n  0x00\n    /* \"#utility.yul\":1712:1736   */\n  tag_67\n    /* \"#utility.yul\":1730:1735   */\n  dup3\n    /* \"#utility.yul\":1712:1736   */\n  tag_45\n  jump\t// in\ntag_67:\n    /* \"#utility.yul\":1703:1736   */\n  swap2\n  pop\n    /* \"#utility.yul\":1758:1824   */\n  0xffffffffffffffffffffffffffffffffffffffffffffffffffffffffffffffff\n    /* \"#utility.yul\":1751:1756   */\n  dup3\n    /* \"#utility.yul\":1748:1825   */\n  sub\n    /* \"#utility.yul\":1745:1848   */\n  tag_68\n  jumpi\n    /* \"#utility.yul\":1828:1846   */\n  tag_69\n  tag_44\n  jump\t// in\ntag_69:\n    /* \"#utility.yul\":1745:1848   */\ntag_68:\n    /* \"#utility.yul\":1875:1876   */\n  0x01\n    /* \"#utility.yul\":1868:1873   */\n  dup3\n    /* \"#utility.yul\":1864:1877   */\n  add\n    /* \"#utility.yul\":1857:1877   */\n  swap1\n  pop\n    /* \"#utility.yul\":1650:1883   */\n  swap2\n  swap1\n  pop\n  jump\t// out\n    /* \"#utility.yul\":1889:2083   */\ntag_21:\n    /* \"#utility.yul\":1929:1933   */\n  0x00\n    /* \"#utility.yul\":1949:1969   */\n  tag_71\n    /* \"#utility.yul\":1967:1968   */\n  dup3\n    /* \"#utility.yul\":1949:1969   */\n  tag_45\n  jump\t// in\ntag_71:\n    /* \"#utility.yul\":1944:1969   */\n  swap2\n  pop\n    /* \"#utility.yul\":1983:2003   */\n  tag_72\n    /* \"#utility.yul\":2001:2002   */\n  dup4\n    /* \"#utility.yul\":1983:2003   */\n  tag_45\n  jump\t// in\ntag_72:\n    /* \"#utility.yul\":1978:2003   */\n  swap3\n  pop\n    /* \"#utility.yul\":2027:2028   */\n  dup3\n    /* \"#utility.yul\":2024:2025   */\n  dup3\n    /* \"#utility.yul\":2020:2029   */\n  sub\n    /* \"#utility.yul\":2012:2029   */\n  swap1\n  pop\n    /* \"#utility.yul\":2051:2052   */\n  dup2\n    /* \"#utility.yul\":2045:2049   */\n  dup2\n    /* \"#utility.yul\":2042:2053   */\n  gt\n    /* \"#utility.yul\":2039:2076   */\n  iszero\n  tag_73\n  jumpi\n    /* \"#utility.yul\":2056:2074   */\n  tag_74\n  tag_44\n  jump\t// in\ntag_74:\n    /* \"#utility.yul\":2039:2076   */\ntag_73:\n    /* \"#utility.yul\":1889:2083   */\n  swap3\n  swap2\n  pop\n  pop\n  jump\t// out\n    /* \"#utility.yul\":2089:2280   */\ntag_23:\n    /* \"#utility.yul\":2129:2132   */\n  0x00\n    /* \"#utility.yul\":2148:2168   */\n  tag_76\n    /* \"#utility.yul\":2166:2167   */\n  dup3\n    /* \"#utility.yul\":2148:2168   */\n  tag_45\n  jump\t// in\ntag_76:\n    /* \"#utility.yul\":2143:2168   */\n  swap2\n  pop\n    /* \"#utility.yul\":2182:2202   */\n  tag_77\n    /* \"#utility.yul\":2200:2201   */\n  dup4\n    /* \"#utility.yul\":2182:2202   */\n  tag_45\n  jump\t// in\ntag_77:\n    /* \"#utility.yul\":2177:2202   */\n  swap3\n  pop\n    /* \"#utility.yul\":2225:2226   */\n  dup3\n    /* \"#utility.yul\":2222:2223   */\n  dup3\n    /* \"#utility.yul\":2218:2227   */\n  add\n    /* \"#utility.yul\":2211:2227   */\n  swap1\n  pop\n    /* \"#utility.yul\":2246:2249   */\n  dup1\n    /* \"#utility.yul\":2243:2244   */\n  dup3\n    /* \"#utility.yul\":2240:2250   */\n  gt\n    /* \"#utility.yul\":2237:2273   */\n  iszero\n  tag_78\n  jumpi\n    /* \"#utility.yul\":2253:2271   */\n  tag_79\n  tag_44\n  jump\t// in\ntag_79:\n    /* \"#utility.yul\":2237:2273   */\ntag_78:\n    /* \"#utility.yul\":2089:2280   */\n  swap3\n  swap2\n  pop\n  pop\n  jump\t// out\n    /* \"#utility.yul\":2286:2363   */\ntag_46:\n    /* \"#utility.yul\":2323:2330   */\n  0x00\n    /* \"#utility.yul\":2352:2357   */\n  dup2\n    /* \"#utility.yul\":2341:2357   */\n  swap1\n  pop\n    /* \"#utility.yul\":2286:2363   */\n  swap2\n  swap1\n  pop\n  jump\t// out\n    /* \"#utility.yul\":2369:2448   */\ntag_47:\n    /* \"#utility.yul\":2408:2415   */\n  0x00\n    /* \"#utility.yul\":2437:2442   */\n  dup2\n    /* \"#utility.yul\":2426:2442   */\n  swap1\n  pop\n    /* \"#utility.yul\":2369:2448   */\n  swap2\n  swap1\n  pop\n  jump\t// out\n    /* \"#utility.yul\":2454:2611   */\ntag_48:\n    /* \"#utility.yul\":2559:2604   */\n  tag_83\n    /* \"#utility.yul\":2579:2603   */\n  tag_84\n    /* \"#utility.yul\":2597:2602   */\n  dup3\n    /* \"#utility.yul\":2579:2603   */\n  tag_46\n  jump\t// in\ntag_84:\n    /* \"#utility.yul\":2559:2604   */\n  tag_47\n  jump\t// in\ntag_83:\n    /* \"#utility.yul\":2554:2557   */\n  dup3\n    /* \"#utility.yul\":2547:2605   */\n  mstore\n    /* \"#utility.yul\":2454:2611   */\n  pop\n  pop\n  jump\t// out\n    /* \"#utility.yul\":2617:3014   */\ntag_33:\n    /* \"#utility.yul\":2757:2760   */\n  0x00\n    /* \"#utility.yul\":2772:2847   */\n  tag_86\n    /* \"#utility.yul\":2843:2846   */\n  dup3\n    /* \"#utility.yul\":2834:2840   */\n  dup6\n    /* \"#utility.yul\":2772:2847   */\n  tag_48\n  jump\t// in\ntag_86:\n    /* \"#utility.yul\":2872:2874   */\n  0x20\n    /* \"#utility.yul\":2867:2870   */\n  dup3\n    /* \"#utility.yul\":2863:2875   */\n  add\n    /* \"#utility.yul\":2856:2875   */\n  swap2\n  pop\n    /* \"#utility.yul\":2885:2960   */\n  tag_87\n    /* \"#utility.yul\":2956:2959   */\n  dup3\n    /* \"#utility.yul\":2947:2953   */\n  dup5\n    /* \"#utility.yul\":2885:2960   */\n  tag_48\n  jump\t// in\ntag_87:\n    /* \"#utility.yul\":2985:2987   */\n  0x20\n    /* \"#utility.yul\":2980:2983   */\n  dup3\n    /* \"#utility.yul\":2976:2988   */\n  add\n    /* \"#utility.yul\":2969:2988   */\n  swap2\n  pop\n    /* \"#utility.yul\":3005:3008   */\n  dup2\n    /* \"#utility.yul\":2998:3008   */\n  swap1\n  pop\n    /* \"#utility.yul\":2617:3014   */\n  swap4\n  swap3\n  pop\n  pop\n  pop\n  jump\t// out\n    /* \"#utility.yul\":3020:3200   */\ntag_49:\n    /* \"#utility.yul\":3068:3145   */\n  0x4e487b7100000000000000000000000000000000000000000000000000000000\n    /* \"#utility.yul\":3065:3066   */\n  0x00\n    /* \"#utility.yul\":3058:3146   */\n  mstore\n    /* \"#utility.yul\":3165:3169   */\n  0x12\n    /* \"#utility.yul\":3162:3163   */\n  0x04\n    /* \"#utility.yul\":3155:3170   */\n  mstore\n    /* \"#utility.yul\":3189:3193   */\n  0x24\n    /* \"#utility.yul\":3186:3187   */\n  0x00\n    /* \"#utility.yul\":3179:3194   */\n  revert\n    /* \"#utility.yul\":3206:3391   */\ntag_38:\n    /* \"#utility.yul\":3246:3247   */\n  0x00\n    /* \"#utility.yul\":3263:3283   */\n  tag_90\n    /* \"#utility.yul\":3281:3282   */\n  dup3\n    /* \"#utility.yul\":3263:3283   */\n  tag_45\n  jump\t// in\ntag_90:\n    /* \"#utility.yul\":3258:3283   */\n  swap2\n  pop\n    /* \"#utility.yul\":3297:3317   */\n  tag_91\n    /* \"#utility.yul\":3315:3316   */\n  dup4\n    /* \"#utility.yul\":3297:3317   */\n  tag_45\n  jump\t// in\ntag_91:\n    /* \"#utility.yul\":3292:3317   */\n  swap3\n  pop\n    /* \"#utility.yul\":3336:3337   */\n  dup3\n    /* \"#utility.yul\":3326:3361   */\n  tag_92\n  jumpi\n    /* \"#utility.yul\":3341:3359   */\n  tag_93\n  tag_49\n  jump\t// in\ntag_93:\n    /* \"#utility.yul\":3326:3361   */\ntag_92:\n    /* \"#utility.yul\":3383:3384   */\n  dup3\n    /* \"#utility.yul\":3380:3381   */\n  dup3\n    /* \"#utility.yul\":3376:3385   */\n  div\n    /* \"#utility.yul\":3371:3385   */\n  swap1\n  pop\n    /* \"#utility.yul\":3206:3391   */\n  swap3\n  swap2\n  pop\n  pop\n  jump\t// out\n    /* \"Openzepellin/Merkle1.sol\":919:3160  contract TestMerkleProof is MerkleProof {... */\ntag_39:\n  dataSize(sub_0)\n  dup1\n  dataOffset(sub_0)\n  0x00\n  codecopy\n  0x00\n  return\nstop\n\nsub_0: assembly {\n        /* \"Openzepellin/Merkle1.sol\":919:3160  contract TestMerkleProof is MerkleProof {... */\n      mstore(0x40, 0x80)\n      callvalue\n      dup1\n      iszero\n      tag_1\n      jumpi\n      0x00\n      dup1\n      revert\n    tag_1:\n      pop\n      jumpi(tag_2, lt(calldatasize, 0x04))\n      shr(0xe0, calldataload(0x00))\n      dup1\n      0x21fb335c\n      eq\n      tag_3\n      jumpi\n      dup1\n      0x501895ae\n      eq\n      tag_4\n      jumpi\n      dup1\n      0x5ca1e165\n      eq\n      tag_5\n      jumpi\n    tag_2:\n      0x00\n      dup1\n      revert\n        /* \"Openzepellin/Merkle1.sol\":91:912  function verify(... */\n    tag_3:\n      tag_6\n      0x04\n      dup1\n      calldatasize\n      sub\n      dup2\n      add\n      swap1\n      tag_7\n      swap2\n      swap1\n      tag_8\n      jump\t// in\n    tag_7:\n      tag_9\n      jump\t// in\n    tag_6:\n      mload(0x40)\n      tag_10\n      swap2\n      swap1\n      tag_11\n      jump\t// in\n    tag_10:\n      mload(0x40)\n      dup1\n      swap2\n      sub\n      swap1\n      return\n        /* \"Openzepellin/Merkle1.sol\":968:991  bytes32[] public hashes */\n    tag_4:\n      tag_12\n      0x04\n      dup1\n      calldatasize\n      sub\n      dup2\n      add\n      swap1\n      tag_13\n      swap2\n      swap1\n      tag_14\n      jump\t// in\n    tag_13:\n      tag_15\n      jump\t// in\n    tag_12:\n      mload(0x40)\n      tag_16\n      swap2\n      swap1\n      tag_17\n      jump\t// in\n    tag_16:\n      mload(0x40)\n      dup1\n      swap2\n      sub\n      swap1\n      return\n        /* \"Openzepellin/Merkle1.sol\":1692:1792  function getRoot() public view returns (bytes32) {... */\n    tag_5:\n      tag_18\n      tag_19\n      jump\t// in\n    tag_18:\n      mload(0x40)\n      tag_20\n      swap2\n      swap1\n      tag_17\n      jump\t// in\n    tag_20:\n      mload(0x40)\n      dup1\n      swap2\n      sub\n      swap1\n      return\n        /* \"Openzepellin/Merkle1.sol\":91:912  function verify(... */\n    tag_9:\n        /* \"Openzepellin/Merkle1.sol\":235:239  bool */\n      0x00\n        /* \"Openzepellin/Merkle1.sol\":252:264  bytes32 hash */\n      dup1\n        /* \"Openzepellin/Merkle1.sol\":267:271  leaf */\n      dup4\n        /* \"Openzepellin/Merkle1.sol\":252:271  bytes32 hash = leaf */\n      swap1\n      pop\n        /* \"Openzepellin/Merkle1.sol\":526:532  uint i */\n      0x00\n        /* \"Openzepellin/Merkle1.sol\":521:873  for (uint i = 0; i < proof.length; i++) {... */\n    tag_22:\n        /* \"Openzepellin/Merkle1.sol\":542:547  proof */\n      dup7\n        /* \"Openzepellin/Merkle1.sol\":542:554  proof.length */\n      mload\n        /* \"Openzepellin/Merkle1.sol\":538:539  i */\n      dup2\n        /* \"Openzepellin/Merkle1.sol\":538:554  i < proof.length */\n      lt\n        /* \"Openzepellin/Merkle1.sol\":521:873  for (uint i = 0; i < proof.length; i++) {... */\n      iszero\n      tag_23\n      jumpi\n        /* \"Openzepellin/Merkle1.sol\":576:596  bytes32 proofElement */\n      0x00\n        /* \"Openzepellin/Merkle1.sol\":599:604  proof */\n      dup8\n        /* \"Openzepellin/Merkle1.sol\":605:606  i */\n      dup3\n        /* \"Openzepellin/Merkle1.sol\":599:607  proof[i] */\n      dup2\n      mload\n      dup2\n      lt\n      tag_25\n      jumpi\n      tag_26\n      tag_27\n      jump\t// in\n    tag_26:\n    tag_25:\n      0x20\n      mul\n      0x20\n      add\n      add\n      mload\n        /* \"Openzepellin/Merkle1.sol\":576:607  bytes32 proofElement = proof[i] */\n      swap1\n      pop\n        /* \"Openzepellin/Merkle1.sol\":641:642  0 */\n      0x00\n        /* \"Openzepellin/Merkle1.sol\":636:637  2 */\n      0x02\n        /* \"Openzepellin/Merkle1.sol\":628:633  index */\n      dup7\n        /* \"Openzepellin/Merkle1.sol\":628:637  index % 2 */\n      tag_28\n      swap2\n      swap1\n      tag_29\n      jump\t// in\n    tag_28:\n        /* \"Openzepellin/Merkle1.sol\":628:642  index % 2 == 0 */\n      sub\n        /* \"Openzepellin/Merkle1.sol\":624:828  if (index % 2 == 0) {... */\n      tag_30\n      jumpi\n        /* \"Openzepellin/Merkle1.sol\":697:701  hash */\n      dup3\n        /* \"Openzepellin/Merkle1.sol\":703:715  proofElement */\n      dup2\n        /* \"Openzepellin/Merkle1.sol\":680:716  abi.encodePacked(hash, proofElement) */\n      add(0x20, mload(0x40))\n      tag_31\n      swap3\n      swap2\n      swap1\n      tag_32\n      jump\t// in\n    tag_31:\n      mload(0x40)\n      0x20\n      dup2\n      dup4\n      sub\n      sub\n      dup2\n      mstore\n      swap1\n      0x40\n      mstore\n        /* \"Openzepellin/Merkle1.sol\":670:717  keccak256(abi.encodePacked(hash, proofElement)) */\n      dup1\n      mload\n      swap1\n      0x20\n      add\n      keccak256\n        /* \"Openzepellin/Merkle1.sol\":663:717  hash = keccak256(abi.encodePacked(hash, proofElement)) */\n      swap3\n      pop\n        /* \"Openzepellin/Merkle1.sol\":624:828  if (index % 2 == 0) {... */\n      jump(tag_33)\n    tag_30:\n        /* \"Openzepellin/Merkle1.sol\":792:804  proofElement */\n      dup1\n        /* \"Openzepellin/Merkle1.sol\":806:810  hash */\n      dup4\n        /* \"Openzepellin/Merkle1.sol\":775:811  abi.encodePacked(proofElement, hash) */\n      add(0x20, mload(0x40))\n      tag_34\n      swap3\n      swap2\n      swap1\n      tag_32\n      jump\t// in\n    tag_34:\n      mload(0x40)\n      0x20\n      dup2\n      dup4\n      sub\n      sub\n      dup2\n      mstore\n      swap1\n      0x40\n      mstore\n        /* \"Openzepellin/Merkle1.sol\":765:812  keccak256(abi.encodePacked(proofElement, hash)) */\n      dup1\n      mload\n      swap1\n      0x20\n      add\n      keccak256\n        /* \"Openzepellin/Merkle1.sol\":758:812  hash = keccak256(abi.encodePacked(proofElement, hash)) */\n      swap3\n      pop\n        /* \"Openzepellin/Merkle1.sol\":624:828  if (index % 2 == 0) {... */\n    tag_33:\n        /* \"Openzepellin/Merkle1.sol\":860:861  2 */\n      0x02\n        /* \"Openzepellin/Merkle1.sol\":852:857  index */\n      dup6\n        /* \"Openzepellin/Merkle1.sol\":852:861  index / 2 */\n      tag_35\n      swap2\n      swap1\n      tag_36\n      jump\t// in\n    tag_35:\n        /* \"Openzepellin/Merkle1.sol\":844:861  index = index / 2 */\n      swap5\n      pop\n        /* \"Openzepellin/Merkle1.sol\":561:873  {... */\n      pop\n        /* \"Openzepellin/Merkle1.sol\":556:559  i++ */\n      dup1\n      dup1\n      tag_37\n      swap1\n      tag_38\n      jump\t// in\n    tag_37:\n      swap2\n      pop\n      pop\n        /* \"Openzepellin/Merkle1.sol\":521:873  for (uint i = 0; i < proof.length; i++) {... */\n      jump(tag_22)\n    tag_23:\n      pop\n        /* \"Openzepellin/Merkle1.sol\":900:904  root */\n      dup5\n        /* \"Openzepellin/Merkle1.sol\":892:896  hash */\n      dup2\n        /* \"Openzepellin/Merkle1.sol\":892:904  hash == root */\n      eq\n        /* \"Openzepellin/Merkle1.sol\":885:904  return hash == root */\n      swap2\n      pop\n      pop\n        /* \"Openzepellin/Merkle1.sol\":91:912  function verify(... */\n      swap5\n      swap4\n      pop\n      pop\n      pop\n      pop\n      jump\t// out\n        /* \"Openzepellin/Merkle1.sol\":968:991  bytes32[] public hashes */\n    tag_15:\n      0x00\n      dup2\n      dup2\n      sload\n      dup2\n      lt\n      tag_39\n      jumpi\n      0x00\n      dup1\n      revert\n    tag_39:\n      swap1\n      0x00\n      mstore\n      keccak256(0x00, 0x20)\n      add\n      0x00\n      swap2\n      pop\n      swap1\n      pop\n      sload\n      dup2\n      jump\t// out\n        /* \"Openzepellin/Merkle1.sol\":1692:1792  function getRoot() public view returns (bytes32) {... */\n    tag_19:\n        /* \"Openzepellin/Merkle1.sol\":1732:1739  bytes32 */\n      0x00\n        /* \"Openzepellin/Merkle1.sol\":1759:1765  hashes */\n      dup1\n        /* \"Openzepellin/Merkle1.sol\":1782:1783  1 */\n      0x01\n        /* \"Openzepellin/Merkle1.sol\":1766:1772  hashes */\n      0x00\n        /* \"Openzepellin/Merkle1.sol\":1766:1779  hashes.length */\n      dup1\n      sload\n      swap1\n      pop\n        /* \"Openzepellin/Merkle1.sol\":1766:1783  hashes.length - 1 */\n      tag_42\n      swap2\n      swap1\n      tag_43\n      jump\t// in\n    tag_42:\n        /* \"Openzepellin/Merkle1.sol\":1759:1784  hashes[hashes.length - 1] */\n      dup2\n      sload\n      dup2\n      lt\n      tag_44\n      jumpi\n      tag_45\n      tag_27\n      jump\t// in\n    tag_45:\n    tag_44:\n      swap1\n      0x00\n      mstore\n      keccak256(0x00, 0x20)\n      add\n      sload\n        /* \"Openzepellin/Merkle1.sol\":1752:1784  return hashes[hashes.length - 1] */\n      swap1\n      pop\n        /* \"Openzepellin/Merkle1.sol\":1692:1792  function getRoot() public view returns (bytes32) {... */\n      swap1\n      jump\t// out\n        /* \"#utility.yul\":7:82   */\n    tag_47:\n        /* \"#utility.yul\":40:46   */\n      0x00\n        /* \"#utility.yul\":73:75   */\n      0x40\n        /* \"#utility.yul\":67:76   */\n      mload\n        /* \"#utility.yul\":57:76   */\n      swap1\n      pop\n        /* \"#utility.yul\":7:82   */\n      swap1\n      jump\t// out\n        /* \"#utility.yul\":88:205   */\n    tag_48:\n        /* \"#utility.yul\":197:198   */\n      0x00\n        /* \"#utility.yul\":194:195   */\n      dup1\n        /* \"#utility.yul\":187:199   */\n      revert\n        /* \"#utility.yul\":211:328   */\n    tag_49:\n        /* \"#utility.yul\":320:321   */\n      0x00\n        /* \"#utility.yul\":317:318   */\n      dup1\n        /* \"#utility.yul\":310:322   */\n      revert\n        /* \"#utility.yul\":334:451   */\n    tag_50:\n        /* \"#utility.yul\":443:444   */\n      0x00\n        /* \"#utility.yul\":440:441   */\n      dup1\n        /* \"#utility.yul\":433:445   */\n      revert\n        /* \"#utility.yul\":457:559   */\n    tag_51:\n        /* \"#utility.yul\":498:504   */\n      0x00\n        /* \"#utility.yul\":549:551   */\n      0x1f\n        /* \"#utility.yul\":545:552   */\n      not\n        /* \"#utility.yul\":540:542   */\n      0x1f\n        /* \"#utility.yul\":533:538   */\n      dup4\n        /* \"#utility.yul\":529:543   */\n      add\n        /* \"#utility.yul\":525:553   */\n      and\n        /* \"#utility.yul\":515:553   */\n      swap1\n      pop\n        /* \"#utility.yul\":457:559   */\n      swap2\n      swap1\n      pop\n      jump\t// out\n        /* \"#utility.yul\":565:745   */\n    tag_52:\n        /* \"#utility.yul\":613:690   */\n      0x4e487b7100000000000000000000000000000000000000000000000000000000\n        /* \"#utility.yul\":610:611   */\n      0x00\n        /* \"#utility.yul\":603:691   */\n      mstore\n        /* \"#utility.yul\":710:714   */\n      0x41\n        /* \"#utility.yul\":707:708   */\n      0x04\n        /* \"#utility.yul\":700:715   */\n      mstore\n        /* \"#utility.yul\":734:738   */\n      0x24\n        /* \"#utility.yul\":731:732   */\n      0x00\n        /* \"#utility.yul\":724:739   */\n      revert\n        /* \"#utility.yul\":751:1032   */\n    tag_53:\n        /* \"#utility.yul\":834:861   */\n      tag_80\n        /* \"#utility.yul\":856:860   */\n      dup3\n        /* \"#utility.yul\":834:861   */\n      tag_51\n      jump\t// in\n    tag_80:\n        /* \"#utility.yul\":826:832   */\n      dup2\n        /* \"#utility.yul\":822:862   */\n      add\n        /* \"#utility.yul\":964:970   */\n      dup2\n        /* \"#utility.yul\":952:962   */\n      dup2\n        /* \"#utility.yul\":949:971   */\n      lt\n        /* \"#utility.yul\":928:946   */\n      0xffffffffffffffff\n        /* \"#utility.yul\":916:926   */\n      dup3\n        /* \"#utility.yul\":913:947   */\n      gt\n        /* \"#utility.yul\":910:972   */\n      or\n        /* \"#utility.yul\":907:995   */\n      iszero\n      tag_81\n      jumpi\n        /* \"#utility.yul\":975:993   */\n      tag_82\n      tag_52\n      jump\t// in\n    tag_82:\n        /* \"#utility.yul\":907:995   */\n    tag_81:\n        /* \"#utility.yul\":1015:1025   */\n      dup1\n        /* \"#utility.yul\":1011:1013   */\n      0x40\n        /* \"#utility.yul\":1004:1026   */\n      mstore\n        /* \"#utility.yul\":794:1032   */\n      pop\n        /* \"#utility.yul\":751:1032   */\n      pop\n      pop\n      jump\t// out\n        /* \"#utility.yul\":1038:1167   */\n    tag_54:\n        /* \"#utility.yul\":1072:1078   */\n      0x00\n        /* \"#utility.yul\":1099:1119   */\n      tag_84\n      tag_47\n      jump\t// in\n    tag_84:\n        /* \"#utility.yul\":1089:1119   */\n      swap1\n      pop\n        /* \"#utility.yul\":1128:1161   */\n      tag_85\n        /* \"#utility.yul\":1156:1160   */\n      dup3\n        /* \"#utility.yul\":1148:1154   */\n      dup3\n        /* \"#utility.yul\":1128:1161   */\n      tag_53\n      jump\t// in\n    tag_85:\n        /* \"#utility.yul\":1038:1167   */\n      swap2\n      swap1\n      pop\n      jump\t// out\n        /* \"#utility.yul\":1173:1484   */\n    tag_55:\n        /* \"#utility.yul\":1250:1254   */\n      0x00\n        /* \"#utility.yul\":1340:1358   */\n      0xffffffffffffffff\n        /* \"#utility.yul\":1332:1338   */\n      dup3\n        /* \"#utility.yul\":1329:1359   */\n      gt\n        /* \"#utility.yul\":1326:1382   */\n      iszero\n      tag_87\n      jumpi\n        /* \"#utility.yul\":1362:1380   */\n      tag_88\n      tag_52\n      jump\t// in\n    tag_88:\n        /* \"#utility.yul\":1326:1382   */\n    tag_87:\n        /* \"#utility.yul\":1412:1416   */\n      0x20\n        /* \"#utility.yul\":1404:1410   */\n      dup3\n        /* \"#utility.yul\":1400:1417   */\n      mul\n        /* \"#utility.yul\":1392:1417   */\n      swap1\n      pop\n        /* \"#utility.yul\":1472:1476   */\n      0x20\n        /* \"#utility.yul\":1466:1470   */\n      dup2\n        /* \"#utility.yul\":1462:1477   */\n      add\n        /* \"#utility.yul\":1454:1477   */\n      swap1\n      pop\n        /* \"#utility.yul\":1173:1484   */\n      swap2\n      swap1\n      pop\n      jump\t// out\n        /* \"#utility.yul\":1490:1607   */\n    tag_56:\n        /* \"#utility.yul\":1599:1600   */\n      0x00\n        /* \"#utility.yul\":1596:1597   */\n      dup1\n        /* \"#utility.yul\":1589:1601   */\n      revert\n        /* \"#utility.yul\":1613:1690   */\n    tag_57:\n        /* \"#utility.yul\":1650:1657   */\n      0x00\n        /* \"#utility.yul\":1679:1684   */\n      dup2\n        /* \"#utility.yul\":1668:1684   */\n      swap1\n      pop\n        /* \"#utility.yul\":1613:1690   */\n      swap2\n      swap1\n      pop\n      jump\t// out\n        /* \"#utility.yul\":1696:1818   */\n    tag_58:\n        /* \"#utility.yul\":1769:1793   */\n      tag_92\n        /* \"#utility.yul\":1787:1792   */\n      dup2\n        /* \"#utility.yul\":1769:1793   */\n      tag_57\n      jump\t// in\n    tag_92:\n        /* \"#utility.yul\":1762:1767   */\n      dup2\n        /* \"#utility.yul\":1759:1794   */\n      eq\n        /* \"#utility.yul\":1749:1812   */\n      tag_93\n      jumpi\n        /* \"#utility.yul\":1808:1809   */\n      0x00\n        /* \"#utility.yul\":1805:1806   */\n      dup1\n        /* \"#utility.yul\":1798:1810   */\n      revert\n        /* \"#utility.yul\":1749:1812   */\n    tag_93:\n        /* \"#utility.yul\":1696:1818   */\n      pop\n      jump\t// out\n        /* \"#utility.yul\":1824:1963   */\n    tag_59:\n        /* \"#utility.yul\":1870:1875   */\n      0x00\n        /* \"#utility.yul\":1908:1914   */\n      dup2\n        /* \"#utility.yul\":1895:1915   */\n      calldataload\n        /* \"#utility.yul\":1886:1915   */\n      swap1\n      pop\n        /* \"#utility.yul\":1924:1957   */\n      tag_95\n        /* \"#utility.yul\":1951:1956   */\n      dup2\n        /* \"#utility.yul\":1924:1957   */\n      tag_58\n      jump\t// in\n    tag_95:\n        /* \"#utility.yul\":1824:1963   */\n      swap3\n      swap2\n      pop\n      pop\n      jump\t// out\n        /* \"#utility.yul\":1986:2696   */\n    tag_60:\n        /* \"#utility.yul\":2082:2087   */\n      0x00\n        /* \"#utility.yul\":2107:2188   */\n      tag_97\n        /* \"#utility.yul\":2123:2187   */\n      tag_98\n        /* \"#utility.yul\":2180:2186   */\n      dup5\n        /* \"#utility.yul\":2123:2187   */\n      tag_55\n      jump\t// in\n    tag_98:\n        /* \"#utility.yul\":2107:2188   */\n      tag_54\n      jump\t// in\n    tag_97:\n        /* \"#utility.yul\":2098:2188   */\n      swap1\n      pop\n        /* \"#utility.yul\":2208:2213   */\n      dup1\n        /* \"#utility.yul\":2237:2243   */\n      dup4\n        /* \"#utility.yul\":2230:2235   */\n      dup3\n        /* \"#utility.yul\":2223:2244   */\n      mstore\n        /* \"#utility.yul\":2271:2275   */\n      0x20\n        /* \"#utility.yul\":2264:2269   */\n      dup3\n        /* \"#utility.yul\":2260:2276   */\n      add\n        /* \"#utility.yul\":2253:2276   */\n      swap1\n      pop\n        /* \"#utility.yul\":2324:2328   */\n      0x20\n        /* \"#utility.yul\":2316:2322   */\n      dup5\n        /* \"#utility.yul\":2312:2329   */\n      mul\n        /* \"#utility.yul\":2304:2310   */\n      dup4\n        /* \"#utility.yul\":2300:2330   */\n      add\n        /* \"#utility.yul\":2353:2356   */\n      dup6\n        /* \"#utility.yul\":2345:2351   */\n      dup2\n        /* \"#utility.yul\":2342:2357   */\n      gt\n        /* \"#utility.yul\":2339:2461   */\n      iszero\n      tag_99\n      jumpi\n        /* \"#utility.yul\":2372:2451   */\n      tag_100\n      tag_56\n      jump\t// in\n    tag_100:\n        /* \"#utility.yul\":2339:2461   */\n    tag_99:\n        /* \"#utility.yul\":2487:2493   */\n      dup4\n        /* \"#utility.yul\":2470:2690   */\n    tag_101:\n        /* \"#utility.yul\":2504:2510   */\n      dup2\n        /* \"#utility.yul\":2499:2502   */\n      dup2\n        /* \"#utility.yul\":2496:2511   */\n      lt\n        /* \"#utility.yul\":2470:2690   */\n      iszero\n      tag_103\n      jumpi\n        /* \"#utility.yul\":2579:2582   */\n      dup1\n        /* \"#utility.yul\":2608:2645   */\n      tag_104\n        /* \"#utility.yul\":2641:2644   */\n      dup9\n        /* \"#utility.yul\":2629:2639   */\n      dup3\n        /* \"#utility.yul\":2608:2645   */\n      tag_59\n      jump\t// in\n    tag_104:\n        /* \"#utility.yul\":2603:2606   */\n      dup5\n        /* \"#utility.yul\":2596:2646   */\n      mstore\n        /* \"#utility.yul\":2675:2679   */\n      0x20\n        /* \"#utility.yul\":2670:2673   */\n      dup5\n        /* \"#utility.yul\":2666:2680   */\n      add\n        /* \"#utility.yul\":2659:2680   */\n      swap4\n      pop\n        /* \"#utility.yul\":2546:2690   */\n      pop\n        /* \"#utility.yul\":2530:2534   */\n      0x20\n        /* \"#utility.yul\":2525:2528   */\n      dup2\n        /* \"#utility.yul\":2521:2535   */\n      add\n        /* \"#utility.yul\":2514:2535   */\n      swap1\n      pop\n        /* \"#utility.yul\":2470:2690   */\n      jump(tag_101)\n    tag_103:\n        /* \"#utility.yul\":2474:2495   */\n      pop\n        /* \"#utility.yul\":2088:2696   */\n      pop\n      pop\n        /* \"#utility.yul\":1986:2696   */\n      swap4\n      swap3\n      pop\n      pop\n      pop\n      jump\t// out\n        /* \"#utility.yul\":2719:3089   */\n    tag_61:\n        /* \"#utility.yul\":2790:2795   */\n      0x00\n        /* \"#utility.yul\":2839:2842   */\n      dup3\n        /* \"#utility.yul\":2832:2836   */\n      0x1f\n        /* \"#utility.yul\":2824:2830   */\n      dup4\n        /* \"#utility.yul\":2820:2837   */\n      add\n        /* \"#utility.yul\":2816:2843   */\n      slt\n        /* \"#utility.yul\":2806:2928   */\n      tag_106\n      jumpi\n        /* \"#utility.yul\":2847:2926   */\n      tag_107\n      tag_50\n      jump\t// in\n    tag_107:\n        /* \"#utility.yul\":2806:2928   */\n    tag_106:\n        /* \"#utility.yul\":2964:2970   */\n      dup2\n        /* \"#utility.yul\":2951:2971   */\n      calldataload\n        /* \"#utility.yul\":2989:3083   */\n      tag_108\n        /* \"#utility.yul\":3079:3082   */\n      dup5\n        /* \"#utility.yul\":3071:3077   */\n      dup3\n        /* \"#utility.yul\":3064:3068   */\n      0x20\n        /* \"#utility.yul\":3056:3062   */\n      dup7\n        /* \"#utility.yul\":3052:3069   */\n      add\n        /* \"#utility.yul\":2989:3083   */\n      tag_60\n      jump\t// in\n    tag_108:\n        /* \"#utility.yul\":2980:3083   */\n      swap2\n      pop\n        /* \"#utility.yul\":2796:3089   */\n      pop\n        /* \"#utility.yul\":2719:3089   */\n      swap3\n      swap2\n      pop\n      pop\n      jump\t// out\n        /* \"#utility.yul\":3095:3172   */\n    tag_62:\n        /* \"#utility.yul\":3132:3139   */\n      0x00\n        /* \"#utility.yul\":3161:3166   */\n      dup2\n        /* \"#utility.yul\":3150:3166   */\n      swap1\n      pop\n        /* \"#utility.yul\":3095:3172   */\n      swap2\n      swap1\n      pop\n      jump\t// out\n        /* \"#utility.yul\":3178:3300   */\n    tag_63:\n        /* \"#utility.yul\":3251:3275   */\n      tag_111\n        /* \"#utility.yul\":3269:3274   */\n      dup2\n        /* \"#utility.yul\":3251:3275   */\n      tag_62\n      jump\t// in\n    tag_111:\n        /* \"#utility.yul\":3244:3249   */\n      dup2\n        /* \"#utility.yul\":3241:3276   */\n      eq\n        /* \"#utility.yul\":3231:3294   */\n      tag_112\n      jumpi\n        /* \"#utility.yul\":3290:3291   */\n      0x00\n        /* \"#utility.yul\":3287:3288   */\n      dup1\n        /* \"#utility.yul\":3280:3292   */\n      revert\n        /* \"#utility.yul\":3231:3294   */\n    tag_112:\n        /* \"#utility.yul\":3178:3300   */\n      pop\n      jump\t// out\n        /* \"#utility.yul\":3306:3445   */\n    tag_64:\n        /* \"#utility.yul\":3352:3357   */\n      0x00\n        /* \"#utility.yul\":3390:3396   */\n      dup2\n        /* \"#utility.yul\":3377:3397   */\n      calldataload\n        /* \"#utility.yul\":3368:3397   */\n      swap1\n      pop\n        /* \"#utility.yul\":3406:3439   */\n      tag_114\n        /* \"#utility.yul\":3433:3438   */\n      dup2\n        /* \"#utility.yul\":3406:3439   */\n      tag_63\n      jump\t// in\n    tag_114:\n        /* \"#utility.yul\":3306:3445   */\n      swap3\n      swap2\n      pop\n      pop\n      jump\t// out\n        /* \"#utility.yul\":3451:4426   */\n    tag_8:\n        /* \"#utility.yul\":3562:3568   */\n      0x00\n        /* \"#utility.yul\":3570:3576   */\n      dup1\n        /* \"#utility.yul\":3578:3584   */\n      0x00\n        /* \"#utility.yul\":3586:3592   */\n      dup1\n        /* \"#utility.yul\":3635:3638   */\n      0x80\n        /* \"#utility.yul\":3623:3632   */\n      dup6\n        /* \"#utility.yul\":3614:3621   */\n      dup8\n        /* \"#utility.yul\":3610:3633   */\n      sub\n        /* \"#utility.yul\":3606:3639   */\n      slt\n        /* \"#utility.yul\":3603:3723   */\n      iszero\n      tag_116\n      jumpi\n        /* \"#utility.yul\":3642:3721   */\n      tag_117\n      tag_48\n      jump\t// in\n    tag_117:\n        /* \"#utility.yul\":3603:3723   */\n    tag_116:\n        /* \"#utility.yul\":3790:3791   */\n      0x00\n        /* \"#utility.yul\":3779:3788   */\n      dup6\n        /* \"#utility.yul\":3775:3792   */\n      add\n        /* \"#utility.yul\":3762:3793   */\n      calldataload\n        /* \"#utility.yul\":3820:3838   */\n      0xffffffffffffffff\n        /* \"#utility.yul\":3812:3818   */\n      dup2\n        /* \"#utility.yul\":3809:3839   */\n      gt\n        /* \"#utility.yul\":3806:3923   */\n      iszero\n      tag_118\n      jumpi\n        /* \"#utility.yul\":3842:3921   */\n      tag_119\n      tag_49\n      jump\t// in\n    tag_119:\n        /* \"#utility.yul\":3806:3923   */\n    tag_118:\n        /* \"#utility.yul\":3947:4025   */\n      tag_120\n        /* \"#utility.yul\":4017:4024   */\n      dup8\n        /* \"#utility.yul\":4008:4014   */\n      dup3\n        /* \"#utility.yul\":3997:4006   */\n      dup9\n        /* \"#utility.yul\":3993:4015   */\n      add\n        /* \"#utility.yul\":3947:4025   */\n      tag_61\n      jump\t// in\n    tag_120:\n        /* \"#utility.yul\":3937:4025   */\n      swap5\n      pop\n        /* \"#utility.yul\":3733:4035   */\n      pop\n        /* \"#utility.yul\":4074:4076   */\n      0x20\n        /* \"#utility.yul\":4100:4153   */\n      tag_121\n        /* \"#utility.yul\":4145:4152   */\n      dup8\n        /* \"#utility.yul\":4136:4142   */\n      dup3\n        /* \"#utility.yul\":4125:4134   */\n      dup9\n        /* \"#utility.yul\":4121:4143   */\n      add\n        /* \"#utility.yul\":4100:4153   */\n      tag_59\n      jump\t// in\n    tag_121:\n        /* \"#utility.yul\":4090:4153   */\n      swap4\n      pop\n        /* \"#utility.yul\":4045:4163   */\n      pop\n        /* \"#utility.yul\":4202:4204   */\n      0x40\n        /* \"#utility.yul\":4228:4281   */\n      tag_122\n        /* \"#utility.yul\":4273:4280   */\n      dup8\n        /* \"#utility.yul\":4264:4270   */\n      dup3\n        /* \"#utility.yul\":4253:4262   */\n      dup9\n        /* \"#utility.yul\":4249:4271   */\n      add\n        /* \"#utility.yul\":4228:4281   */\n      tag_59\n      jump\t// in\n    tag_122:\n        /* \"#utility.yul\":4218:4281   */\n      swap3\n      pop\n        /* \"#utility.yul\":4173:4291   */\n      pop\n        /* \"#utility.yul\":4330:4332   */\n      0x60\n        /* \"#utility.yul\":4356:4409   */\n      tag_123\n        /* \"#utility.yul\":4401:4408   */\n      dup8\n        /* \"#utility.yul\":4392:4398   */\n      dup3\n        /* \"#utility.yul\":4381:4390   */\n      dup9\n        /* \"#utility.yul\":4377:4399   */\n      add\n        /* \"#utility.yul\":4356:4409   */\n      tag_64\n      jump\t// in\n    tag_123:\n        /* \"#utility.yul\":4346:4409   */\n      swap2\n      pop\n        /* \"#utility.yul\":4301:4419   */\n      pop\n        /* \"#utility.yul\":3451:4426   */\n      swap3\n      swap6\n      swap2\n      swap5\n      pop\n      swap3\n      pop\n      jump\t// out\n        /* \"#utility.yul\":4432:4522   */\n    tag_65:\n        /* \"#utility.yul\":4466:4473   */\n      0x00\n        /* \"#utility.yul\":4509:4514   */\n      dup2\n        /* \"#utility.yul\":4502:4515   */\n      iszero\n        /* \"#utility.yul\":4495:4516   */\n      iszero\n        /* \"#utility.yul\":4484:4516   */\n      swap1\n      pop\n        /* \"#utility.yul\":4432:4522   */\n      swap2\n      swap1\n      pop\n      jump\t// out\n        /* \"#utility.yul\":4528:4637   */\n    tag_66:\n        /* \"#utility.yul\":4609:4630   */\n      tag_126\n        /* \"#utility.yul\":4624:4629   */\n      dup2\n        /* \"#utility.yul\":4609:4630   */\n      tag_65\n      jump\t// in\n    tag_126:\n        /* \"#utility.yul\":4604:4607   */\n      dup3\n        /* \"#utility.yul\":4597:4631   */\n      mstore\n        /* \"#utility.yul\":4528:4637   */\n      pop\n      pop\n      jump\t// out\n        /* \"#utility.yul\":4643:4853   */\n    tag_11:\n        /* \"#utility.yul\":4730:4734   */\n      0x00\n        /* \"#utility.yul\":4768:4770   */\n      0x20\n        /* \"#utility.yul\":4757:4766   */\n      dup3\n        /* \"#utility.yul\":4753:4771   */\n      add\n        /* \"#utility.yul\":4745:4771   */\n      swap1\n      pop\n        /* \"#utility.yul\":4781:4846   */\n      tag_128\n        /* \"#utility.yul\":4843:4844   */\n      0x00\n        /* \"#utility.yul\":4832:4841   */\n      dup4\n        /* \"#utility.yul\":4828:4845   */\n      add\n        /* \"#utility.yul\":4819:4825   */\n      dup5\n        /* \"#utility.yul\":4781:4846   */\n      tag_66\n      jump\t// in\n    tag_128:\n        /* \"#utility.yul\":4643:4853   */\n      swap3\n      swap2\n      pop\n      pop\n      jump\t// out\n        /* \"#utility.yul\":4859:5188   */\n    tag_14:\n        /* \"#utility.yul\":4918:4924   */\n      0x00\n        /* \"#utility.yul\":4967:4969   */\n      0x20\n        /* \"#utility.yul\":4955:4964   */\n      dup3\n        /* \"#utility.yul\":4946:4953   */\n      dup5\n        /* \"#utility.yul\":4942:4965   */\n      sub\n        /* \"#utility.yul\":4938:4970   */\n      slt\n        /* \"#utility.yul\":4935:5054   */\n      iszero\n      tag_130\n      jumpi\n        /* \"#utility.yul\":4973:5052   */\n      tag_131\n      tag_48\n      jump\t// in\n    tag_131:\n        /* \"#utility.yul\":4935:5054   */\n    tag_130:\n        /* \"#utility.yul\":5093:5094   */\n      0x00\n        /* \"#utility.yul\":5118:5171   */\n      tag_132\n        /* \"#utility.yul\":5163:5170   */\n      dup5\n        /* \"#utility.yul\":5154:5160   */\n      dup3\n        /* \"#utility.yul\":5143:5152   */\n      dup6\n        /* \"#utility.yul\":5139:5161   */\n      add\n        /* \"#utility.yul\":5118:5171   */\n      tag_64\n      jump\t// in\n    tag_132:\n        /* \"#utility.yul\":5108:5171   */\n      swap2\n      pop\n        /* \"#utility.yul\":5064:5181   */\n      pop\n        /* \"#utility.yul\":4859:5188   */\n      swap3\n      swap2\n      pop\n      pop\n      jump\t// out\n        /* \"#utility.yul\":5194:5312   */\n    tag_67:\n        /* \"#utility.yul\":5281:5305   */\n      tag_134\n        /* \"#utility.yul\":5299:5304   */\n      dup2\n        /* \"#utility.yul\":5281:5305   */\n      tag_57\n      jump\t// in\n    tag_134:\n        /* \"#utility.yul\":5276:5279   */\n      dup3\n        /* \"#utility.yul\":5269:5306   */\n      mstore\n        /* \"#utility.yul\":5194:5312   */\n      pop\n      pop\n      jump\t// out\n        /* \"#utility.yul\":5318:5540   */\n    tag_17:\n        /* \"#utility.yul\":5411:5415   */\n      0x00\n        /* \"#utility.yul\":5449:5451   */\n      0x20\n        /* \"#utility.yul\":5438:5447   */\n      dup3\n        /* \"#utility.yul\":5434:5452   */\n      add\n        /* \"#utility.yul\":5426:5452   */\n      swap1\n      pop\n        /* \"#utility.yul\":5462:5533   */\n      tag_136\n        /* \"#utility.yul\":5530:5531   */\n      0x00\n        /* \"#utility.yul\":5519:5528   */\n      dup4\n        /* \"#utility.yul\":5515:5532   */\n      add\n        /* \"#utility.yul\":5506:5512   */\n      dup5\n        /* \"#utility.yul\":5462:5533   */\n      tag_67\n      jump\t// in\n    tag_136:\n        /* \"#utility.yul\":5318:5540   */\n      swap3\n      swap2\n      pop\n      pop\n      jump\t// out\n        /* \"#utility.yul\":5546:5726   */\n    tag_27:\n        /* \"#utility.yul\":5594:5671   */\n      0x4e487b7100000000000000000000000000000000000000000000000000000000\n        /* \"#utility.yul\":5591:5592   */\n      0x00\n        /* \"#utility.yul\":5584:5672   */\n      mstore\n        /* \"#utility.yul\":5691:5695   */\n      0x32\n        /* \"#utility.yul\":5688:5689   */\n      0x04\n        /* \"#utility.yul\":5681:5696   */\n      mstore\n        /* \"#utility.yul\":5715:5719   */\n      0x24\n        /* \"#utility.yul\":5712:5713   */\n      0x00\n        /* \"#utility.yul\":5705:5720   */\n      revert\n        /* \"#utility.yul\":5732:5912   */\n    tag_68:\n        /* \"#utility.yul\":5780:5857   */\n      0x4e487b7100000000000000000000000000000000000000000000000000000000\n        /* \"#utility.yul\":5777:5778   */\n      0x00\n        /* \"#utility.yul\":5770:5858   */\n      mstore\n        /* \"#utility.yul\":5877:5881   */\n      0x12\n        /* \"#utility.yul\":5874:5875   */\n      0x04\n        /* \"#utility.yul\":5867:5882   */\n      mstore\n        /* \"#utility.yul\":5901:5905   */\n      0x24\n        /* \"#utility.yul\":5898:5899   */\n      0x00\n        /* \"#utility.yul\":5891:5906   */\n      revert\n        /* \"#utility.yul\":5918:6094   */\n    tag_29:\n        /* \"#utility.yul\":5950:5951   */\n      0x00\n        /* \"#utility.yul\":5967:5987   */\n      tag_140\n        /* \"#utility.yul\":5985:5986   */\n      dup3\n        /* \"#utility.yul\":5967:5987   */\n      tag_62\n      jump\t// in\n    tag_140:\n        /* \"#utility.yul\":5962:5987   */\n      swap2\n      pop\n        /* \"#utility.yul\":6001:6021   */\n      tag_141\n        /* \"#utility.yul\":6019:6020   */\n      dup4\n        /* \"#utility.yul\":6001:6021   */\n      tag_62\n      jump\t// in\n    tag_141:\n        /* \"#utility.yul\":5996:6021   */\n      swap3\n      pop\n        /* \"#utility.yul\":6040:6041   */\n      dup3\n        /* \"#utility.yul\":6030:6065   */\n      tag_142\n      jumpi\n        /* \"#utility.yul\":6045:6063   */\n      tag_143\n      tag_68\n      jump\t// in\n    tag_143:\n        /* \"#utility.yul\":6030:6065   */\n    tag_142:\n        /* \"#utility.yul\":6086:6087   */\n      dup3\n        /* \"#utility.yul\":6083:6084   */\n      dup3\n        /* \"#utility.yul\":6079:6088   */\n      mod\n        /* \"#utility.yul\":6074:6088   */\n      swap1\n      pop\n        /* \"#utility.yul\":5918:6094   */\n      swap3\n      swap2\n      pop\n      pop\n      jump\t// out\n        /* \"#utility.yul\":6100:6179   */\n    tag_69:\n        /* \"#utility.yul\":6139:6146   */\n      0x00\n        /* \"#utility.yul\":6168:6173   */\n      dup2\n        /* \"#utility.yul\":6157:6173   */\n      swap1\n      pop\n        /* \"#utility.yul\":6100:6179   */\n      swap2\n      swap1\n      pop\n      jump\t// out\n        /* \"#utility.yul\":6185:6342   */\n    tag_70:\n        /* \"#utility.yul\":6290:6335   */\n      tag_146\n        /* \"#utility.yul\":6310:6334   */\n      tag_147\n        /* \"#utility.yul\":6328:6333   */\n      dup3\n        /* \"#utility.yul\":6310:6334   */\n      tag_57\n      jump\t// in\n    tag_147:\n        /* \"#utility.yul\":6290:6335   */\n      tag_69\n      jump\t// in\n    tag_146:\n        /* \"#utility.yul\":6285:6288   */\n      dup3\n        /* \"#utility.yul\":6278:6336   */\n      mstore\n        /* \"#utility.yul\":6185:6342   */\n      pop\n      pop\n      jump\t// out\n        /* \"#utility.yul\":6348:6745   */\n    tag_32:\n        /* \"#utility.yul\":6488:6491   */\n      0x00\n        /* \"#utility.yul\":6503:6578   */\n      tag_149\n        /* \"#utility.yul\":6574:6577   */\n      dup3\n        /* \"#utility.yul\":6565:6571   */\n      dup6\n        /* \"#utility.yul\":6503:6578   */\n      tag_70\n      jump\t// in\n    tag_149:\n        /* \"#utility.yul\":6603:6605   */\n      0x20\n        /* \"#utility.yul\":6598:6601   */\n      dup3\n        /* \"#utility.yul\":6594:6606   */\n      add\n        /* \"#utility.yul\":6587:6606   */\n      swap2\n      pop\n        /* \"#utility.yul\":6616:6691   */\n      tag_150\n        /* \"#utility.yul\":6687:6690   */\n      dup3\n        /* \"#utility.yul\":6678:6684   */\n      dup5\n        /* \"#utility.yul\":6616:6691   */\n      tag_70\n      jump\t// in\n    tag_150:\n        /* \"#utility.yul\":6716:6718   */\n      0x20\n        /* \"#utility.yul\":6711:6714   */\n      dup3\n        /* \"#utility.yul\":6707:6719   */\n      add\n        /* \"#utility.yul\":6700:6719   */\n      swap2\n      pop\n        /* \"#utility.yul\":6736:6739   */\n      dup2\n        /* \"#utility.yul\":6729:6739   */\n      swap1\n      pop\n        /* \"#utility.yul\":6348:6745   */\n      swap4\n      swap3\n      pop\n      pop\n      pop\n      jump\t// out\n        /* \"#utility.yul\":6751:6931   */\n    tag_71:\n        /* \"#utility.yul\":6799:6876   */\n      0x4e487b7100000000000000000000000000000000000000000000000000000000\n        /* \"#utility.yul\":6796:6797   */\n      0x00\n        /* \"#utility.yul\":6789:6877   */\n      mstore\n        /* \"#utility.yul\":6896:6900   */\n      0x11\n        /* \"#utility.yul\":6893:6894   */\n      0x04\n        /* \"#utility.yul\":6886:6901   */\n      mstore\n        /* \"#utility.yul\":6920:6924   */\n      0x24\n        /* \"#utility.yul\":6917:6918   */\n      0x00\n        /* \"#utility.yul\":6910:6925   */\n      revert\n        /* \"#utility.yul\":6937:7122   */\n    tag_36:\n        /* \"#utility.yul\":6977:6978   */\n      0x00\n        /* \"#utility.yul\":6994:7014   */\n      tag_153\n        /* \"#utility.yul\":7012:7013   */\n      dup3\n        /* \"#utility.yul\":6994:7014   */\n      tag_62\n      jump\t// in\n    tag_153:\n        /* \"#utility.yul\":6989:7014   */\n      swap2\n      pop\n        /* \"#utility.yul\":7028:7048   */\n      tag_154\n        /* \"#utility.yul\":7046:7047   */\n      dup4\n        /* \"#utility.yul\":7028:7048   */\n      tag_62\n      jump\t// in\n    tag_154:\n        /* \"#utility.yul\":7023:7048   */\n      swap3\n      pop\n        /* \"#utility.yul\":7067:7068   */\n      dup3\n        /* \"#utility.yul\":7057:7092   */\n      tag_155\n      jumpi\n        /* \"#utility.yul\":7072:7090   */\n      tag_156\n      tag_68\n      jump\t// in\n    tag_156:\n        /* \"#utility.yul\":7057:7092   */\n    tag_155:\n        /* \"#utility.yul\":7114:7115   */\n      dup3\n        /* \"#utility.yul\":7111:7112   */\n      dup3\n        /* \"#utility.yul\":7107:7116   */\n      div\n        /* \"#utility.yul\":7102:7116   */\n      swap1\n      pop\n        /* \"#utility.yul\":6937:7122   */\n      swap3\n      swap2\n      pop\n      pop\n      jump\t// out\n        /* \"#utility.yul\":7128:7361   */\n    tag_38:\n        /* \"#utility.yul\":7167:7170   */\n      0x00\n        /* \"#utility.yul\":7190:7214   */\n      tag_158\n        /* \"#utility.yul\":7208:7213   */\n      dup3\n        /* \"#utility.yul\":7190:7214   */\n      tag_62\n      jump\t// in\n    tag_158:\n        /* \"#utility.yul\":7181:7214   */\n      swap2\n      pop\n        /* \"#utility.yul\":7236:7302   */\n      0xffffffffffffffffffffffffffffffffffffffffffffffffffffffffffffffff\n        /* \"#utility.yul\":7229:7234   */\n      dup3\n        /* \"#utility.yul\":7226:7303   */\n      sub\n        /* \"#utility.yul\":7223:7326   */\n      tag_159\n      jumpi\n        /* \"#utility.yul\":7306:7324   */\n      tag_160\n      tag_71\n      jump\t// in\n    tag_160:\n        /* \"#utility.yul\":7223:7326   */\n    tag_159:\n        /* \"#utility.yul\":7353:7354   */\n      0x01\n        /* \"#utility.yul\":7346:7351   */\n      dup3\n        /* \"#utility.yul\":7342:7355   */\n      add\n        /* \"#utility.yul\":7335:7355   */\n      swap1\n      pop\n        /* \"#utility.yul\":7128:7361   */\n      swap2\n      swap1\n      pop\n      jump\t// out\n        /* \"#utility.yul\":7367:7561   */\n    tag_43:\n        /* \"#utility.yul\":7407:7411   */\n      0x00\n        /* \"#utility.yul\":7427:7447   */\n      tag_162\n        /* \"#utility.yul\":7445:7446   */\n      dup3\n        /* \"#utility.yul\":7427:7447   */\n      tag_62\n      jump\t// in\n    tag_162:\n        /* \"#utility.yul\":7422:7447   */\n      swap2\n      pop\n        /* \"#utility.yul\":7461:7481   */\n      tag_163\n        /* \"#utility.yul\":7479:7480   */\n      dup4\n        /* \"#utility.yul\":7461:7481   */\n      tag_62\n      jump\t// in\n    tag_163:\n        /* \"#utility.yul\":7456:7481   */\n      swap3\n      pop\n        /* \"#utility.yul\":7505:7506   */\n      dup3\n        /* \"#utility.yul\":7502:7503   */\n      dup3\n        /* \"#utility.yul\":7498:7507   */\n      sub\n        /* \"#utility.yul\":7490:7507   */\n      swap1\n      pop\n        /* \"#utility.yul\":7529:7530   */\n      dup2\n        /* \"#utility.yul\":7523:7527   */\n      dup2\n        /* \"#utility.yul\":7520:7531   */\n      gt\n        /* \"#utility.yul\":7517:7554   */\n      iszero\n      tag_164\n      jumpi\n        /* \"#utility.yul\":7534:7552   */\n      tag_165\n      tag_71\n      jump\t// in\n    tag_165:\n        /* \"#utility.yul\":7517:7554   */\n    tag_164:\n        /* \"#utility.yul\":7367:7561   */\n      swap3\n      swap2\n      pop\n      pop\n      jump\t// out\n\n    auxdata: 0xa26469706673582212205428b203a6ab0b29b977593b9a8638a191fbc457669e3db2af21f572edbf00eb64736f6c63430008110033\n}\n",
				"bytecode": {
					"linkReferences": {},
					"object": "60806040523480156200001157600080fd5b50600060405180608001604052806040518060400160405280600c81526020017f616c696365202d3e20626f62000000000000000000000000000000000000000081525081526020016040518060400160405280600b81526020017f626f62202d3e206461766500000000000000000000000000000000000000000081525081526020016040518060400160405280600e81526020017f6361726f6c202d3e20616c69636500000000000000000000000000000000000081525081526020016040518060400160405280600b81526020017f64617665202d3e20626f62000000000000000000000000000000000000000000815250815250905060005b60048110156200019957600082826004811062000130576200012f620002cb565b5b602002015160405160200162000147919062000373565b60405160208183030381529060405280519060200120908060018154018082558091505060019003906000526020600020016000909190919091505580806200019090620003c5565b9150506200010e565b5060006004905060005b6000821115620002c25760005b600183620001bf919062000412565b8110156200029a576000808284620001d891906200044d565b81548110620001ec57620001eb620002cb565b5b90600052602060002001546000600184866200020991906200044d565b6200021591906200044d565b81548110620002295762000228620002cb565b5b906000526020600020015460405160200162000247929190620004b7565b6040516020818303038152906040528051906020012090806001815401808255809150506001900390600052602060002001600090919091909150556002816200029291906200044d565b9050620001b0565b508181620002a991906200044d565b9050600282620002ba919062000516565b9150620001a3565b5050506200054e565b7f4e487b7100000000000000000000000000000000000000000000000000000000600052603260045260246000fd5b600081519050919050565b600081905092915050565b60005b838110156200033057808201518184015260208101905062000313565b60008484015250505050565b60006200034982620002fa565b62000355818562000305565b93506200036781856020860162000310565b80840191505092915050565b60006200038182846200033c565b915081905092915050565b7f4e487b7100000000000000000000000000000000000000000000000000000000600052601160045260246000fd5b6000819050919050565b6000620003d282620003bb565b91507fffffffffffffffffffffffffffffffffffffffffffffffffffffffffffffffff82036200040757620004066200038c565b5b600182019050919050565b60006200041f82620003bb565b91506200042c83620003bb565b92508282039050818111156200044757620004466200038c565b5b92915050565b60006200045a82620003bb565b91506200046783620003bb565b92508282019050808211156200048257620004816200038c565b5b92915050565b6000819050919050565b6000819050919050565b620004b1620004ab8262000488565b62000492565b82525050565b6000620004c582856200049c565b602082019150620004d782846200049c565b6020820191508190509392505050565b7f4e487b7100000000000000000000000000000000000000000000000000000000600052601260045260246000fd5b60006200052382620003bb565b91506200053083620003bb565b925082620005435762000542620004e7565b5b828204905092915050565b6106c8806200055e6000396000f3fe608060405234801561001057600080fd5b50600436106100415760003560e01c806321fb335c14610046578063501895ae146100765780635ca1e165146100a6575b600080fd5b610060600480360381019061005b91906103ca565b6100c4565b60405161006d9190610468565b60405180910390f35b610090600480360381019061008b9190610483565b610197565b60405161009d91906104bf565b60405180910390f35b6100ae6101bb565b6040516100bb91906104bf565b60405180910390f35b60008083905060005b86518110156101885760008782815181106100eb576100ea6104da565b5b6020026020010151905060006002866101049190610538565b0361013957828160405160200161011c92919061058a565b604051602081830303815290604052805190602001209250610165565b808360405160200161014c92919061058a565b6040516020818303038152906040528051906020012092505b60028561017291906105e5565b945050808061018090610616565b9150506100cd565b50848114915050949350505050565b600081815481106101a757600080fd5b906000526020600020016000915090505481565b60008060016000805490506101d0919061065e565b815481106101e1576101e06104da565b5b9060005260206000200154905090565b6000604051905090565b600080fd5b600080fd5b600080fd5b6000601f19601f8301169050919050565b7f4e487b7100000000000000000000000000000000000000000000000000000000600052604160045260246000fd5b6102538261020a565b810181811067ffffffffffffffff821117156102725761027161021b565b5b80604052505050565b60006102856101f1565b9050610291828261024a565b919050565b600067ffffffffffffffff8211156102b1576102b061021b565b5b602082029050602081019050919050565b600080fd5b6000819050919050565b6102da816102c7565b81146102e557600080fd5b50565b6000813590506102f7816102d1565b92915050565b600061031061030b84610296565b61027b565b90508083825260208201905060208402830185811115610333576103326102c2565b5b835b8181101561035c578061034888826102e8565b845260208401935050602081019050610335565b5050509392505050565b600082601f83011261037b5761037a610205565b5b813561038b8482602086016102fd565b91505092915050565b6000819050919050565b6103a781610394565b81146103b257600080fd5b50565b6000813590506103c48161039e565b92915050565b600080600080608085870312156103e4576103e36101fb565b5b600085013567ffffffffffffffff81111561040257610401610200565b5b61040e87828801610366565b945050602061041f878288016102e8565b9350506040610430878288016102e8565b9250506060610441878288016103b5565b91505092959194509250565b60008115159050919050565b6104628161044d565b82525050565b600060208201905061047d6000830184610459565b92915050565b600060208284031215610499576104986101fb565b5b60006104a7848285016103b5565b91505092915050565b6104b9816102c7565b82525050565b60006020820190506104d460008301846104b0565b92915050565b7f4e487b7100000000000000000000000000000000000000000000000000000000600052603260045260246000fd5b7f4e487b7100000000000000000000000000000000000000000000000000000000600052601260045260246000fd5b600061054382610394565b915061054e83610394565b92508261055e5761055d610509565b5b828206905092915050565b6000819050919050565b61058461057f826102c7565b610569565b82525050565b60006105968285610573565b6020820191506105a68284610573565b6020820191508190509392505050565b7f4e487b7100000000000000000000000000000000000000000000000000000000600052601160045260246000fd5b60006105f082610394565b91506105fb83610394565b92508261060b5761060a610509565b5b828204905092915050565b600061062182610394565b91507fffffffffffffffffffffffffffffffffffffffffffffffffffffffffffffffff8203610653576106526105b6565b5b600182019050919050565b600061066982610394565b915061067483610394565b925082820390508181111561068c5761068b6105b6565b5b9291505056fea26469706673582212205428b203a6ab0b29b977593b9a8638a191fbc457669e3db2af21f572edbf00eb64736f6c63430008110033",
					"opcodes": "PUSH1 0x80 PUSH1 0x40 MSTORE CALLVALUE DUP1 ISZERO PUSH3 0x11 JUMPI PUSH1 0x0 DUP1 REVERT JUMPDEST POP PUSH1 0x0 PUSH1 0x40 MLOAD DUP1 PUSH1 0x80 ADD PUSH1 0x40 MSTORE DUP1 PUSH1 0x40 MLOAD DUP1 PUSH1 0x40 ADD PUSH1 0x40 MSTORE DUP1 PUSH1 0xC DUP2 MSTORE PUSH1 0x20 ADD PUSH32 0x616C696365202D3E20626F620000000000000000000000000000000000000000 DUP2 MSTORE POP DUP2 MSTORE PUSH1 0x20 ADD PUSH1 0x40 MLOAD DUP1 PUSH1 0x40 ADD PUSH1 0x40 MSTORE DUP1 PUSH1 0xB DUP2 MSTORE PUSH1 0x20 ADD PUSH32 0x626F62202D3E2064617665000000000000000000000000000000000000000000 DUP2 MSTORE POP DUP2 MSTORE PUSH1 0x20 ADD PUSH1 0x40 MLOAD DUP1 PUSH1 0x40 ADD PUSH1 0x40 MSTORE DUP1 PUSH1 0xE DUP2 MSTORE PUSH1 0x20 ADD PUSH32 0x6361726F6C202D3E20616C696365000000000000000000000000000000000000 DUP2 MSTORE POP DUP2 MSTORE PUSH1 0x20 ADD PUSH1 0x40 MLOAD DUP1 PUSH1 0x40 ADD PUSH1 0x40 MSTORE DUP1 PUSH1 0xB DUP2 MSTORE PUSH1 0x20 ADD PUSH32 0x64617665202D3E20626F62000000000000000000000000000000000000000000 DUP2 MSTORE POP DUP2 MSTORE POP SWAP1 POP PUSH1 0x0 JUMPDEST PUSH1 0x4 DUP2 LT ISZERO PUSH3 0x199 JUMPI PUSH1 0x0 DUP3 DUP3 PUSH1 0x4 DUP2 LT PUSH3 0x130 JUMPI PUSH3 0x12F PUSH3 0x2CB JUMP JUMPDEST JUMPDEST PUSH1 0x20 MUL ADD MLOAD PUSH1 0x40 MLOAD PUSH1 0x20 ADD PUSH3 0x147 SWAP2 SWAP1 PUSH3 0x373 JUMP JUMPDEST PUSH1 0x40 MLOAD PUSH1 0x20 DUP2 DUP4 SUB SUB DUP2 MSTORE SWAP1 PUSH1 0x40 MSTORE DUP1 MLOAD SWAP1 PUSH1 0x20 ADD KECCAK256 SWAP1 DUP1 PUSH1 0x1 DUP2 SLOAD ADD DUP1 DUP3 SSTORE DUP1 SWAP2 POP POP PUSH1 0x1 SWAP1 SUB SWAP1 PUSH1 0x0 MSTORE PUSH1 0x20 PUSH1 0x0 KECCAK256 ADD PUSH1 0x0 SWAP1 SWAP2 SWAP1 SWAP2 SWAP1 SWAP2 POP SSTORE DUP1 DUP1 PUSH3 0x190 SWAP1 PUSH3 0x3C5 JUMP JUMPDEST SWAP2 POP POP PUSH3 0x10E JUMP JUMPDEST POP PUSH1 0x0 PUSH1 0x4 SWAP1 POP PUSH1 0x0 JUMPDEST PUSH1 0x0 DUP3 GT ISZERO PUSH3 0x2C2 JUMPI PUSH1 0x0 JUMPDEST PUSH1 0x1 DUP4 PUSH3 0x1BF SWAP2 SWAP1 PUSH3 0x412 JUMP JUMPDEST DUP2 LT ISZERO PUSH3 0x29A JUMPI PUSH1 0x0 DUP1 DUP3 DUP5 PUSH3 0x1D8 SWAP2 SWAP1 PUSH3 0x44D JUMP JUMPDEST DUP2 SLOAD DUP2 LT PUSH3 0x1EC JUMPI PUSH3 0x1EB PUSH3 0x2CB JUMP JUMPDEST JUMPDEST SWAP1 PUSH1 0x0 MSTORE PUSH1 0x20 PUSH1 0x0 KECCAK256 ADD SLOAD PUSH1 0x0 PUSH1 0x1 DUP5 DUP7 PUSH3 0x209 SWAP2 SWAP1 PUSH3 0x44D JUMP JUMPDEST PUSH3 0x215 SWAP2 SWAP1 PUSH3 0x44D JUMP JUMPDEST DUP2 SLOAD DUP2 LT PUSH3 0x229 JUMPI PUSH3 0x228 PUSH3 0x2CB JUMP JUMPDEST JUMPDEST SWAP1 PUSH1 0x0 MSTORE PUSH1 0x20 PUSH1 0x0 KECCAK256 ADD SLOAD PUSH1 0x40 MLOAD PUSH1 0x20 ADD PUSH3 0x247 SWAP3 SWAP2 SWAP1 PUSH3 0x4B7 JUMP JUMPDEST PUSH1 0x40 MLOAD PUSH1 0x20 DUP2 DUP4 SUB SUB DUP2 MSTORE SWAP1 PUSH1 0x40 MSTORE DUP1 MLOAD SWAP1 PUSH1 0x20 ADD KECCAK256 SWAP1 DUP1 PUSH1 0x1 DUP2 SLOAD ADD DUP1 DUP3 SSTORE DUP1 SWAP2 POP POP PUSH1 0x1 SWAP1 SUB SWAP1 PUSH1 0x0 MSTORE PUSH1 0x20 PUSH1 0x0 KECCAK256 ADD PUSH1 0x0 SWAP1 SWAP2 SWAP1 SWAP2 SWAP1 SWAP2 POP SSTORE PUSH1 0x2 DUP2 PUSH3 0x292 SWAP2 SWAP1 PUSH3 0x44D JUMP JUMPDEST SWAP1 POP PUSH3 0x1B0 JUMP JUMPDEST POP DUP2 DUP2 PUSH3 0x2A9 SWAP2 SWAP1 PUSH3 0x44D JUMP JUMPDEST SWAP1 POP PUSH1 0x2 DUP3 PUSH3 0x2BA SWAP2 SWAP1 PUSH3 0x516 JUMP JUMPDEST SWAP2 POP PUSH3 0x1A3 JUMP JUMPDEST POP POP POP PUSH3 0x54E JUMP JUMPDEST PUSH32 0x4E487B7100000000000000000000000000000000000000000000000000000000 PUSH1 0x0 MSTORE PUSH1 0x32 PUSH1 0x4 MSTORE PUSH1 0x24 PUSH1 0x0 REVERT JUMPDEST PUSH1 0x0 DUP2 MLOAD SWAP1 POP SWAP2 SWAP1 POP JUMP JUMPDEST PUSH1 0x0 DUP2 SWAP1 POP SWAP3 SWAP2 POP POP JUMP JUMPDEST PUSH1 0x0 JUMPDEST DUP4 DUP2 LT ISZERO PUSH3 0x330 JUMPI DUP1 DUP3 ADD MLOAD DUP2 DUP5 ADD MSTORE PUSH1 0x20 DUP2 ADD SWAP1 POP PUSH3 0x313 JUMP JUMPDEST PUSH1 0x0 DUP5 DUP5 ADD MSTORE POP POP POP POP JUMP JUMPDEST PUSH1 0x0 PUSH3 0x349 DUP3 PUSH3 0x2FA JUMP JUMPDEST PUSH3 0x355 DUP2 DUP6 PUSH3 0x305 JUMP JUMPDEST SWAP4 POP PUSH3 0x367 DUP2 DUP6 PUSH1 0x20 DUP7 ADD PUSH3 0x310 JUMP JUMPDEST DUP1 DUP5 ADD SWAP2 POP POP SWAP3 SWAP2 POP POP JUMP JUMPDEST PUSH1 0x0 PUSH3 0x381 DUP3 DUP5 PUSH3 0x33C JUMP JUMPDEST SWAP2 POP DUP2 SWAP1 POP SWAP3 SWAP2 POP POP JUMP JUMPDEST PUSH32 0x4E487B7100000000000000000000000000000000000000000000000000000000 PUSH1 0x0 MSTORE PUSH1 0x11 PUSH1 0x4 MSTORE PUSH1 0x24 PUSH1 0x0 REVERT JUMPDEST PUSH1 0x0 DUP2 SWAP1 POP SWAP2 SWAP1 POP JUMP JUMPDEST PUSH1 0x0 PUSH3 0x3D2 DUP3 PUSH3 0x3BB JUMP JUMPDEST SWAP2 POP PUSH32 0xFFFFFFFFFFFFFFFFFFFFFFFFFFFFFFFFFFFFFFFFFFFFFFFFFFFFFFFFFFFFFFFF DUP3 SUB PUSH3 0x407 JUMPI PUSH3 0x406 PUSH3 0x38C JUMP JUMPDEST JUMPDEST PUSH1 0x1 DUP3 ADD SWAP1 POP SWAP2 SWAP1 POP JUMP JUMPDEST PUSH1 0x0 PUSH3 0x41F DUP3 PUSH3 0x3BB JUMP JUMPDEST SWAP2 POP PUSH3 0x42C DUP4 PUSH3 0x3BB JUMP JUMPDEST SWAP3 POP DUP3 DUP3 SUB SWAP1 POP DUP2 DUP2 GT ISZERO PUSH3 0x447 JUMPI PUSH3 0x446 PUSH3 0x38C JUMP JUMPDEST JUMPDEST SWAP3 SWAP2 POP POP JUMP JUMPDEST PUSH1 0x0 PUSH3 0x45A DUP3 PUSH3 0x3BB JUMP JUMPDEST SWAP2 POP PUSH3 0x467 DUP4 PUSH3 0x3BB JUMP JUMPDEST SWAP3 POP DUP3 DUP3 ADD SWAP1 POP DUP1 DUP3 GT ISZERO PUSH3 0x482 JUMPI PUSH3 0x481 PUSH3 0x38C JUMP JUMPDEST JUMPDEST SWAP3 SWAP2 POP POP JUMP JUMPDEST PUSH1 0x0 DUP2 SWAP1 POP SWAP2 SWAP1 POP JUMP JUMPDEST PUSH1 0x0 DUP2 SWAP1 POP SWAP2 SWAP1 POP JUMP JUMPDEST PUSH3 0x4B1 PUSH3 0x4AB DUP3 PUSH3 0x488 JUMP JUMPDEST PUSH3 0x492 JUMP JUMPDEST DUP3 MSTORE POP POP JUMP JUMPDEST PUSH1 0x0 PUSH3 0x4C5 DUP3 DUP6 PUSH3 0x49C JUMP JUMPDEST PUSH1 0x20 DUP3 ADD SWAP2 POP PUSH3 0x4D7 DUP3 DUP5 PUSH3 0x49C JUMP JUMPDEST PUSH1 0x20 DUP3 ADD SWAP2 POP DUP2 SWAP1 POP SWAP4 SWAP3 POP POP POP JUMP JUMPDEST PUSH32 0x4E487B7100000000000000000000000000000000000000000000000000000000 PUSH1 0x0 MSTORE PUSH1 0x12 PUSH1 0x4 MSTORE PUSH1 0x24 PUSH1 0x0 REVERT JUMPDEST PUSH1 0x0 PUSH3 0x523 DUP3 PUSH3 0x3BB JUMP JUMPDEST SWAP2 POP PUSH3 0x530 DUP4 PUSH3 0x3BB JUMP JUMPDEST SWAP3 POP DUP3 PUSH3 0x543 JUMPI PUSH3 0x542 PUSH3 0x4E7 JUMP JUMPDEST JUMPDEST DUP3 DUP3 DIV SWAP1 POP SWAP3 SWAP2 POP POP JUMP JUMPDEST PUSH2 0x6C8 DUP1 PUSH3 0x55E PUSH1 0x0 CODECOPY PUSH1 0x0 RETURN INVALID PUSH1 0x80 PUSH1 0x40 MSTORE CALLVALUE DUP1 ISZERO PUSH2 0x10 JUMPI PUSH1 0x0 DUP1 REVERT JUMPDEST POP PUSH1 0x4 CALLDATASIZE LT PUSH2 0x41 JUMPI PUSH1 0x0 CALLDATALOAD PUSH1 0xE0 SHR DUP1 PUSH4 0x21FB335C EQ PUSH2 0x46 JUMPI DUP1 PUSH4 0x501895AE EQ PUSH2 0x76 JUMPI DUP1 PUSH4 0x5CA1E165 EQ PUSH2 0xA6 JUMPI JUMPDEST PUSH1 0x0 DUP1 REVERT JUMPDEST PUSH2 0x60 PUSH1 0x4 DUP1 CALLDATASIZE SUB DUP2 ADD SWAP1 PUSH2 0x5B SWAP2 SWAP1 PUSH2 0x3CA JUMP JUMPDEST PUSH2 0xC4 JUMP JUMPDEST PUSH1 0x40 MLOAD PUSH2 0x6D SWAP2 SWAP1 PUSH2 0x468 JUMP JUMPDEST PUSH1 0x40 MLOAD DUP1 SWAP2 SUB SWAP1 RETURN JUMPDEST PUSH2 0x90 PUSH1 0x4 DUP1 CALLDATASIZE SUB DUP2 ADD SWAP1 PUSH2 0x8B SWAP2 SWAP1 PUSH2 0x483 JUMP JUMPDEST PUSH2 0x197 JUMP JUMPDEST PUSH1 0x40 MLOAD PUSH2 0x9D SWAP2 SWAP1 PUSH2 0x4BF JUMP JUMPDEST PUSH1 0x40 MLOAD DUP1 SWAP2 SUB SWAP1 RETURN JUMPDEST PUSH2 0xAE PUSH2 0x1BB JUMP JUMPDEST PUSH1 0x40 MLOAD PUSH2 0xBB SWAP2 SWAP1 PUSH2 0x4BF JUMP JUMPDEST PUSH1 0x40 MLOAD DUP1 SWAP2 SUB SWAP1 RETURN JUMPDEST PUSH1 0x0 DUP1 DUP4 SWAP1 POP PUSH1 0x0 JUMPDEST DUP7 MLOAD DUP2 LT ISZERO PUSH2 0x188 JUMPI PUSH1 0x0 DUP8 DUP3 DUP2 MLOAD DUP2 LT PUSH2 0xEB JUMPI PUSH2 0xEA PUSH2 0x4DA JUMP JUMPDEST JUMPDEST PUSH1 0x20 MUL PUSH1 0x20 ADD ADD MLOAD SWAP1 POP PUSH1 0x0 PUSH1 0x2 DUP7 PUSH2 0x104 SWAP2 SWAP1 PUSH2 0x538 JUMP JUMPDEST SUB PUSH2 0x139 JUMPI DUP3 DUP2 PUSH1 0x40 MLOAD PUSH1 0x20 ADD PUSH2 0x11C SWAP3 SWAP2 SWAP1 PUSH2 0x58A JUMP JUMPDEST PUSH1 0x40 MLOAD PUSH1 0x20 DUP2 DUP4 SUB SUB DUP2 MSTORE SWAP1 PUSH1 0x40 MSTORE DUP1 MLOAD SWAP1 PUSH1 0x20 ADD KECCAK256 SWAP3 POP PUSH2 0x165 JUMP JUMPDEST DUP1 DUP4 PUSH1 0x40 MLOAD PUSH1 0x20 ADD PUSH2 0x14C SWAP3 SWAP2 SWAP1 PUSH2 0x58A JUMP JUMPDEST PUSH1 0x40 MLOAD PUSH1 0x20 DUP2 DUP4 SUB SUB DUP2 MSTORE SWAP1 PUSH1 0x40 MSTORE DUP1 MLOAD SWAP1 PUSH1 0x20 ADD KECCAK256 SWAP3 POP JUMPDEST PUSH1 0x2 DUP6 PUSH2 0x172 SWAP2 SWAP1 PUSH2 0x5E5 JUMP JUMPDEST SWAP5 POP POP DUP1 DUP1 PUSH2 0x180 SWAP1 PUSH2 0x616 JUMP JUMPDEST SWAP2 POP POP PUSH2 0xCD JUMP JUMPDEST POP DUP5 DUP2 EQ SWAP2 POP POP SWAP5 SWAP4 POP POP POP POP JUMP JUMPDEST PUSH1 0x0 DUP2 DUP2 SLOAD DUP2 LT PUSH2 0x1A7 JUMPI PUSH1 0x0 DUP1 REVERT JUMPDEST SWAP1 PUSH1 0x0 MSTORE PUSH1 0x20 PUSH1 0x0 KECCAK256 ADD PUSH1 0x0 SWAP2 POP SWAP1 POP SLOAD DUP2 JUMP JUMPDEST PUSH1 0x0 DUP1 PUSH1 0x1 PUSH1 0x0 DUP1 SLOAD SWAP1 POP PUSH2 0x1D0 SWAP2 SWAP1 PUSH2 0x65E JUMP JUMPDEST DUP2 SLOAD DUP2 LT PUSH2 0x1E1 JUMPI PUSH2 0x1E0 PUSH2 0x4DA JUMP JUMPDEST JUMPDEST SWAP1 PUSH1 0x0 MSTORE PUSH1 0x20 PUSH1 0x0 KECCAK256 ADD SLOAD SWAP1 POP SWAP1 JUMP JUMPDEST PUSH1 0x0 PUSH1 0x40 MLOAD SWAP1 POP SWAP1 JUMP JUMPDEST PUSH1 0x0 DUP1 REVERT JUMPDEST PUSH1 0x0 DUP1 REVERT JUMPDEST PUSH1 0x0 DUP1 REVERT JUMPDEST PUSH1 0x0 PUSH1 0x1F NOT PUSH1 0x1F DUP4 ADD AND SWAP1 POP SWAP2 SWAP1 POP JUMP JUMPDEST PUSH32 0x4E487B7100000000000000000000000000000000000000000000000000000000 PUSH1 0x0 MSTORE PUSH1 0x41 PUSH1 0x4 MSTORE PUSH1 0x24 PUSH1 0x0 REVERT JUMPDEST PUSH2 0x253 DUP3 PUSH2 0x20A JUMP JUMPDEST DUP2 ADD DUP2 DUP2 LT PUSH8 0xFFFFFFFFFFFFFFFF DUP3 GT OR ISZERO PUSH2 0x272 JUMPI PUSH2 0x271 PUSH2 0x21B JUMP JUMPDEST JUMPDEST DUP1 PUSH1 0x40 MSTORE POP POP POP JUMP JUMPDEST PUSH1 0x0 PUSH2 0x285 PUSH2 0x1F1 JUMP JUMPDEST SWAP1 POP PUSH2 0x291 DUP3 DUP3 PUSH2 0x24A JUMP JUMPDEST SWAP2 SWAP1 POP JUMP JUMPDEST PUSH1 0x0 PUSH8 0xFFFFFFFFFFFFFFFF DUP3 GT ISZERO PUSH2 0x2B1 JUMPI PUSH2 0x2B0 PUSH2 0x21B JUMP JUMPDEST JUMPDEST PUSH1 0x20 DUP3 MUL SWAP1 POP PUSH1 0x20 DUP2 ADD SWAP1 POP SWAP2 SWAP1 POP JUMP JUMPDEST PUSH1 0x0 DUP1 REVERT JUMPDEST PUSH1 0x0 DUP2 SWAP1 POP SWAP2 SWAP1 POP JUMP JUMPDEST PUSH2 0x2DA DUP2 PUSH2 0x2C7 JUMP JUMPDEST DUP2 EQ PUSH2 0x2E5 JUMPI PUSH1 0x0 DUP1 REVERT JUMPDEST POP JUMP JUMPDEST PUSH1 0x0 DUP2 CALLDATALOAD SWAP1 POP PUSH2 0x2F7 DUP2 PUSH2 0x2D1 JUMP JUMPDEST SWAP3 SWAP2 POP POP JUMP JUMPDEST PUSH1 0x0 PUSH2 0x310 PUSH2 0x30B DUP5 PUSH2 0x296 JUMP JUMPDEST PUSH2 0x27B JUMP JUMPDEST SWAP1 POP DUP1 DUP4 DUP3 MSTORE PUSH1 0x20 DUP3 ADD SWAP1 POP PUSH1 0x20 DUP5 MUL DUP4 ADD DUP6 DUP2 GT ISZERO PUSH2 0x333 JUMPI PUSH2 0x332 PUSH2 0x2C2 JUMP JUMPDEST JUMPDEST DUP4 JUMPDEST DUP2 DUP2 LT ISZERO PUSH2 0x35C JUMPI DUP1 PUSH2 0x348 DUP9 DUP3 PUSH2 0x2E8 JUMP JUMPDEST DUP5 MSTORE PUSH1 0x20 DUP5 ADD SWAP4 POP POP PUSH1 0x20 DUP2 ADD SWAP1 POP PUSH2 0x335 JUMP JUMPDEST POP POP POP SWAP4 SWAP3 POP POP POP JUMP JUMPDEST PUSH1 0x0 DUP3 PUSH1 0x1F DUP4 ADD SLT PUSH2 0x37B JUMPI PUSH2 0x37A PUSH2 0x205 JUMP JUMPDEST JUMPDEST DUP2 CALLDATALOAD PUSH2 0x38B DUP5 DUP3 PUSH1 0x20 DUP7 ADD PUSH2 0x2FD JUMP JUMPDEST SWAP2 POP POP SWAP3 SWAP2 POP POP JUMP JUMPDEST PUSH1 0x0 DUP2 SWAP1 POP SWAP2 SWAP1 POP JUMP JUMPDEST PUSH2 0x3A7 DUP2 PUSH2 0x394 JUMP JUMPDEST DUP2 EQ PUSH2 0x3B2 JUMPI PUSH1 0x0 DUP1 REVERT JUMPDEST POP JUMP JUMPDEST PUSH1 0x0 DUP2 CALLDATALOAD SWAP1 POP PUSH2 0x3C4 DUP2 PUSH2 0x39E JUMP JUMPDEST SWAP3 SWAP2 POP POP JUMP JUMPDEST PUSH1 0x0 DUP1 PUSH1 0x0 DUP1 PUSH1 0x80 DUP6 DUP8 SUB SLT ISZERO PUSH2 0x3E4 JUMPI PUSH2 0x3E3 PUSH2 0x1FB JUMP JUMPDEST JUMPDEST PUSH1 0x0 DUP6 ADD CALLDATALOAD PUSH8 0xFFFFFFFFFFFFFFFF DUP2 GT ISZERO PUSH2 0x402 JUMPI PUSH2 0x401 PUSH2 0x200 JUMP JUMPDEST JUMPDEST PUSH2 0x40E DUP8 DUP3 DUP9 ADD PUSH2 0x366 JUMP JUMPDEST SWAP5 POP POP PUSH1 0x20 PUSH2 0x41F DUP8 DUP3 DUP9 ADD PUSH2 0x2E8 JUMP JUMPDEST SWAP4 POP POP PUSH1 0x40 PUSH2 0x430 DUP8 DUP3 DUP9 ADD PUSH2 0x2E8 JUMP JUMPDEST SWAP3 POP POP PUSH1 0x60 PUSH2 0x441 DUP8 DUP3 DUP9 ADD PUSH2 0x3B5 JUMP JUMPDEST SWAP2 POP POP SWAP3 SWAP6 SWAP2 SWAP5 POP SWAP3 POP JUMP JUMPDEST PUSH1 0x0 DUP2 ISZERO ISZERO SWAP1 POP SWAP2 SWAP1 POP JUMP JUMPDEST PUSH2 0x462 DUP2 PUSH2 0x44D JUMP JUMPDEST DUP3 MSTORE POP POP JUMP JUMPDEST PUSH1 0x0 PUSH1 0x20 DUP3 ADD SWAP1 POP PUSH2 0x47D PUSH1 0x0 DUP4 ADD DUP5 PUSH2 0x459 JUMP JUMPDEST SWAP3 SWAP2 POP POP JUMP JUMPDEST PUSH1 0x0 PUSH1 0x20 DUP3 DUP5 SUB SLT ISZERO PUSH2 0x499 JUMPI PUSH2 0x498 PUSH2 0x1FB JUMP JUMPDEST JUMPDEST PUSH1 0x0 PUSH2 0x4A7 DUP5 DUP3 DUP6 ADD PUSH2 0x3B5 JUMP JUMPDEST SWAP2 POP POP SWAP3 SWAP2 POP POP JUMP JUMPDEST PUSH2 0x4B9 DUP2 PUSH2 0x2C7 JUMP JUMPDEST DUP3 MSTORE POP POP JUMP JUMPDEST PUSH1 0x0 PUSH1 0x20 DUP3 ADD SWAP1 POP PUSH2 0x4D4 PUSH1 0x0 DUP4 ADD DUP5 PUSH2 0x4B0 JUMP JUMPDEST SWAP3 SWAP2 POP POP JUMP JUMPDEST PUSH32 0x4E487B7100000000000000000000000000000000000000000000000000000000 PUSH1 0x0 MSTORE PUSH1 0x32 PUSH1 0x4 MSTORE PUSH1 0x24 PUSH1 0x0 REVERT JUMPDEST PUSH32 0x4E487B7100000000000000000000000000000000000000000000000000000000 PUSH1 0x0 MSTORE PUSH1 0x12 PUSH1 0x4 MSTORE PUSH1 0x24 PUSH1 0x0 REVERT JUMPDEST PUSH1 0x0 PUSH2 0x543 DUP3 PUSH2 0x394 JUMP JUMPDEST SWAP2 POP PUSH2 0x54E DUP4 PUSH2 0x394 JUMP JUMPDEST SWAP3 POP DUP3 PUSH2 0x55E JUMPI PUSH2 0x55D PUSH2 0x509 JUMP JUMPDEST JUMPDEST DUP3 DUP3 MOD SWAP1 POP SWAP3 SWAP2 POP POP JUMP JUMPDEST PUSH1 0x0 DUP2 SWAP1 POP SWAP2 SWAP1 POP JUMP JUMPDEST PUSH2 0x584 PUSH2 0x57F DUP3 PUSH2 0x2C7 JUMP JUMPDEST PUSH2 0x569 JUMP JUMPDEST DUP3 MSTORE POP POP JUMP JUMPDEST PUSH1 0x0 PUSH2 0x596 DUP3 DUP6 PUSH2 0x573 JUMP JUMPDEST PUSH1 0x20 DUP3 ADD SWAP2 POP PUSH2 0x5A6 DUP3 DUP5 PUSH2 0x573 JUMP JUMPDEST PUSH1 0x20 DUP3 ADD SWAP2 POP DUP2 SWAP1 POP SWAP4 SWAP3 POP POP POP JUMP JUMPDEST PUSH32 0x4E487B7100000000000000000000000000000000000000000000000000000000 PUSH1 0x0 MSTORE PUSH1 0x11 PUSH1 0x4 MSTORE PUSH1 0x24 PUSH1 0x0 REVERT JUMPDEST PUSH1 0x0 PUSH2 0x5F0 DUP3 PUSH2 0x394 JUMP JUMPDEST SWAP2 POP PUSH2 0x5FB DUP4 PUSH2 0x394 JUMP JUMPDEST SWAP3 POP DUP3 PUSH2 0x60B JUMPI PUSH2 0x60A PUSH2 0x509 JUMP JUMPDEST JUMPDEST DUP3 DUP3 DIV SWAP1 POP SWAP3 SWAP2 POP POP JUMP JUMPDEST PUSH1 0x0 PUSH2 0x621 DUP3 PUSH2 0x394 JUMP JUMPDEST SWAP2 POP PUSH32 0xFFFFFFFFFFFFFFFFFFFFFFFFFFFFFFFFFFFFFFFFFFFFFFFFFFFFFFFFFFFFFFFF DUP3 SUB PUSH2 0x653 JUMPI PUSH2 0x652 PUSH2 0x5B6 JUMP JUMPDEST JUMPDEST PUSH1 0x1 DUP3 ADD SWAP1 POP SWAP2 SWAP1 POP JUMP JUMPDEST PUSH1 0x0 PUSH2 0x669 DUP3 PUSH2 0x394 JUMP JUMPDEST SWAP2 POP PUSH2 0x674 DUP4 PUSH2 0x394 JUMP JUMPDEST SWAP3 POP DUP3 DUP3 SUB SWAP1 POP DUP2 DUP2 GT ISZERO PUSH2 0x68C JUMPI PUSH2 0x68B PUSH2 0x5B6 JUMP JUMPDEST JUMPDEST SWAP3 SWAP2 POP POP JUMP INVALID LOG2 PUSH5 0x6970667358 0x22 SLT KECCAK256 SLOAD 0x28 0xB2 SUB 0xA6 0xAB SIGNEXTEND 0x29 0xB9 PUSH24 0x593B9A8638A191FBC457669E3DB2AF21F572EDBF00EB6473 PUSH16 0x6C634300081100330000000000000000 "
				},
				"gasEstimates": {
					"creation": {
						"codeDepositCost": "347200",
						"executionCost": "infinite",
						"totalCost": "infinite"
					},
					"external": {
						"getRoot()": "infinite",
						"hashes(uint256)": "4882",
						"verify(bytes32[],bytes32,bytes32,uint256)": "infinite"
					}
				},
				"methodIdentifiers": {
					"getRoot()": "5ca1e165",
					"hashes(uint256)": "501895ae",
					"verify(bytes32[],bytes32,bytes32,uint256)": "21fb335c"
				}
			},
			"storageLayout": {
				"storage": [
					{
						"astId": 83,
						"contract": "Openzepellin/Merkle1.sol:TestMerkleProof",
						"label": "hashes",
						"offset": 0,
						"slot": "0",
						"type": "t_array(t_bytes32)dyn_storage"
					}
				],
				"types": {
					"t_array(t_bytes32)dyn_storage": {
						"base": "t_bytes32",
						"encoding": "dynamic_array",
						"label": "bytes32[]",
						"numberOfBytes": "32"
					},
					"t_bytes32": {
						"encoding": "inplace",
						"label": "bytes32",
						"numberOfBytes": "32"
					}
				}
			},
			"userdoc": {
				"kind": "user",
				"methods": {},
				"version": 1
			}
		}
	}
}