{
	"Openzepellin/ECDSA_Openzeppelin.sol": {
		"VERI_ECDSA": {
			"abi": [
				{
					"inputs": [
						{
							"internalType": "string",
							"name": "menssagex",
							"type": "string"
						}
					],
					"name": "hash1",
					"outputs": [
						{
							"internalType": "bytes32",
							"name": "",
							"type": "bytes32"
						}
					],
					"stateMutability": "pure",
					"type": "function"
				},
				{
					"inputs": [
						{
							"internalType": "bytes32",
							"name": "hash",
							"type": "bytes32"
						}
					],
					"name": "hash2",
					"outputs": [
						{
							"internalType": "bytes32",
							"name": "",
							"type": "bytes32"
						}
					],
					"stateMutability": "pure",
					"type": "function"
				},
				{
					"inputs": [
						{
							"internalType": "bytes32",
							"name": "hash",
							"type": "bytes32"
						},
						{
							"internalType": "bytes",
							"name": "signature",
							"type": "bytes"
						}
					],
					"name": "verifyF",
					"outputs": [
						{
							"internalType": "address",
							"name": "",
							"type": "address"
						}
					],
					"stateMutability": "pure",
					"type": "function"
				}
			],
			"devdoc": {
				"kind": "dev",
				"methods": {},
				"version": 1
			},
			"evm": {
				"assembly": "    /* \"Openzepellin/ECDSA_Openzeppelin.sol\":145:567  contract VERI_ECDSA{\r... */\n  mstore(0x40, 0x80)\n  callvalue\n  dup1\n  iszero\n  tag_1\n  jumpi\n  0x00\n  dup1\n  revert\ntag_1:\n  pop\n  dataSize(sub_0)\n  dup1\n  dataOffset(sub_0)\n  0x00\n  codecopy\n  0x00\n  return\nstop\n\nsub_0: assembly {\n        /* \"Openzepellin/ECDSA_Openzeppelin.sol\":145:567  contract VERI_ECDSA{\r... */\n      mstore(0x40, 0x80)\n      callvalue\n      dup1\n      iszero\n      tag_1\n      jumpi\n      0x00\n      dup1\n      revert\n    tag_1:\n      pop\n      jumpi(tag_2, lt(calldatasize, 0x04))\n      shr(0xe0, calldataload(0x00))\n      dup1\n      0x7c9f2123\n      eq\n      tag_3\n      jumpi\n      dup1\n      0xa3391c93\n      eq\n      tag_4\n      jumpi\n      dup1\n      0xc22ac3ec\n      eq\n      tag_5\n      jumpi\n    tag_2:\n      0x00\n      dup1\n      revert\n        /* \"Openzepellin/ECDSA_Openzeppelin.sol\":169:313  function verifyF (bytes32  hash, bytes memory signature) public pure returns(address){\r... */\n    tag_3:\n      tag_6\n      0x04\n      dup1\n      calldatasize\n      sub\n      dup2\n      add\n      swap1\n      tag_7\n      swap2\n      swap1\n      tag_8\n      jump\t// in\n    tag_7:\n      tag_9\n      jump\t// in\n    tag_6:\n      mload(0x40)\n      tag_10\n      swap2\n      swap1\n      tag_11\n      jump\t// in\n    tag_10:\n      mload(0x40)\n      dup1\n      swap2\n      sub\n      swap1\n      return\n        /* \"Openzepellin/ECDSA_Openzeppelin.sol\":451:562  function hash2 (bytes32 hash) public pure returns (bytes32){\r... */\n    tag_4:\n      tag_12\n      0x04\n      dup1\n      calldatasize\n      sub\n      dup2\n      add\n      swap1\n      tag_13\n      swap2\n      swap1\n      tag_14\n      jump\t// in\n    tag_13:\n      tag_15\n      jump\t// in\n    tag_12:\n      mload(0x40)\n      tag_16\n      swap2\n      swap1\n      tag_17\n      jump\t// in\n    tag_16:\n      mload(0x40)\n      dup1\n      swap2\n      sub\n      swap1\n      return\n        /* \"Openzepellin/ECDSA_Openzeppelin.sol\":317:445  function hash1 (string memory menssagex) public pure returns (bytes32){\r... */\n    tag_5:\n      tag_18\n      0x04\n      dup1\n      calldatasize\n      sub\n      dup2\n      add\n      swap1\n      tag_19\n      swap2\n      swap1\n      tag_20\n      jump\t// in\n    tag_19:\n      tag_21\n      jump\t// in\n    tag_18:\n      mload(0x40)\n      tag_22\n      swap2\n      swap1\n      tag_17\n      jump\t// in\n    tag_22:\n      mload(0x40)\n      dup1\n      swap2\n      sub\n      swap1\n      return\n        /* \"Openzepellin/ECDSA_Openzeppelin.sol\":169:313  function verifyF (bytes32  hash, bytes memory signature) public pure returns(address){\r... */\n    tag_9:\n        /* \"Openzepellin/ECDSA_Openzeppelin.sol\":246:253  address */\n      0x00\n        /* \"Openzepellin/ECDSA_Openzeppelin.sol\":268:299  ECDSA.recover(hash,  signature) */\n      tag_24\n        /* \"Openzepellin/ECDSA_Openzeppelin.sol\":282:286  hash */\n      dup4\n        /* \"Openzepellin/ECDSA_Openzeppelin.sol\":289:298  signature */\n      dup4\n        /* \"Openzepellin/ECDSA_Openzeppelin.sol\":268:281  ECDSA.recover */\n      tag_25\n        /* \"Openzepellin/ECDSA_Openzeppelin.sol\":268:299  ECDSA.recover(hash,  signature) */\n      jump\t// in\n    tag_24:\n        /* \"Openzepellin/ECDSA_Openzeppelin.sol\":261:299  return ECDSA.recover(hash,  signature) */\n      swap1\n      pop\n        /* \"Openzepellin/ECDSA_Openzeppelin.sol\":169:313  function verifyF (bytes32  hash, bytes memory signature) public pure returns(address){\r... */\n      swap3\n      swap2\n      pop\n      pop\n      jump\t// out\n        /* \"Openzepellin/ECDSA_Openzeppelin.sol\":451:562  function hash2 (bytes32 hash) public pure returns (bytes32){\r... */\n    tag_15:\n        /* \"Openzepellin/ECDSA_Openzeppelin.sol\":502:509  bytes32 */\n      0x00\n        /* \"Openzepellin/ECDSA_Openzeppelin.sol\":524:558  ECDSA.toEthSignedMessageHash(hash) */\n      tag_27\n        /* \"Openzepellin/ECDSA_Openzeppelin.sol\":553:557  hash */\n      dup3\n        /* \"Openzepellin/ECDSA_Openzeppelin.sol\":524:552  ECDSA.toEthSignedMessageHash */\n      tag_28\n        /* \"Openzepellin/ECDSA_Openzeppelin.sol\":524:558  ECDSA.toEthSignedMessageHash(hash) */\n      jump\t// in\n    tag_27:\n        /* \"Openzepellin/ECDSA_Openzeppelin.sol\":517:558  return ECDSA.toEthSignedMessageHash(hash) */\n      swap1\n      pop\n        /* \"Openzepellin/ECDSA_Openzeppelin.sol\":451:562  function hash2 (bytes32 hash) public pure returns (bytes32){\r... */\n      swap2\n      swap1\n      pop\n      jump\t// out\n        /* \"Openzepellin/ECDSA_Openzeppelin.sol\":317:445  function hash1 (string memory menssagex) public pure returns (bytes32){\r... */\n    tag_21:\n        /* \"Openzepellin/ECDSA_Openzeppelin.sol\":379:386  bytes32 */\n      0x00\n        /* \"Openzepellin/ECDSA_Openzeppelin.sol\":428:437  menssagex */\n      dup2\n        /* \"Openzepellin/ECDSA_Openzeppelin.sol\":411:438  abi.encodePacked(menssagex) */\n      add(0x20, mload(0x40))\n      tag_30\n      swap2\n      swap1\n      tag_31\n      jump\t// in\n    tag_30:\n      mload(0x40)\n      0x20\n      dup2\n      dup4\n      sub\n      sub\n      dup2\n      mstore\n      swap1\n      0x40\n      mstore\n        /* \"Openzepellin/ECDSA_Openzeppelin.sol\":401:439  keccak256(abi.encodePacked(menssagex)) */\n      dup1\n      mload\n      swap1\n      0x20\n      add\n      keccak256\n        /* \"Openzepellin/ECDSA_Openzeppelin.sol\":394:439  return keccak256(abi.encodePacked(menssagex)) */\n      swap1\n      pop\n        /* \"Openzepellin/ECDSA_Openzeppelin.sol\":317:445  function hash1 (string memory menssagex) public pure returns (bytes32){\r... */\n      swap2\n      swap1\n      pop\n      jump\t// out\n        /* \"@openzeppelin/contracts/utils/cryptography/ECDSA.sol\":3661:3888  function recover(bytes32 hash, bytes memory signature) internal pure returns (address) {... */\n    tag_25:\n        /* \"@openzeppelin/contracts/utils/cryptography/ECDSA.sol\":3739:3746  address */\n      0x00\n        /* \"@openzeppelin/contracts/utils/cryptography/ECDSA.sol\":3759:3776  address recovered */\n      dup1\n        /* \"@openzeppelin/contracts/utils/cryptography/ECDSA.sol\":3778:3796  RecoverError error */\n      0x00\n        /* \"@openzeppelin/contracts/utils/cryptography/ECDSA.sol\":3800:3827  tryRecover(hash, signature) */\n      tag_33\n        /* \"@openzeppelin/contracts/utils/cryptography/ECDSA.sol\":3811:3815  hash */\n      dup6\n        /* \"@openzeppelin/contracts/utils/cryptography/ECDSA.sol\":3817:3826  signature */\n      dup6\n        /* \"@openzeppelin/contracts/utils/cryptography/ECDSA.sol\":3800:3810  tryRecover */\n      tag_34\n        /* \"@openzeppelin/contracts/utils/cryptography/ECDSA.sol\":3800:3827  tryRecover(hash, signature) */\n      jump\t// in\n    tag_33:\n        /* \"@openzeppelin/contracts/utils/cryptography/ECDSA.sol\":3758:3827  (address recovered, RecoverError error) = tryRecover(hash, signature) */\n      swap2\n      pop\n      swap2\n      pop\n        /* \"@openzeppelin/contracts/utils/cryptography/ECDSA.sol\":3837:3855  _throwError(error) */\n      tag_35\n        /* \"@openzeppelin/contracts/utils/cryptography/ECDSA.sol\":3849:3854  error */\n      dup2\n        /* \"@openzeppelin/contracts/utils/cryptography/ECDSA.sol\":3837:3848  _throwError */\n      tag_36\n        /* \"@openzeppelin/contracts/utils/cryptography/ECDSA.sol\":3837:3855  _throwError(error) */\n      jump\t// in\n    tag_35:\n        /* \"@openzeppelin/contracts/utils/cryptography/ECDSA.sol\":3872:3881  recovered */\n      dup2\n        /* \"@openzeppelin/contracts/utils/cryptography/ECDSA.sol\":3865:3881  return recovered */\n      swap3\n      pop\n      pop\n      pop\n        /* \"@openzeppelin/contracts/utils/cryptography/ECDSA.sol\":3661:3888  function recover(bytes32 hash, bytes memory signature) internal pure returns (address) {... */\n      swap3\n      swap2\n      pop\n      pop\n      jump\t// out\n        /* \"@openzeppelin/contracts/utils/cryptography/ECDSA.sol\":7256:7521  function toEthSignedMessageHash(bytes32 hash) internal pure returns (bytes32) {... */\n    tag_28:\n        /* \"@openzeppelin/contracts/utils/cryptography/ECDSA.sol\":7325:7332  bytes32 */\n      0x00\n        /* \"@openzeppelin/contracts/utils/cryptography/ECDSA.sol\":7508:7512  hash */\n      dup2\n        /* \"@openzeppelin/contracts/utils/cryptography/ECDSA.sol\":7455:7513  abi.encodePacked(\"\\x19Ethereum Signed Message:\\n32\", hash) */\n      add(0x20, mload(0x40))\n      tag_38\n      swap2\n      swap1\n      tag_39\n      jump\t// in\n    tag_38:\n      mload(0x40)\n      0x20\n      dup2\n      dup4\n      sub\n      sub\n      dup2\n      mstore\n      swap1\n      0x40\n      mstore\n        /* \"@openzeppelin/contracts/utils/cryptography/ECDSA.sol\":7445:7514  keccak256(abi.encodePacked(\"\\x19Ethereum Signed Message:\\n32\", hash)) */\n      dup1\n      mload\n      swap1\n      0x20\n      add\n      keccak256\n        /* \"@openzeppelin/contracts/utils/cryptography/ECDSA.sol\":7438:7514  return keccak256(abi.encodePacked(\"\\x19Ethereum Signed Message:\\n32\", hash)) */\n      swap1\n      pop\n        /* \"@openzeppelin/contracts/utils/cryptography/ECDSA.sol\":7256:7521  function toEthSignedMessageHash(bytes32 hash) internal pure returns (bytes32) {... */\n      swap2\n      swap1\n      pop\n      jump\t// out\n        /* \"@openzeppelin/contracts/utils/cryptography/ECDSA.sol\":2145:2875  function tryRecover(bytes32 hash, bytes memory signature) internal pure returns (address, RecoverError) {... */\n    tag_34:\n        /* \"@openzeppelin/contracts/utils/cryptography/ECDSA.sol\":2226:2233  address */\n      0x00\n        /* \"@openzeppelin/contracts/utils/cryptography/ECDSA.sol\":2235:2247  RecoverError */\n      dup1\n        /* \"@openzeppelin/contracts/utils/cryptography/ECDSA.sol\":2283:2285  65 */\n      0x41\n        /* \"@openzeppelin/contracts/utils/cryptography/ECDSA.sol\":2263:2272  signature */\n      dup4\n        /* \"@openzeppelin/contracts/utils/cryptography/ECDSA.sol\":2263:2279  signature.length */\n      mload\n        /* \"@openzeppelin/contracts/utils/cryptography/ECDSA.sol\":2263:2285  signature.length == 65 */\n      eq\n        /* \"@openzeppelin/contracts/utils/cryptography/ECDSA.sol\":2259:2869  if (signature.length == 65) {... */\n      iszero\n      tag_41\n      jumpi\n        /* \"@openzeppelin/contracts/utils/cryptography/ECDSA.sol\":2301:2310  bytes32 r */\n      0x00\n        /* \"@openzeppelin/contracts/utils/cryptography/ECDSA.sol\":2324:2333  bytes32 s */\n      dup1\n        /* \"@openzeppelin/contracts/utils/cryptography/ECDSA.sol\":2347:2354  uint8 v */\n      0x00\n        /* \"@openzeppelin/contracts/utils/cryptography/ECDSA.sol\":2599:2603  0x20 */\n      0x20\n        /* \"@openzeppelin/contracts/utils/cryptography/ECDSA.sol\":2588:2597  signature */\n      dup7\n        /* \"@openzeppelin/contracts/utils/cryptography/ECDSA.sol\":2584:2604  add(signature, 0x20) */\n      add\n        /* \"@openzeppelin/contracts/utils/cryptography/ECDSA.sol\":2578:2605  mload(add(signature, 0x20)) */\n      mload\n        /* \"@openzeppelin/contracts/utils/cryptography/ECDSA.sol\":2573:2605  r := mload(add(signature, 0x20)) */\n      swap3\n      pop\n        /* \"@openzeppelin/contracts/utils/cryptography/ECDSA.sol\":2648:2652  0x40 */\n      0x40\n        /* \"@openzeppelin/contracts/utils/cryptography/ECDSA.sol\":2637:2646  signature */\n      dup7\n        /* \"@openzeppelin/contracts/utils/cryptography/ECDSA.sol\":2633:2653  add(signature, 0x40) */\n      add\n        /* \"@openzeppelin/contracts/utils/cryptography/ECDSA.sol\":2627:2654  mload(add(signature, 0x40)) */\n      mload\n        /* \"@openzeppelin/contracts/utils/cryptography/ECDSA.sol\":2622:2654  s := mload(add(signature, 0x40)) */\n      swap2\n      pop\n        /* \"@openzeppelin/contracts/utils/cryptography/ECDSA.sol\":2705:2709  0x60 */\n      0x60\n        /* \"@openzeppelin/contracts/utils/cryptography/ECDSA.sol\":2694:2703  signature */\n      dup7\n        /* \"@openzeppelin/contracts/utils/cryptography/ECDSA.sol\":2690:2710  add(signature, 0x60) */\n      add\n        /* \"@openzeppelin/contracts/utils/cryptography/ECDSA.sol\":2684:2711  mload(add(signature, 0x60)) */\n      mload\n        /* \"@openzeppelin/contracts/utils/cryptography/ECDSA.sol\":2681:2682  0 */\n      0x00\n        /* \"@openzeppelin/contracts/utils/cryptography/ECDSA.sol\":2676:2712  byte(0, mload(add(signature, 0x60))) */\n      byte\n        /* \"@openzeppelin/contracts/utils/cryptography/ECDSA.sol\":2671:2712  v := byte(0, mload(add(signature, 0x60))) */\n      swap1\n      pop\n        /* \"@openzeppelin/contracts/utils/cryptography/ECDSA.sol\":2746:2771  tryRecover(hash, v, r, s) */\n      tag_42\n        /* \"@openzeppelin/contracts/utils/cryptography/ECDSA.sol\":2757:2761  hash */\n      dup8\n        /* \"@openzeppelin/contracts/utils/cryptography/ECDSA.sol\":2763:2764  v */\n      dup3\n        /* \"@openzeppelin/contracts/utils/cryptography/ECDSA.sol\":2766:2767  r */\n      dup6\n        /* \"@openzeppelin/contracts/utils/cryptography/ECDSA.sol\":2769:2770  s */\n      dup6\n        /* \"@openzeppelin/contracts/utils/cryptography/ECDSA.sol\":2746:2756  tryRecover */\n      tag_43\n        /* \"@openzeppelin/contracts/utils/cryptography/ECDSA.sol\":2746:2771  tryRecover(hash, v, r, s) */\n      jump\t// in\n    tag_42:\n        /* \"@openzeppelin/contracts/utils/cryptography/ECDSA.sol\":2739:2771  return tryRecover(hash, v, r, s) */\n      swap5\n      pop\n      swap5\n      pop\n      pop\n      pop\n      pop\n      jump(tag_40)\n        /* \"@openzeppelin/contracts/utils/cryptography/ECDSA.sol\":2259:2869  if (signature.length == 65) {... */\n    tag_41:\n        /* \"@openzeppelin/contracts/utils/cryptography/ECDSA.sol\":2818:2819  0 */\n      0x00\n        /* \"@openzeppelin/contracts/utils/cryptography/ECDSA.sol\":2822:2857  RecoverError.InvalidSignatureLength */\n      0x02\n        /* \"@openzeppelin/contracts/utils/cryptography/ECDSA.sol\":2802:2858  return (address(0), RecoverError.InvalidSignatureLength) */\n      swap2\n      pop\n      swap2\n      pop\n        /* \"@openzeppelin/contracts/utils/cryptography/ECDSA.sol\":2145:2875  function tryRecover(bytes32 hash, bytes memory signature) internal pure returns (address, RecoverError) {... */\n    tag_40:\n      swap3\n      pop\n      swap3\n      swap1\n      pop\n      jump\t// out\n        /* \"@openzeppelin/contracts/utils/cryptography/ECDSA.sol\":570:1081  function _throwError(RecoverError error) private pure {... */\n    tag_36:\n        /* \"@openzeppelin/contracts/utils/cryptography/ECDSA.sol\":647:667  RecoverError.NoError */\n      0x00\n        /* \"@openzeppelin/contracts/utils/cryptography/ECDSA.sol\":638:667  error == RecoverError.NoError */\n      0x04\n      dup2\n      gt\n      iszero\n      tag_46\n      jumpi\n      tag_47\n      tag_48\n      jump\t// in\n    tag_47:\n    tag_46:\n        /* \"@openzeppelin/contracts/utils/cryptography/ECDSA.sol\":638:643  error */\n      dup2\n        /* \"@openzeppelin/contracts/utils/cryptography/ECDSA.sol\":638:667  error == RecoverError.NoError */\n      0x04\n      dup2\n      gt\n      iszero\n      tag_49\n      jumpi\n      tag_50\n      tag_48\n      jump\t// in\n    tag_50:\n    tag_49:\n      eq\n        /* \"@openzeppelin/contracts/utils/cryptography/ECDSA.sol\":634:1075  if (error == RecoverError.NoError) {... */\n      iszero\n      tag_51\n      jumpi\n        /* \"@openzeppelin/contracts/utils/cryptography/ECDSA.sol\":683:690  return; */\n      jump(tag_45)\n        /* \"@openzeppelin/contracts/utils/cryptography/ECDSA.sol\":634:1075  if (error == RecoverError.NoError) {... */\n    tag_51:\n        /* \"@openzeppelin/contracts/utils/cryptography/ECDSA.sol\":743:772  RecoverError.InvalidSignature */\n      0x01\n        /* \"@openzeppelin/contracts/utils/cryptography/ECDSA.sol\":734:772  error == RecoverError.InvalidSignature */\n      0x04\n      dup2\n      gt\n      iszero\n      tag_53\n      jumpi\n      tag_54\n      tag_48\n      jump\t// in\n    tag_54:\n    tag_53:\n        /* \"@openzeppelin/contracts/utils/cryptography/ECDSA.sol\":734:739  error */\n      dup2\n        /* \"@openzeppelin/contracts/utils/cryptography/ECDSA.sol\":734:772  error == RecoverError.InvalidSignature */\n      0x04\n      dup2\n      gt\n      iszero\n      tag_55\n      jumpi\n      tag_56\n      tag_48\n      jump\t// in\n    tag_56:\n    tag_55:\n      eq\n        /* \"@openzeppelin/contracts/utils/cryptography/ECDSA.sol\":730:1075  if (error == RecoverError.InvalidSignature) {... */\n      iszero\n      tag_57\n      jumpi\n        /* \"@openzeppelin/contracts/utils/cryptography/ECDSA.sol\":788:822  revert(\"ECDSA: invalid signature\") */\n      mload(0x40)\n      0x08c379a000000000000000000000000000000000000000000000000000000000\n      dup2\n      mstore\n      0x04\n      add\n      tag_58\n      swap1\n      tag_59\n      jump\t// in\n    tag_58:\n      mload(0x40)\n      dup1\n      swap2\n      sub\n      swap1\n      revert\n        /* \"@openzeppelin/contracts/utils/cryptography/ECDSA.sol\":730:1075  if (error == RecoverError.InvalidSignature) {... */\n    tag_57:\n        /* \"@openzeppelin/contracts/utils/cryptography/ECDSA.sol\":852:887  RecoverError.InvalidSignatureLength */\n      0x02\n        /* \"@openzeppelin/contracts/utils/cryptography/ECDSA.sol\":843:887  error == RecoverError.InvalidSignatureLength */\n      0x04\n      dup2\n      gt\n      iszero\n      tag_61\n      jumpi\n      tag_62\n      tag_48\n      jump\t// in\n    tag_62:\n    tag_61:\n        /* \"@openzeppelin/contracts/utils/cryptography/ECDSA.sol\":843:848  error */\n      dup2\n        /* \"@openzeppelin/contracts/utils/cryptography/ECDSA.sol\":843:887  error == RecoverError.InvalidSignatureLength */\n      0x04\n      dup2\n      gt\n      iszero\n      tag_63\n      jumpi\n      tag_64\n      tag_48\n      jump\t// in\n    tag_64:\n    tag_63:\n      eq\n        /* \"@openzeppelin/contracts/utils/cryptography/ECDSA.sol\":839:1075  if (error == RecoverError.InvalidSignatureLength) {... */\n      iszero\n      tag_65\n      jumpi\n        /* \"@openzeppelin/contracts/utils/cryptography/ECDSA.sol\":903:944  revert(\"ECDSA: invalid signature length\") */\n      mload(0x40)\n      0x08c379a000000000000000000000000000000000000000000000000000000000\n      dup2\n      mstore\n      0x04\n      add\n      tag_66\n      swap1\n      tag_67\n      jump\t// in\n    tag_66:\n      mload(0x40)\n      dup1\n      swap2\n      sub\n      swap1\n      revert\n        /* \"@openzeppelin/contracts/utils/cryptography/ECDSA.sol\":839:1075  if (error == RecoverError.InvalidSignatureLength) {... */\n    tag_65:\n        /* \"@openzeppelin/contracts/utils/cryptography/ECDSA.sol\":974:1004  RecoverError.InvalidSignatureS */\n      0x03\n        /* \"@openzeppelin/contracts/utils/cryptography/ECDSA.sol\":965:1004  error == RecoverError.InvalidSignatureS */\n      0x04\n      dup2\n      gt\n      iszero\n      tag_69\n      jumpi\n      tag_70\n      tag_48\n      jump\t// in\n    tag_70:\n    tag_69:\n        /* \"@openzeppelin/contracts/utils/cryptography/ECDSA.sol\":965:970  error */\n      dup2\n        /* \"@openzeppelin/contracts/utils/cryptography/ECDSA.sol\":965:1004  error == RecoverError.InvalidSignatureS */\n      0x04\n      dup2\n      gt\n      iszero\n      tag_71\n      jumpi\n      tag_72\n      tag_48\n      jump\t// in\n    tag_72:\n    tag_71:\n      eq\n        /* \"@openzeppelin/contracts/utils/cryptography/ECDSA.sol\":961:1075  if (error == RecoverError.InvalidSignatureS) {... */\n      iszero\n      tag_73\n      jumpi\n        /* \"@openzeppelin/contracts/utils/cryptography/ECDSA.sol\":1020:1064  revert(\"ECDSA: invalid signature 's' value\") */\n      mload(0x40)\n      0x08c379a000000000000000000000000000000000000000000000000000000000\n      dup2\n      mstore\n      0x04\n      add\n      tag_74\n      swap1\n      tag_75\n      jump\t// in\n    tag_74:\n      mload(0x40)\n      dup1\n      swap2\n      sub\n      swap1\n      revert\n        /* \"@openzeppelin/contracts/utils/cryptography/ECDSA.sol\":961:1075  if (error == RecoverError.InvalidSignatureS) {... */\n    tag_73:\n        /* \"@openzeppelin/contracts/utils/cryptography/ECDSA.sol\":570:1081  function _throwError(RecoverError error) private pure {... */\n    tag_45:\n      pop\n      jump\t// out\n        /* \"@openzeppelin/contracts/utils/cryptography/ECDSA.sol\":5069:6563  function tryRecover(... */\n    tag_43:\n        /* \"@openzeppelin/contracts/utils/cryptography/ECDSA.sol\":5195:5202  address */\n      0x00\n        /* \"@openzeppelin/contracts/utils/cryptography/ECDSA.sol\":5204:5216  RecoverError */\n      dup1\n        /* \"@openzeppelin/contracts/utils/cryptography/ECDSA.sol\":6119:6185  0x7FFFFFFFFFFFFFFFFFFFFFFFFFFFFFFF5D576E7357A4501DDFE92F46681B20A0 */\n      0x7fffffffffffffffffffffffffffffff5d576e7357a4501ddfe92f46681b20a0\n        /* \"@openzeppelin/contracts/utils/cryptography/ECDSA.sol\":6114:6115  s */\n      dup4\n        /* \"@openzeppelin/contracts/utils/cryptography/ECDSA.sol\":6106:6116  uint256(s) */\n      0x00\n      shr\n        /* \"@openzeppelin/contracts/utils/cryptography/ECDSA.sol\":6106:6185  uint256(s) > 0x7FFFFFFFFFFFFFFFFFFFFFFFFFFFFFFF5D576E7357A4501DDFE92F46681B20A0 */\n      gt\n        /* \"@openzeppelin/contracts/utils/cryptography/ECDSA.sol\":6102:6263  if (uint256(s) > 0x7FFFFFFFFFFFFFFFFFFFFFFFFFFFFFFF5D576E7357A4501DDFE92F46681B20A0) {... */\n      iszero\n      tag_77\n      jumpi\n        /* \"@openzeppelin/contracts/utils/cryptography/ECDSA.sol\":6217:6218  0 */\n      0x00\n        /* \"@openzeppelin/contracts/utils/cryptography/ECDSA.sol\":6221:6251  RecoverError.InvalidSignatureS */\n      0x03\n        /* \"@openzeppelin/contracts/utils/cryptography/ECDSA.sol\":6201:6252  return (address(0), RecoverError.InvalidSignatureS) */\n      swap2\n      pop\n      swap2\n      pop\n      jump(tag_76)\n        /* \"@openzeppelin/contracts/utils/cryptography/ECDSA.sol\":6102:6263  if (uint256(s) > 0x7FFFFFFFFFFFFFFFFFFFFFFFFFFFFFFF5D576E7357A4501DDFE92F46681B20A0) {... */\n    tag_77:\n        /* \"@openzeppelin/contracts/utils/cryptography/ECDSA.sol\":6357:6371  address signer */\n      0x00\n        /* \"@openzeppelin/contracts/utils/cryptography/ECDSA.sol\":6374:6398  ecrecover(hash, v, r, s) */\n      0x01\n        /* \"@openzeppelin/contracts/utils/cryptography/ECDSA.sol\":6384:6388  hash */\n      dup8\n        /* \"@openzeppelin/contracts/utils/cryptography/ECDSA.sol\":6390:6391  v */\n      dup8\n        /* \"@openzeppelin/contracts/utils/cryptography/ECDSA.sol\":6393:6394  r */\n      dup8\n        /* \"@openzeppelin/contracts/utils/cryptography/ECDSA.sol\":6396:6397  s */\n      dup8\n        /* \"@openzeppelin/contracts/utils/cryptography/ECDSA.sol\":6374:6398  ecrecover(hash, v, r, s) */\n      mload(0x40)\n      0x00\n      dup2\n      mstore\n      0x20\n      add\n      0x40\n      mstore\n      mload(0x40)\n      tag_78\n      swap5\n      swap4\n      swap3\n      swap2\n      swap1\n      tag_79\n      jump\t// in\n    tag_78:\n      0x20\n      mload(0x40)\n      0x20\n      dup2\n      sub\n      swap1\n      dup1\n      dup5\n      sub\n      swap1\n      dup6\n      gas\n      staticcall\n      iszero\n      dup1\n      iszero\n      tag_81\n      jumpi\n      returndatasize\n      0x00\n      dup1\n      returndatacopy\n      revert(0x00, returndatasize)\n    tag_81:\n      pop\n      pop\n      pop\n      mload(sub(mload(0x40), 0x20))\n        /* \"@openzeppelin/contracts/utils/cryptography/ECDSA.sol\":6357:6398  address signer = ecrecover(hash, v, r, s) */\n      swap1\n      pop\n        /* \"@openzeppelin/contracts/utils/cryptography/ECDSA.sol\":6430:6431  0 */\n      0x00\n        /* \"@openzeppelin/contracts/utils/cryptography/ECDSA.sol\":6412:6432  signer == address(0) */\n      0xffffffffffffffffffffffffffffffffffffffff\n      and\n        /* \"@openzeppelin/contracts/utils/cryptography/ECDSA.sol\":6412:6418  signer */\n      dup2\n        /* \"@openzeppelin/contracts/utils/cryptography/ECDSA.sol\":6412:6432  signer == address(0) */\n      0xffffffffffffffffffffffffffffffffffffffff\n      and\n      eq\n        /* \"@openzeppelin/contracts/utils/cryptography/ECDSA.sol\":6408:6509  if (signer == address(0)) {... */\n      iszero\n      tag_82\n      jumpi\n        /* \"@openzeppelin/contracts/utils/cryptography/ECDSA.sol\":6464:6465  0 */\n      0x00\n        /* \"@openzeppelin/contracts/utils/cryptography/ECDSA.sol\":6468:6497  RecoverError.InvalidSignature */\n      0x01\n        /* \"@openzeppelin/contracts/utils/cryptography/ECDSA.sol\":6448:6498  return (address(0), RecoverError.InvalidSignature) */\n      swap3\n      pop\n      swap3\n      pop\n      pop\n      jump(tag_76)\n        /* \"@openzeppelin/contracts/utils/cryptography/ECDSA.sol\":6408:6509  if (signer == address(0)) {... */\n    tag_82:\n        /* \"@openzeppelin/contracts/utils/cryptography/ECDSA.sol\":6527:6533  signer */\n      dup1\n        /* \"@openzeppelin/contracts/utils/cryptography/ECDSA.sol\":6535:6555  RecoverError.NoError */\n      0x00\n        /* \"@openzeppelin/contracts/utils/cryptography/ECDSA.sol\":6519:6556  return (signer, RecoverError.NoError) */\n      swap3\n      pop\n      swap3\n      pop\n      pop\n        /* \"@openzeppelin/contracts/utils/cryptography/ECDSA.sol\":5069:6563  function tryRecover(... */\n    tag_76:\n      swap5\n      pop\n      swap5\n      swap3\n      pop\n      pop\n      pop\n      jump\t// out\n        /* \"#utility.yul\":7:417   */\n    tag_84:\n        /* \"#utility.yul\":84:89   */\n      0x00\n        /* \"#utility.yul\":109:174   */\n      tag_86\n        /* \"#utility.yul\":125:173   */\n      tag_87\n        /* \"#utility.yul\":166:172   */\n      dup5\n        /* \"#utility.yul\":125:173   */\n      tag_88\n      jump\t// in\n    tag_87:\n        /* \"#utility.yul\":109:174   */\n      tag_89\n      jump\t// in\n    tag_86:\n        /* \"#utility.yul\":100:174   */\n      swap1\n      pop\n        /* \"#utility.yul\":197:203   */\n      dup3\n        /* \"#utility.yul\":190:195   */\n      dup2\n        /* \"#utility.yul\":183:204   */\n      mstore\n        /* \"#utility.yul\":235:239   */\n      0x20\n        /* \"#utility.yul\":228:233   */\n      dup2\n        /* \"#utility.yul\":224:240   */\n      add\n        /* \"#utility.yul\":273:276   */\n      dup5\n        /* \"#utility.yul\":264:270   */\n      dup5\n        /* \"#utility.yul\":259:262   */\n      dup5\n        /* \"#utility.yul\":255:271   */\n      add\n        /* \"#utility.yul\":252:277   */\n      gt\n        /* \"#utility.yul\":249:361   */\n      iszero\n      tag_90\n      jumpi\n        /* \"#utility.yul\":280:359   */\n      tag_91\n      tag_92\n      jump\t// in\n    tag_91:\n        /* \"#utility.yul\":249:361   */\n    tag_90:\n        /* \"#utility.yul\":370:411   */\n      tag_93\n        /* \"#utility.yul\":404:410   */\n      dup5\n        /* \"#utility.yul\":399:402   */\n      dup3\n        /* \"#utility.yul\":394:397   */\n      dup6\n        /* \"#utility.yul\":370:411   */\n      tag_94\n      jump\t// in\n    tag_93:\n        /* \"#utility.yul\":90:417   */\n      pop\n        /* \"#utility.yul\":7:417   */\n      swap4\n      swap3\n      pop\n      pop\n      pop\n      jump\t// out\n        /* \"#utility.yul\":423:835   */\n    tag_95:\n        /* \"#utility.yul\":501:506   */\n      0x00\n        /* \"#utility.yul\":526:592   */\n      tag_97\n        /* \"#utility.yul\":542:591   */\n      tag_98\n        /* \"#utility.yul\":584:590   */\n      dup5\n        /* \"#utility.yul\":542:591   */\n      tag_99\n      jump\t// in\n    tag_98:\n        /* \"#utility.yul\":526:592   */\n      tag_89\n      jump\t// in\n    tag_97:\n        /* \"#utility.yul\":517:592   */\n      swap1\n      pop\n        /* \"#utility.yul\":615:621   */\n      dup3\n        /* \"#utility.yul\":608:613   */\n      dup2\n        /* \"#utility.yul\":601:622   */\n      mstore\n        /* \"#utility.yul\":653:657   */\n      0x20\n        /* \"#utility.yul\":646:651   */\n      dup2\n        /* \"#utility.yul\":642:658   */\n      add\n        /* \"#utility.yul\":691:694   */\n      dup5\n        /* \"#utility.yul\":682:688   */\n      dup5\n        /* \"#utility.yul\":677:680   */\n      dup5\n        /* \"#utility.yul\":673:689   */\n      add\n        /* \"#utility.yul\":670:695   */\n      gt\n        /* \"#utility.yul\":667:779   */\n      iszero\n      tag_100\n      jumpi\n        /* \"#utility.yul\":698:777   */\n      tag_101\n      tag_92\n      jump\t// in\n    tag_101:\n        /* \"#utility.yul\":667:779   */\n    tag_100:\n        /* \"#utility.yul\":788:829   */\n      tag_102\n        /* \"#utility.yul\":822:828   */\n      dup5\n        /* \"#utility.yul\":817:820   */\n      dup3\n        /* \"#utility.yul\":812:815   */\n      dup6\n        /* \"#utility.yul\":788:829   */\n      tag_94\n      jump\t// in\n    tag_102:\n        /* \"#utility.yul\":507:835   */\n      pop\n        /* \"#utility.yul\":423:835   */\n      swap4\n      swap3\n      pop\n      pop\n      pop\n      jump\t// out\n        /* \"#utility.yul\":841:980   */\n    tag_103:\n        /* \"#utility.yul\":887:892   */\n      0x00\n        /* \"#utility.yul\":925:931   */\n      dup2\n        /* \"#utility.yul\":912:932   */\n      calldataload\n        /* \"#utility.yul\":903:932   */\n      swap1\n      pop\n        /* \"#utility.yul\":941:974   */\n      tag_105\n        /* \"#utility.yul\":968:973   */\n      dup2\n        /* \"#utility.yul\":941:974   */\n      tag_106\n      jump\t// in\n    tag_105:\n        /* \"#utility.yul\":841:980   */\n      swap3\n      swap2\n      pop\n      pop\n      jump\t// out\n        /* \"#utility.yul\":999:1337   */\n    tag_107:\n        /* \"#utility.yul\":1054:1059   */\n      0x00\n        /* \"#utility.yul\":1103:1106   */\n      dup3\n        /* \"#utility.yul\":1096:1100   */\n      0x1f\n        /* \"#utility.yul\":1088:1094   */\n      dup4\n        /* \"#utility.yul\":1084:1101   */\n      add\n        /* \"#utility.yul\":1080:1107   */\n      slt\n        /* \"#utility.yul\":1070:1192   */\n      tag_109\n      jumpi\n        /* \"#utility.yul\":1111:1190   */\n      tag_110\n      tag_111\n      jump\t// in\n    tag_110:\n        /* \"#utility.yul\":1070:1192   */\n    tag_109:\n        /* \"#utility.yul\":1228:1234   */\n      dup2\n        /* \"#utility.yul\":1215:1235   */\n      calldataload\n        /* \"#utility.yul\":1253:1331   */\n      tag_112\n        /* \"#utility.yul\":1327:1330   */\n      dup5\n        /* \"#utility.yul\":1319:1325   */\n      dup3\n        /* \"#utility.yul\":1312:1316   */\n      0x20\n        /* \"#utility.yul\":1304:1310   */\n      dup7\n        /* \"#utility.yul\":1300:1317   */\n      add\n        /* \"#utility.yul\":1253:1331   */\n      tag_84\n      jump\t// in\n    tag_112:\n        /* \"#utility.yul\":1244:1331   */\n      swap2\n      pop\n        /* \"#utility.yul\":1060:1337   */\n      pop\n        /* \"#utility.yul\":999:1337   */\n      swap3\n      swap2\n      pop\n      pop\n      jump\t// out\n        /* \"#utility.yul\":1357:1697   */\n    tag_113:\n        /* \"#utility.yul\":1413:1418   */\n      0x00\n        /* \"#utility.yul\":1462:1465   */\n      dup3\n        /* \"#utility.yul\":1455:1459   */\n      0x1f\n        /* \"#utility.yul\":1447:1453   */\n      dup4\n        /* \"#utility.yul\":1443:1460   */\n      add\n        /* \"#utility.yul\":1439:1466   */\n      slt\n        /* \"#utility.yul\":1429:1551   */\n      tag_115\n      jumpi\n        /* \"#utility.yul\":1470:1549   */\n      tag_116\n      tag_111\n      jump\t// in\n    tag_116:\n        /* \"#utility.yul\":1429:1551   */\n    tag_115:\n        /* \"#utility.yul\":1587:1593   */\n      dup2\n        /* \"#utility.yul\":1574:1594   */\n      calldataload\n        /* \"#utility.yul\":1612:1691   */\n      tag_117\n        /* \"#utility.yul\":1687:1690   */\n      dup5\n        /* \"#utility.yul\":1679:1685   */\n      dup3\n        /* \"#utility.yul\":1672:1676   */\n      0x20\n        /* \"#utility.yul\":1664:1670   */\n      dup7\n        /* \"#utility.yul\":1660:1677   */\n      add\n        /* \"#utility.yul\":1612:1691   */\n      tag_95\n      jump\t// in\n    tag_117:\n        /* \"#utility.yul\":1603:1691   */\n      swap2\n      pop\n        /* \"#utility.yul\":1419:1697   */\n      pop\n        /* \"#utility.yul\":1357:1697   */\n      swap3\n      swap2\n      pop\n      pop\n      jump\t// out\n        /* \"#utility.yul\":1703:2032   */\n    tag_14:\n        /* \"#utility.yul\":1762:1768   */\n      0x00\n        /* \"#utility.yul\":1811:1813   */\n      0x20\n        /* \"#utility.yul\":1799:1808   */\n      dup3\n        /* \"#utility.yul\":1790:1797   */\n      dup5\n        /* \"#utility.yul\":1786:1809   */\n      sub\n        /* \"#utility.yul\":1782:1814   */\n      slt\n        /* \"#utility.yul\":1779:1898   */\n      iszero\n      tag_119\n      jumpi\n        /* \"#utility.yul\":1817:1896   */\n      tag_120\n      tag_121\n      jump\t// in\n    tag_120:\n        /* \"#utility.yul\":1779:1898   */\n    tag_119:\n        /* \"#utility.yul\":1937:1938   */\n      0x00\n        /* \"#utility.yul\":1962:2015   */\n      tag_122\n        /* \"#utility.yul\":2007:2014   */\n      dup5\n        /* \"#utility.yul\":1998:2004   */\n      dup3\n        /* \"#utility.yul\":1987:1996   */\n      dup6\n        /* \"#utility.yul\":1983:2005   */\n      add\n        /* \"#utility.yul\":1962:2015   */\n      tag_103\n      jump\t// in\n    tag_122:\n        /* \"#utility.yul\":1952:2015   */\n      swap2\n      pop\n        /* \"#utility.yul\":1908:2025   */\n      pop\n        /* \"#utility.yul\":1703:2032   */\n      swap3\n      swap2\n      pop\n      pop\n      jump\t// out\n        /* \"#utility.yul\":2038:2690   */\n    tag_8:\n        /* \"#utility.yul\":2115:2121   */\n      0x00\n        /* \"#utility.yul\":2123:2129   */\n      dup1\n        /* \"#utility.yul\":2172:2174   */\n      0x40\n        /* \"#utility.yul\":2160:2169   */\n      dup4\n        /* \"#utility.yul\":2151:2158   */\n      dup6\n        /* \"#utility.yul\":2147:2170   */\n      sub\n        /* \"#utility.yul\":2143:2175   */\n      slt\n        /* \"#utility.yul\":2140:2259   */\n      iszero\n      tag_124\n      jumpi\n        /* \"#utility.yul\":2178:2257   */\n      tag_125\n      tag_121\n      jump\t// in\n    tag_125:\n        /* \"#utility.yul\":2140:2259   */\n    tag_124:\n        /* \"#utility.yul\":2298:2299   */\n      0x00\n        /* \"#utility.yul\":2323:2376   */\n      tag_126\n        /* \"#utility.yul\":2368:2375   */\n      dup6\n        /* \"#utility.yul\":2359:2365   */\n      dup3\n        /* \"#utility.yul\":2348:2357   */\n      dup7\n        /* \"#utility.yul\":2344:2366   */\n      add\n        /* \"#utility.yul\":2323:2376   */\n      tag_103\n      jump\t// in\n    tag_126:\n        /* \"#utility.yul\":2313:2376   */\n      swap3\n      pop\n        /* \"#utility.yul\":2269:2386   */\n      pop\n        /* \"#utility.yul\":2453:2455   */\n      0x20\n        /* \"#utility.yul\":2442:2451   */\n      dup4\n        /* \"#utility.yul\":2438:2456   */\n      add\n        /* \"#utility.yul\":2425:2457   */\n      calldataload\n        /* \"#utility.yul\":2484:2502   */\n      0xffffffffffffffff\n        /* \"#utility.yul\":2476:2482   */\n      dup2\n        /* \"#utility.yul\":2473:2503   */\n      gt\n        /* \"#utility.yul\":2470:2587   */\n      iszero\n      tag_127\n      jumpi\n        /* \"#utility.yul\":2506:2585   */\n      tag_128\n      tag_129\n      jump\t// in\n    tag_128:\n        /* \"#utility.yul\":2470:2587   */\n    tag_127:\n        /* \"#utility.yul\":2611:2673   */\n      tag_130\n        /* \"#utility.yul\":2665:2672   */\n      dup6\n        /* \"#utility.yul\":2656:2662   */\n      dup3\n        /* \"#utility.yul\":2645:2654   */\n      dup7\n        /* \"#utility.yul\":2641:2663   */\n      add\n        /* \"#utility.yul\":2611:2673   */\n      tag_107\n      jump\t// in\n    tag_130:\n        /* \"#utility.yul\":2601:2673   */\n      swap2\n      pop\n        /* \"#utility.yul\":2396:2683   */\n      pop\n        /* \"#utility.yul\":2038:2690   */\n      swap3\n      pop\n      swap3\n      swap1\n      pop\n      jump\t// out\n        /* \"#utility.yul\":2696:3205   */\n    tag_20:\n        /* \"#utility.yul\":2765:2771   */\n      0x00\n        /* \"#utility.yul\":2814:2816   */\n      0x20\n        /* \"#utility.yul\":2802:2811   */\n      dup3\n        /* \"#utility.yul\":2793:2800   */\n      dup5\n        /* \"#utility.yul\":2789:2812   */\n      sub\n        /* \"#utility.yul\":2785:2817   */\n      slt\n        /* \"#utility.yul\":2782:2901   */\n      iszero\n      tag_132\n      jumpi\n        /* \"#utility.yul\":2820:2899   */\n      tag_133\n      tag_121\n      jump\t// in\n    tag_133:\n        /* \"#utility.yul\":2782:2901   */\n    tag_132:\n        /* \"#utility.yul\":2968:2969   */\n      0x00\n        /* \"#utility.yul\":2957:2966   */\n      dup3\n        /* \"#utility.yul\":2953:2970   */\n      add\n        /* \"#utility.yul\":2940:2971   */\n      calldataload\n        /* \"#utility.yul\":2998:3016   */\n      0xffffffffffffffff\n        /* \"#utility.yul\":2990:2996   */\n      dup2\n        /* \"#utility.yul\":2987:3017   */\n      gt\n        /* \"#utility.yul\":2984:3101   */\n      iszero\n      tag_134\n      jumpi\n        /* \"#utility.yul\":3020:3099   */\n      tag_135\n      tag_129\n      jump\t// in\n    tag_135:\n        /* \"#utility.yul\":2984:3101   */\n    tag_134:\n        /* \"#utility.yul\":3125:3188   */\n      tag_136\n        /* \"#utility.yul\":3180:3187   */\n      dup5\n        /* \"#utility.yul\":3171:3177   */\n      dup3\n        /* \"#utility.yul\":3160:3169   */\n      dup6\n        /* \"#utility.yul\":3156:3178   */\n      add\n        /* \"#utility.yul\":3125:3188   */\n      tag_113\n      jump\t// in\n    tag_136:\n        /* \"#utility.yul\":3115:3188   */\n      swap2\n      pop\n        /* \"#utility.yul\":2911:3198   */\n      pop\n        /* \"#utility.yul\":2696:3205   */\n      swap3\n      swap2\n      pop\n      pop\n      jump\t// out\n        /* \"#utility.yul\":3211:3329   */\n    tag_137:\n        /* \"#utility.yul\":3298:3322   */\n      tag_139\n        /* \"#utility.yul\":3316:3321   */\n      dup2\n        /* \"#utility.yul\":3298:3322   */\n      tag_140\n      jump\t// in\n    tag_139:\n        /* \"#utility.yul\":3293:3296   */\n      dup3\n        /* \"#utility.yul\":3286:3323   */\n      mstore\n        /* \"#utility.yul\":3211:3329   */\n      pop\n      pop\n      jump\t// out\n        /* \"#utility.yul\":3335:3453   */\n    tag_141:\n        /* \"#utility.yul\":3422:3446   */\n      tag_143\n        /* \"#utility.yul\":3440:3445   */\n      dup2\n        /* \"#utility.yul\":3422:3446   */\n      tag_144\n      jump\t// in\n    tag_143:\n        /* \"#utility.yul\":3417:3420   */\n      dup3\n        /* \"#utility.yul\":3410:3447   */\n      mstore\n        /* \"#utility.yul\":3335:3453   */\n      pop\n      pop\n      jump\t// out\n        /* \"#utility.yul\":3459:3616   */\n    tag_145:\n        /* \"#utility.yul\":3564:3609   */\n      tag_147\n        /* \"#utility.yul\":3584:3608   */\n      tag_148\n        /* \"#utility.yul\":3602:3607   */\n      dup3\n        /* \"#utility.yul\":3584:3608   */\n      tag_144\n      jump\t// in\n    tag_148:\n        /* \"#utility.yul\":3564:3609   */\n      tag_149\n      jump\t// in\n    tag_147:\n        /* \"#utility.yul\":3559:3562   */\n      dup3\n        /* \"#utility.yul\":3552:3610   */\n      mstore\n        /* \"#utility.yul\":3459:3616   */\n      pop\n      pop\n      jump\t// out\n        /* \"#utility.yul\":3622:3999   */\n    tag_150:\n        /* \"#utility.yul\":3728:3731   */\n      0x00\n        /* \"#utility.yul\":3756:3795   */\n      tag_152\n        /* \"#utility.yul\":3789:3794   */\n      dup3\n        /* \"#utility.yul\":3756:3795   */\n      tag_153\n      jump\t// in\n    tag_152:\n        /* \"#utility.yul\":3811:3900   */\n      tag_154\n        /* \"#utility.yul\":3893:3899   */\n      dup2\n        /* \"#utility.yul\":3888:3891   */\n      dup6\n        /* \"#utility.yul\":3811:3900   */\n      tag_155\n      jump\t// in\n    tag_154:\n        /* \"#utility.yul\":3804:3900   */\n      swap4\n      pop\n        /* \"#utility.yul\":3909:3961   */\n      tag_156\n        /* \"#utility.yul\":3954:3960   */\n      dup2\n        /* \"#utility.yul\":3949:3952   */\n      dup6\n        /* \"#utility.yul\":3942:3946   */\n      0x20\n        /* \"#utility.yul\":3935:3940   */\n      dup7\n        /* \"#utility.yul\":3931:3947   */\n      add\n        /* \"#utility.yul\":3909:3961   */\n      tag_157\n      jump\t// in\n    tag_156:\n        /* \"#utility.yul\":3986:3992   */\n      dup1\n        /* \"#utility.yul\":3981:3984   */\n      dup5\n        /* \"#utility.yul\":3977:3993   */\n      add\n        /* \"#utility.yul\":3970:3993   */\n      swap2\n      pop\n        /* \"#utility.yul\":3732:3999   */\n      pop\n        /* \"#utility.yul\":3622:3999   */\n      swap3\n      swap2\n      pop\n      pop\n      jump\t// out\n        /* \"#utility.yul\":4005:4371   */\n    tag_158:\n        /* \"#utility.yul\":4147:4150   */\n      0x00\n        /* \"#utility.yul\":4168:4235   */\n      tag_160\n        /* \"#utility.yul\":4232:4234   */\n      0x18\n        /* \"#utility.yul\":4227:4230   */\n      dup4\n        /* \"#utility.yul\":4168:4235   */\n      tag_161\n      jump\t// in\n    tag_160:\n        /* \"#utility.yul\":4161:4235   */\n      swap2\n      pop\n        /* \"#utility.yul\":4244:4337   */\n      tag_162\n        /* \"#utility.yul\":4333:4336   */\n      dup3\n        /* \"#utility.yul\":4244:4337   */\n      tag_163\n      jump\t// in\n    tag_162:\n        /* \"#utility.yul\":4362:4364   */\n      0x20\n        /* \"#utility.yul\":4357:4360   */\n      dup3\n        /* \"#utility.yul\":4353:4365   */\n      add\n        /* \"#utility.yul\":4346:4365   */\n      swap1\n      pop\n        /* \"#utility.yul\":4005:4371   */\n      swap2\n      swap1\n      pop\n      jump\t// out\n        /* \"#utility.yul\":4377:4743   */\n    tag_164:\n        /* \"#utility.yul\":4519:4522   */\n      0x00\n        /* \"#utility.yul\":4540:4607   */\n      tag_166\n        /* \"#utility.yul\":4604:4606   */\n      0x1f\n        /* \"#utility.yul\":4599:4602   */\n      dup4\n        /* \"#utility.yul\":4540:4607   */\n      tag_161\n      jump\t// in\n    tag_166:\n        /* \"#utility.yul\":4533:4607   */\n      swap2\n      pop\n        /* \"#utility.yul\":4616:4709   */\n      tag_167\n        /* \"#utility.yul\":4705:4708   */\n      dup3\n        /* \"#utility.yul\":4616:4709   */\n      tag_168\n      jump\t// in\n    tag_167:\n        /* \"#utility.yul\":4734:4736   */\n      0x20\n        /* \"#utility.yul\":4729:4732   */\n      dup3\n        /* \"#utility.yul\":4725:4737   */\n      add\n        /* \"#utility.yul\":4718:4737   */\n      swap1\n      pop\n        /* \"#utility.yul\":4377:4743   */\n      swap2\n      swap1\n      pop\n      jump\t// out\n        /* \"#utility.yul\":4749:5151   */\n    tag_169:\n        /* \"#utility.yul\":4909:4912   */\n      0x00\n        /* \"#utility.yul\":4930:5015   */\n      tag_171\n        /* \"#utility.yul\":5012:5014   */\n      0x1c\n        /* \"#utility.yul\":5007:5010   */\n      dup4\n        /* \"#utility.yul\":4930:5015   */\n      tag_155\n      jump\t// in\n    tag_171:\n        /* \"#utility.yul\":4923:5015   */\n      swap2\n      pop\n        /* \"#utility.yul\":5024:5117   */\n      tag_172\n        /* \"#utility.yul\":5113:5116   */\n      dup3\n        /* \"#utility.yul\":5024:5117   */\n      tag_173\n      jump\t// in\n    tag_172:\n        /* \"#utility.yul\":5142:5144   */\n      0x1c\n        /* \"#utility.yul\":5137:5140   */\n      dup3\n        /* \"#utility.yul\":5133:5145   */\n      add\n        /* \"#utility.yul\":5126:5145   */\n      swap1\n      pop\n        /* \"#utility.yul\":4749:5151   */\n      swap2\n      swap1\n      pop\n      jump\t// out\n        /* \"#utility.yul\":5157:5523   */\n    tag_174:\n        /* \"#utility.yul\":5299:5302   */\n      0x00\n        /* \"#utility.yul\":5320:5387   */\n      tag_176\n        /* \"#utility.yul\":5384:5386   */\n      0x22\n        /* \"#utility.yul\":5379:5382   */\n      dup4\n        /* \"#utility.yul\":5320:5387   */\n      tag_161\n      jump\t// in\n    tag_176:\n        /* \"#utility.yul\":5313:5387   */\n      swap2\n      pop\n        /* \"#utility.yul\":5396:5489   */\n      tag_177\n        /* \"#utility.yul\":5485:5488   */\n      dup3\n        /* \"#utility.yul\":5396:5489   */\n      tag_178\n      jump\t// in\n    tag_177:\n        /* \"#utility.yul\":5514:5516   */\n      0x40\n        /* \"#utility.yul\":5509:5512   */\n      dup3\n        /* \"#utility.yul\":5505:5517   */\n      add\n        /* \"#utility.yul\":5498:5517   */\n      swap1\n      pop\n        /* \"#utility.yul\":5157:5523   */\n      swap2\n      swap1\n      pop\n      jump\t// out\n        /* \"#utility.yul\":5529:5641   */\n    tag_179:\n        /* \"#utility.yul\":5612:5634   */\n      tag_181\n        /* \"#utility.yul\":5628:5633   */\n      dup2\n        /* \"#utility.yul\":5612:5634   */\n      tag_182\n      jump\t// in\n    tag_181:\n        /* \"#utility.yul\":5607:5610   */\n      dup3\n        /* \"#utility.yul\":5600:5635   */\n      mstore\n        /* \"#utility.yul\":5529:5641   */\n      pop\n      pop\n      jump\t// out\n        /* \"#utility.yul\":5647:5922   */\n    tag_31:\n        /* \"#utility.yul\":5779:5782   */\n      0x00\n        /* \"#utility.yul\":5801:5896   */\n      tag_184\n        /* \"#utility.yul\":5892:5895   */\n      dup3\n        /* \"#utility.yul\":5883:5889   */\n      dup5\n        /* \"#utility.yul\":5801:5896   */\n      tag_150\n      jump\t// in\n    tag_184:\n        /* \"#utility.yul\":5794:5896   */\n      swap2\n      pop\n        /* \"#utility.yul\":5913:5916   */\n      dup2\n        /* \"#utility.yul\":5906:5916   */\n      swap1\n      pop\n        /* \"#utility.yul\":5647:5922   */\n      swap3\n      swap2\n      pop\n      pop\n      jump\t// out\n        /* \"#utility.yul\":5928:6450   */\n    tag_39:\n        /* \"#utility.yul\":6141:6144   */\n      0x00\n        /* \"#utility.yul\":6163:6311   */\n      tag_186\n        /* \"#utility.yul\":6307:6310   */\n      dup3\n        /* \"#utility.yul\":6163:6311   */\n      tag_169\n      jump\t// in\n    tag_186:\n        /* \"#utility.yul\":6156:6311   */\n      swap2\n      pop\n        /* \"#utility.yul\":6321:6396   */\n      tag_187\n        /* \"#utility.yul\":6392:6395   */\n      dup3\n        /* \"#utility.yul\":6383:6389   */\n      dup5\n        /* \"#utility.yul\":6321:6396   */\n      tag_145\n      jump\t// in\n    tag_187:\n        /* \"#utility.yul\":6421:6423   */\n      0x20\n        /* \"#utility.yul\":6416:6419   */\n      dup3\n        /* \"#utility.yul\":6412:6424   */\n      add\n        /* \"#utility.yul\":6405:6424   */\n      swap2\n      pop\n        /* \"#utility.yul\":6441:6444   */\n      dup2\n        /* \"#utility.yul\":6434:6444   */\n      swap1\n      pop\n        /* \"#utility.yul\":5928:6450   */\n      swap3\n      swap2\n      pop\n      pop\n      jump\t// out\n        /* \"#utility.yul\":6456:6678   */\n    tag_11:\n        /* \"#utility.yul\":6549:6553   */\n      0x00\n        /* \"#utility.yul\":6587:6589   */\n      0x20\n        /* \"#utility.yul\":6576:6585   */\n      dup3\n        /* \"#utility.yul\":6572:6590   */\n      add\n        /* \"#utility.yul\":6564:6590   */\n      swap1\n      pop\n        /* \"#utility.yul\":6600:6671   */\n      tag_189\n        /* \"#utility.yul\":6668:6669   */\n      0x00\n        /* \"#utility.yul\":6657:6666   */\n      dup4\n        /* \"#utility.yul\":6653:6670   */\n      add\n        /* \"#utility.yul\":6644:6650   */\n      dup5\n        /* \"#utility.yul\":6600:6671   */\n      tag_137\n      jump\t// in\n    tag_189:\n        /* \"#utility.yul\":6456:6678   */\n      swap3\n      swap2\n      pop\n      pop\n      jump\t// out\n        /* \"#utility.yul\":6684:6906   */\n    tag_17:\n        /* \"#utility.yul\":6777:6781   */\n      0x00\n        /* \"#utility.yul\":6815:6817   */\n      0x20\n        /* \"#utility.yul\":6804:6813   */\n      dup3\n        /* \"#utility.yul\":6800:6818   */\n      add\n        /* \"#utility.yul\":6792:6818   */\n      swap1\n      pop\n        /* \"#utility.yul\":6828:6899   */\n      tag_191\n        /* \"#utility.yul\":6896:6897   */\n      0x00\n        /* \"#utility.yul\":6885:6894   */\n      dup4\n        /* \"#utility.yul\":6881:6898   */\n      add\n        /* \"#utility.yul\":6872:6878   */\n      dup5\n        /* \"#utility.yul\":6828:6899   */\n      tag_141\n      jump\t// in\n    tag_191:\n        /* \"#utility.yul\":6684:6906   */\n      swap3\n      swap2\n      pop\n      pop\n      jump\t// out\n        /* \"#utility.yul\":6912:7457   */\n    tag_79:\n        /* \"#utility.yul\":7085:7089   */\n      0x00\n        /* \"#utility.yul\":7123:7126   */\n      0x80\n        /* \"#utility.yul\":7112:7121   */\n      dup3\n        /* \"#utility.yul\":7108:7127   */\n      add\n        /* \"#utility.yul\":7100:7127   */\n      swap1\n      pop\n        /* \"#utility.yul\":7137:7208   */\n      tag_193\n        /* \"#utility.yul\":7205:7206   */\n      0x00\n        /* \"#utility.yul\":7194:7203   */\n      dup4\n        /* \"#utility.yul\":7190:7207   */\n      add\n        /* \"#utility.yul\":7181:7187   */\n      dup8\n        /* \"#utility.yul\":7137:7208   */\n      tag_141\n      jump\t// in\n    tag_193:\n        /* \"#utility.yul\":7218:7286   */\n      tag_194\n        /* \"#utility.yul\":7282:7284   */\n      0x20\n        /* \"#utility.yul\":7271:7280   */\n      dup4\n        /* \"#utility.yul\":7267:7285   */\n      add\n        /* \"#utility.yul\":7258:7264   */\n      dup7\n        /* \"#utility.yul\":7218:7286   */\n      tag_179\n      jump\t// in\n    tag_194:\n        /* \"#utility.yul\":7296:7368   */\n      tag_195\n        /* \"#utility.yul\":7364:7366   */\n      0x40\n        /* \"#utility.yul\":7353:7362   */\n      dup4\n        /* \"#utility.yul\":7349:7367   */\n      add\n        /* \"#utility.yul\":7340:7346   */\n      dup6\n        /* \"#utility.yul\":7296:7368   */\n      tag_141\n      jump\t// in\n    tag_195:\n        /* \"#utility.yul\":7378:7450   */\n      tag_196\n        /* \"#utility.yul\":7446:7448   */\n      0x60\n        /* \"#utility.yul\":7435:7444   */\n      dup4\n        /* \"#utility.yul\":7431:7449   */\n      add\n        /* \"#utility.yul\":7422:7428   */\n      dup5\n        /* \"#utility.yul\":7378:7450   */\n      tag_141\n      jump\t// in\n    tag_196:\n        /* \"#utility.yul\":6912:7457   */\n      swap6\n      swap5\n      pop\n      pop\n      pop\n      pop\n      pop\n      jump\t// out\n        /* \"#utility.yul\":7463:7882   */\n    tag_59:\n        /* \"#utility.yul\":7629:7633   */\n      0x00\n        /* \"#utility.yul\":7667:7669   */\n      0x20\n        /* \"#utility.yul\":7656:7665   */\n      dup3\n        /* \"#utility.yul\":7652:7670   */\n      add\n        /* \"#utility.yul\":7644:7670   */\n      swap1\n      pop\n        /* \"#utility.yul\":7716:7725   */\n      dup2\n        /* \"#utility.yul\":7710:7714   */\n      dup2\n        /* \"#utility.yul\":7706:7726   */\n      sub\n        /* \"#utility.yul\":7702:7703   */\n      0x00\n        /* \"#utility.yul\":7691:7700   */\n      dup4\n        /* \"#utility.yul\":7687:7704   */\n      add\n        /* \"#utility.yul\":7680:7727   */\n      mstore\n        /* \"#utility.yul\":7744:7875   */\n      tag_198\n        /* \"#utility.yul\":7870:7874   */\n      dup2\n        /* \"#utility.yul\":7744:7875   */\n      tag_158\n      jump\t// in\n    tag_198:\n        /* \"#utility.yul\":7736:7875   */\n      swap1\n      pop\n        /* \"#utility.yul\":7463:7882   */\n      swap2\n      swap1\n      pop\n      jump\t// out\n        /* \"#utility.yul\":7888:8307   */\n    tag_67:\n        /* \"#utility.yul\":8054:8058   */\n      0x00\n        /* \"#utility.yul\":8092:8094   */\n      0x20\n        /* \"#utility.yul\":8081:8090   */\n      dup3\n        /* \"#utility.yul\":8077:8095   */\n      add\n        /* \"#utility.yul\":8069:8095   */\n      swap1\n      pop\n        /* \"#utility.yul\":8141:8150   */\n      dup2\n        /* \"#utility.yul\":8135:8139   */\n      dup2\n        /* \"#utility.yul\":8131:8151   */\n      sub\n        /* \"#utility.yul\":8127:8128   */\n      0x00\n        /* \"#utility.yul\":8116:8125   */\n      dup4\n        /* \"#utility.yul\":8112:8129   */\n      add\n        /* \"#utility.yul\":8105:8152   */\n      mstore\n        /* \"#utility.yul\":8169:8300   */\n      tag_200\n        /* \"#utility.yul\":8295:8299   */\n      dup2\n        /* \"#utility.yul\":8169:8300   */\n      tag_164\n      jump\t// in\n    tag_200:\n        /* \"#utility.yul\":8161:8300   */\n      swap1\n      pop\n        /* \"#utility.yul\":7888:8307   */\n      swap2\n      swap1\n      pop\n      jump\t// out\n        /* \"#utility.yul\":8313:8732   */\n    tag_75:\n        /* \"#utility.yul\":8479:8483   */\n      0x00\n        /* \"#utility.yul\":8517:8519   */\n      0x20\n        /* \"#utility.yul\":8506:8515   */\n      dup3\n        /* \"#utility.yul\":8502:8520   */\n      add\n        /* \"#utility.yul\":8494:8520   */\n      swap1\n      pop\n        /* \"#utility.yul\":8566:8575   */\n      dup2\n        /* \"#utility.yul\":8560:8564   */\n      dup2\n        /* \"#utility.yul\":8556:8576   */\n      sub\n        /* \"#utility.yul\":8552:8553   */\n      0x00\n        /* \"#utility.yul\":8541:8550   */\n      dup4\n        /* \"#utility.yul\":8537:8554   */\n      add\n        /* \"#utility.yul\":8530:8577   */\n      mstore\n        /* \"#utility.yul\":8594:8725   */\n      tag_202\n        /* \"#utility.yul\":8720:8724   */\n      dup2\n        /* \"#utility.yul\":8594:8725   */\n      tag_174\n      jump\t// in\n    tag_202:\n        /* \"#utility.yul\":8586:8725   */\n      swap1\n      pop\n        /* \"#utility.yul\":8313:8732   */\n      swap2\n      swap1\n      pop\n      jump\t// out\n        /* \"#utility.yul\":8738:8867   */\n    tag_89:\n        /* \"#utility.yul\":8772:8778   */\n      0x00\n        /* \"#utility.yul\":8799:8819   */\n      tag_204\n      tag_205\n      jump\t// in\n    tag_204:\n        /* \"#utility.yul\":8789:8819   */\n      swap1\n      pop\n        /* \"#utility.yul\":8828:8861   */\n      tag_206\n        /* \"#utility.yul\":8856:8860   */\n      dup3\n        /* \"#utility.yul\":8848:8854   */\n      dup3\n        /* \"#utility.yul\":8828:8861   */\n      tag_207\n      jump\t// in\n    tag_206:\n        /* \"#utility.yul\":8738:8867   */\n      swap2\n      swap1\n      pop\n      jump\t// out\n        /* \"#utility.yul\":8873:8948   */\n    tag_205:\n        /* \"#utility.yul\":8906:8912   */\n      0x00\n        /* \"#utility.yul\":8939:8941   */\n      0x40\n        /* \"#utility.yul\":8933:8942   */\n      mload\n        /* \"#utility.yul\":8923:8942   */\n      swap1\n      pop\n        /* \"#utility.yul\":8873:8948   */\n      swap1\n      jump\t// out\n        /* \"#utility.yul\":8954:9261   */\n    tag_88:\n        /* \"#utility.yul\":9015:9019   */\n      0x00\n        /* \"#utility.yul\":9105:9123   */\n      0xffffffffffffffff\n        /* \"#utility.yul\":9097:9103   */\n      dup3\n        /* \"#utility.yul\":9094:9124   */\n      gt\n        /* \"#utility.yul\":9091:9147   */\n      iszero\n      tag_210\n      jumpi\n        /* \"#utility.yul\":9127:9145   */\n      tag_211\n      tag_212\n      jump\t// in\n    tag_211:\n        /* \"#utility.yul\":9091:9147   */\n    tag_210:\n        /* \"#utility.yul\":9165:9194   */\n      tag_213\n        /* \"#utility.yul\":9187:9193   */\n      dup3\n        /* \"#utility.yul\":9165:9194   */\n      tag_214\n      jump\t// in\n    tag_213:\n        /* \"#utility.yul\":9157:9194   */\n      swap1\n      pop\n        /* \"#utility.yul\":9249:9253   */\n      0x20\n        /* \"#utility.yul\":9243:9247   */\n      dup2\n        /* \"#utility.yul\":9239:9254   */\n      add\n        /* \"#utility.yul\":9231:9254   */\n      swap1\n      pop\n        /* \"#utility.yul\":8954:9261   */\n      swap2\n      swap1\n      pop\n      jump\t// out\n        /* \"#utility.yul\":9267:9575   */\n    tag_99:\n        /* \"#utility.yul\":9329:9333   */\n      0x00\n        /* \"#utility.yul\":9419:9437   */\n      0xffffffffffffffff\n        /* \"#utility.yul\":9411:9417   */\n      dup3\n        /* \"#utility.yul\":9408:9438   */\n      gt\n        /* \"#utility.yul\":9405:9461   */\n      iszero\n      tag_216\n      jumpi\n        /* \"#utility.yul\":9441:9459   */\n      tag_217\n      tag_212\n      jump\t// in\n    tag_217:\n        /* \"#utility.yul\":9405:9461   */\n    tag_216:\n        /* \"#utility.yul\":9479:9508   */\n      tag_218\n        /* \"#utility.yul\":9501:9507   */\n      dup3\n        /* \"#utility.yul\":9479:9508   */\n      tag_214\n      jump\t// in\n    tag_218:\n        /* \"#utility.yul\":9471:9508   */\n      swap1\n      pop\n        /* \"#utility.yul\":9563:9567   */\n      0x20\n        /* \"#utility.yul\":9557:9561   */\n      dup2\n        /* \"#utility.yul\":9553:9568   */\n      add\n        /* \"#utility.yul\":9545:9568   */\n      swap1\n      pop\n        /* \"#utility.yul\":9267:9575   */\n      swap2\n      swap1\n      pop\n      jump\t// out\n        /* \"#utility.yul\":9581:9680   */\n    tag_153:\n        /* \"#utility.yul\":9633:9639   */\n      0x00\n        /* \"#utility.yul\":9667:9672   */\n      dup2\n        /* \"#utility.yul\":9661:9673   */\n      mload\n        /* \"#utility.yul\":9651:9673   */\n      swap1\n      pop\n        /* \"#utility.yul\":9581:9680   */\n      swap2\n      swap1\n      pop\n      jump\t// out\n        /* \"#utility.yul\":9686:9855   */\n    tag_161:\n        /* \"#utility.yul\":9770:9781   */\n      0x00\n        /* \"#utility.yul\":9804:9810   */\n      dup3\n        /* \"#utility.yul\":9799:9802   */\n      dup3\n        /* \"#utility.yul\":9792:9811   */\n      mstore\n        /* \"#utility.yul\":9844:9848   */\n      0x20\n        /* \"#utility.yul\":9839:9842   */\n      dup3\n        /* \"#utility.yul\":9835:9849   */\n      add\n        /* \"#utility.yul\":9820:9849   */\n      swap1\n      pop\n        /* \"#utility.yul\":9686:9855   */\n      swap3\n      swap2\n      pop\n      pop\n      jump\t// out\n        /* \"#utility.yul\":9861:10009   */\n    tag_155:\n        /* \"#utility.yul\":9963:9974   */\n      0x00\n        /* \"#utility.yul\":10000:10003   */\n      dup2\n        /* \"#utility.yul\":9985:10003   */\n      swap1\n      pop\n        /* \"#utility.yul\":9861:10009   */\n      swap3\n      swap2\n      pop\n      pop\n      jump\t// out\n        /* \"#utility.yul\":10015:10111   */\n    tag_140:\n        /* \"#utility.yul\":10052:10059   */\n      0x00\n        /* \"#utility.yul\":10081:10105   */\n      tag_223\n        /* \"#utility.yul\":10099:10104   */\n      dup3\n        /* \"#utility.yul\":10081:10105   */\n      tag_224\n      jump\t// in\n    tag_223:\n        /* \"#utility.yul\":10070:10105   */\n      swap1\n      pop\n        /* \"#utility.yul\":10015:10111   */\n      swap2\n      swap1\n      pop\n      jump\t// out\n        /* \"#utility.yul\":10117:10194   */\n    tag_144:\n        /* \"#utility.yul\":10154:10161   */\n      0x00\n        /* \"#utility.yul\":10183:10188   */\n      dup2\n        /* \"#utility.yul\":10172:10188   */\n      swap1\n      pop\n        /* \"#utility.yul\":10117:10194   */\n      swap2\n      swap1\n      pop\n      jump\t// out\n        /* \"#utility.yul\":10200:10326   */\n    tag_224:\n        /* \"#utility.yul\":10237:10244   */\n      0x00\n        /* \"#utility.yul\":10277:10319   */\n      0xffffffffffffffffffffffffffffffffffffffff\n        /* \"#utility.yul\":10270:10275   */\n      dup3\n        /* \"#utility.yul\":10266:10320   */\n      and\n        /* \"#utility.yul\":10255:10320   */\n      swap1\n      pop\n        /* \"#utility.yul\":10200:10326   */\n      swap2\n      swap1\n      pop\n      jump\t// out\n        /* \"#utility.yul\":10332:10418   */\n    tag_182:\n        /* \"#utility.yul\":10367:10374   */\n      0x00\n        /* \"#utility.yul\":10407:10411   */\n      0xff\n        /* \"#utility.yul\":10400:10405   */\n      dup3\n        /* \"#utility.yul\":10396:10412   */\n      and\n        /* \"#utility.yul\":10385:10412   */\n      swap1\n      pop\n        /* \"#utility.yul\":10332:10418   */\n      swap2\n      swap1\n      pop\n      jump\t// out\n        /* \"#utility.yul\":10424:10578   */\n    tag_94:\n        /* \"#utility.yul\":10508:10514   */\n      dup3\n        /* \"#utility.yul\":10503:10506   */\n      dup2\n        /* \"#utility.yul\":10498:10501   */\n      dup4\n        /* \"#utility.yul\":10485:10515   */\n      calldatacopy\n        /* \"#utility.yul\":10570:10571   */\n      0x00\n        /* \"#utility.yul\":10561:10567   */\n      dup4\n        /* \"#utility.yul\":10556:10559   */\n      dup4\n        /* \"#utility.yul\":10552:10568   */\n      add\n        /* \"#utility.yul\":10545:10572   */\n      mstore\n        /* \"#utility.yul\":10424:10578   */\n      pop\n      pop\n      pop\n      jump\t// out\n        /* \"#utility.yul\":10584:10891   */\n    tag_157:\n        /* \"#utility.yul\":10652:10653   */\n      0x00\n        /* \"#utility.yul\":10662:10775   */\n    tag_230:\n        /* \"#utility.yul\":10676:10682   */\n      dup4\n        /* \"#utility.yul\":10673:10674   */\n      dup2\n        /* \"#utility.yul\":10670:10683   */\n      lt\n        /* \"#utility.yul\":10662:10775   */\n      iszero\n      tag_232\n      jumpi\n        /* \"#utility.yul\":10761:10762   */\n      dup1\n        /* \"#utility.yul\":10756:10759   */\n      dup3\n        /* \"#utility.yul\":10752:10763   */\n      add\n        /* \"#utility.yul\":10746:10764   */\n      mload\n        /* \"#utility.yul\":10742:10743   */\n      dup2\n        /* \"#utility.yul\":10737:10740   */\n      dup5\n        /* \"#utility.yul\":10733:10744   */\n      add\n        /* \"#utility.yul\":10726:10765   */\n      mstore\n        /* \"#utility.yul\":10698:10700   */\n      0x20\n        /* \"#utility.yul\":10695:10696   */\n      dup2\n        /* \"#utility.yul\":10691:10701   */\n      add\n        /* \"#utility.yul\":10686:10701   */\n      swap1\n      pop\n        /* \"#utility.yul\":10662:10775   */\n      jump(tag_230)\n    tag_232:\n        /* \"#utility.yul\":10793:10799   */\n      dup4\n        /* \"#utility.yul\":10790:10791   */\n      dup2\n        /* \"#utility.yul\":10787:10800   */\n      gt\n        /* \"#utility.yul\":10784:10885   */\n      iszero\n      tag_233\n      jumpi\n        /* \"#utility.yul\":10873:10874   */\n      0x00\n        /* \"#utility.yul\":10864:10870   */\n      dup5\n        /* \"#utility.yul\":10859:10862   */\n      dup5\n        /* \"#utility.yul\":10855:10871   */\n      add\n        /* \"#utility.yul\":10848:10875   */\n      mstore\n        /* \"#utility.yul\":10784:10885   */\n    tag_233:\n        /* \"#utility.yul\":10633:10891   */\n      pop\n        /* \"#utility.yul\":10584:10891   */\n      pop\n      pop\n      pop\n      jump\t// out\n        /* \"#utility.yul\":10897:11178   */\n    tag_207:\n        /* \"#utility.yul\":10980:11007   */\n      tag_235\n        /* \"#utility.yul\":11002:11006   */\n      dup3\n        /* \"#utility.yul\":10980:11007   */\n      tag_214\n      jump\t// in\n    tag_235:\n        /* \"#utility.yul\":10972:10978   */\n      dup2\n        /* \"#utility.yul\":10968:11008   */\n      add\n        /* \"#utility.yul\":11110:11116   */\n      dup2\n        /* \"#utility.yul\":11098:11108   */\n      dup2\n        /* \"#utility.yul\":11095:11117   */\n      lt\n        /* \"#utility.yul\":11074:11092   */\n      0xffffffffffffffff\n        /* \"#utility.yul\":11062:11072   */\n      dup3\n        /* \"#utility.yul\":11059:11093   */\n      gt\n        /* \"#utility.yul\":11056:11118   */\n      or\n        /* \"#utility.yul\":11053:11141   */\n      iszero\n      tag_236\n      jumpi\n        /* \"#utility.yul\":11121:11139   */\n      tag_237\n      tag_212\n      jump\t// in\n    tag_237:\n        /* \"#utility.yul\":11053:11141   */\n    tag_236:\n        /* \"#utility.yul\":11161:11171   */\n      dup1\n        /* \"#utility.yul\":11157:11159   */\n      0x40\n        /* \"#utility.yul\":11150:11172   */\n      mstore\n        /* \"#utility.yul\":10940:11178   */\n      pop\n        /* \"#utility.yul\":10897:11178   */\n      pop\n      pop\n      jump\t// out\n        /* \"#utility.yul\":11184:11263   */\n    tag_149:\n        /* \"#utility.yul\":11223:11230   */\n      0x00\n        /* \"#utility.yul\":11252:11257   */\n      dup2\n        /* \"#utility.yul\":11241:11257   */\n      swap1\n      pop\n        /* \"#utility.yul\":11184:11263   */\n      swap2\n      swap1\n      pop\n      jump\t// out\n        /* \"#utility.yul\":11269:11449   */\n    tag_48:\n        /* \"#utility.yul\":11317:11394   */\n      0x4e487b7100000000000000000000000000000000000000000000000000000000\n        /* \"#utility.yul\":11314:11315   */\n      0x00\n        /* \"#utility.yul\":11307:11395   */\n      mstore\n        /* \"#utility.yul\":11414:11418   */\n      0x21\n        /* \"#utility.yul\":11411:11412   */\n      0x04\n        /* \"#utility.yul\":11404:11419   */\n      mstore\n        /* \"#utility.yul\":11438:11442   */\n      0x24\n        /* \"#utility.yul\":11435:11436   */\n      0x00\n        /* \"#utility.yul\":11428:11443   */\n      revert\n        /* \"#utility.yul\":11455:11635   */\n    tag_212:\n        /* \"#utility.yul\":11503:11580   */\n      0x4e487b7100000000000000000000000000000000000000000000000000000000\n        /* \"#utility.yul\":11500:11501   */\n      0x00\n        /* \"#utility.yul\":11493:11581   */\n      mstore\n        /* \"#utility.yul\":11600:11604   */\n      0x41\n        /* \"#utility.yul\":11597:11598   */\n      0x04\n        /* \"#utility.yul\":11590:11605   */\n      mstore\n        /* \"#utility.yul\":11624:11628   */\n      0x24\n        /* \"#utility.yul\":11621:11622   */\n      0x00\n        /* \"#utility.yul\":11614:11629   */\n      revert\n        /* \"#utility.yul\":11641:11758   */\n    tag_111:\n        /* \"#utility.yul\":11750:11751   */\n      0x00\n        /* \"#utility.yul\":11747:11748   */\n      dup1\n        /* \"#utility.yul\":11740:11752   */\n      revert\n        /* \"#utility.yul\":11764:11881   */\n    tag_92:\n        /* \"#utility.yul\":11873:11874   */\n      0x00\n        /* \"#utility.yul\":11870:11871   */\n      dup1\n        /* \"#utility.yul\":11863:11875   */\n      revert\n        /* \"#utility.yul\":11887:12004   */\n    tag_129:\n        /* \"#utility.yul\":11996:11997   */\n      0x00\n        /* \"#utility.yul\":11993:11994   */\n      dup1\n        /* \"#utility.yul\":11986:11998   */\n      revert\n        /* \"#utility.yul\":12010:12127   */\n    tag_121:\n        /* \"#utility.yul\":12119:12120   */\n      0x00\n        /* \"#utility.yul\":12116:12117   */\n      dup1\n        /* \"#utility.yul\":12109:12121   */\n      revert\n        /* \"#utility.yul\":12133:12235   */\n    tag_214:\n        /* \"#utility.yul\":12174:12180   */\n      0x00\n        /* \"#utility.yul\":12225:12227   */\n      0x1f\n        /* \"#utility.yul\":12221:12228   */\n      not\n        /* \"#utility.yul\":12216:12218   */\n      0x1f\n        /* \"#utility.yul\":12209:12214   */\n      dup4\n        /* \"#utility.yul\":12205:12219   */\n      add\n        /* \"#utility.yul\":12201:12229   */\n      and\n        /* \"#utility.yul\":12191:12229   */\n      swap1\n      pop\n        /* \"#utility.yul\":12133:12235   */\n      swap2\n      swap1\n      pop\n      jump\t// out\n        /* \"#utility.yul\":12241:12415   */\n    tag_163:\n        /* \"#utility.yul\":12381:12407   */\n      0x45434453413a20696e76616c6964207369676e61747572650000000000000000\n        /* \"#utility.yul\":12377:12378   */\n      0x00\n        /* \"#utility.yul\":12369:12375   */\n      dup3\n        /* \"#utility.yul\":12365:12379   */\n      add\n        /* \"#utility.yul\":12358:12408   */\n      mstore\n        /* \"#utility.yul\":12241:12415   */\n      pop\n      jump\t// out\n        /* \"#utility.yul\":12421:12602   */\n    tag_168:\n        /* \"#utility.yul\":12561:12594   */\n      0x45434453413a20696e76616c6964207369676e6174757265206c656e67746800\n        /* \"#utility.yul\":12557:12558   */\n      0x00\n        /* \"#utility.yul\":12549:12555   */\n      dup3\n        /* \"#utility.yul\":12545:12559   */\n      add\n        /* \"#utility.yul\":12538:12595   */\n      mstore\n        /* \"#utility.yul\":12421:12602   */\n      pop\n      jump\t// out\n        /* \"#utility.yul\":12608:12822   */\n    tag_173:\n        /* \"#utility.yul\":12748:12814   */\n      0x19457468657265756d205369676e6564204d6573736167653a0a333200000000\n        /* \"#utility.yul\":12744:12745   */\n      0x00\n        /* \"#utility.yul\":12736:12742   */\n      dup3\n        /* \"#utility.yul\":12732:12746   */\n      add\n        /* \"#utility.yul\":12725:12815   */\n      mstore\n        /* \"#utility.yul\":12608:12822   */\n      pop\n      jump\t// out\n        /* \"#utility.yul\":12828:13049   */\n    tag_178:\n        /* \"#utility.yul\":12968:13002   */\n      0x45434453413a20696e76616c6964207369676e6174757265202773272076616c\n        /* \"#utility.yul\":12964:12965   */\n      0x00\n        /* \"#utility.yul\":12956:12962   */\n      dup3\n        /* \"#utility.yul\":12952:12966   */\n      add\n        /* \"#utility.yul\":12945:13003   */\n      mstore\n        /* \"#utility.yul\":13037:13041   */\n      0x7565000000000000000000000000000000000000000000000000000000000000\n        /* \"#utility.yul\":13032:13034   */\n      0x20\n        /* \"#utility.yul\":13024:13030   */\n      dup3\n        /* \"#utility.yul\":13020:13035   */\n      add\n        /* \"#utility.yul\":13013:13042   */\n      mstore\n        /* \"#utility.yul\":12828:13049   */\n      pop\n      jump\t// out\n        /* \"#utility.yul\":13055:13177   */\n    tag_106:\n        /* \"#utility.yul\":13128:13152   */\n      tag_251\n        /* \"#utility.yul\":13146:13151   */\n      dup2\n        /* \"#utility.yul\":13128:13152   */\n      tag_144\n      jump\t// in\n    tag_251:\n        /* \"#utility.yul\":13121:13126   */\n      dup2\n        /* \"#utility.yul\":13118:13153   */\n      eq\n        /* \"#utility.yul\":13108:13171   */\n      tag_252\n      jumpi\n        /* \"#utility.yul\":13167:13168   */\n      0x00\n        /* \"#utility.yul\":13164:13165   */\n      dup1\n        /* \"#utility.yul\":13157:13169   */\n      revert\n        /* \"#utility.yul\":13108:13171   */\n    tag_252:\n        /* \"#utility.yul\":13055:13177   */\n      pop\n      jump\t// out\n\n    auxdata: 0xa26469706673582212205d253a431d59ed307b7540bec30ee3cfe300da8adc89b5e94eb7c6fa0b8fef9464736f6c63430008070033\n}\n",
				"bytecode": {
					"linkReferences": {},
					"object": "608060405234801561001057600080fd5b50610b14806100206000396000f3fe608060405234801561001057600080fd5b50600436106100415760003560e01c80637c9f212314610046578063a3391c9314610076578063c22ac3ec146100a6575b600080fd5b610060600480360381019061005b9190610548565b6100d6565b60405161006d919061072b565b60405180910390f35b610090600480360381019061008b919061051b565b6100ea565b60405161009d9190610746565b60405180910390f35b6100c060048036038101906100bb91906105a4565b6100fc565b6040516100cd9190610746565b60405180910390f35b60006100e2838361012c565b905092915050565b60006100f582610153565b9050919050565b60008160405160200161010f91906106ee565b604051602081830303815290604052805190602001209050919050565b600080600061013b8585610183565b91509150610148816101d5565b819250505092915050565b6000816040516020016101669190610705565b604051602081830303815290604052805190602001209050919050565b6000806041835114156101c55760008060006020860151925060408601519150606086015160001a90506101b987828585610343565b945094505050506101ce565b60006002915091505b9250929050565b600060048111156101e9576101e861097a565b5b8160048111156101fc576101fb61097a565b5b141561020757610340565b6001600481111561021b5761021a61097a565b5b81600481111561022e5761022d61097a565b5b141561026f576040517f08c379a0000000000000000000000000000000000000000000000000000000008152600401610266906107a6565b60405180910390fd5b600260048111156102835761028261097a565b5b8160048111156102965761029561097a565b5b14156102d7576040517f08c379a00000000000000000000000000000000000000000000000000000000081526004016102ce906107c6565b60405180910390fd5b600360048111156102eb576102ea61097a565b5b8160048111156102fe576102fd61097a565b5b141561033f576040517f08c379a0000000000000000000000000000000000000000000000000000000008152600401610336906107e6565b60405180910390fd5b5b50565b6000807f7fffffffffffffffffffffffffffffff5d576e7357a4501ddfe92f46681b20a08360001c111561037e57600060039150915061041d565b6000600187878787604051600081526020016040526040516103a39493929190610761565b6020604051602081039080840390855afa1580156103c5573d6000803e3d6000fd5b505050602060405103519050600073ffffffffffffffffffffffffffffffffffffffff168173ffffffffffffffffffffffffffffffffffffffff1614156104145760006001925092505061041d565b80600092509250505b94509492505050565b60006104396104348461082b565b610806565b905082815260208101848484011115610455576104546109dd565b5b6104608482856108fd565b509392505050565b600061047b6104768461085c565b610806565b905082815260208101848484011115610497576104966109dd565b5b6104a28482856108fd565b509392505050565b6000813590506104b981610ac7565b92915050565b600082601f8301126104d4576104d36109d8565b5b81356104e4848260208601610426565b91505092915050565b600082601f830112610502576105016109d8565b5b8135610512848260208601610468565b91505092915050565b600060208284031215610531576105306109e7565b5b600061053f848285016104aa565b91505092915050565b6000806040838503121561055f5761055e6109e7565b5b600061056d858286016104aa565b925050602083013567ffffffffffffffff81111561058e5761058d6109e2565b5b61059a858286016104bf565b9150509250929050565b6000602082840312156105ba576105b96109e7565b5b600082013567ffffffffffffffff8111156105d8576105d76109e2565b5b6105e4848285016104ed565b91505092915050565b6105f6816108b4565b82525050565b610605816108c6565b82525050565b61061c610617826108c6565b610970565b82525050565b600061062d8261088d565b61063781856108a9565b935061064781856020860161090c565b80840191505092915050565b6000610660601883610898565b915061066b826109fd565b602082019050919050565b6000610683601f83610898565b915061068e82610a26565b602082019050919050565b60006106a6601c836108a9565b91506106b182610a4f565b601c82019050919050565b60006106c9602283610898565b91506106d482610a78565b604082019050919050565b6106e8816108f0565b82525050565b60006106fa8284610622565b915081905092915050565b600061071082610699565b915061071c828461060b565b60208201915081905092915050565b600060208201905061074060008301846105ed565b92915050565b600060208201905061075b60008301846105fc565b92915050565b600060808201905061077660008301876105fc565b61078360208301866106df565b61079060408301856105fc565b61079d60608301846105fc565b95945050505050565b600060208201905081810360008301526107bf81610653565b9050919050565b600060208201905081810360008301526107df81610676565b9050919050565b600060208201905081810360008301526107ff816106bc565b9050919050565b6000610810610821565b905061081c828261093f565b919050565b6000604051905090565b600067ffffffffffffffff821115610846576108456109a9565b5b61084f826109ec565b9050602081019050919050565b600067ffffffffffffffff821115610877576108766109a9565b5b610880826109ec565b9050602081019050919050565b600081519050919050565b600082825260208201905092915050565b600081905092915050565b60006108bf826108d0565b9050919050565b6000819050919050565b600073ffffffffffffffffffffffffffffffffffffffff82169050919050565b600060ff82169050919050565b82818337600083830152505050565b60005b8381101561092a57808201518184015260208101905061090f565b83811115610939576000848401525b50505050565b610948826109ec565b810181811067ffffffffffffffff82111715610967576109666109a9565b5b80604052505050565b6000819050919050565b7f4e487b7100000000000000000000000000000000000000000000000000000000600052602160045260246000fd5b7f4e487b7100000000000000000000000000000000000000000000000000000000600052604160045260246000fd5b600080fd5b600080fd5b600080fd5b600080fd5b6000601f19601f8301169050919050565b7f45434453413a20696e76616c6964207369676e61747572650000000000000000600082015250565b7f45434453413a20696e76616c6964207369676e6174757265206c656e67746800600082015250565b7f19457468657265756d205369676e6564204d6573736167653a0a333200000000600082015250565b7f45434453413a20696e76616c6964207369676e6174757265202773272076616c60008201527f7565000000000000000000000000000000000000000000000000000000000000602082015250565b610ad0816108c6565b8114610adb57600080fd5b5056fea26469706673582212205d253a431d59ed307b7540bec30ee3cfe300da8adc89b5e94eb7c6fa0b8fef9464736f6c63430008070033",
					"opcodes": "PUSH1 0x80 PUSH1 0x40 MSTORE CALLVALUE DUP1 ISZERO PUSH2 0x10 JUMPI PUSH1 0x0 DUP1 REVERT JUMPDEST POP PUSH2 0xB14 DUP1 PUSH2 0x20 PUSH1 0x0 CODECOPY PUSH1 0x0 RETURN INVALID PUSH1 0x80 PUSH1 0x40 MSTORE CALLVALUE DUP1 ISZERO PUSH2 0x10 JUMPI PUSH1 0x0 DUP1 REVERT JUMPDEST POP PUSH1 0x4 CALLDATASIZE LT PUSH2 0x41 JUMPI PUSH1 0x0 CALLDATALOAD PUSH1 0xE0 SHR DUP1 PUSH4 0x7C9F2123 EQ PUSH2 0x46 JUMPI DUP1 PUSH4 0xA3391C93 EQ PUSH2 0x76 JUMPI DUP1 PUSH4 0xC22AC3EC EQ PUSH2 0xA6 JUMPI JUMPDEST PUSH1 0x0 DUP1 REVERT JUMPDEST PUSH2 0x60 PUSH1 0x4 DUP1 CALLDATASIZE SUB DUP2 ADD SWAP1 PUSH2 0x5B SWAP2 SWAP1 PUSH2 0x548 JUMP JUMPDEST PUSH2 0xD6 JUMP JUMPDEST PUSH1 0x40 MLOAD PUSH2 0x6D SWAP2 SWAP1 PUSH2 0x72B JUMP JUMPDEST PUSH1 0x40 MLOAD DUP1 SWAP2 SUB SWAP1 RETURN JUMPDEST PUSH2 0x90 PUSH1 0x4 DUP1 CALLDATASIZE SUB DUP2 ADD SWAP1 PUSH2 0x8B SWAP2 SWAP1 PUSH2 0x51B JUMP JUMPDEST PUSH2 0xEA JUMP JUMPDEST PUSH1 0x40 MLOAD PUSH2 0x9D SWAP2 SWAP1 PUSH2 0x746 JUMP JUMPDEST PUSH1 0x40 MLOAD DUP1 SWAP2 SUB SWAP1 RETURN JUMPDEST PUSH2 0xC0 PUSH1 0x4 DUP1 CALLDATASIZE SUB DUP2 ADD SWAP1 PUSH2 0xBB SWAP2 SWAP1 PUSH2 0x5A4 JUMP JUMPDEST PUSH2 0xFC JUMP JUMPDEST PUSH1 0x40 MLOAD PUSH2 0xCD SWAP2 SWAP1 PUSH2 0x746 JUMP JUMPDEST PUSH1 0x40 MLOAD DUP1 SWAP2 SUB SWAP1 RETURN JUMPDEST PUSH1 0x0 PUSH2 0xE2 DUP4 DUP4 PUSH2 0x12C JUMP JUMPDEST SWAP1 POP SWAP3 SWAP2 POP POP JUMP JUMPDEST PUSH1 0x0 PUSH2 0xF5 DUP3 PUSH2 0x153 JUMP JUMPDEST SWAP1 POP SWAP2 SWAP1 POP JUMP JUMPDEST PUSH1 0x0 DUP2 PUSH1 0x40 MLOAD PUSH1 0x20 ADD PUSH2 0x10F SWAP2 SWAP1 PUSH2 0x6EE JUMP JUMPDEST PUSH1 0x40 MLOAD PUSH1 0x20 DUP2 DUP4 SUB SUB DUP2 MSTORE SWAP1 PUSH1 0x40 MSTORE DUP1 MLOAD SWAP1 PUSH1 0x20 ADD KECCAK256 SWAP1 POP SWAP2 SWAP1 POP JUMP JUMPDEST PUSH1 0x0 DUP1 PUSH1 0x0 PUSH2 0x13B DUP6 DUP6 PUSH2 0x183 JUMP JUMPDEST SWAP2 POP SWAP2 POP PUSH2 0x148 DUP2 PUSH2 0x1D5 JUMP JUMPDEST DUP2 SWAP3 POP POP POP SWAP3 SWAP2 POP POP JUMP JUMPDEST PUSH1 0x0 DUP2 PUSH1 0x40 MLOAD PUSH1 0x20 ADD PUSH2 0x166 SWAP2 SWAP1 PUSH2 0x705 JUMP JUMPDEST PUSH1 0x40 MLOAD PUSH1 0x20 DUP2 DUP4 SUB SUB DUP2 MSTORE SWAP1 PUSH1 0x40 MSTORE DUP1 MLOAD SWAP1 PUSH1 0x20 ADD KECCAK256 SWAP1 POP SWAP2 SWAP1 POP JUMP JUMPDEST PUSH1 0x0 DUP1 PUSH1 0x41 DUP4 MLOAD EQ ISZERO PUSH2 0x1C5 JUMPI PUSH1 0x0 DUP1 PUSH1 0x0 PUSH1 0x20 DUP7 ADD MLOAD SWAP3 POP PUSH1 0x40 DUP7 ADD MLOAD SWAP2 POP PUSH1 0x60 DUP7 ADD MLOAD PUSH1 0x0 BYTE SWAP1 POP PUSH2 0x1B9 DUP8 DUP3 DUP6 DUP6 PUSH2 0x343 JUMP JUMPDEST SWAP5 POP SWAP5 POP POP POP POP PUSH2 0x1CE JUMP JUMPDEST PUSH1 0x0 PUSH1 0x2 SWAP2 POP SWAP2 POP JUMPDEST SWAP3 POP SWAP3 SWAP1 POP JUMP JUMPDEST PUSH1 0x0 PUSH1 0x4 DUP2 GT ISZERO PUSH2 0x1E9 JUMPI PUSH2 0x1E8 PUSH2 0x97A JUMP JUMPDEST JUMPDEST DUP2 PUSH1 0x4 DUP2 GT ISZERO PUSH2 0x1FC JUMPI PUSH2 0x1FB PUSH2 0x97A JUMP JUMPDEST JUMPDEST EQ ISZERO PUSH2 0x207 JUMPI PUSH2 0x340 JUMP JUMPDEST PUSH1 0x1 PUSH1 0x4 DUP2 GT ISZERO PUSH2 0x21B JUMPI PUSH2 0x21A PUSH2 0x97A JUMP JUMPDEST JUMPDEST DUP2 PUSH1 0x4 DUP2 GT ISZERO PUSH2 0x22E JUMPI PUSH2 0x22D PUSH2 0x97A JUMP JUMPDEST JUMPDEST EQ ISZERO PUSH2 0x26F JUMPI PUSH1 0x40 MLOAD PUSH32 0x8C379A000000000000000000000000000000000000000000000000000000000 DUP2 MSTORE PUSH1 0x4 ADD PUSH2 0x266 SWAP1 PUSH2 0x7A6 JUMP JUMPDEST PUSH1 0x40 MLOAD DUP1 SWAP2 SUB SWAP1 REVERT JUMPDEST PUSH1 0x2 PUSH1 0x4 DUP2 GT ISZERO PUSH2 0x283 JUMPI PUSH2 0x282 PUSH2 0x97A JUMP JUMPDEST JUMPDEST DUP2 PUSH1 0x4 DUP2 GT ISZERO PUSH2 0x296 JUMPI PUSH2 0x295 PUSH2 0x97A JUMP JUMPDEST JUMPDEST EQ ISZERO PUSH2 0x2D7 JUMPI PUSH1 0x40 MLOAD PUSH32 0x8C379A000000000000000000000000000000000000000000000000000000000 DUP2 MSTORE PUSH1 0x4 ADD PUSH2 0x2CE SWAP1 PUSH2 0x7C6 JUMP JUMPDEST PUSH1 0x40 MLOAD DUP1 SWAP2 SUB SWAP1 REVERT JUMPDEST PUSH1 0x3 PUSH1 0x4 DUP2 GT ISZERO PUSH2 0x2EB JUMPI PUSH2 0x2EA PUSH2 0x97A JUMP JUMPDEST JUMPDEST DUP2 PUSH1 0x4 DUP2 GT ISZERO PUSH2 0x2FE JUMPI PUSH2 0x2FD PUSH2 0x97A JUMP JUMPDEST JUMPDEST EQ ISZERO PUSH2 0x33F JUMPI PUSH1 0x40 MLOAD PUSH32 0x8C379A000000000000000000000000000000000000000000000000000000000 DUP2 MSTORE PUSH1 0x4 ADD PUSH2 0x336 SWAP1 PUSH2 0x7E6 JUMP JUMPDEST PUSH1 0x40 MLOAD DUP1 SWAP2 SUB SWAP1 REVERT JUMPDEST JUMPDEST POP JUMP JUMPDEST PUSH1 0x0 DUP1 PUSH32 0x7FFFFFFFFFFFFFFFFFFFFFFFFFFFFFFF5D576E7357A4501DDFE92F46681B20A0 DUP4 PUSH1 0x0 SHR GT ISZERO PUSH2 0x37E JUMPI PUSH1 0x0 PUSH1 0x3 SWAP2 POP SWAP2 POP PUSH2 0x41D JUMP JUMPDEST PUSH1 0x0 PUSH1 0x1 DUP8 DUP8 DUP8 DUP8 PUSH1 0x40 MLOAD PUSH1 0x0 DUP2 MSTORE PUSH1 0x20 ADD PUSH1 0x40 MSTORE PUSH1 0x40 MLOAD PUSH2 0x3A3 SWAP5 SWAP4 SWAP3 SWAP2 SWAP1 PUSH2 0x761 JUMP JUMPDEST PUSH1 0x20 PUSH1 0x40 MLOAD PUSH1 0x20 DUP2 SUB SWAP1 DUP1 DUP5 SUB SWAP1 DUP6 GAS STATICCALL ISZERO DUP1 ISZERO PUSH2 0x3C5 JUMPI RETURNDATASIZE PUSH1 0x0 DUP1 RETURNDATACOPY RETURNDATASIZE PUSH1 0x0 REVERT JUMPDEST POP POP POP PUSH1 0x20 PUSH1 0x40 MLOAD SUB MLOAD SWAP1 POP PUSH1 0x0 PUSH20 0xFFFFFFFFFFFFFFFFFFFFFFFFFFFFFFFFFFFFFFFF AND DUP2 PUSH20 0xFFFFFFFFFFFFFFFFFFFFFFFFFFFFFFFFFFFFFFFF AND EQ ISZERO PUSH2 0x414 JUMPI PUSH1 0x0 PUSH1 0x1 SWAP3 POP SWAP3 POP POP PUSH2 0x41D JUMP JUMPDEST DUP1 PUSH1 0x0 SWAP3 POP SWAP3 POP POP JUMPDEST SWAP5 POP SWAP5 SWAP3 POP POP POP JUMP JUMPDEST PUSH1 0x0 PUSH2 0x439 PUSH2 0x434 DUP5 PUSH2 0x82B JUMP JUMPDEST PUSH2 0x806 JUMP JUMPDEST SWAP1 POP DUP3 DUP2 MSTORE PUSH1 0x20 DUP2 ADD DUP5 DUP5 DUP5 ADD GT ISZERO PUSH2 0x455 JUMPI PUSH2 0x454 PUSH2 0x9DD JUMP JUMPDEST JUMPDEST PUSH2 0x460 DUP5 DUP3 DUP6 PUSH2 0x8FD JUMP JUMPDEST POP SWAP4 SWAP3 POP POP POP JUMP JUMPDEST PUSH1 0x0 PUSH2 0x47B PUSH2 0x476 DUP5 PUSH2 0x85C JUMP JUMPDEST PUSH2 0x806 JUMP JUMPDEST SWAP1 POP DUP3 DUP2 MSTORE PUSH1 0x20 DUP2 ADD DUP5 DUP5 DUP5 ADD GT ISZERO PUSH2 0x497 JUMPI PUSH2 0x496 PUSH2 0x9DD JUMP JUMPDEST JUMPDEST PUSH2 0x4A2 DUP5 DUP3 DUP6 PUSH2 0x8FD JUMP JUMPDEST POP SWAP4 SWAP3 POP POP POP JUMP JUMPDEST PUSH1 0x0 DUP2 CALLDATALOAD SWAP1 POP PUSH2 0x4B9 DUP2 PUSH2 0xAC7 JUMP JUMPDEST SWAP3 SWAP2 POP POP JUMP JUMPDEST PUSH1 0x0 DUP3 PUSH1 0x1F DUP4 ADD SLT PUSH2 0x4D4 JUMPI PUSH2 0x4D3 PUSH2 0x9D8 JUMP JUMPDEST JUMPDEST DUP2 CALLDATALOAD PUSH2 0x4E4 DUP5 DUP3 PUSH1 0x20 DUP7 ADD PUSH2 0x426 JUMP JUMPDEST SWAP2 POP POP SWAP3 SWAP2 POP POP JUMP JUMPDEST PUSH1 0x0 DUP3 PUSH1 0x1F DUP4 ADD SLT PUSH2 0x502 JUMPI PUSH2 0x501 PUSH2 0x9D8 JUMP JUMPDEST JUMPDEST DUP2 CALLDATALOAD PUSH2 0x512 DUP5 DUP3 PUSH1 0x20 DUP7 ADD PUSH2 0x468 JUMP JUMPDEST SWAP2 POP POP SWAP3 SWAP2 POP POP JUMP JUMPDEST PUSH1 0x0 PUSH1 0x20 DUP3 DUP5 SUB SLT ISZERO PUSH2 0x531 JUMPI PUSH2 0x530 PUSH2 0x9E7 JUMP JUMPDEST JUMPDEST PUSH1 0x0 PUSH2 0x53F DUP5 DUP3 DUP6 ADD PUSH2 0x4AA JUMP JUMPDEST SWAP2 POP POP SWAP3 SWAP2 POP POP JUMP JUMPDEST PUSH1 0x0 DUP1 PUSH1 0x40 DUP4 DUP6 SUB SLT ISZERO PUSH2 0x55F JUMPI PUSH2 0x55E PUSH2 0x9E7 JUMP JUMPDEST JUMPDEST PUSH1 0x0 PUSH2 0x56D DUP6 DUP3 DUP7 ADD PUSH2 0x4AA JUMP JUMPDEST SWAP3 POP POP PUSH1 0x20 DUP4 ADD CALLDATALOAD PUSH8 0xFFFFFFFFFFFFFFFF DUP2 GT ISZERO PUSH2 0x58E JUMPI PUSH2 0x58D PUSH2 0x9E2 JUMP JUMPDEST JUMPDEST PUSH2 0x59A DUP6 DUP3 DUP7 ADD PUSH2 0x4BF JUMP JUMPDEST SWAP2 POP POP SWAP3 POP SWAP3 SWAP1 POP JUMP JUMPDEST PUSH1 0x0 PUSH1 0x20 DUP3 DUP5 SUB SLT ISZERO PUSH2 0x5BA JUMPI PUSH2 0x5B9 PUSH2 0x9E7 JUMP JUMPDEST JUMPDEST PUSH1 0x0 DUP3 ADD CALLDATALOAD PUSH8 0xFFFFFFFFFFFFFFFF DUP2 GT ISZERO PUSH2 0x5D8 JUMPI PUSH2 0x5D7 PUSH2 0x9E2 JUMP JUMPDEST JUMPDEST PUSH2 0x5E4 DUP5 DUP3 DUP6 ADD PUSH2 0x4ED JUMP JUMPDEST SWAP2 POP POP SWAP3 SWAP2 POP POP JUMP JUMPDEST PUSH2 0x5F6 DUP2 PUSH2 0x8B4 JUMP JUMPDEST DUP3 MSTORE POP POP JUMP JUMPDEST PUSH2 0x605 DUP2 PUSH2 0x8C6 JUMP JUMPDEST DUP3 MSTORE POP POP JUMP JUMPDEST PUSH2 0x61C PUSH2 0x617 DUP3 PUSH2 0x8C6 JUMP JUMPDEST PUSH2 0x970 JUMP JUMPDEST DUP3 MSTORE POP POP JUMP JUMPDEST PUSH1 0x0 PUSH2 0x62D DUP3 PUSH2 0x88D JUMP JUMPDEST PUSH2 0x637 DUP2 DUP6 PUSH2 0x8A9 JUMP JUMPDEST SWAP4 POP PUSH2 0x647 DUP2 DUP6 PUSH1 0x20 DUP7 ADD PUSH2 0x90C JUMP JUMPDEST DUP1 DUP5 ADD SWAP2 POP POP SWAP3 SWAP2 POP POP JUMP JUMPDEST PUSH1 0x0 PUSH2 0x660 PUSH1 0x18 DUP4 PUSH2 0x898 JUMP JUMPDEST SWAP2 POP PUSH2 0x66B DUP3 PUSH2 0x9FD JUMP JUMPDEST PUSH1 0x20 DUP3 ADD SWAP1 POP SWAP2 SWAP1 POP JUMP JUMPDEST PUSH1 0x0 PUSH2 0x683 PUSH1 0x1F DUP4 PUSH2 0x898 JUMP JUMPDEST SWAP2 POP PUSH2 0x68E DUP3 PUSH2 0xA26 JUMP JUMPDEST PUSH1 0x20 DUP3 ADD SWAP1 POP SWAP2 SWAP1 POP JUMP JUMPDEST PUSH1 0x0 PUSH2 0x6A6 PUSH1 0x1C DUP4 PUSH2 0x8A9 JUMP JUMPDEST SWAP2 POP PUSH2 0x6B1 DUP3 PUSH2 0xA4F JUMP JUMPDEST PUSH1 0x1C DUP3 ADD SWAP1 POP SWAP2 SWAP1 POP JUMP JUMPDEST PUSH1 0x0 PUSH2 0x6C9 PUSH1 0x22 DUP4 PUSH2 0x898 JUMP JUMPDEST SWAP2 POP PUSH2 0x6D4 DUP3 PUSH2 0xA78 JUMP JUMPDEST PUSH1 0x40 DUP3 ADD SWAP1 POP SWAP2 SWAP1 POP JUMP JUMPDEST PUSH2 0x6E8 DUP2 PUSH2 0x8F0 JUMP JUMPDEST DUP3 MSTORE POP POP JUMP JUMPDEST PUSH1 0x0 PUSH2 0x6FA DUP3 DUP5 PUSH2 0x622 JUMP JUMPDEST SWAP2 POP DUP2 SWAP1 POP SWAP3 SWAP2 POP POP JUMP JUMPDEST PUSH1 0x0 PUSH2 0x710 DUP3 PUSH2 0x699 JUMP JUMPDEST SWAP2 POP PUSH2 0x71C DUP3 DUP5 PUSH2 0x60B JUMP JUMPDEST PUSH1 0x20 DUP3 ADD SWAP2 POP DUP2 SWAP1 POP SWAP3 SWAP2 POP POP JUMP JUMPDEST PUSH1 0x0 PUSH1 0x20 DUP3 ADD SWAP1 POP PUSH2 0x740 PUSH1 0x0 DUP4 ADD DUP5 PUSH2 0x5ED JUMP JUMPDEST SWAP3 SWAP2 POP POP JUMP JUMPDEST PUSH1 0x0 PUSH1 0x20 DUP3 ADD SWAP1 POP PUSH2 0x75B PUSH1 0x0 DUP4 ADD DUP5 PUSH2 0x5FC JUMP JUMPDEST SWAP3 SWAP2 POP POP JUMP JUMPDEST PUSH1 0x0 PUSH1 0x80 DUP3 ADD SWAP1 POP PUSH2 0x776 PUSH1 0x0 DUP4 ADD DUP8 PUSH2 0x5FC JUMP JUMPDEST PUSH2 0x783 PUSH1 0x20 DUP4 ADD DUP7 PUSH2 0x6DF JUMP JUMPDEST PUSH2 0x790 PUSH1 0x40 DUP4 ADD DUP6 PUSH2 0x5FC JUMP JUMPDEST PUSH2 0x79D PUSH1 0x60 DUP4 ADD DUP5 PUSH2 0x5FC JUMP JUMPDEST SWAP6 SWAP5 POP POP POP POP POP JUMP JUMPDEST PUSH1 0x0 PUSH1 0x20 DUP3 ADD SWAP1 POP DUP2 DUP2 SUB PUSH1 0x0 DUP4 ADD MSTORE PUSH2 0x7BF DUP2 PUSH2 0x653 JUMP JUMPDEST SWAP1 POP SWAP2 SWAP1 POP JUMP JUMPDEST PUSH1 0x0 PUSH1 0x20 DUP3 ADD SWAP1 POP DUP2 DUP2 SUB PUSH1 0x0 DUP4 ADD MSTORE PUSH2 0x7DF DUP2 PUSH2 0x676 JUMP JUMPDEST SWAP1 POP SWAP2 SWAP1 POP JUMP JUMPDEST PUSH1 0x0 PUSH1 0x20 DUP3 ADD SWAP1 POP DUP2 DUP2 SUB PUSH1 0x0 DUP4 ADD MSTORE PUSH2 0x7FF DUP2 PUSH2 0x6BC JUMP JUMPDEST SWAP1 POP SWAP2 SWAP1 POP JUMP JUMPDEST PUSH1 0x0 PUSH2 0x810 PUSH2 0x821 JUMP JUMPDEST SWAP1 POP PUSH2 0x81C DUP3 DUP3 PUSH2 0x93F JUMP JUMPDEST SWAP2 SWAP1 POP JUMP JUMPDEST PUSH1 0x0 PUSH1 0x40 MLOAD SWAP1 POP SWAP1 JUMP JUMPDEST PUSH1 0x0 PUSH8 0xFFFFFFFFFFFFFFFF DUP3 GT ISZERO PUSH2 0x846 JUMPI PUSH2 0x845 PUSH2 0x9A9 JUMP JUMPDEST JUMPDEST PUSH2 0x84F DUP3 PUSH2 0x9EC JUMP JUMPDEST SWAP1 POP PUSH1 0x20 DUP2 ADD SWAP1 POP SWAP2 SWAP1 POP JUMP JUMPDEST PUSH1 0x0 PUSH8 0xFFFFFFFFFFFFFFFF DUP3 GT ISZERO PUSH2 0x877 JUMPI PUSH2 0x876 PUSH2 0x9A9 JUMP JUMPDEST JUMPDEST PUSH2 0x880 DUP3 PUSH2 0x9EC JUMP JUMPDEST SWAP1 POP PUSH1 0x20 DUP2 ADD SWAP1 POP SWAP2 SWAP1 POP JUMP JUMPDEST PUSH1 0x0 DUP2 MLOAD SWAP1 POP SWAP2 SWAP1 POP JUMP JUMPDEST PUSH1 0x0 DUP3 DUP3 MSTORE PUSH1 0x20 DUP3 ADD SWAP1 POP SWAP3 SWAP2 POP POP JUMP JUMPDEST PUSH1 0x0 DUP2 SWAP1 POP SWAP3 SWAP2 POP POP JUMP JUMPDEST PUSH1 0x0 PUSH2 0x8BF DUP3 PUSH2 0x8D0 JUMP JUMPDEST SWAP1 POP SWAP2 SWAP1 POP JUMP JUMPDEST PUSH1 0x0 DUP2 SWAP1 POP SWAP2 SWAP1 POP JUMP JUMPDEST PUSH1 0x0 PUSH20 0xFFFFFFFFFFFFFFFFFFFFFFFFFFFFFFFFFFFFFFFF DUP3 AND SWAP1 POP SWAP2 SWAP1 POP JUMP JUMPDEST PUSH1 0x0 PUSH1 0xFF DUP3 AND SWAP1 POP SWAP2 SWAP1 POP JUMP JUMPDEST DUP3 DUP2 DUP4 CALLDATACOPY PUSH1 0x0 DUP4 DUP4 ADD MSTORE POP POP POP JUMP JUMPDEST PUSH1 0x0 JUMPDEST DUP4 DUP2 LT ISZERO PUSH2 0x92A JUMPI DUP1 DUP3 ADD MLOAD DUP2 DUP5 ADD MSTORE PUSH1 0x20 DUP2 ADD SWAP1 POP PUSH2 0x90F JUMP JUMPDEST DUP4 DUP2 GT ISZERO PUSH2 0x939 JUMPI PUSH1 0x0 DUP5 DUP5 ADD MSTORE JUMPDEST POP POP POP POP JUMP JUMPDEST PUSH2 0x948 DUP3 PUSH2 0x9EC JUMP JUMPDEST DUP2 ADD DUP2 DUP2 LT PUSH8 0xFFFFFFFFFFFFFFFF DUP3 GT OR ISZERO PUSH2 0x967 JUMPI PUSH2 0x966 PUSH2 0x9A9 JUMP JUMPDEST JUMPDEST DUP1 PUSH1 0x40 MSTORE POP POP POP JUMP JUMPDEST PUSH1 0x0 DUP2 SWAP1 POP SWAP2 SWAP1 POP JUMP JUMPDEST PUSH32 0x4E487B7100000000000000000000000000000000000000000000000000000000 PUSH1 0x0 MSTORE PUSH1 0x21 PUSH1 0x4 MSTORE PUSH1 0x24 PUSH1 0x0 REVERT JUMPDEST PUSH32 0x4E487B7100000000000000000000000000000000000000000000000000000000 PUSH1 0x0 MSTORE PUSH1 0x41 PUSH1 0x4 MSTORE PUSH1 0x24 PUSH1 0x0 REVERT JUMPDEST PUSH1 0x0 DUP1 REVERT JUMPDEST PUSH1 0x0 DUP1 REVERT JUMPDEST PUSH1 0x0 DUP1 REVERT JUMPDEST PUSH1 0x0 DUP1 REVERT JUMPDEST PUSH1 0x0 PUSH1 0x1F NOT PUSH1 0x1F DUP4 ADD AND SWAP1 POP SWAP2 SWAP1 POP JUMP JUMPDEST PUSH32 0x45434453413A20696E76616C6964207369676E61747572650000000000000000 PUSH1 0x0 DUP3 ADD MSTORE POP JUMP JUMPDEST PUSH32 0x45434453413A20696E76616C6964207369676E6174757265206C656E67746800 PUSH1 0x0 DUP3 ADD MSTORE POP JUMP JUMPDEST PUSH32 0x19457468657265756D205369676E6564204D6573736167653A0A333200000000 PUSH1 0x0 DUP3 ADD MSTORE POP JUMP JUMPDEST PUSH32 0x45434453413A20696E76616C6964207369676E6174757265202773272076616C PUSH1 0x0 DUP3 ADD MSTORE PUSH32 0x7565000000000000000000000000000000000000000000000000000000000000 PUSH1 0x20 DUP3 ADD MSTORE POP JUMP JUMPDEST PUSH2 0xAD0 DUP2 PUSH2 0x8C6 JUMP JUMPDEST DUP2 EQ PUSH2 0xADB JUMPI PUSH1 0x0 DUP1 REVERT JUMPDEST POP JUMP INVALID LOG2 PUSH5 0x6970667358 0x22 SLT KECCAK256 0x5D 0x25 GASPRICE NUMBER SAR MSIZE 0xED ADDRESS PUSH28 0x7540BEC30EE3CFE300DA8ADC89B5E94EB7C6FA0B8FEF9464736F6C63 NUMBER STOP ADDMOD SMOD STOP CALLER "
				},
				"gasEstimates": {
					"creation": {
						"codeDepositCost": "567200",
						"executionCost": "600",
						"totalCost": "567800"
					},
					"external": {
						"hash1(string)": "infinite",
						"hash2(bytes32)": "infinite",
						"verifyF(bytes32,bytes)": "infinite"
					}
				},
				"methodIdentifiers": {
					"hash1(string)": "c22ac3ec",
					"hash2(bytes32)": "a3391c93",
					"verifyF(bytes32,bytes)": "7c9f2123"
				}
			},
			"storageLayout": {
				"storage": [],
				"types": null
			},
			"userdoc": {
				"kind": "user",
				"methods": {},
				"version": 1
			}
		}
	}
}