{
	"Openzepellin/EnumerableTest/EnumerableTest1.sol": {
		"EnumerableSet_test1": {
			"abi": [
				{
					"inputs": [
						{
							"internalType": "uint256",
							"name": "value",
							"type": "uint256"
						}
					],
					"name": "add_",
					"outputs": [
						{
							"internalType": "bool",
							"name": "",
							"type": "bool"
						}
					],
					"stateMutability": "nonpayable",
					"type": "function"
				},
				{
					"inputs": [
						{
							"internalType": "uint256",
							"name": "index",
							"type": "uint256"
						}
					],
					"name": "at_",
					"outputs": [
						{
							"internalType": "uint256",
							"name": "",
							"type": "uint256"
						}
					],
					"stateMutability": "view",
					"type": "function"
				},
				{
					"inputs": [
						{
							"internalType": "uint256",
							"name": "value",
							"type": "uint256"
						}
					],
					"name": "contains_",
					"outputs": [
						{
							"internalType": "bool",
							"name": "",
							"type": "bool"
						}
					],
					"stateMutability": "view",
					"type": "function"
				},
				{
					"inputs": [],
					"name": "length_",
					"outputs": [
						{
							"internalType": "uint256",
							"name": "",
							"type": "uint256"
						}
					],
					"stateMutability": "view",
					"type": "function"
				},
				{
					"inputs": [
						{
							"internalType": "uint256",
							"name": "value",
							"type": "uint256"
						}
					],
					"name": "remove_",
					"outputs": [
						{
							"internalType": "bool",
							"name": "",
							"type": "bool"
						}
					],
					"stateMutability": "nonpayable",
					"type": "function"
				},
				{
					"inputs": [],
					"name": "values_",
					"outputs": [
						{
							"internalType": "uint256[]",
							"name": "",
							"type": "uint256[]"
						}
					],
					"stateMutability": "view",
					"type": "function"
				}
			],
			"devdoc": {
				"kind": "dev",
				"methods": {},
				"version": 1
			},
			"evm": {
				"assembly": "    /* \"Openzepellin/EnumerableTest/EnumerableTest1.sol\":133:821  contract EnumerableSet_test1 {\r... */\n  mstore(0x40, 0x80)\n  callvalue\n  dup1\n  iszero\n  tag_1\n  jumpi\n  0x00\n  dup1\n  revert\ntag_1:\n  pop\n  dataSize(sub_0)\n  dup1\n  dataOffset(sub_0)\n  0x00\n  codecopy\n  0x00\n  return\nstop\n\nsub_0: assembly {\n        /* \"Openzepellin/EnumerableTest/EnumerableTest1.sol\":133:821  contract EnumerableSet_test1 {\r... */\n      mstore(0x40, 0x80)\n      callvalue\n      dup1\n      iszero\n      tag_1\n      jumpi\n      0x00\n      dup1\n      revert\n    tag_1:\n      pop\n      jumpi(tag_2, lt(calldatasize, 0x04))\n      shr(0xe0, calldataload(0x00))\n      dup1\n      0x75a65b23\n      eq\n      tag_3\n      jumpi\n      dup1\n      0x8d9fe83a\n      eq\n      tag_4\n      jumpi\n      dup1\n      0xc337923f\n      eq\n      tag_5\n      jumpi\n      dup1\n      0xc85cc5d9\n      eq\n      tag_6\n      jumpi\n      dup1\n      0xe6b406d0\n      eq\n      tag_7\n      jumpi\n      dup1\n      0xe8f9d887\n      eq\n      tag_8\n      jumpi\n    tag_2:\n      0x00\n      dup1\n      revert\n        /* \"Openzepellin/EnumerableTest/EnumerableTest1.sol\":731:816  function values_() view public returns( uint[] memory) {\r... */\n    tag_3:\n      tag_9\n      tag_10\n      jump\t// in\n    tag_9:\n      mload(0x40)\n      tag_11\n      swap2\n      swap1\n      tag_12\n      jump\t// in\n    tag_11:\n      mload(0x40)\n      dup1\n      swap2\n      sub\n      swap1\n      return\n        /* \"Openzepellin/EnumerableTest/EnumerableTest1.sol\":552:627  function length_() view public returns(uint) {\r... */\n    tag_4:\n      tag_13\n      tag_14\n      jump\t// in\n    tag_13:\n      mload(0x40)\n      tag_15\n      swap2\n      swap1\n      tag_16\n      jump\t// in\n    tag_15:\n      mload(0x40)\n      dup1\n      swap2\n      sub\n      swap1\n      return\n        /* \"Openzepellin/EnumerableTest/EnumerableTest1.sol\":636:725  function at_(uint256 index) view public returns(uint) {\r... */\n    tag_5:\n      tag_17\n      0x04\n      dup1\n      calldatasize\n      sub\n      dup2\n      add\n      swap1\n      tag_18\n      swap2\n      swap1\n      tag_19\n      jump\t// in\n    tag_18:\n      tag_20\n      jump\t// in\n    tag_17:\n      mload(0x40)\n      tag_21\n      swap2\n      swap1\n      tag_16\n      jump\t// in\n    tag_21:\n      mload(0x40)\n      dup1\n      swap2\n      sub\n      swap1\n      return\n        /* \"Openzepellin/EnumerableTest/EnumerableTest1.sol\":355:443  function remove_(uint256 value) public returns(bool) {\r... */\n    tag_6:\n      tag_22\n      0x04\n      dup1\n      calldatasize\n      sub\n      dup2\n      add\n      swap1\n      tag_23\n      swap2\n      swap1\n      tag_19\n      jump\t// in\n    tag_23:\n      tag_24\n      jump\t// in\n    tag_22:\n      mload(0x40)\n      tag_25\n      swap2\n      swap1\n      tag_26\n      jump\t// in\n    tag_25:\n      mload(0x40)\n      dup1\n      swap2\n      sub\n      swap1\n      return\n        /* \"Openzepellin/EnumerableTest/EnumerableTest1.sol\":267:349  function add_(uint256 value) public returns(bool) {\r... */\n    tag_7:\n      tag_27\n      0x04\n      dup1\n      calldatasize\n      sub\n      dup2\n      add\n      swap1\n      tag_28\n      swap2\n      swap1\n      tag_19\n      jump\t// in\n    tag_28:\n      tag_29\n      jump\t// in\n    tag_27:\n      mload(0x40)\n      tag_30\n      swap2\n      swap1\n      tag_26\n      jump\t// in\n    tag_30:\n      mload(0x40)\n      dup1\n      swap2\n      sub\n      swap1\n      return\n        /* \"Openzepellin/EnumerableTest/EnumerableTest1.sol\":449:546  function contains_(uint256 value) view public returns(bool) {\r... */\n    tag_8:\n      tag_31\n      0x04\n      dup1\n      calldatasize\n      sub\n      dup2\n      add\n      swap1\n      tag_32\n      swap2\n      swap1\n      tag_19\n      jump\t// in\n    tag_32:\n      tag_33\n      jump\t// in\n    tag_31:\n      mload(0x40)\n      tag_34\n      swap2\n      swap1\n      tag_26\n      jump\t// in\n    tag_34:\n      mload(0x40)\n      dup1\n      swap2\n      sub\n      swap1\n      return\n        /* \"Openzepellin/EnumerableTest/EnumerableTest1.sol\":731:816  function values_() view public returns( uint[] memory) {\r... */\n    tag_10:\n        /* \"Openzepellin/EnumerableTest/EnumerableTest1.sol\":771:784  uint[] memory */\n      0x60\n        /* \"Openzepellin/EnumerableTest/EnumerableTest1.sol\":800:812  set.values() */\n      tag_36\n        /* \"Openzepellin/EnumerableTest/EnumerableTest1.sol\":800:803  set */\n      0x00\n        /* \"Openzepellin/EnumerableTest/EnumerableTest1.sol\":800:810  set.values */\n      tag_37\n        /* \"Openzepellin/EnumerableTest/EnumerableTest1.sol\":800:812  set.values() */\n      jump\t// in\n    tag_36:\n        /* \"Openzepellin/EnumerableTest/EnumerableTest1.sol\":793:812  return set.values() */\n      swap1\n      pop\n        /* \"Openzepellin/EnumerableTest/EnumerableTest1.sol\":731:816  function values_() view public returns( uint[] memory) {\r... */\n      swap1\n      jump\t// out\n        /* \"Openzepellin/EnumerableTest/EnumerableTest1.sol\":552:627  function length_() view public returns(uint) {\r... */\n    tag_14:\n        /* \"Openzepellin/EnumerableTest/EnumerableTest1.sol\":591:595  uint */\n      0x00\n        /* \"Openzepellin/EnumerableTest/EnumerableTest1.sol\":611:623  set.length() */\n      tag_39\n        /* \"Openzepellin/EnumerableTest/EnumerableTest1.sol\":611:614  set */\n      0x00\n        /* \"Openzepellin/EnumerableTest/EnumerableTest1.sol\":611:621  set.length */\n      tag_40\n        /* \"Openzepellin/EnumerableTest/EnumerableTest1.sol\":611:623  set.length() */\n      jump\t// in\n    tag_39:\n        /* \"Openzepellin/EnumerableTest/EnumerableTest1.sol\":604:623  return set.length() */\n      swap1\n      pop\n        /* \"Openzepellin/EnumerableTest/EnumerableTest1.sol\":552:627  function length_() view public returns(uint) {\r... */\n      swap1\n      jump\t// out\n        /* \"Openzepellin/EnumerableTest/EnumerableTest1.sol\":636:725  function at_(uint256 index) view public returns(uint) {\r... */\n    tag_20:\n        /* \"Openzepellin/EnumerableTest/EnumerableTest1.sol\":684:688  uint */\n      0x00\n        /* \"Openzepellin/EnumerableTest/EnumerableTest1.sol\":704:717  set.at(index) */\n      tag_42\n        /* \"Openzepellin/EnumerableTest/EnumerableTest1.sol\":711:716  index */\n      dup3\n        /* \"Openzepellin/EnumerableTest/EnumerableTest1.sol\":704:707  set */\n      0x00\n        /* \"Openzepellin/EnumerableTest/EnumerableTest1.sol\":704:710  set.at */\n      tag_43\n      swap1\n        /* \"Openzepellin/EnumerableTest/EnumerableTest1.sol\":704:717  set.at(index) */\n      swap2\n      swap1\n      0xffffffff\n      and\n      jump\t// in\n    tag_42:\n        /* \"Openzepellin/EnumerableTest/EnumerableTest1.sol\":697:717  return set.at(index) */\n      swap1\n      pop\n        /* \"Openzepellin/EnumerableTest/EnumerableTest1.sol\":636:725  function at_(uint256 index) view public returns(uint) {\r... */\n      swap2\n      swap1\n      pop\n      jump\t// out\n        /* \"Openzepellin/EnumerableTest/EnumerableTest1.sol\":355:443  function remove_(uint256 value) public returns(bool) {\r... */\n    tag_24:\n        /* \"Openzepellin/EnumerableTest/EnumerableTest1.sol\":402:406  bool */\n      0x00\n        /* \"Openzepellin/EnumerableTest/EnumerableTest1.sol\":422:439  set.remove(value) */\n      tag_45\n        /* \"Openzepellin/EnumerableTest/EnumerableTest1.sol\":433:438  value */\n      dup3\n        /* \"Openzepellin/EnumerableTest/EnumerableTest1.sol\":422:425  set */\n      0x00\n        /* \"Openzepellin/EnumerableTest/EnumerableTest1.sol\":422:432  set.remove */\n      tag_46\n      swap1\n        /* \"Openzepellin/EnumerableTest/EnumerableTest1.sol\":422:439  set.remove(value) */\n      swap2\n      swap1\n      0xffffffff\n      and\n      jump\t// in\n    tag_45:\n        /* \"Openzepellin/EnumerableTest/EnumerableTest1.sol\":415:439  return set.remove(value) */\n      swap1\n      pop\n        /* \"Openzepellin/EnumerableTest/EnumerableTest1.sol\":355:443  function remove_(uint256 value) public returns(bool) {\r... */\n      swap2\n      swap1\n      pop\n      jump\t// out\n        /* \"Openzepellin/EnumerableTest/EnumerableTest1.sol\":267:349  function add_(uint256 value) public returns(bool) {\r... */\n    tag_29:\n        /* \"Openzepellin/EnumerableTest/EnumerableTest1.sol\":311:315  bool */\n      0x00\n        /* \"Openzepellin/EnumerableTest/EnumerableTest1.sol\":331:345  set.add(value) */\n      tag_48\n        /* \"Openzepellin/EnumerableTest/EnumerableTest1.sol\":339:344  value */\n      dup3\n        /* \"Openzepellin/EnumerableTest/EnumerableTest1.sol\":331:334  set */\n      0x00\n        /* \"Openzepellin/EnumerableTest/EnumerableTest1.sol\":331:338  set.add */\n      tag_49\n      swap1\n        /* \"Openzepellin/EnumerableTest/EnumerableTest1.sol\":331:345  set.add(value) */\n      swap2\n      swap1\n      0xffffffff\n      and\n      jump\t// in\n    tag_48:\n        /* \"Openzepellin/EnumerableTest/EnumerableTest1.sol\":324:345  return set.add(value) */\n      swap1\n      pop\n        /* \"Openzepellin/EnumerableTest/EnumerableTest1.sol\":267:349  function add_(uint256 value) public returns(bool) {\r... */\n      swap2\n      swap1\n      pop\n      jump\t// out\n        /* \"Openzepellin/EnumerableTest/EnumerableTest1.sol\":449:546  function contains_(uint256 value) view public returns(bool) {\r... */\n    tag_33:\n        /* \"Openzepellin/EnumerableTest/EnumerableTest1.sol\":503:507  bool */\n      0x00\n        /* \"Openzepellin/EnumerableTest/EnumerableTest1.sol\":523:542  set.contains(value) */\n      tag_51\n        /* \"Openzepellin/EnumerableTest/EnumerableTest1.sol\":536:541  value */\n      dup3\n        /* \"Openzepellin/EnumerableTest/EnumerableTest1.sol\":523:526  set */\n      0x00\n        /* \"Openzepellin/EnumerableTest/EnumerableTest1.sol\":523:535  set.contains */\n      tag_52\n      swap1\n        /* \"Openzepellin/EnumerableTest/EnumerableTest1.sol\":523:542  set.contains(value) */\n      swap2\n      swap1\n      0xffffffff\n      and\n      jump\t// in\n    tag_51:\n        /* \"Openzepellin/EnumerableTest/EnumerableTest1.sol\":516:542  return set.contains(value) */\n      swap1\n      pop\n        /* \"Openzepellin/EnumerableTest/EnumerableTest1.sol\":449:546  function contains_(uint256 value) view public returns(bool) {\r... */\n      swap2\n      swap1\n      pop\n      jump\t// out\n        /* \"@openzeppelin/contracts/utils/structs/EnumerableSet.sol\":12652:12949  function values(UintSet storage set) internal view returns (uint256[] memory) {... */\n    tag_37:\n        /* \"@openzeppelin/contracts/utils/structs/EnumerableSet.sol\":12712:12728  uint256[] memory */\n      0x60\n        /* \"@openzeppelin/contracts/utils/structs/EnumerableSet.sol\":12740:12762  bytes32[] memory store */\n      0x00\n        /* \"@openzeppelin/contracts/utils/structs/EnumerableSet.sol\":12765:12784  _values(set._inner) */\n      tag_54\n        /* \"@openzeppelin/contracts/utils/structs/EnumerableSet.sol\":12773:12776  set */\n      dup4\n        /* \"@openzeppelin/contracts/utils/structs/EnumerableSet.sol\":12773:12783  set._inner */\n      0x00\n      add\n        /* \"@openzeppelin/contracts/utils/structs/EnumerableSet.sol\":12765:12772  _values */\n      tag_55\n        /* \"@openzeppelin/contracts/utils/structs/EnumerableSet.sol\":12765:12784  _values(set._inner) */\n      jump\t// in\n    tag_54:\n        /* \"@openzeppelin/contracts/utils/structs/EnumerableSet.sol\":12740:12784  bytes32[] memory store = _values(set._inner) */\n      swap1\n      pop\n        /* \"@openzeppelin/contracts/utils/structs/EnumerableSet.sol\":12794:12817  uint256[] memory result */\n      0x60\n        /* \"@openzeppelin/contracts/utils/structs/EnumerableSet.sol\":12904:12909  store */\n      dup2\n        /* \"@openzeppelin/contracts/utils/structs/EnumerableSet.sol\":12894:12909  result := store */\n      swap1\n      pop\n        /* \"@openzeppelin/contracts/utils/structs/EnumerableSet.sol\":12936:12942  result */\n      dup1\n        /* \"@openzeppelin/contracts/utils/structs/EnumerableSet.sol\":12929:12942  return result */\n      swap3\n      pop\n      pop\n      pop\n        /* \"@openzeppelin/contracts/utils/structs/EnumerableSet.sol\":12652:12949  function values(UintSet storage set) internal view returns (uint256[] memory) {... */\n      swap2\n      swap1\n      pop\n      jump\t// out\n        /* \"@openzeppelin/contracts/utils/structs/EnumerableSet.sol\":11523:11635  function length(UintSet storage set) internal view returns (uint256) {... */\n    tag_40:\n        /* \"@openzeppelin/contracts/utils/structs/EnumerableSet.sol\":11583:11590  uint256 */\n      0x00\n        /* \"@openzeppelin/contracts/utils/structs/EnumerableSet.sol\":11609:11628  _length(set._inner) */\n      tag_57\n        /* \"@openzeppelin/contracts/utils/structs/EnumerableSet.sol\":11617:11620  set */\n      dup3\n        /* \"@openzeppelin/contracts/utils/structs/EnumerableSet.sol\":11617:11627  set._inner */\n      0x00\n      add\n        /* \"@openzeppelin/contracts/utils/structs/EnumerableSet.sol\":11609:11616  _length */\n      tag_58\n        /* \"@openzeppelin/contracts/utils/structs/EnumerableSet.sol\":11609:11628  _length(set._inner) */\n      jump\t// in\n    tag_57:\n        /* \"@openzeppelin/contracts/utils/structs/EnumerableSet.sol\":11602:11628  return _length(set._inner) */\n      swap1\n      pop\n        /* \"@openzeppelin/contracts/utils/structs/EnumerableSet.sol\":11523:11635  function length(UintSet storage set) internal view returns (uint256) {... */\n      swap2\n      swap1\n      pop\n      jump\t// out\n        /* \"@openzeppelin/contracts/utils/structs/EnumerableSet.sol\":11977:12112  function at(UintSet storage set, uint256 index) internal view returns (uint256) {... */\n    tag_43:\n        /* \"@openzeppelin/contracts/utils/structs/EnumerableSet.sol\":12048:12055  uint256 */\n      0x00\n        /* \"@openzeppelin/contracts/utils/structs/EnumerableSet.sol\":12082:12104  _at(set._inner, index) */\n      tag_60\n        /* \"@openzeppelin/contracts/utils/structs/EnumerableSet.sol\":12086:12089  set */\n      dup4\n        /* \"@openzeppelin/contracts/utils/structs/EnumerableSet.sol\":12086:12096  set._inner */\n      0x00\n      add\n        /* \"@openzeppelin/contracts/utils/structs/EnumerableSet.sol\":12098:12103  index */\n      dup4\n        /* \"@openzeppelin/contracts/utils/structs/EnumerableSet.sol\":12082:12085  _at */\n      tag_61\n        /* \"@openzeppelin/contracts/utils/structs/EnumerableSet.sol\":12082:12104  _at(set._inner, index) */\n      jump\t// in\n    tag_60:\n        /* \"@openzeppelin/contracts/utils/structs/EnumerableSet.sol\":12074:12105  uint256(_at(set._inner, index)) */\n      0x00\n      shr\n        /* \"@openzeppelin/contracts/utils/structs/EnumerableSet.sol\":12067:12105  return uint256(_at(set._inner, index)) */\n      swap1\n      pop\n        /* \"@openzeppelin/contracts/utils/structs/EnumerableSet.sol\":11977:12112  function at(UintSet storage set, uint256 index) internal view returns (uint256) {... */\n      swap3\n      swap2\n      pop\n      pop\n      jump\t// out\n        /* \"@openzeppelin/contracts/utils/structs/EnumerableSet.sol\":11082:11217  function remove(UintSet storage set, uint256 value) internal returns (bool) {... */\n    tag_46:\n        /* \"@openzeppelin/contracts/utils/structs/EnumerableSet.sol\":11152:11156  bool */\n      0x00\n        /* \"@openzeppelin/contracts/utils/structs/EnumerableSet.sol\":11175:11210  _remove(set._inner, bytes32(value)) */\n      tag_63\n        /* \"@openzeppelin/contracts/utils/structs/EnumerableSet.sol\":11183:11186  set */\n      dup4\n        /* \"@openzeppelin/contracts/utils/structs/EnumerableSet.sol\":11183:11193  set._inner */\n      0x00\n      add\n        /* \"@openzeppelin/contracts/utils/structs/EnumerableSet.sol\":11203:11208  value */\n      dup4\n        /* \"@openzeppelin/contracts/utils/structs/EnumerableSet.sol\":11195:11209  bytes32(value) */\n      0x00\n      shl\n        /* \"@openzeppelin/contracts/utils/structs/EnumerableSet.sol\":11175:11182  _remove */\n      tag_64\n        /* \"@openzeppelin/contracts/utils/structs/EnumerableSet.sol\":11175:11210  _remove(set._inner, bytes32(value)) */\n      jump\t// in\n    tag_63:\n        /* \"@openzeppelin/contracts/utils/structs/EnumerableSet.sol\":11168:11210  return _remove(set._inner, bytes32(value)) */\n      swap1\n      pop\n        /* \"@openzeppelin/contracts/utils/structs/EnumerableSet.sol\":11082:11217  function remove(UintSet storage set, uint256 value) internal returns (bool) {... */\n      swap3\n      swap2\n      pop\n      pop\n      jump\t// out\n        /* \"@openzeppelin/contracts/utils/structs/EnumerableSet.sol\":10785:10914  function add(UintSet storage set, uint256 value) internal returns (bool) {... */\n    tag_49:\n        /* \"@openzeppelin/contracts/utils/structs/EnumerableSet.sol\":10852:10856  bool */\n      0x00\n        /* \"@openzeppelin/contracts/utils/structs/EnumerableSet.sol\":10875:10907  _add(set._inner, bytes32(value)) */\n      tag_66\n        /* \"@openzeppelin/contracts/utils/structs/EnumerableSet.sol\":10880:10883  set */\n      dup4\n        /* \"@openzeppelin/contracts/utils/structs/EnumerableSet.sol\":10880:10890  set._inner */\n      0x00\n      add\n        /* \"@openzeppelin/contracts/utils/structs/EnumerableSet.sol\":10900:10905  value */\n      dup4\n        /* \"@openzeppelin/contracts/utils/structs/EnumerableSet.sol\":10892:10906  bytes32(value) */\n      0x00\n      shl\n        /* \"@openzeppelin/contracts/utils/structs/EnumerableSet.sol\":10875:10879  _add */\n      tag_67\n        /* \"@openzeppelin/contracts/utils/structs/EnumerableSet.sol\":10875:10907  _add(set._inner, bytes32(value)) */\n      jump\t// in\n    tag_66:\n        /* \"@openzeppelin/contracts/utils/structs/EnumerableSet.sol\":10868:10907  return _add(set._inner, bytes32(value)) */\n      swap1\n      pop\n        /* \"@openzeppelin/contracts/utils/structs/EnumerableSet.sol\":10785:10914  function add(UintSet storage set, uint256 value) internal returns (bool) {... */\n      swap3\n      swap2\n      pop\n      pop\n      jump\t// out\n        /* \"@openzeppelin/contracts/utils/structs/EnumerableSet.sol\":11298:11442  function contains(UintSet storage set, uint256 value) internal view returns (bool) {... */\n    tag_52:\n        /* \"@openzeppelin/contracts/utils/structs/EnumerableSet.sol\":11375:11379  bool */\n      0x00\n        /* \"@openzeppelin/contracts/utils/structs/EnumerableSet.sol\":11398:11435  _contains(set._inner, bytes32(value)) */\n      tag_69\n        /* \"@openzeppelin/contracts/utils/structs/EnumerableSet.sol\":11408:11411  set */\n      dup4\n        /* \"@openzeppelin/contracts/utils/structs/EnumerableSet.sol\":11408:11418  set._inner */\n      0x00\n      add\n        /* \"@openzeppelin/contracts/utils/structs/EnumerableSet.sol\":11428:11433  value */\n      dup4\n        /* \"@openzeppelin/contracts/utils/structs/EnumerableSet.sol\":11420:11434  bytes32(value) */\n      0x00\n      shl\n        /* \"@openzeppelin/contracts/utils/structs/EnumerableSet.sol\":11398:11407  _contains */\n      tag_70\n        /* \"@openzeppelin/contracts/utils/structs/EnumerableSet.sol\":11398:11435  _contains(set._inner, bytes32(value)) */\n      jump\t// in\n    tag_69:\n        /* \"@openzeppelin/contracts/utils/structs/EnumerableSet.sol\":11391:11435  return _contains(set._inner, bytes32(value)) */\n      swap1\n      pop\n        /* \"@openzeppelin/contracts/utils/structs/EnumerableSet.sol\":11298:11442  function contains(UintSet storage set, uint256 value) internal view returns (bool) {... */\n      swap3\n      swap2\n      pop\n      pop\n      jump\t// out\n        /* \"@openzeppelin/contracts/utils/structs/EnumerableSet.sol\":5562:5671  function _values(Set storage set) private view returns (bytes32[] memory) {... */\n    tag_55:\n        /* \"@openzeppelin/contracts/utils/structs/EnumerableSet.sol\":5618:5634  bytes32[] memory */\n      0x60\n        /* \"@openzeppelin/contracts/utils/structs/EnumerableSet.sol\":5653:5656  set */\n      dup2\n        /* \"@openzeppelin/contracts/utils/structs/EnumerableSet.sol\":5653:5664  set._values */\n      0x00\n      add\n        /* \"@openzeppelin/contracts/utils/structs/EnumerableSet.sol\":5646:5664  return set._values */\n      dup1\n      sload\n      dup1\n      0x20\n      mul\n      0x20\n      add\n      mload(0x40)\n      swap1\n      dup2\n      add\n      0x40\n      mstore\n      dup1\n      swap3\n      swap2\n      swap1\n      dup2\n      dup2\n      mstore\n      0x20\n      add\n      dup3\n      dup1\n      sload\n      dup1\n      iszero\n      tag_72\n      jumpi\n      0x20\n      mul\n      dup3\n      add\n      swap2\n      swap1\n      0x00\n      mstore\n      keccak256(0x00, 0x20)\n      swap1\n    tag_73:\n      dup2\n      sload\n      dup2\n      mstore\n      0x20\n      add\n      swap1\n      0x01\n      add\n      swap1\n      dup1\n      dup4\n      gt\n      tag_73\n      jumpi\n    tag_72:\n      pop\n      pop\n      pop\n      pop\n      pop\n      swap1\n      pop\n        /* \"@openzeppelin/contracts/utils/structs/EnumerableSet.sol\":5562:5671  function _values(Set storage set) private view returns (bytes32[] memory) {... */\n      swap2\n      swap1\n      pop\n      jump\t// out\n        /* \"@openzeppelin/contracts/utils/structs/EnumerableSet.sol\":4455:4562  function _length(Set storage set) private view returns (uint256) {... */\n    tag_58:\n        /* \"@openzeppelin/contracts/utils/structs/EnumerableSet.sol\":4511:4518  uint256 */\n      0x00\n        /* \"@openzeppelin/contracts/utils/structs/EnumerableSet.sol\":4537:4540  set */\n      dup2\n        /* \"@openzeppelin/contracts/utils/structs/EnumerableSet.sol\":4537:4548  set._values */\n      0x00\n      add\n        /* \"@openzeppelin/contracts/utils/structs/EnumerableSet.sol\":4537:4555  set._values.length */\n      dup1\n      sload\n      swap1\n      pop\n        /* \"@openzeppelin/contracts/utils/structs/EnumerableSet.sol\":4530:4555  return set._values.length */\n      swap1\n      pop\n        /* \"@openzeppelin/contracts/utils/structs/EnumerableSet.sol\":4455:4562  function _length(Set storage set) private view returns (uint256) {... */\n      swap2\n      swap1\n      pop\n      jump\t// out\n        /* \"@openzeppelin/contracts/utils/structs/EnumerableSet.sol\":4904:5022  function _at(Set storage set, uint256 index) private view returns (bytes32) {... */\n    tag_61:\n        /* \"@openzeppelin/contracts/utils/structs/EnumerableSet.sol\":4971:4978  bytes32 */\n      0x00\n        /* \"@openzeppelin/contracts/utils/structs/EnumerableSet.sol\":4997:5000  set */\n      dup3\n        /* \"@openzeppelin/contracts/utils/structs/EnumerableSet.sol\":4997:5008  set._values */\n      0x00\n      add\n        /* \"@openzeppelin/contracts/utils/structs/EnumerableSet.sol\":5009:5014  index */\n      dup3\n        /* \"@openzeppelin/contracts/utils/structs/EnumerableSet.sol\":4997:5015  set._values[index] */\n      dup2\n      sload\n      dup2\n      lt\n      tag_76\n      jumpi\n      tag_77\n      tag_78\n      jump\t// in\n    tag_77:\n    tag_76:\n      swap1\n      0x00\n      mstore\n      keccak256(0x00, 0x20)\n      add\n      sload\n        /* \"@openzeppelin/contracts/utils/structs/EnumerableSet.sol\":4990:5015  return set._values[index] */\n      swap1\n      pop\n        /* \"@openzeppelin/contracts/utils/structs/EnumerableSet.sol\":4904:5022  function _at(Set storage set, uint256 index) private view returns (bytes32) {... */\n      swap3\n      swap2\n      pop\n      pop\n      jump\t// out\n        /* \"@openzeppelin/contracts/utils/structs/EnumerableSet.sol\":2778:4166  function _remove(Set storage set, bytes32 value) private returns (bool) {... */\n    tag_64:\n        /* \"@openzeppelin/contracts/utils/structs/EnumerableSet.sol\":2844:2848  bool */\n      0x00\n        /* \"@openzeppelin/contracts/utils/structs/EnumerableSet.sol\":2960:2978  uint256 valueIndex */\n      dup1\n        /* \"@openzeppelin/contracts/utils/structs/EnumerableSet.sol\":2981:2984  set */\n      dup4\n        /* \"@openzeppelin/contracts/utils/structs/EnumerableSet.sol\":2981:2993  set._indexes */\n      0x01\n      add\n        /* \"@openzeppelin/contracts/utils/structs/EnumerableSet.sol\":2981:3000  set._indexes[value] */\n      0x00\n        /* \"@openzeppelin/contracts/utils/structs/EnumerableSet.sol\":2994:2999  value */\n      dup5\n        /* \"@openzeppelin/contracts/utils/structs/EnumerableSet.sol\":2981:3000  set._indexes[value] */\n      dup2\n      mstore\n      0x20\n      add\n      swap1\n      dup2\n      mstore\n      0x20\n      add\n      0x00\n      keccak256\n      sload\n        /* \"@openzeppelin/contracts/utils/structs/EnumerableSet.sol\":2960:3000  uint256 valueIndex = set._indexes[value] */\n      swap1\n      pop\n        /* \"@openzeppelin/contracts/utils/structs/EnumerableSet.sol\":3029:3030  0 */\n      0x00\n        /* \"@openzeppelin/contracts/utils/structs/EnumerableSet.sol\":3015:3025  valueIndex */\n      dup2\n        /* \"@openzeppelin/contracts/utils/structs/EnumerableSet.sol\":3015:3030  valueIndex != 0 */\n      eq\n        /* \"@openzeppelin/contracts/utils/structs/EnumerableSet.sol\":3011:4160  if (valueIndex != 0) {... */\n      tag_81\n      jumpi\n        /* \"@openzeppelin/contracts/utils/structs/EnumerableSet.sol\":3384:3405  uint256 toDeleteIndex */\n      0x00\n        /* \"@openzeppelin/contracts/utils/structs/EnumerableSet.sol\":3421:3422  1 */\n      0x01\n        /* \"@openzeppelin/contracts/utils/structs/EnumerableSet.sol\":3408:3418  valueIndex */\n      dup3\n        /* \"@openzeppelin/contracts/utils/structs/EnumerableSet.sol\":3408:3422  valueIndex - 1 */\n      tag_82\n      swap2\n      swap1\n      tag_83\n      jump\t// in\n    tag_82:\n        /* \"@openzeppelin/contracts/utils/structs/EnumerableSet.sol\":3384:3422  uint256 toDeleteIndex = valueIndex - 1 */\n      swap1\n      pop\n        /* \"@openzeppelin/contracts/utils/structs/EnumerableSet.sol\":3436:3453  uint256 lastIndex */\n      0x00\n        /* \"@openzeppelin/contracts/utils/structs/EnumerableSet.sol\":3477:3478  1 */\n      0x01\n        /* \"@openzeppelin/contracts/utils/structs/EnumerableSet.sol\":3456:3459  set */\n      dup7\n        /* \"@openzeppelin/contracts/utils/structs/EnumerableSet.sol\":3456:3467  set._values */\n      0x00\n      add\n        /* \"@openzeppelin/contracts/utils/structs/EnumerableSet.sol\":3456:3474  set._values.length */\n      dup1\n      sload\n      swap1\n      pop\n        /* \"@openzeppelin/contracts/utils/structs/EnumerableSet.sol\":3456:3478  set._values.length - 1 */\n      tag_84\n      swap2\n      swap1\n      tag_83\n      jump\t// in\n    tag_84:\n        /* \"@openzeppelin/contracts/utils/structs/EnumerableSet.sol\":3436:3478  uint256 lastIndex = set._values.length - 1 */\n      swap1\n      pop\n        /* \"@openzeppelin/contracts/utils/structs/EnumerableSet.sol\":3510:3523  toDeleteIndex */\n      dup2\n        /* \"@openzeppelin/contracts/utils/structs/EnumerableSet.sol\":3497:3506  lastIndex */\n      dup2\n        /* \"@openzeppelin/contracts/utils/structs/EnumerableSet.sol\":3497:3523  lastIndex != toDeleteIndex */\n      eq\n        /* \"@openzeppelin/contracts/utils/structs/EnumerableSet.sol\":3493:3891  if (lastIndex != toDeleteIndex) {... */\n      tag_85\n      jumpi\n        /* \"@openzeppelin/contracts/utils/structs/EnumerableSet.sol\":3543:3560  bytes32 lastValue */\n      0x00\n        /* \"@openzeppelin/contracts/utils/structs/EnumerableSet.sol\":3563:3566  set */\n      dup7\n        /* \"@openzeppelin/contracts/utils/structs/EnumerableSet.sol\":3563:3574  set._values */\n      0x00\n      add\n        /* \"@openzeppelin/contracts/utils/structs/EnumerableSet.sol\":3575:3584  lastIndex */\n      dup3\n        /* \"@openzeppelin/contracts/utils/structs/EnumerableSet.sol\":3563:3585  set._values[lastIndex] */\n      dup2\n      sload\n      dup2\n      lt\n      tag_86\n      jumpi\n      tag_87\n      tag_78\n      jump\t// in\n    tag_87:\n    tag_86:\n      swap1\n      0x00\n      mstore\n      keccak256(0x00, 0x20)\n      add\n      sload\n        /* \"@openzeppelin/contracts/utils/structs/EnumerableSet.sol\":3543:3585  bytes32 lastValue = set._values[lastIndex] */\n      swap1\n      pop\n        /* \"@openzeppelin/contracts/utils/structs/EnumerableSet.sol\":3714:3723  lastValue */\n      dup1\n        /* \"@openzeppelin/contracts/utils/structs/EnumerableSet.sol\":3685:3688  set */\n      dup8\n        /* \"@openzeppelin/contracts/utils/structs/EnumerableSet.sol\":3685:3696  set._values */\n      0x00\n      add\n        /* \"@openzeppelin/contracts/utils/structs/EnumerableSet.sol\":3697:3710  toDeleteIndex */\n      dup5\n        /* \"@openzeppelin/contracts/utils/structs/EnumerableSet.sol\":3685:3711  set._values[toDeleteIndex] */\n      dup2\n      sload\n      dup2\n      lt\n      tag_89\n      jumpi\n      tag_90\n      tag_78\n      jump\t// in\n    tag_90:\n    tag_89:\n      swap1\n      0x00\n      mstore\n      keccak256(0x00, 0x20)\n      add\n        /* \"@openzeppelin/contracts/utils/structs/EnumerableSet.sol\":3685:3723  set._values[toDeleteIndex] = lastValue */\n      dup2\n      swap1\n      sstore\n      pop\n        /* \"@openzeppelin/contracts/utils/structs/EnumerableSet.sol\":3823:3833  valueIndex */\n      dup4\n        /* \"@openzeppelin/contracts/utils/structs/EnumerableSet.sol\":3797:3800  set */\n      dup8\n        /* \"@openzeppelin/contracts/utils/structs/EnumerableSet.sol\":3797:3809  set._indexes */\n      0x01\n      add\n        /* \"@openzeppelin/contracts/utils/structs/EnumerableSet.sol\":3797:3820  set._indexes[lastValue] */\n      0x00\n        /* \"@openzeppelin/contracts/utils/structs/EnumerableSet.sol\":3810:3819  lastValue */\n      dup4\n        /* \"@openzeppelin/contracts/utils/structs/EnumerableSet.sol\":3797:3820  set._indexes[lastValue] */\n      dup2\n      mstore\n      0x20\n      add\n      swap1\n      dup2\n      mstore\n      0x20\n      add\n      0x00\n      keccak256\n        /* \"@openzeppelin/contracts/utils/structs/EnumerableSet.sol\":3797:3833  set._indexes[lastValue] = valueIndex */\n      dup2\n      swap1\n      sstore\n      pop\n        /* \"@openzeppelin/contracts/utils/structs/EnumerableSet.sol\":3525:3891  {... */\n      pop\n        /* \"@openzeppelin/contracts/utils/structs/EnumerableSet.sol\":3493:3891  if (lastIndex != toDeleteIndex) {... */\n    tag_85:\n        /* \"@openzeppelin/contracts/utils/structs/EnumerableSet.sol\":3969:3972  set */\n      dup6\n        /* \"@openzeppelin/contracts/utils/structs/EnumerableSet.sol\":3969:3980  set._values */\n      0x00\n      add\n        /* \"@openzeppelin/contracts/utils/structs/EnumerableSet.sol\":3969:3986  set._values.pop() */\n      dup1\n      sload\n      dup1\n      tag_92\n      jumpi\n      tag_93\n      tag_94\n      jump\t// in\n    tag_93:\n    tag_92:\n      0x01\n      swap1\n      sub\n      dup2\n      dup2\n      swap1\n      0x00\n      mstore\n      keccak256(0x00, 0x20)\n      add\n      0x00\n      swap1\n      sstore\n      swap1\n      sstore\n        /* \"@openzeppelin/contracts/utils/structs/EnumerableSet.sol\":4061:4064  set */\n      dup6\n        /* \"@openzeppelin/contracts/utils/structs/EnumerableSet.sol\":4061:4073  set._indexes */\n      0x01\n      add\n        /* \"@openzeppelin/contracts/utils/structs/EnumerableSet.sol\":4061:4080  set._indexes[value] */\n      0x00\n        /* \"@openzeppelin/contracts/utils/structs/EnumerableSet.sol\":4074:4079  value */\n      dup7\n        /* \"@openzeppelin/contracts/utils/structs/EnumerableSet.sol\":4061:4080  set._indexes[value] */\n      dup2\n      mstore\n      0x20\n      add\n      swap1\n      dup2\n      mstore\n      0x20\n      add\n      0x00\n      keccak256\n        /* \"@openzeppelin/contracts/utils/structs/EnumerableSet.sol\":4054:4080  delete set._indexes[value] */\n      0x00\n      swap1\n      sstore\n        /* \"@openzeppelin/contracts/utils/structs/EnumerableSet.sol\":4102:4106  true */\n      0x01\n        /* \"@openzeppelin/contracts/utils/structs/EnumerableSet.sol\":4095:4106  return true */\n      swap4\n      pop\n      pop\n      pop\n      pop\n      jump(tag_80)\n        /* \"@openzeppelin/contracts/utils/structs/EnumerableSet.sol\":3011:4160  if (valueIndex != 0) {... */\n    tag_81:\n        /* \"@openzeppelin/contracts/utils/structs/EnumerableSet.sol\":4144:4149  false */\n      0x00\n        /* \"@openzeppelin/contracts/utils/structs/EnumerableSet.sol\":4137:4149  return false */\n      swap2\n      pop\n      pop\n        /* \"@openzeppelin/contracts/utils/structs/EnumerableSet.sol\":2778:4166  function _remove(Set storage set, bytes32 value) private returns (bool) {... */\n    tag_80:\n      swap3\n      swap2\n      pop\n      pop\n      jump\t// out\n        /* \"@openzeppelin/contracts/utils/structs/EnumerableSet.sol\":2206:2610  function _add(Set storage set, bytes32 value) private returns (bool) {... */\n    tag_67:\n        /* \"@openzeppelin/contracts/utils/structs/EnumerableSet.sol\":2269:2273  bool */\n      0x00\n        /* \"@openzeppelin/contracts/utils/structs/EnumerableSet.sol\":2290:2311  _contains(set, value) */\n      tag_98\n        /* \"@openzeppelin/contracts/utils/structs/EnumerableSet.sol\":2300:2303  set */\n      dup4\n        /* \"@openzeppelin/contracts/utils/structs/EnumerableSet.sol\":2305:2310  value */\n      dup4\n        /* \"@openzeppelin/contracts/utils/structs/EnumerableSet.sol\":2290:2299  _contains */\n      tag_70\n        /* \"@openzeppelin/contracts/utils/structs/EnumerableSet.sol\":2290:2311  _contains(set, value) */\n      jump\t// in\n    tag_98:\n        /* \"@openzeppelin/contracts/utils/structs/EnumerableSet.sol\":2285:2604  if (!_contains(set, value)) {... */\n      tag_99\n      jumpi\n        /* \"@openzeppelin/contracts/utils/structs/EnumerableSet.sol\":2327:2330  set */\n      dup3\n        /* \"@openzeppelin/contracts/utils/structs/EnumerableSet.sol\":2327:2338  set._values */\n      0x00\n      add\n        /* \"@openzeppelin/contracts/utils/structs/EnumerableSet.sol\":2344:2349  value */\n      dup3\n        /* \"@openzeppelin/contracts/utils/structs/EnumerableSet.sol\":2327:2350  set._values.push(value) */\n      swap1\n      dup1\n      0x01\n      dup2\n      sload\n      add\n      dup1\n      dup3\n      sstore\n      dup1\n      swap2\n      pop\n      pop\n      0x01\n      swap1\n      sub\n      swap1\n      0x00\n      mstore\n      keccak256(0x00, 0x20)\n      add\n      0x00\n      swap1\n      swap2\n      swap1\n      swap2\n      swap1\n      swap2\n      pop\n      sstore\n        /* \"@openzeppelin/contracts/utils/structs/EnumerableSet.sol\":2507:2510  set */\n      dup3\n        /* \"@openzeppelin/contracts/utils/structs/EnumerableSet.sol\":2507:2518  set._values */\n      0x00\n      add\n        /* \"@openzeppelin/contracts/utils/structs/EnumerableSet.sol\":2507:2525  set._values.length */\n      dup1\n      sload\n      swap1\n      pop\n        /* \"@openzeppelin/contracts/utils/structs/EnumerableSet.sol\":2485:2488  set */\n      dup4\n        /* \"@openzeppelin/contracts/utils/structs/EnumerableSet.sol\":2485:2497  set._indexes */\n      0x01\n      add\n        /* \"@openzeppelin/contracts/utils/structs/EnumerableSet.sol\":2485:2504  set._indexes[value] */\n      0x00\n        /* \"@openzeppelin/contracts/utils/structs/EnumerableSet.sol\":2498:2503  value */\n      dup5\n        /* \"@openzeppelin/contracts/utils/structs/EnumerableSet.sol\":2485:2504  set._indexes[value] */\n      dup2\n      mstore\n      0x20\n      add\n      swap1\n      dup2\n      mstore\n      0x20\n      add\n      0x00\n      keccak256\n        /* \"@openzeppelin/contracts/utils/structs/EnumerableSet.sol\":2485:2525  set._indexes[value] = set._values.length */\n      dup2\n      swap1\n      sstore\n      pop\n        /* \"@openzeppelin/contracts/utils/structs/EnumerableSet.sol\":2546:2550  true */\n      0x01\n        /* \"@openzeppelin/contracts/utils/structs/EnumerableSet.sol\":2539:2550  return true */\n      swap1\n      pop\n      jump(tag_97)\n        /* \"@openzeppelin/contracts/utils/structs/EnumerableSet.sol\":2285:2604  if (!_contains(set, value)) {... */\n    tag_99:\n        /* \"@openzeppelin/contracts/utils/structs/EnumerableSet.sol\":2588:2593  false */\n      0x00\n        /* \"@openzeppelin/contracts/utils/structs/EnumerableSet.sol\":2581:2593  return false */\n      swap1\n      pop\n        /* \"@openzeppelin/contracts/utils/structs/EnumerableSet.sol\":2206:2610  function _add(Set storage set, bytes32 value) private returns (bool) {... */\n    tag_97:\n      swap3\n      swap2\n      pop\n      pop\n      jump\t// out\n        /* \"@openzeppelin/contracts/utils/structs/EnumerableSet.sol\":4247:4374  function _contains(Set storage set, bytes32 value) private view returns (bool) {... */\n    tag_70:\n        /* \"@openzeppelin/contracts/utils/structs/EnumerableSet.sol\":4320:4324  bool */\n      0x00\n        /* \"@openzeppelin/contracts/utils/structs/EnumerableSet.sol\":4366:4367  0 */\n      dup1\n        /* \"@openzeppelin/contracts/utils/structs/EnumerableSet.sol\":4343:4346  set */\n      dup4\n        /* \"@openzeppelin/contracts/utils/structs/EnumerableSet.sol\":4343:4355  set._indexes */\n      0x01\n      add\n        /* \"@openzeppelin/contracts/utils/structs/EnumerableSet.sol\":4343:4362  set._indexes[value] */\n      0x00\n        /* \"@openzeppelin/contracts/utils/structs/EnumerableSet.sol\":4356:4361  value */\n      dup5\n        /* \"@openzeppelin/contracts/utils/structs/EnumerableSet.sol\":4343:4362  set._indexes[value] */\n      dup2\n      mstore\n      0x20\n      add\n      swap1\n      dup2\n      mstore\n      0x20\n      add\n      0x00\n      keccak256\n      sload\n        /* \"@openzeppelin/contracts/utils/structs/EnumerableSet.sol\":4343:4367  set._indexes[value] != 0 */\n      eq\n      iszero\n        /* \"@openzeppelin/contracts/utils/structs/EnumerableSet.sol\":4336:4367  return set._indexes[value] != 0 */\n      swap1\n      pop\n        /* \"@openzeppelin/contracts/utils/structs/EnumerableSet.sol\":4247:4374  function _contains(Set storage set, bytes32 value) private view returns (bool) {... */\n      swap3\n      swap2\n      pop\n      pop\n      jump\t// out\n        /* \"#utility.yul\":7:146   */\n    tag_104:\n        /* \"#utility.yul\":53:58   */\n      0x00\n        /* \"#utility.yul\":91:97   */\n      dup2\n        /* \"#utility.yul\":78:98   */\n      calldataload\n        /* \"#utility.yul\":69:98   */\n      swap1\n      pop\n        /* \"#utility.yul\":107:140   */\n      tag_106\n        /* \"#utility.yul\":134:139   */\n      dup2\n        /* \"#utility.yul\":107:140   */\n      tag_107\n      jump\t// in\n    tag_106:\n        /* \"#utility.yul\":7:146   */\n      swap3\n      swap2\n      pop\n      pop\n      jump\t// out\n        /* \"#utility.yul\":152:481   */\n    tag_19:\n        /* \"#utility.yul\":211:217   */\n      0x00\n        /* \"#utility.yul\":260:262   */\n      0x20\n        /* \"#utility.yul\":248:257   */\n      dup3\n        /* \"#utility.yul\":239:246   */\n      dup5\n        /* \"#utility.yul\":235:258   */\n      sub\n        /* \"#utility.yul\":231:263   */\n      slt\n        /* \"#utility.yul\":228:347   */\n      iszero\n      tag_109\n      jumpi\n        /* \"#utility.yul\":266:345   */\n      tag_110\n      tag_111\n      jump\t// in\n    tag_110:\n        /* \"#utility.yul\":228:347   */\n    tag_109:\n        /* \"#utility.yul\":386:387   */\n      0x00\n        /* \"#utility.yul\":411:464   */\n      tag_112\n        /* \"#utility.yul\":456:463   */\n      dup5\n        /* \"#utility.yul\":447:453   */\n      dup3\n        /* \"#utility.yul\":436:445   */\n      dup6\n        /* \"#utility.yul\":432:454   */\n      add\n        /* \"#utility.yul\":411:464   */\n      tag_104\n      jump\t// in\n    tag_112:\n        /* \"#utility.yul\":401:464   */\n      swap2\n      pop\n        /* \"#utility.yul\":357:474   */\n      pop\n        /* \"#utility.yul\":152:481   */\n      swap3\n      swap2\n      pop\n      pop\n      jump\t// out\n        /* \"#utility.yul\":487:666   */\n    tag_113:\n        /* \"#utility.yul\":556:566   */\n      0x00\n        /* \"#utility.yul\":577:623   */\n      tag_115\n        /* \"#utility.yul\":619:622   */\n      dup4\n        /* \"#utility.yul\":611:617   */\n      dup4\n        /* \"#utility.yul\":577:623   */\n      tag_116\n      jump\t// in\n    tag_115:\n        /* \"#utility.yul\":655:659   */\n      0x20\n        /* \"#utility.yul\":650:653   */\n      dup4\n        /* \"#utility.yul\":646:660   */\n      add\n        /* \"#utility.yul\":632:660   */\n      swap1\n      pop\n        /* \"#utility.yul\":487:666   */\n      swap3\n      swap2\n      pop\n      pop\n      jump\t// out\n        /* \"#utility.yul\":702:1434   */\n    tag_117:\n        /* \"#utility.yul\":821:824   */\n      0x00\n        /* \"#utility.yul\":850:904   */\n      tag_119\n        /* \"#utility.yul\":898:903   */\n      dup3\n        /* \"#utility.yul\":850:904   */\n      tag_120\n      jump\t// in\n    tag_119:\n        /* \"#utility.yul\":920:1006   */\n      tag_121\n        /* \"#utility.yul\":999:1005   */\n      dup2\n        /* \"#utility.yul\":994:997   */\n      dup6\n        /* \"#utility.yul\":920:1006   */\n      tag_122\n      jump\t// in\n    tag_121:\n        /* \"#utility.yul\":913:1006   */\n      swap4\n      pop\n        /* \"#utility.yul\":1030:1086   */\n      tag_123\n        /* \"#utility.yul\":1080:1085   */\n      dup4\n        /* \"#utility.yul\":1030:1086   */\n      tag_124\n      jump\t// in\n    tag_123:\n        /* \"#utility.yul\":1109:1116   */\n      dup1\n        /* \"#utility.yul\":1140:1141   */\n      0x00\n        /* \"#utility.yul\":1125:1409   */\n    tag_125:\n        /* \"#utility.yul\":1150:1156   */\n      dup4\n        /* \"#utility.yul\":1147:1148   */\n      dup2\n        /* \"#utility.yul\":1144:1157   */\n      lt\n        /* \"#utility.yul\":1125:1409   */\n      iszero\n      tag_127\n      jumpi\n        /* \"#utility.yul\":1226:1232   */\n      dup2\n        /* \"#utility.yul\":1220:1233   */\n      mload\n        /* \"#utility.yul\":1253:1316   */\n      tag_128\n        /* \"#utility.yul\":1312:1315   */\n      dup9\n        /* \"#utility.yul\":1297:1310   */\n      dup3\n        /* \"#utility.yul\":1253:1316   */\n      tag_113\n      jump\t// in\n    tag_128:\n        /* \"#utility.yul\":1246:1316   */\n      swap8\n      pop\n        /* \"#utility.yul\":1339:1399   */\n      tag_129\n        /* \"#utility.yul\":1392:1398   */\n      dup4\n        /* \"#utility.yul\":1339:1399   */\n      tag_130\n      jump\t// in\n    tag_129:\n        /* \"#utility.yul\":1329:1399   */\n      swap3\n      pop\n        /* \"#utility.yul\":1185:1409   */\n      pop\n        /* \"#utility.yul\":1172:1173   */\n      0x01\n        /* \"#utility.yul\":1169:1170   */\n      dup2\n        /* \"#utility.yul\":1165:1174   */\n      add\n        /* \"#utility.yul\":1160:1174   */\n      swap1\n      pop\n        /* \"#utility.yul\":1125:1409   */\n      jump(tag_125)\n    tag_127:\n        /* \"#utility.yul\":1129:1143   */\n      pop\n        /* \"#utility.yul\":1425:1428   */\n      dup6\n        /* \"#utility.yul\":1418:1428   */\n      swap4\n      pop\n        /* \"#utility.yul\":826:1434   */\n      pop\n      pop\n      pop\n        /* \"#utility.yul\":702:1434   */\n      swap3\n      swap2\n      pop\n      pop\n      jump\t// out\n        /* \"#utility.yul\":1440:1549   */\n    tag_131:\n        /* \"#utility.yul\":1521:1542   */\n      tag_133\n        /* \"#utility.yul\":1536:1541   */\n      dup2\n        /* \"#utility.yul\":1521:1542   */\n      tag_134\n      jump\t// in\n    tag_133:\n        /* \"#utility.yul\":1516:1519   */\n      dup3\n        /* \"#utility.yul\":1509:1543   */\n      mstore\n        /* \"#utility.yul\":1440:1549   */\n      pop\n      pop\n      jump\t// out\n        /* \"#utility.yul\":1555:1663   */\n    tag_116:\n        /* \"#utility.yul\":1632:1656   */\n      tag_136\n        /* \"#utility.yul\":1650:1655   */\n      dup2\n        /* \"#utility.yul\":1632:1656   */\n      tag_137\n      jump\t// in\n    tag_136:\n        /* \"#utility.yul\":1627:1630   */\n      dup3\n        /* \"#utility.yul\":1620:1657   */\n      mstore\n        /* \"#utility.yul\":1555:1663   */\n      pop\n      pop\n      jump\t// out\n        /* \"#utility.yul\":1669:1787   */\n    tag_138:\n        /* \"#utility.yul\":1756:1780   */\n      tag_140\n        /* \"#utility.yul\":1774:1779   */\n      dup2\n        /* \"#utility.yul\":1756:1780   */\n      tag_137\n      jump\t// in\n    tag_140:\n        /* \"#utility.yul\":1751:1754   */\n      dup3\n        /* \"#utility.yul\":1744:1781   */\n      mstore\n        /* \"#utility.yul\":1669:1787   */\n      pop\n      pop\n      jump\t// out\n        /* \"#utility.yul\":1793:2166   */\n    tag_12:\n        /* \"#utility.yul\":1936:1940   */\n      0x00\n        /* \"#utility.yul\":1974:1976   */\n      0x20\n        /* \"#utility.yul\":1963:1972   */\n      dup3\n        /* \"#utility.yul\":1959:1977   */\n      add\n        /* \"#utility.yul\":1951:1977   */\n      swap1\n      pop\n        /* \"#utility.yul\":2023:2032   */\n      dup2\n        /* \"#utility.yul\":2017:2021   */\n      dup2\n        /* \"#utility.yul\":2013:2033   */\n      sub\n        /* \"#utility.yul\":2009:2010   */\n      0x00\n        /* \"#utility.yul\":1998:2007   */\n      dup4\n        /* \"#utility.yul\":1994:2011   */\n      add\n        /* \"#utility.yul\":1987:2034   */\n      mstore\n        /* \"#utility.yul\":2051:2159   */\n      tag_142\n        /* \"#utility.yul\":2154:2158   */\n      dup2\n        /* \"#utility.yul\":2145:2151   */\n      dup5\n        /* \"#utility.yul\":2051:2159   */\n      tag_117\n      jump\t// in\n    tag_142:\n        /* \"#utility.yul\":2043:2159   */\n      swap1\n      pop\n        /* \"#utility.yul\":1793:2166   */\n      swap3\n      swap2\n      pop\n      pop\n      jump\t// out\n        /* \"#utility.yul\":2172:2382   */\n    tag_26:\n        /* \"#utility.yul\":2259:2263   */\n      0x00\n        /* \"#utility.yul\":2297:2299   */\n      0x20\n        /* \"#utility.yul\":2286:2295   */\n      dup3\n        /* \"#utility.yul\":2282:2300   */\n      add\n        /* \"#utility.yul\":2274:2300   */\n      swap1\n      pop\n        /* \"#utility.yul\":2310:2375   */\n      tag_144\n        /* \"#utility.yul\":2372:2373   */\n      0x00\n        /* \"#utility.yul\":2361:2370   */\n      dup4\n        /* \"#utility.yul\":2357:2374   */\n      add\n        /* \"#utility.yul\":2348:2354   */\n      dup5\n        /* \"#utility.yul\":2310:2375   */\n      tag_131\n      jump\t// in\n    tag_144:\n        /* \"#utility.yul\":2172:2382   */\n      swap3\n      swap2\n      pop\n      pop\n      jump\t// out\n        /* \"#utility.yul\":2388:2610   */\n    tag_16:\n        /* \"#utility.yul\":2481:2485   */\n      0x00\n        /* \"#utility.yul\":2519:2521   */\n      0x20\n        /* \"#utility.yul\":2508:2517   */\n      dup3\n        /* \"#utility.yul\":2504:2522   */\n      add\n        /* \"#utility.yul\":2496:2522   */\n      swap1\n      pop\n        /* \"#utility.yul\":2532:2603   */\n      tag_146\n        /* \"#utility.yul\":2600:2601   */\n      0x00\n        /* \"#utility.yul\":2589:2598   */\n      dup4\n        /* \"#utility.yul\":2585:2602   */\n      add\n        /* \"#utility.yul\":2576:2582   */\n      dup5\n        /* \"#utility.yul\":2532:2603   */\n      tag_138\n      jump\t// in\n    tag_146:\n        /* \"#utility.yul\":2388:2610   */\n      swap3\n      swap2\n      pop\n      pop\n      jump\t// out\n        /* \"#utility.yul\":2697:2829   */\n    tag_124:\n        /* \"#utility.yul\":2764:2768   */\n      0x00\n        /* \"#utility.yul\":2787:2790   */\n      dup2\n        /* \"#utility.yul\":2779:2790   */\n      swap1\n      pop\n        /* \"#utility.yul\":2817:2821   */\n      0x20\n        /* \"#utility.yul\":2812:2815   */\n      dup3\n        /* \"#utility.yul\":2808:2822   */\n      add\n        /* \"#utility.yul\":2800:2822   */\n      swap1\n      pop\n        /* \"#utility.yul\":2697:2829   */\n      swap2\n      swap1\n      pop\n      jump\t// out\n        /* \"#utility.yul\":2835:2949   */\n    tag_120:\n        /* \"#utility.yul\":2902:2908   */\n      0x00\n        /* \"#utility.yul\":2936:2941   */\n      dup2\n        /* \"#utility.yul\":2930:2942   */\n      mload\n        /* \"#utility.yul\":2920:2942   */\n      swap1\n      pop\n        /* \"#utility.yul\":2835:2949   */\n      swap2\n      swap1\n      pop\n      jump\t// out\n        /* \"#utility.yul\":2955:3068   */\n    tag_130:\n        /* \"#utility.yul\":3025:3029   */\n      0x00\n        /* \"#utility.yul\":3057:3061   */\n      0x20\n        /* \"#utility.yul\":3052:3055   */\n      dup3\n        /* \"#utility.yul\":3048:3062   */\n      add\n        /* \"#utility.yul\":3040:3062   */\n      swap1\n      pop\n        /* \"#utility.yul\":2955:3068   */\n      swap2\n      swap1\n      pop\n      jump\t// out\n        /* \"#utility.yul\":3074:3258   */\n    tag_122:\n        /* \"#utility.yul\":3173:3184   */\n      0x00\n        /* \"#utility.yul\":3207:3213   */\n      dup3\n        /* \"#utility.yul\":3202:3205   */\n      dup3\n        /* \"#utility.yul\":3195:3214   */\n      mstore\n        /* \"#utility.yul\":3247:3251   */\n      0x20\n        /* \"#utility.yul\":3242:3245   */\n      dup3\n        /* \"#utility.yul\":3238:3252   */\n      add\n        /* \"#utility.yul\":3223:3252   */\n      swap1\n      pop\n        /* \"#utility.yul\":3074:3258   */\n      swap3\n      swap2\n      pop\n      pop\n      jump\t// out\n        /* \"#utility.yul\":3264:3455   */\n    tag_83:\n        /* \"#utility.yul\":3304:3308   */\n      0x00\n        /* \"#utility.yul\":3324:3344   */\n      tag_154\n        /* \"#utility.yul\":3342:3343   */\n      dup3\n        /* \"#utility.yul\":3324:3344   */\n      tag_137\n      jump\t// in\n    tag_154:\n        /* \"#utility.yul\":3319:3344   */\n      swap2\n      pop\n        /* \"#utility.yul\":3358:3378   */\n      tag_155\n        /* \"#utility.yul\":3376:3377   */\n      dup4\n        /* \"#utility.yul\":3358:3378   */\n      tag_137\n      jump\t// in\n    tag_155:\n        /* \"#utility.yul\":3353:3378   */\n      swap3\n      pop\n        /* \"#utility.yul\":3397:3398   */\n      dup3\n        /* \"#utility.yul\":3394:3395   */\n      dup3\n        /* \"#utility.yul\":3391:3399   */\n      lt\n        /* \"#utility.yul\":3388:3422   */\n      iszero\n      tag_156\n      jumpi\n        /* \"#utility.yul\":3402:3420   */\n      tag_157\n      tag_158\n      jump\t// in\n    tag_157:\n        /* \"#utility.yul\":3388:3422   */\n    tag_156:\n        /* \"#utility.yul\":3447:3448   */\n      dup3\n        /* \"#utility.yul\":3444:3445   */\n      dup3\n        /* \"#utility.yul\":3440:3449   */\n      sub\n        /* \"#utility.yul\":3432:3449   */\n      swap1\n      pop\n        /* \"#utility.yul\":3264:3455   */\n      swap3\n      swap2\n      pop\n      pop\n      jump\t// out\n        /* \"#utility.yul\":3461:3551   */\n    tag_134:\n        /* \"#utility.yul\":3495:3502   */\n      0x00\n        /* \"#utility.yul\":3538:3543   */\n      dup2\n        /* \"#utility.yul\":3531:3544   */\n      iszero\n        /* \"#utility.yul\":3524:3545   */\n      iszero\n        /* \"#utility.yul\":3513:3545   */\n      swap1\n      pop\n        /* \"#utility.yul\":3461:3551   */\n      swap2\n      swap1\n      pop\n      jump\t// out\n        /* \"#utility.yul\":3557:3634   */\n    tag_137:\n        /* \"#utility.yul\":3594:3601   */\n      0x00\n        /* \"#utility.yul\":3623:3628   */\n      dup2\n        /* \"#utility.yul\":3612:3628   */\n      swap1\n      pop\n        /* \"#utility.yul\":3557:3634   */\n      swap2\n      swap1\n      pop\n      jump\t// out\n        /* \"#utility.yul\":3640:3820   */\n    tag_158:\n        /* \"#utility.yul\":3688:3765   */\n      0x4e487b7100000000000000000000000000000000000000000000000000000000\n        /* \"#utility.yul\":3685:3686   */\n      0x00\n        /* \"#utility.yul\":3678:3766   */\n      mstore\n        /* \"#utility.yul\":3785:3789   */\n      0x11\n        /* \"#utility.yul\":3782:3783   */\n      0x04\n        /* \"#utility.yul\":3775:3790   */\n      mstore\n        /* \"#utility.yul\":3809:3813   */\n      0x24\n        /* \"#utility.yul\":3806:3807   */\n      0x00\n        /* \"#utility.yul\":3799:3814   */\n      revert\n        /* \"#utility.yul\":3826:4006   */\n    tag_94:\n        /* \"#utility.yul\":3874:3951   */\n      0x4e487b7100000000000000000000000000000000000000000000000000000000\n        /* \"#utility.yul\":3871:3872   */\n      0x00\n        /* \"#utility.yul\":3864:3952   */\n      mstore\n        /* \"#utility.yul\":3971:3975   */\n      0x31\n        /* \"#utility.yul\":3968:3969   */\n      0x04\n        /* \"#utility.yul\":3961:3976   */\n      mstore\n        /* \"#utility.yul\":3995:3999   */\n      0x24\n        /* \"#utility.yul\":3992:3993   */\n      0x00\n        /* \"#utility.yul\":3985:4000   */\n      revert\n        /* \"#utility.yul\":4012:4192   */\n    tag_78:\n        /* \"#utility.yul\":4060:4137   */\n      0x4e487b7100000000000000000000000000000000000000000000000000000000\n        /* \"#utility.yul\":4057:4058   */\n      0x00\n        /* \"#utility.yul\":4050:4138   */\n      mstore\n        /* \"#utility.yul\":4157:4161   */\n      0x32\n        /* \"#utility.yul\":4154:4155   */\n      0x04\n        /* \"#utility.yul\":4147:4162   */\n      mstore\n        /* \"#utility.yul\":4181:4185   */\n      0x24\n        /* \"#utility.yul\":4178:4179   */\n      0x00\n        /* \"#utility.yul\":4171:4186   */\n      revert\n        /* \"#utility.yul\":4321:4438   */\n    tag_111:\n        /* \"#utility.yul\":4430:4431   */\n      0x00\n        /* \"#utility.yul\":4427:4428   */\n      dup1\n        /* \"#utility.yul\":4420:4432   */\n      revert\n        /* \"#utility.yul\":4444:4566   */\n    tag_107:\n        /* \"#utility.yul\":4517:4541   */\n      tag_168\n        /* \"#utility.yul\":4535:4540   */\n      dup2\n        /* \"#utility.yul\":4517:4541   */\n      tag_137\n      jump\t// in\n    tag_168:\n        /* \"#utility.yul\":4510:4515   */\n      dup2\n        /* \"#utility.yul\":4507:4542   */\n      eq\n        /* \"#utility.yul\":4497:4560   */\n      tag_169\n      jumpi\n        /* \"#utility.yul\":4556:4557   */\n      0x00\n        /* \"#utility.yul\":4553:4554   */\n      dup1\n        /* \"#utility.yul\":4546:4558   */\n      revert\n        /* \"#utility.yul\":4497:4560   */\n    tag_169:\n        /* \"#utility.yul\":4444:4566   */\n      pop\n      jump\t// out\n\n    auxdata: 0xa2646970667358221220b9354afebbf48374585a585b66dd8d9527e4ed9780b88c2779ef723769b9881864736f6c63430008070033\n}\n",
				"bytecode": {
					"linkReferences": {},
					"object": "608060405234801561001057600080fd5b50610775806100206000396000f3fe608060405234801561001057600080fd5b50600436106100625760003560e01c806375a65b23146100675780638d9fe83a14610085578063c337923f146100a3578063c85cc5d9146100d3578063e6b406d014610103578063e8f9d88714610133575b600080fd5b61006f610163565b60405161007c91906105bb565b60405180910390f35b61008d610174565b60405161009a91906105f8565b60405180910390f35b6100bd60048036038101906100b891906104eb565b610185565b6040516100ca91906105f8565b60405180910390f35b6100ed60048036038101906100e891906104eb565b6101a2565b6040516100fa91906105dd565b60405180910390f35b61011d600480360381019061011891906104eb565b6101bf565b60405161012a91906105dd565b60405180910390f35b61014d600480360381019061014891906104eb565b6101dc565b60405161015a91906105dd565b60405180910390f35b606061016f60006101f9565b905090565b6000610180600061021a565b905090565b600061019b82600061022f90919063ffffffff16565b9050919050565b60006101b882600061024990919063ffffffff16565b9050919050565b60006101d582600061026390919063ffffffff16565b9050919050565b60006101f282600061027d90919063ffffffff16565b9050919050565b6060600061020983600001610297565b905060608190508092505050919050565b6000610228826000016102f3565b9050919050565b600061023e8360000183610304565b60001c905092915050565b600061025b836000018360001b61032f565b905092915050565b6000610275836000018360001b610443565b905092915050565b600061028f836000018360001b6104b3565b905092915050565b6060816000018054806020026020016040519081016040528092919081815260200182805480156102e757602002820191906000526020600020905b8154815260200190600101908083116102d3575b50505050509050919050565b600081600001805490509050919050565b600082600001828154811061031c5761031b6106f4565b5b9060005260206000200154905092915050565b60008083600101600084815260200190815260200160002054905060008114610437576000600182610361919061064c565b9050600060018660000180549050610379919061064c565b90508181146103e857600086600001828154811061039a576103996106f4565b5b90600052602060002001549050808760000184815481106103be576103bd6106f4565b5b90600052602060002001819055508387600101600083815260200190815260200160002081905550505b856000018054806103fc576103fb6106c5565b5b60019003818190600052602060002001600090559055856001016000868152602001908152602001600020600090556001935050505061043d565b60009150505b92915050565b600061044f83836104b3565b6104a85782600001829080600181540180825580915050600190039060005260206000200160009091909190915055826000018054905083600101600084815260200190815260200160002081905550600190506104ad565b600090505b92915050565b600080836001016000848152602001908152602001600020541415905092915050565b6000813590506104e581610728565b92915050565b60006020828403121561050157610500610723565b5b600061050f848285016104d6565b91505092915050565b6000610524838361059d565b60208301905092915050565b600061053b82610623565b610545818561063b565b935061055083610613565b8060005b838110156105815781516105688882610518565b97506105738361062e565b925050600181019050610554565b5085935050505092915050565b61059781610680565b82525050565b6105a68161068c565b82525050565b6105b58161068c565b82525050565b600060208201905081810360008301526105d58184610530565b905092915050565b60006020820190506105f2600083018461058e565b92915050565b600060208201905061060d60008301846105ac565b92915050565b6000819050602082019050919050565b600081519050919050565b6000602082019050919050565b600082825260208201905092915050565b60006106578261068c565b91506106628361068c565b92508282101561067557610674610696565b5b828203905092915050565b60008115159050919050565b6000819050919050565b7f4e487b7100000000000000000000000000000000000000000000000000000000600052601160045260246000fd5b7f4e487b7100000000000000000000000000000000000000000000000000000000600052603160045260246000fd5b7f4e487b7100000000000000000000000000000000000000000000000000000000600052603260045260246000fd5b600080fd5b6107318161068c565b811461073c57600080fd5b5056fea2646970667358221220b9354afebbf48374585a585b66dd8d9527e4ed9780b88c2779ef723769b9881864736f6c63430008070033",
					"opcodes": "PUSH1 0x80 PUSH1 0x40 MSTORE CALLVALUE DUP1 ISZERO PUSH2 0x10 JUMPI PUSH1 0x0 DUP1 REVERT JUMPDEST POP PUSH2 0x775 DUP1 PUSH2 0x20 PUSH1 0x0 CODECOPY PUSH1 0x0 RETURN INVALID PUSH1 0x80 PUSH1 0x40 MSTORE CALLVALUE DUP1 ISZERO PUSH2 0x10 JUMPI PUSH1 0x0 DUP1 REVERT JUMPDEST POP PUSH1 0x4 CALLDATASIZE LT PUSH2 0x62 JUMPI PUSH1 0x0 CALLDATALOAD PUSH1 0xE0 SHR DUP1 PUSH4 0x75A65B23 EQ PUSH2 0x67 JUMPI DUP1 PUSH4 0x8D9FE83A EQ PUSH2 0x85 JUMPI DUP1 PUSH4 0xC337923F EQ PUSH2 0xA3 JUMPI DUP1 PUSH4 0xC85CC5D9 EQ PUSH2 0xD3 JUMPI DUP1 PUSH4 0xE6B406D0 EQ PUSH2 0x103 JUMPI DUP1 PUSH4 0xE8F9D887 EQ PUSH2 0x133 JUMPI JUMPDEST PUSH1 0x0 DUP1 REVERT JUMPDEST PUSH2 0x6F PUSH2 0x163 JUMP JUMPDEST PUSH1 0x40 MLOAD PUSH2 0x7C SWAP2 SWAP1 PUSH2 0x5BB JUMP JUMPDEST PUSH1 0x40 MLOAD DUP1 SWAP2 SUB SWAP1 RETURN JUMPDEST PUSH2 0x8D PUSH2 0x174 JUMP JUMPDEST PUSH1 0x40 MLOAD PUSH2 0x9A SWAP2 SWAP1 PUSH2 0x5F8 JUMP JUMPDEST PUSH1 0x40 MLOAD DUP1 SWAP2 SUB SWAP1 RETURN JUMPDEST PUSH2 0xBD PUSH1 0x4 DUP1 CALLDATASIZE SUB DUP2 ADD SWAP1 PUSH2 0xB8 SWAP2 SWAP1 PUSH2 0x4EB JUMP JUMPDEST PUSH2 0x185 JUMP JUMPDEST PUSH1 0x40 MLOAD PUSH2 0xCA SWAP2 SWAP1 PUSH2 0x5F8 JUMP JUMPDEST PUSH1 0x40 MLOAD DUP1 SWAP2 SUB SWAP1 RETURN JUMPDEST PUSH2 0xED PUSH1 0x4 DUP1 CALLDATASIZE SUB DUP2 ADD SWAP1 PUSH2 0xE8 SWAP2 SWAP1 PUSH2 0x4EB JUMP JUMPDEST PUSH2 0x1A2 JUMP JUMPDEST PUSH1 0x40 MLOAD PUSH2 0xFA SWAP2 SWAP1 PUSH2 0x5DD JUMP JUMPDEST PUSH1 0x40 MLOAD DUP1 SWAP2 SUB SWAP1 RETURN JUMPDEST PUSH2 0x11D PUSH1 0x4 DUP1 CALLDATASIZE SUB DUP2 ADD SWAP1 PUSH2 0x118 SWAP2 SWAP1 PUSH2 0x4EB JUMP JUMPDEST PUSH2 0x1BF JUMP JUMPDEST PUSH1 0x40 MLOAD PUSH2 0x12A SWAP2 SWAP1 PUSH2 0x5DD JUMP JUMPDEST PUSH1 0x40 MLOAD DUP1 SWAP2 SUB SWAP1 RETURN JUMPDEST PUSH2 0x14D PUSH1 0x4 DUP1 CALLDATASIZE SUB DUP2 ADD SWAP1 PUSH2 0x148 SWAP2 SWAP1 PUSH2 0x4EB JUMP JUMPDEST PUSH2 0x1DC JUMP JUMPDEST PUSH1 0x40 MLOAD PUSH2 0x15A SWAP2 SWAP1 PUSH2 0x5DD JUMP JUMPDEST PUSH1 0x40 MLOAD DUP1 SWAP2 SUB SWAP1 RETURN JUMPDEST PUSH1 0x60 PUSH2 0x16F PUSH1 0x0 PUSH2 0x1F9 JUMP JUMPDEST SWAP1 POP SWAP1 JUMP JUMPDEST PUSH1 0x0 PUSH2 0x180 PUSH1 0x0 PUSH2 0x21A JUMP JUMPDEST SWAP1 POP SWAP1 JUMP JUMPDEST PUSH1 0x0 PUSH2 0x19B DUP3 PUSH1 0x0 PUSH2 0x22F SWAP1 SWAP2 SWAP1 PUSH4 0xFFFFFFFF AND JUMP JUMPDEST SWAP1 POP SWAP2 SWAP1 POP JUMP JUMPDEST PUSH1 0x0 PUSH2 0x1B8 DUP3 PUSH1 0x0 PUSH2 0x249 SWAP1 SWAP2 SWAP1 PUSH4 0xFFFFFFFF AND JUMP JUMPDEST SWAP1 POP SWAP2 SWAP1 POP JUMP JUMPDEST PUSH1 0x0 PUSH2 0x1D5 DUP3 PUSH1 0x0 PUSH2 0x263 SWAP1 SWAP2 SWAP1 PUSH4 0xFFFFFFFF AND JUMP JUMPDEST SWAP1 POP SWAP2 SWAP1 POP JUMP JUMPDEST PUSH1 0x0 PUSH2 0x1F2 DUP3 PUSH1 0x0 PUSH2 0x27D SWAP1 SWAP2 SWAP1 PUSH4 0xFFFFFFFF AND JUMP JUMPDEST SWAP1 POP SWAP2 SWAP1 POP JUMP JUMPDEST PUSH1 0x60 PUSH1 0x0 PUSH2 0x209 DUP4 PUSH1 0x0 ADD PUSH2 0x297 JUMP JUMPDEST SWAP1 POP PUSH1 0x60 DUP2 SWAP1 POP DUP1 SWAP3 POP POP POP SWAP2 SWAP1 POP JUMP JUMPDEST PUSH1 0x0 PUSH2 0x228 DUP3 PUSH1 0x0 ADD PUSH2 0x2F3 JUMP JUMPDEST SWAP1 POP SWAP2 SWAP1 POP JUMP JUMPDEST PUSH1 0x0 PUSH2 0x23E DUP4 PUSH1 0x0 ADD DUP4 PUSH2 0x304 JUMP JUMPDEST PUSH1 0x0 SHR SWAP1 POP SWAP3 SWAP2 POP POP JUMP JUMPDEST PUSH1 0x0 PUSH2 0x25B DUP4 PUSH1 0x0 ADD DUP4 PUSH1 0x0 SHL PUSH2 0x32F JUMP JUMPDEST SWAP1 POP SWAP3 SWAP2 POP POP JUMP JUMPDEST PUSH1 0x0 PUSH2 0x275 DUP4 PUSH1 0x0 ADD DUP4 PUSH1 0x0 SHL PUSH2 0x443 JUMP JUMPDEST SWAP1 POP SWAP3 SWAP2 POP POP JUMP JUMPDEST PUSH1 0x0 PUSH2 0x28F DUP4 PUSH1 0x0 ADD DUP4 PUSH1 0x0 SHL PUSH2 0x4B3 JUMP JUMPDEST SWAP1 POP SWAP3 SWAP2 POP POP JUMP JUMPDEST PUSH1 0x60 DUP2 PUSH1 0x0 ADD DUP1 SLOAD DUP1 PUSH1 0x20 MUL PUSH1 0x20 ADD PUSH1 0x40 MLOAD SWAP1 DUP2 ADD PUSH1 0x40 MSTORE DUP1 SWAP3 SWAP2 SWAP1 DUP2 DUP2 MSTORE PUSH1 0x20 ADD DUP3 DUP1 SLOAD DUP1 ISZERO PUSH2 0x2E7 JUMPI PUSH1 0x20 MUL DUP3 ADD SWAP2 SWAP1 PUSH1 0x0 MSTORE PUSH1 0x20 PUSH1 0x0 KECCAK256 SWAP1 JUMPDEST DUP2 SLOAD DUP2 MSTORE PUSH1 0x20 ADD SWAP1 PUSH1 0x1 ADD SWAP1 DUP1 DUP4 GT PUSH2 0x2D3 JUMPI JUMPDEST POP POP POP POP POP SWAP1 POP SWAP2 SWAP1 POP JUMP JUMPDEST PUSH1 0x0 DUP2 PUSH1 0x0 ADD DUP1 SLOAD SWAP1 POP SWAP1 POP SWAP2 SWAP1 POP JUMP JUMPDEST PUSH1 0x0 DUP3 PUSH1 0x0 ADD DUP3 DUP2 SLOAD DUP2 LT PUSH2 0x31C JUMPI PUSH2 0x31B PUSH2 0x6F4 JUMP JUMPDEST JUMPDEST SWAP1 PUSH1 0x0 MSTORE PUSH1 0x20 PUSH1 0x0 KECCAK256 ADD SLOAD SWAP1 POP SWAP3 SWAP2 POP POP JUMP JUMPDEST PUSH1 0x0 DUP1 DUP4 PUSH1 0x1 ADD PUSH1 0x0 DUP5 DUP2 MSTORE PUSH1 0x20 ADD SWAP1 DUP2 MSTORE PUSH1 0x20 ADD PUSH1 0x0 KECCAK256 SLOAD SWAP1 POP PUSH1 0x0 DUP2 EQ PUSH2 0x437 JUMPI PUSH1 0x0 PUSH1 0x1 DUP3 PUSH2 0x361 SWAP2 SWAP1 PUSH2 0x64C JUMP JUMPDEST SWAP1 POP PUSH1 0x0 PUSH1 0x1 DUP7 PUSH1 0x0 ADD DUP1 SLOAD SWAP1 POP PUSH2 0x379 SWAP2 SWAP1 PUSH2 0x64C JUMP JUMPDEST SWAP1 POP DUP2 DUP2 EQ PUSH2 0x3E8 JUMPI PUSH1 0x0 DUP7 PUSH1 0x0 ADD DUP3 DUP2 SLOAD DUP2 LT PUSH2 0x39A JUMPI PUSH2 0x399 PUSH2 0x6F4 JUMP JUMPDEST JUMPDEST SWAP1 PUSH1 0x0 MSTORE PUSH1 0x20 PUSH1 0x0 KECCAK256 ADD SLOAD SWAP1 POP DUP1 DUP8 PUSH1 0x0 ADD DUP5 DUP2 SLOAD DUP2 LT PUSH2 0x3BE JUMPI PUSH2 0x3BD PUSH2 0x6F4 JUMP JUMPDEST JUMPDEST SWAP1 PUSH1 0x0 MSTORE PUSH1 0x20 PUSH1 0x0 KECCAK256 ADD DUP2 SWAP1 SSTORE POP DUP4 DUP8 PUSH1 0x1 ADD PUSH1 0x0 DUP4 DUP2 MSTORE PUSH1 0x20 ADD SWAP1 DUP2 MSTORE PUSH1 0x20 ADD PUSH1 0x0 KECCAK256 DUP2 SWAP1 SSTORE POP POP JUMPDEST DUP6 PUSH1 0x0 ADD DUP1 SLOAD DUP1 PUSH2 0x3FC JUMPI PUSH2 0x3FB PUSH2 0x6C5 JUMP JUMPDEST JUMPDEST PUSH1 0x1 SWAP1 SUB DUP2 DUP2 SWAP1 PUSH1 0x0 MSTORE PUSH1 0x20 PUSH1 0x0 KECCAK256 ADD PUSH1 0x0 SWAP1 SSTORE SWAP1 SSTORE DUP6 PUSH1 0x1 ADD PUSH1 0x0 DUP7 DUP2 MSTORE PUSH1 0x20 ADD SWAP1 DUP2 MSTORE PUSH1 0x20 ADD PUSH1 0x0 KECCAK256 PUSH1 0x0 SWAP1 SSTORE PUSH1 0x1 SWAP4 POP POP POP POP PUSH2 0x43D JUMP JUMPDEST PUSH1 0x0 SWAP2 POP POP JUMPDEST SWAP3 SWAP2 POP POP JUMP JUMPDEST PUSH1 0x0 PUSH2 0x44F DUP4 DUP4 PUSH2 0x4B3 JUMP JUMPDEST PUSH2 0x4A8 JUMPI DUP3 PUSH1 0x0 ADD DUP3 SWAP1 DUP1 PUSH1 0x1 DUP2 SLOAD ADD DUP1 DUP3 SSTORE DUP1 SWAP2 POP POP PUSH1 0x1 SWAP1 SUB SWAP1 PUSH1 0x0 MSTORE PUSH1 0x20 PUSH1 0x0 KECCAK256 ADD PUSH1 0x0 SWAP1 SWAP2 SWAP1 SWAP2 SWAP1 SWAP2 POP SSTORE DUP3 PUSH1 0x0 ADD DUP1 SLOAD SWAP1 POP DUP4 PUSH1 0x1 ADD PUSH1 0x0 DUP5 DUP2 MSTORE PUSH1 0x20 ADD SWAP1 DUP2 MSTORE PUSH1 0x20 ADD PUSH1 0x0 KECCAK256 DUP2 SWAP1 SSTORE POP PUSH1 0x1 SWAP1 POP PUSH2 0x4AD JUMP JUMPDEST PUSH1 0x0 SWAP1 POP JUMPDEST SWAP3 SWAP2 POP POP JUMP JUMPDEST PUSH1 0x0 DUP1 DUP4 PUSH1 0x1 ADD PUSH1 0x0 DUP5 DUP2 MSTORE PUSH1 0x20 ADD SWAP1 DUP2 MSTORE PUSH1 0x20 ADD PUSH1 0x0 KECCAK256 SLOAD EQ ISZERO SWAP1 POP SWAP3 SWAP2 POP POP JUMP JUMPDEST PUSH1 0x0 DUP2 CALLDATALOAD SWAP1 POP PUSH2 0x4E5 DUP2 PUSH2 0x728 JUMP JUMPDEST SWAP3 SWAP2 POP POP JUMP JUMPDEST PUSH1 0x0 PUSH1 0x20 DUP3 DUP5 SUB SLT ISZERO PUSH2 0x501 JUMPI PUSH2 0x500 PUSH2 0x723 JUMP JUMPDEST JUMPDEST PUSH1 0x0 PUSH2 0x50F DUP5 DUP3 DUP6 ADD PUSH2 0x4D6 JUMP JUMPDEST SWAP2 POP POP SWAP3 SWAP2 POP POP JUMP JUMPDEST PUSH1 0x0 PUSH2 0x524 DUP4 DUP4 PUSH2 0x59D JUMP JUMPDEST PUSH1 0x20 DUP4 ADD SWAP1 POP SWAP3 SWAP2 POP POP JUMP JUMPDEST PUSH1 0x0 PUSH2 0x53B DUP3 PUSH2 0x623 JUMP JUMPDEST PUSH2 0x545 DUP2 DUP6 PUSH2 0x63B JUMP JUMPDEST SWAP4 POP PUSH2 0x550 DUP4 PUSH2 0x613 JUMP JUMPDEST DUP1 PUSH1 0x0 JUMPDEST DUP4 DUP2 LT ISZERO PUSH2 0x581 JUMPI DUP2 MLOAD PUSH2 0x568 DUP9 DUP3 PUSH2 0x518 JUMP JUMPDEST SWAP8 POP PUSH2 0x573 DUP4 PUSH2 0x62E JUMP JUMPDEST SWAP3 POP POP PUSH1 0x1 DUP2 ADD SWAP1 POP PUSH2 0x554 JUMP JUMPDEST POP DUP6 SWAP4 POP POP POP POP SWAP3 SWAP2 POP POP JUMP JUMPDEST PUSH2 0x597 DUP2 PUSH2 0x680 JUMP JUMPDEST DUP3 MSTORE POP POP JUMP JUMPDEST PUSH2 0x5A6 DUP2 PUSH2 0x68C JUMP JUMPDEST DUP3 MSTORE POP POP JUMP JUMPDEST PUSH2 0x5B5 DUP2 PUSH2 0x68C JUMP JUMPDEST DUP3 MSTORE POP POP JUMP JUMPDEST PUSH1 0x0 PUSH1 0x20 DUP3 ADD SWAP1 POP DUP2 DUP2 SUB PUSH1 0x0 DUP4 ADD MSTORE PUSH2 0x5D5 DUP2 DUP5 PUSH2 0x530 JUMP JUMPDEST SWAP1 POP SWAP3 SWAP2 POP POP JUMP JUMPDEST PUSH1 0x0 PUSH1 0x20 DUP3 ADD SWAP1 POP PUSH2 0x5F2 PUSH1 0x0 DUP4 ADD DUP5 PUSH2 0x58E JUMP JUMPDEST SWAP3 SWAP2 POP POP JUMP JUMPDEST PUSH1 0x0 PUSH1 0x20 DUP3 ADD SWAP1 POP PUSH2 0x60D PUSH1 0x0 DUP4 ADD DUP5 PUSH2 0x5AC JUMP JUMPDEST SWAP3 SWAP2 POP POP JUMP JUMPDEST PUSH1 0x0 DUP2 SWAP1 POP PUSH1 0x20 DUP3 ADD SWAP1 POP SWAP2 SWAP1 POP JUMP JUMPDEST PUSH1 0x0 DUP2 MLOAD SWAP1 POP SWAP2 SWAP1 POP JUMP JUMPDEST PUSH1 0x0 PUSH1 0x20 DUP3 ADD SWAP1 POP SWAP2 SWAP1 POP JUMP JUMPDEST PUSH1 0x0 DUP3 DUP3 MSTORE PUSH1 0x20 DUP3 ADD SWAP1 POP SWAP3 SWAP2 POP POP JUMP JUMPDEST PUSH1 0x0 PUSH2 0x657 DUP3 PUSH2 0x68C JUMP JUMPDEST SWAP2 POP PUSH2 0x662 DUP4 PUSH2 0x68C JUMP JUMPDEST SWAP3 POP DUP3 DUP3 LT ISZERO PUSH2 0x675 JUMPI PUSH2 0x674 PUSH2 0x696 JUMP JUMPDEST JUMPDEST DUP3 DUP3 SUB SWAP1 POP SWAP3 SWAP2 POP POP JUMP JUMPDEST PUSH1 0x0 DUP2 ISZERO ISZERO SWAP1 POP SWAP2 SWAP1 POP JUMP JUMPDEST PUSH1 0x0 DUP2 SWAP1 POP SWAP2 SWAP1 POP JUMP JUMPDEST PUSH32 0x4E487B7100000000000000000000000000000000000000000000000000000000 PUSH1 0x0 MSTORE PUSH1 0x11 PUSH1 0x4 MSTORE PUSH1 0x24 PUSH1 0x0 REVERT JUMPDEST PUSH32 0x4E487B7100000000000000000000000000000000000000000000000000000000 PUSH1 0x0 MSTORE PUSH1 0x31 PUSH1 0x4 MSTORE PUSH1 0x24 PUSH1 0x0 REVERT JUMPDEST PUSH32 0x4E487B7100000000000000000000000000000000000000000000000000000000 PUSH1 0x0 MSTORE PUSH1 0x32 PUSH1 0x4 MSTORE PUSH1 0x24 PUSH1 0x0 REVERT JUMPDEST PUSH1 0x0 DUP1 REVERT JUMPDEST PUSH2 0x731 DUP2 PUSH2 0x68C JUMP JUMPDEST DUP2 EQ PUSH2 0x73C JUMPI PUSH1 0x0 DUP1 REVERT JUMPDEST POP JUMP INVALID LOG2 PUSH5 0x6970667358 0x22 SLT KECCAK256 0xB9 CALLDATALOAD 0x4A INVALID 0xBB DELEGATECALL DUP4 PUSH21 0x585A585B66DD8D9527E4ED9780B88C2779EF723769 0xB9 DUP9 XOR PUSH5 0x736F6C6343 STOP ADDMOD SMOD STOP CALLER "
				},
				"gasEstimates": {
					"creation": {
						"codeDepositCost": "381800",
						"executionCost": "418",
						"totalCost": "382218"
					},
					"external": {
						"add_(uint256)": "infinite",
						"at_(uint256)": "infinite",
						"contains_(uint256)": "infinite",
						"length_()": "2543",
						"remove_(uint256)": "infinite",
						"values_()": "infinite"
					}
				},
				"methodIdentifiers": {
					"add_(uint256)": "e6b406d0",
					"at_(uint256)": "c337923f",
					"contains_(uint256)": "e8f9d887",
					"length_()": "8d9fe83a",
					"remove_(uint256)": "c85cc5d9",
					"values_()": "75a65b23"
				}
			},
			"storageLayout": {
				"storage": [
					{
						"astId": 622,
						"contract": "Openzepellin/EnumerableTest/EnumerableTest1.sol:EnumerableSet_test1",
						"label": "set",
						"offset": 0,
						"slot": "0",
						"type": "t_struct(UintSet)482_storage"
					}
				],
				"types": {
					"t_array(t_bytes32)dyn_storage": {
						"base": "t_bytes32",
						"encoding": "dynamic_array",
						"label": "bytes32[]",
						"numberOfBytes": "32"
					},
					"t_bytes32": {
						"encoding": "inplace",
						"label": "bytes32",
						"numberOfBytes": "32"
					},
					"t_mapping(t_bytes32,t_uint256)": {
						"encoding": "mapping",
						"key": "t_bytes32",
						"label": "mapping(bytes32 => uint256)",
						"numberOfBytes": "32",
						"value": "t_uint256"
					},
					"t_struct(Set)10_storage": {
						"encoding": "inplace",
						"label": "struct EnumerableSet.Set",
						"members": [
							{
								"astId": 5,
								"contract": "Openzepellin/EnumerableTest/EnumerableTest1.sol:EnumerableSet_test1",
								"label": "_values",
								"offset": 0,
								"slot": "0",
								"type": "t_array(t_bytes32)dyn_storage"
							},
							{
								"astId": 9,
								"contract": "Openzepellin/EnumerableTest/EnumerableTest1.sol:EnumerableSet_test1",
								"label": "_indexes",
								"offset": 0,
								"slot": "1",
								"type": "t_mapping(t_bytes32,t_uint256)"
							}
						],
						"numberOfBytes": "64"
					},
					"t_struct(UintSet)482_storage": {
						"encoding": "inplace",
						"label": "struct EnumerableSet.UintSet",
						"members": [
							{
								"astId": 481,
								"contract": "Openzepellin/EnumerableTest/EnumerableTest1.sol:EnumerableSet_test1",
								"label": "_inner",
								"offset": 0,
								"slot": "0",
								"type": "t_struct(Set)10_storage"
							}
						],
						"numberOfBytes": "64"
					},
					"t_uint256": {
						"encoding": "inplace",
						"label": "uint256",
						"numberOfBytes": "32"
					}
				}
			},
			"userdoc": {
				"kind": "user",
				"methods": {},
				"version": 1
			}
		}
	}
}