{
	"Openzepellin/EnumerableTest/EnumerableMapTest.sol": {
		"usinEnumMap": {
			"abi": [
				{
					"inputs": [
						{
							"internalType": "uint256",
							"name": "index",
							"type": "uint256"
						}
					],
					"name": "at_",
					"outputs": [
						{
							"internalType": "uint256",
							"name": "",
							"type": "uint256"
						},
						{
							"internalType": "address",
							"name": "",
							"type": "address"
						}
					],
					"stateMutability": "view",
					"type": "function"
				},
				{
					"inputs": [
						{
							"internalType": "uint256",
							"name": "key",
							"type": "uint256"
						}
					],
					"name": "contains_",
					"outputs": [
						{
							"internalType": "bool",
							"name": "",
							"type": "bool"
						}
					],
					"stateMutability": "view",
					"type": "function"
				},
				{
					"inputs": [
						{
							"internalType": "uint256",
							"name": "key",
							"type": "uint256"
						}
					],
					"name": "get_",
					"outputs": [
						{
							"internalType": "address",
							"name": "",
							"type": "address"
						}
					],
					"stateMutability": "view",
					"type": "function"
				},
				{
					"inputs": [],
					"name": "length_",
					"outputs": [
						{
							"internalType": "uint256",
							"name": "",
							"type": "uint256"
						}
					],
					"stateMutability": "view",
					"type": "function"
				},
				{
					"inputs": [
						{
							"internalType": "uint256",
							"name": "key",
							"type": "uint256"
						}
					],
					"name": "remove_",
					"outputs": [
						{
							"internalType": "bool",
							"name": "",
							"type": "bool"
						}
					],
					"stateMutability": "nonpayable",
					"type": "function"
				},
				{
					"inputs": [
						{
							"internalType": "uint256",
							"name": "key",
							"type": "uint256"
						},
						{
							"internalType": "address",
							"name": "value",
							"type": "address"
						}
					],
					"name": "set_",
					"outputs": [
						{
							"internalType": "bool",
							"name": "",
							"type": "bool"
						}
					],
					"stateMutability": "nonpayable",
					"type": "function"
				},
				{
					"inputs": [
						{
							"internalType": "uint256",
							"name": "key",
							"type": "uint256"
						}
					],
					"name": "tryGet_",
					"outputs": [
						{
							"internalType": "bool",
							"name": "",
							"type": "bool"
						},
						{
							"internalType": "address",
							"name": "",
							"type": "address"
						}
					],
					"stateMutability": "view",
					"type": "function"
				}
			],
			"devdoc": {
				"kind": "dev",
				"methods": {},
				"version": 1
			},
			"evm": {
				"assembly": "    /* \"Openzepellin/EnumerableTest/EnumerableMapTest.sol\":135:1068  contract usinEnumMap {\r... */\n  mstore(0x40, 0x80)\n  callvalue\n  dup1\n  iszero\n  tag_1\n  jumpi\n  0x00\n  dup1\n  revert\ntag_1:\n  pop\n  dataSize(sub_0)\n  dup1\n  dataOffset(sub_0)\n  0x00\n  codecopy\n  0x00\n  return\nstop\n\nsub_0: assembly {\n        /* \"Openzepellin/EnumerableTest/EnumerableMapTest.sol\":135:1068  contract usinEnumMap {\r... */\n      mstore(0x40, 0x80)\n      callvalue\n      dup1\n      iszero\n      tag_1\n      jumpi\n      0x00\n      dup1\n      revert\n    tag_1:\n      pop\n      jumpi(tag_2, lt(calldatasize, 0x04))\n      shr(0xe0, calldataload(0x00))\n      dup1\n      0x8d9fe83a\n      gt\n      tag_10\n      jumpi\n      dup1\n      0x8d9fe83a\n      eq\n      tag_6\n      jumpi\n      dup1\n      0xc337923f\n      eq\n      tag_7\n      jumpi\n      dup1\n      0xc85cc5d9\n      eq\n      tag_8\n      jumpi\n      dup1\n      0xe8f9d887\n      eq\n      tag_9\n      jumpi\n      jump(tag_2)\n    tag_10:\n      dup1\n      0x1797864d\n      eq\n      tag_3\n      jumpi\n      dup1\n      0x21a16452\n      eq\n      tag_4\n      jumpi\n      dup1\n      0x7c4dd385\n      eq\n      tag_5\n      jumpi\n    tag_2:\n      0x00\n      dup1\n      revert\n        /* \"Openzepellin/EnumerableTest/EnumerableMapTest.sol\":279:398  function set_(uint256 key, address value) public returns (bool){\r... */\n    tag_3:\n      tag_11\n      0x04\n      dup1\n      calldatasize\n      sub\n      dup2\n      add\n      swap1\n      tag_12\n      swap2\n      swap1\n      tag_13\n      jump\t// in\n    tag_12:\n      tag_14\n      jump\t// in\n    tag_11:\n      mload(0x40)\n      tag_15\n      swap2\n      swap1\n      tag_16\n      jump\t// in\n    tag_15:\n      mload(0x40)\n      dup1\n      swap2\n      sub\n      swap1\n      return\n        /* \"Openzepellin/EnumerableTest/EnumerableMapTest.sol\":963:1061  function get_(uint256 key) public view returns (address){\r... */\n    tag_4:\n      tag_17\n      0x04\n      dup1\n      calldatasize\n      sub\n      dup2\n      add\n      swap1\n      tag_18\n      swap2\n      swap1\n      tag_19\n      jump\t// in\n    tag_18:\n      tag_20\n      jump\t// in\n    tag_17:\n      mload(0x40)\n      tag_21\n      swap2\n      swap1\n      tag_22\n      jump\t// in\n    tag_21:\n      mload(0x40)\n      dup1\n      swap2\n      sub\n      swap1\n      return\n        /* \"Openzepellin/EnumerableTest/EnumerableMapTest.sol\":843:953  function tryGet_(uint256 key) public view returns (bool, address){\r... */\n    tag_5:\n      tag_23\n      0x04\n      dup1\n      calldatasize\n      sub\n      dup2\n      add\n      swap1\n      tag_24\n      swap2\n      swap1\n      tag_19\n      jump\t// in\n    tag_24:\n      tag_25\n      jump\t// in\n    tag_23:\n      mload(0x40)\n      tag_26\n      swap3\n      swap2\n      swap1\n      tag_27\n      jump\t// in\n    tag_26:\n      mload(0x40)\n      dup1\n      swap2\n      sub\n      swap1\n      return\n        /* \"Openzepellin/EnumerableTest/EnumerableMapTest.sol\":627:717  function length_() public view returns (uint256){\r... */\n    tag_6:\n      tag_28\n      tag_29\n      jump\t// in\n    tag_28:\n      mload(0x40)\n      tag_30\n      swap2\n      swap1\n      tag_31\n      jump\t// in\n    tag_30:\n      mload(0x40)\n      dup1\n      swap2\n      sub\n      swap1\n      return\n        /* \"Openzepellin/EnumerableTest/EnumerableMapTest.sol\":727:833  function at_(uint256 index) public view returns (uint, address){\r... */\n    tag_7:\n      tag_32\n      0x04\n      dup1\n      calldatasize\n      sub\n      dup2\n      add\n      swap1\n      tag_33\n      swap2\n      swap1\n      tag_19\n      jump\t// in\n    tag_33:\n      tag_34\n      jump\t// in\n    tag_32:\n      mload(0x40)\n      tag_35\n      swap3\n      swap2\n      swap1\n      tag_36\n      jump\t// in\n    tag_35:\n      mload(0x40)\n      dup1\n      swap2\n      sub\n      swap1\n      return\n        /* \"Openzepellin/EnumerableTest/EnumerableMapTest.sol\":406:502  function remove_(uint256 key) public returns (bool){\r... */\n    tag_8:\n      tag_37\n      0x04\n      dup1\n      calldatasize\n      sub\n      dup2\n      add\n      swap1\n      tag_38\n      swap2\n      swap1\n      tag_19\n      jump\t// in\n    tag_38:\n      tag_39\n      jump\t// in\n    tag_37:\n      mload(0x40)\n      tag_40\n      swap2\n      swap1\n      tag_16\n      jump\t// in\n    tag_40:\n      mload(0x40)\n      dup1\n      swap2\n      sub\n      swap1\n      return\n        /* \"Openzepellin/EnumerableTest/EnumerableMapTest.sol\":512:617  function contains_(uint256 key) public view returns (bool){\r... */\n    tag_9:\n      tag_41\n      0x04\n      dup1\n      calldatasize\n      sub\n      dup2\n      add\n      swap1\n      tag_42\n      swap2\n      swap1\n      tag_19\n      jump\t// in\n    tag_42:\n      tag_43\n      jump\t// in\n    tag_41:\n      mload(0x40)\n      tag_44\n      swap2\n      swap1\n      tag_16\n      jump\t// in\n    tag_44:\n      mload(0x40)\n      dup1\n      swap2\n      sub\n      swap1\n      return\n        /* \"Openzepellin/EnumerableTest/EnumerableMapTest.sol\":279:398  function set_(uint256 key, address value) public returns (bool){\r... */\n    tag_14:\n        /* \"Openzepellin/EnumerableTest/EnumerableMapTest.sol\":337:341  bool */\n      0x00\n        /* \"Openzepellin/EnumerableTest/EnumerableMapTest.sol\":370:390  myMap.set(key,value) */\n      tag_46\n        /* \"Openzepellin/EnumerableTest/EnumerableMapTest.sol\":380:383  key */\n      dup4\n        /* \"Openzepellin/EnumerableTest/EnumerableMapTest.sol\":384:389  value */\n      dup4\n        /* \"Openzepellin/EnumerableTest/EnumerableMapTest.sol\":370:375  myMap */\n      0x00\n        /* \"Openzepellin/EnumerableTest/EnumerableMapTest.sol\":370:379  myMap.set */\n      tag_47\n      swap1\n        /* \"Openzepellin/EnumerableTest/EnumerableMapTest.sol\":370:390  myMap.set(key,value) */\n      swap3\n      swap2\n      swap1\n      0xffffffff\n      and\n      jump\t// in\n    tag_46:\n        /* \"Openzepellin/EnumerableTest/EnumerableMapTest.sol\":363:390  return myMap.set(key,value) */\n      swap1\n      pop\n        /* \"Openzepellin/EnumerableTest/EnumerableMapTest.sol\":279:398  function set_(uint256 key, address value) public returns (bool){\r... */\n      swap3\n      swap2\n      pop\n      pop\n      jump\t// out\n        /* \"Openzepellin/EnumerableTest/EnumerableMapTest.sol\":963:1061  function get_(uint256 key) public view returns (address){\r... */\n    tag_20:\n        /* \"Openzepellin/EnumerableTest/EnumerableMapTest.sol\":1011:1018  address */\n      0x00\n        /* \"Openzepellin/EnumerableTest/EnumerableMapTest.sol\":1039:1053  myMap.get(key) */\n      tag_49\n        /* \"Openzepellin/EnumerableTest/EnumerableMapTest.sol\":1049:1052  key */\n      dup3\n        /* \"Openzepellin/EnumerableTest/EnumerableMapTest.sol\":1039:1044  myMap */\n      0x00\n        /* \"Openzepellin/EnumerableTest/EnumerableMapTest.sol\":1039:1048  myMap.get */\n      tag_50\n      swap1\n        /* \"Openzepellin/EnumerableTest/EnumerableMapTest.sol\":1039:1053  myMap.get(key) */\n      swap2\n      swap1\n      0xffffffff\n      and\n      jump\t// in\n    tag_49:\n        /* \"Openzepellin/EnumerableTest/EnumerableMapTest.sol\":1032:1053  return myMap.get(key) */\n      swap1\n      pop\n        /* \"Openzepellin/EnumerableTest/EnumerableMapTest.sol\":963:1061  function get_(uint256 key) public view returns (address){\r... */\n      swap2\n      swap1\n      pop\n      jump\t// out\n        /* \"Openzepellin/EnumerableTest/EnumerableMapTest.sol\":843:953  function tryGet_(uint256 key) public view returns (bool, address){\r... */\n    tag_25:\n        /* \"Openzepellin/EnumerableTest/EnumerableMapTest.sol\":894:898  bool */\n      0x00\n        /* \"Openzepellin/EnumerableTest/EnumerableMapTest.sol\":900:907  address */\n      dup1\n        /* \"Openzepellin/EnumerableTest/EnumerableMapTest.sol\":928:945  myMap.tryGet(key) */\n      tag_52\n        /* \"Openzepellin/EnumerableTest/EnumerableMapTest.sol\":941:944  key */\n      dup4\n        /* \"Openzepellin/EnumerableTest/EnumerableMapTest.sol\":928:933  myMap */\n      0x00\n        /* \"Openzepellin/EnumerableTest/EnumerableMapTest.sol\":928:940  myMap.tryGet */\n      tag_53\n      swap1\n        /* \"Openzepellin/EnumerableTest/EnumerableMapTest.sol\":928:945  myMap.tryGet(key) */\n      swap2\n      swap1\n      0xffffffff\n      and\n      jump\t// in\n    tag_52:\n        /* \"Openzepellin/EnumerableTest/EnumerableMapTest.sol\":921:945  return myMap.tryGet(key) */\n      swap2\n      pop\n      swap2\n      pop\n        /* \"Openzepellin/EnumerableTest/EnumerableMapTest.sol\":843:953  function tryGet_(uint256 key) public view returns (bool, address){\r... */\n      swap2\n      pop\n      swap2\n      jump\t// out\n        /* \"Openzepellin/EnumerableTest/EnumerableMapTest.sol\":627:717  function length_() public view returns (uint256){\r... */\n    tag_29:\n        /* \"Openzepellin/EnumerableTest/EnumerableMapTest.sol\":667:674  uint256 */\n      0x00\n        /* \"Openzepellin/EnumerableTest/EnumerableMapTest.sol\":695:709  myMap.length() */\n      tag_55\n        /* \"Openzepellin/EnumerableTest/EnumerableMapTest.sol\":695:700  myMap */\n      0x00\n        /* \"Openzepellin/EnumerableTest/EnumerableMapTest.sol\":695:707  myMap.length */\n      tag_56\n        /* \"Openzepellin/EnumerableTest/EnumerableMapTest.sol\":695:709  myMap.length() */\n      jump\t// in\n    tag_55:\n        /* \"Openzepellin/EnumerableTest/EnumerableMapTest.sol\":688:709  return myMap.length() */\n      swap1\n      pop\n        /* \"Openzepellin/EnumerableTest/EnumerableMapTest.sol\":627:717  function length_() public view returns (uint256){\r... */\n      swap1\n      jump\t// out\n        /* \"Openzepellin/EnumerableTest/EnumerableMapTest.sol\":727:833  function at_(uint256 index) public view returns (uint, address){\r... */\n    tag_34:\n        /* \"Openzepellin/EnumerableTest/EnumerableMapTest.sol\":776:780  uint */\n      0x00\n        /* \"Openzepellin/EnumerableTest/EnumerableMapTest.sol\":782:789  address */\n      dup1\n        /* \"Openzepellin/EnumerableTest/EnumerableMapTest.sol\":810:825  myMap.at(index) */\n      tag_58\n        /* \"Openzepellin/EnumerableTest/EnumerableMapTest.sol\":819:824  index */\n      dup4\n        /* \"Openzepellin/EnumerableTest/EnumerableMapTest.sol\":810:815  myMap */\n      0x00\n        /* \"Openzepellin/EnumerableTest/EnumerableMapTest.sol\":810:818  myMap.at */\n      tag_59\n      swap1\n        /* \"Openzepellin/EnumerableTest/EnumerableMapTest.sol\":810:825  myMap.at(index) */\n      swap2\n      swap1\n      0xffffffff\n      and\n      jump\t// in\n    tag_58:\n        /* \"Openzepellin/EnumerableTest/EnumerableMapTest.sol\":803:825  return myMap.at(index) */\n      swap2\n      pop\n      swap2\n      pop\n        /* \"Openzepellin/EnumerableTest/EnumerableMapTest.sol\":727:833  function at_(uint256 index) public view returns (uint, address){\r... */\n      swap2\n      pop\n      swap2\n      jump\t// out\n        /* \"Openzepellin/EnumerableTest/EnumerableMapTest.sol\":406:502  function remove_(uint256 key) public returns (bool){\r... */\n    tag_39:\n        /* \"Openzepellin/EnumerableTest/EnumerableMapTest.sol\":452:456  bool */\n      0x00\n        /* \"Openzepellin/EnumerableTest/EnumerableMapTest.sol\":477:494  myMap.remove(key) */\n      tag_61\n        /* \"Openzepellin/EnumerableTest/EnumerableMapTest.sol\":490:493  key */\n      dup3\n        /* \"Openzepellin/EnumerableTest/EnumerableMapTest.sol\":477:482  myMap */\n      0x00\n        /* \"Openzepellin/EnumerableTest/EnumerableMapTest.sol\":477:489  myMap.remove */\n      tag_62\n      swap1\n        /* \"Openzepellin/EnumerableTest/EnumerableMapTest.sol\":477:494  myMap.remove(key) */\n      swap2\n      swap1\n      0xffffffff\n      and\n      jump\t// in\n    tag_61:\n        /* \"Openzepellin/EnumerableTest/EnumerableMapTest.sol\":470:494  return myMap.remove(key) */\n      swap1\n      pop\n        /* \"Openzepellin/EnumerableTest/EnumerableMapTest.sol\":406:502  function remove_(uint256 key) public returns (bool){\r... */\n      swap2\n      swap1\n      pop\n      jump\t// out\n        /* \"Openzepellin/EnumerableTest/EnumerableMapTest.sol\":512:617  function contains_(uint256 key) public view returns (bool){\r... */\n    tag_43:\n        /* \"Openzepellin/EnumerableTest/EnumerableMapTest.sol\":565:569  bool */\n      0x00\n        /* \"Openzepellin/EnumerableTest/EnumerableMapTest.sol\":590:609  myMap.contains(key) */\n      tag_64\n        /* \"Openzepellin/EnumerableTest/EnumerableMapTest.sol\":605:608  key */\n      dup3\n        /* \"Openzepellin/EnumerableTest/EnumerableMapTest.sol\":590:595  myMap */\n      0x00\n        /* \"Openzepellin/EnumerableTest/EnumerableMapTest.sol\":590:604  myMap.contains */\n      tag_65\n      swap1\n        /* \"Openzepellin/EnumerableTest/EnumerableMapTest.sol\":590:609  myMap.contains(key) */\n      swap2\n      swap1\n      0xffffffff\n      and\n      jump\t// in\n    tag_64:\n        /* \"Openzepellin/EnumerableTest/EnumerableMapTest.sol\":583:609  return myMap.contains(key) */\n      swap1\n      pop\n        /* \"Openzepellin/EnumerableTest/EnumerableMapTest.sol\":512:617  function contains_(uint256 key) public view returns (bool){\r... */\n      swap2\n      swap1\n      pop\n      jump\t// out\n        /* \"@openzeppelin/contracts/utils/structs/EnumerableMap.sol\":8706:8918  function set(... */\n    tag_47:\n        /* \"@openzeppelin/contracts/utils/structs/EnumerableMap.sol\":8825:8829  bool */\n      0x00\n        /* \"@openzeppelin/contracts/utils/structs/EnumerableMap.sol\":8848:8911  set(map._inner, bytes32(key), bytes32(uint256(uint160(value)))) */\n      tag_67\n        /* \"@openzeppelin/contracts/utils/structs/EnumerableMap.sol\":8852:8855  map */\n      dup5\n        /* \"@openzeppelin/contracts/utils/structs/EnumerableMap.sol\":8852:8862  map._inner */\n      0x00\n      add\n        /* \"@openzeppelin/contracts/utils/structs/EnumerableMap.sol\":8872:8875  key */\n      dup5\n        /* \"@openzeppelin/contracts/utils/structs/EnumerableMap.sol\":8864:8876  bytes32(key) */\n      0x00\n      shl\n        /* \"@openzeppelin/contracts/utils/structs/EnumerableMap.sol\":8902:8907  value */\n      dup5\n        /* \"@openzeppelin/contracts/utils/structs/EnumerableMap.sol\":8886:8909  uint256(uint160(value)) */\n      0xffffffffffffffffffffffffffffffffffffffff\n      and\n        /* \"@openzeppelin/contracts/utils/structs/EnumerableMap.sol\":8878:8910  bytes32(uint256(uint160(value))) */\n      0x00\n      shl\n        /* \"@openzeppelin/contracts/utils/structs/EnumerableMap.sol\":8848:8851  set */\n      tag_68\n        /* \"@openzeppelin/contracts/utils/structs/EnumerableMap.sol\":8848:8911  set(map._inner, bytes32(key), bytes32(uint256(uint160(value)))) */\n      jump\t// in\n    tag_67:\n        /* \"@openzeppelin/contracts/utils/structs/EnumerableMap.sol\":8841:8911  return set(map._inner, bytes32(key), bytes32(uint256(uint160(value)))) */\n      swap1\n      pop\n        /* \"@openzeppelin/contracts/utils/structs/EnumerableMap.sol\":8706:8918  function set(... */\n      swap4\n      swap3\n      pop\n      pop\n      pop\n      jump\t// out\n        /* \"@openzeppelin/contracts/utils/structs/EnumerableMap.sol\":10745:10913  function get(UintToAddressMap storage map, uint256 key) internal view returns (address) {... */\n    tag_50:\n        /* \"@openzeppelin/contracts/utils/structs/EnumerableMap.sol\":10824:10831  address */\n      0x00\n        /* \"@openzeppelin/contracts/utils/structs/EnumerableMap.sol\":10874:10903  get(map._inner, bytes32(key)) */\n      tag_70\n        /* \"@openzeppelin/contracts/utils/structs/EnumerableMap.sol\":10878:10881  map */\n      dup4\n        /* \"@openzeppelin/contracts/utils/structs/EnumerableMap.sol\":10878:10888  map._inner */\n      0x00\n      add\n        /* \"@openzeppelin/contracts/utils/structs/EnumerableMap.sol\":10898:10901  key */\n      dup4\n        /* \"@openzeppelin/contracts/utils/structs/EnumerableMap.sol\":10890:10902  bytes32(key) */\n      0x00\n      shl\n        /* \"@openzeppelin/contracts/utils/structs/EnumerableMap.sol\":10874:10877  get */\n      tag_71\n        /* \"@openzeppelin/contracts/utils/structs/EnumerableMap.sol\":10874:10903  get(map._inner, bytes32(key)) */\n      jump\t// in\n    tag_70:\n        /* \"@openzeppelin/contracts/utils/structs/EnumerableMap.sol\":10866:10904  uint256(get(map._inner, bytes32(key))) */\n      0x00\n      shr\n        /* \"@openzeppelin/contracts/utils/structs/EnumerableMap.sol\":10843:10906  return address(uint160(uint256(get(map._inner, bytes32(key))))) */\n      swap1\n      pop\n        /* \"@openzeppelin/contracts/utils/structs/EnumerableMap.sol\":10745:10913  function get(UintToAddressMap storage map, uint256 key) internal view returns (address) {... */\n      swap3\n      swap2\n      pop\n      pop\n      jump\t// out\n        /* \"@openzeppelin/contracts/utils/structs/EnumerableMap.sol\":10356:10594  function tryGet(UintToAddressMap storage map, uint256 key) internal view returns (bool, address) {... */\n    tag_53:\n        /* \"@openzeppelin/contracts/utils/structs/EnumerableMap.sol\":10438:10442  bool */\n      0x00\n        /* \"@openzeppelin/contracts/utils/structs/EnumerableMap.sol\":10444:10451  address */\n      dup1\n        /* \"@openzeppelin/contracts/utils/structs/EnumerableMap.sol\":10464:10476  bool success */\n      0x00\n        /* \"@openzeppelin/contracts/utils/structs/EnumerableMap.sol\":10478:10491  bytes32 value */\n      dup1\n        /* \"@openzeppelin/contracts/utils/structs/EnumerableMap.sol\":10495:10527  tryGet(map._inner, bytes32(key)) */\n      tag_73\n        /* \"@openzeppelin/contracts/utils/structs/EnumerableMap.sol\":10502:10505  map */\n      dup7\n        /* \"@openzeppelin/contracts/utils/structs/EnumerableMap.sol\":10502:10512  map._inner */\n      0x00\n      add\n        /* \"@openzeppelin/contracts/utils/structs/EnumerableMap.sol\":10522:10525  key */\n      dup7\n        /* \"@openzeppelin/contracts/utils/structs/EnumerableMap.sol\":10514:10526  bytes32(key) */\n      0x00\n      shl\n        /* \"@openzeppelin/contracts/utils/structs/EnumerableMap.sol\":10495:10501  tryGet */\n      tag_74\n        /* \"@openzeppelin/contracts/utils/structs/EnumerableMap.sol\":10495:10527  tryGet(map._inner, bytes32(key)) */\n      jump\t// in\n    tag_73:\n        /* \"@openzeppelin/contracts/utils/structs/EnumerableMap.sol\":10463:10527  (bool success, bytes32 value) = tryGet(map._inner, bytes32(key)) */\n      swap2\n      pop\n      swap2\n      pop\n        /* \"@openzeppelin/contracts/utils/structs/EnumerableMap.sol\":10545:10552  success */\n      dup2\n        /* \"@openzeppelin/contracts/utils/structs/EnumerableMap.sol\":10578:10583  value */\n      dup2\n        /* \"@openzeppelin/contracts/utils/structs/EnumerableMap.sol\":10570:10584  uint256(value) */\n      0x00\n      shr\n        /* \"@openzeppelin/contracts/utils/structs/EnumerableMap.sol\":10537:10587  return (success, address(uint160(uint256(value)))) */\n      swap4\n      pop\n      swap4\n      pop\n      pop\n      pop\n        /* \"@openzeppelin/contracts/utils/structs/EnumerableMap.sol\":10356:10594  function tryGet(UintToAddressMap storage map, uint256 key) internal view returns (bool, address) {... */\n      swap3\n      pop\n      swap3\n      swap1\n      pop\n      jump\t// out\n        /* \"@openzeppelin/contracts/utils/structs/EnumerableMap.sol\":9526:9646  function length(UintToAddressMap storage map) internal view returns (uint256) {... */\n    tag_56:\n        /* \"@openzeppelin/contracts/utils/structs/EnumerableMap.sol\":9595:9602  uint256 */\n      0x00\n        /* \"@openzeppelin/contracts/utils/structs/EnumerableMap.sol\":9621:9639  length(map._inner) */\n      tag_76\n        /* \"@openzeppelin/contracts/utils/structs/EnumerableMap.sol\":9628:9631  map */\n      dup3\n        /* \"@openzeppelin/contracts/utils/structs/EnumerableMap.sol\":9628:9638  map._inner */\n      0x00\n      add\n        /* \"@openzeppelin/contracts/utils/structs/EnumerableMap.sol\":9621:9627  length */\n      tag_77\n        /* \"@openzeppelin/contracts/utils/structs/EnumerableMap.sol\":9621:9639  length(map._inner) */\n      jump\t// in\n    tag_76:\n        /* \"@openzeppelin/contracts/utils/structs/EnumerableMap.sol\":9614:9639  return length(map._inner) */\n      swap1\n      pop\n        /* \"@openzeppelin/contracts/utils/structs/EnumerableMap.sol\":9526:9646  function length(UintToAddressMap storage map) internal view returns (uint256) {... */\n      swap2\n      swap1\n      pop\n      jump\t// out\n        /* \"@openzeppelin/contracts/utils/structs/EnumerableMap.sol\":9983:10215  function at(UintToAddressMap storage map, uint256 index) internal view returns (uint256, address) {... */\n    tag_59:\n        /* \"@openzeppelin/contracts/utils/structs/EnumerableMap.sol\":10063:10070  uint256 */\n      0x00\n        /* \"@openzeppelin/contracts/utils/structs/EnumerableMap.sol\":10072:10079  address */\n      dup1\n        /* \"@openzeppelin/contracts/utils/structs/EnumerableMap.sol\":10092:10103  bytes32 key */\n      0x00\n        /* \"@openzeppelin/contracts/utils/structs/EnumerableMap.sol\":10105:10118  bytes32 value */\n      dup1\n        /* \"@openzeppelin/contracts/utils/structs/EnumerableMap.sol\":10122:10143  at(map._inner, index) */\n      tag_79\n        /* \"@openzeppelin/contracts/utils/structs/EnumerableMap.sol\":10125:10128  map */\n      dup7\n        /* \"@openzeppelin/contracts/utils/structs/EnumerableMap.sol\":10125:10135  map._inner */\n      0x00\n      add\n        /* \"@openzeppelin/contracts/utils/structs/EnumerableMap.sol\":10137:10142  index */\n      dup7\n        /* \"@openzeppelin/contracts/utils/structs/EnumerableMap.sol\":10122:10124  at */\n      tag_80\n        /* \"@openzeppelin/contracts/utils/structs/EnumerableMap.sol\":10122:10143  at(map._inner, index) */\n      jump\t// in\n    tag_79:\n        /* \"@openzeppelin/contracts/utils/structs/EnumerableMap.sol\":10091:10143  (bytes32 key, bytes32 value) = at(map._inner, index) */\n      swap2\n      pop\n      swap2\n      pop\n        /* \"@openzeppelin/contracts/utils/structs/EnumerableMap.sol\":10169:10172  key */\n      dup2\n        /* \"@openzeppelin/contracts/utils/structs/EnumerableMap.sol\":10161:10173  uint256(key) */\n      0x00\n      shr\n        /* \"@openzeppelin/contracts/utils/structs/EnumerableMap.sol\":10199:10204  value */\n      dup2\n        /* \"@openzeppelin/contracts/utils/structs/EnumerableMap.sol\":10191:10205  uint256(value) */\n      0x00\n      shr\n        /* \"@openzeppelin/contracts/utils/structs/EnumerableMap.sol\":10153:10208  return (uint256(key), address(uint160(uint256(value)))) */\n      swap4\n      pop\n      swap4\n      pop\n      pop\n      pop\n        /* \"@openzeppelin/contracts/utils/structs/EnumerableMap.sol\":9983:10215  function at(UintToAddressMap storage map, uint256 index) internal view returns (uint256, address) {... */\n      swap3\n      pop\n      swap3\n      swap1\n      pop\n      jump\t// out\n        /* \"@openzeppelin/contracts/utils/structs/EnumerableMap.sol\":9077:9216  function remove(UintToAddressMap storage map, uint256 key) internal returns (bool) {... */\n    tag_62:\n        /* \"@openzeppelin/contracts/utils/structs/EnumerableMap.sol\":9154:9158  bool */\n      0x00\n        /* \"@openzeppelin/contracts/utils/structs/EnumerableMap.sol\":9177:9209  remove(map._inner, bytes32(key)) */\n      tag_82\n        /* \"@openzeppelin/contracts/utils/structs/EnumerableMap.sol\":9184:9187  map */\n      dup4\n        /* \"@openzeppelin/contracts/utils/structs/EnumerableMap.sol\":9184:9194  map._inner */\n      0x00\n      add\n        /* \"@openzeppelin/contracts/utils/structs/EnumerableMap.sol\":9204:9207  key */\n      dup4\n        /* \"@openzeppelin/contracts/utils/structs/EnumerableMap.sol\":9196:9208  bytes32(key) */\n      0x00\n      shl\n        /* \"@openzeppelin/contracts/utils/structs/EnumerableMap.sol\":9177:9183  remove */\n      tag_83\n        /* \"@openzeppelin/contracts/utils/structs/EnumerableMap.sol\":9177:9209  remove(map._inner, bytes32(key)) */\n      jump\t// in\n    tag_82:\n        /* \"@openzeppelin/contracts/utils/structs/EnumerableMap.sol\":9170:9209  return remove(map._inner, bytes32(key)) */\n      swap1\n      pop\n        /* \"@openzeppelin/contracts/utils/structs/EnumerableMap.sol\":9077:9216  function remove(UintToAddressMap storage map, uint256 key) internal returns (bool) {... */\n      swap3\n      swap2\n      pop\n      pop\n      jump\t// out\n        /* \"@openzeppelin/contracts/utils/structs/EnumerableMap.sol\":9295:9443  function contains(UintToAddressMap storage map, uint256 key) internal view returns (bool) {... */\n    tag_65:\n        /* \"@openzeppelin/contracts/utils/structs/EnumerableMap.sol\":9379:9383  bool */\n      0x00\n        /* \"@openzeppelin/contracts/utils/structs/EnumerableMap.sol\":9402:9436  contains(map._inner, bytes32(key)) */\n      tag_85\n        /* \"@openzeppelin/contracts/utils/structs/EnumerableMap.sol\":9411:9414  map */\n      dup4\n        /* \"@openzeppelin/contracts/utils/structs/EnumerableMap.sol\":9411:9421  map._inner */\n      0x00\n      add\n        /* \"@openzeppelin/contracts/utils/structs/EnumerableMap.sol\":9431:9434  key */\n      dup4\n        /* \"@openzeppelin/contracts/utils/structs/EnumerableMap.sol\":9423:9435  bytes32(key) */\n      0x00\n      shl\n        /* \"@openzeppelin/contracts/utils/structs/EnumerableMap.sol\":9402:9410  contains */\n      tag_86\n        /* \"@openzeppelin/contracts/utils/structs/EnumerableMap.sol\":9402:9436  contains(map._inner, bytes32(key)) */\n      jump\t// in\n    tag_85:\n        /* \"@openzeppelin/contracts/utils/structs/EnumerableMap.sol\":9395:9436  return contains(map._inner, bytes32(key)) */\n      swap1\n      pop\n        /* \"@openzeppelin/contracts/utils/structs/EnumerableMap.sol\":9295:9443  function contains(UintToAddressMap storage map, uint256 key) internal view returns (bool) {... */\n      swap3\n      swap2\n      pop\n      pop\n      jump\t// out\n        /* \"@openzeppelin/contracts/utils/structs/EnumerableMap.sol\":2535:2739  function set(... */\n    tag_68:\n        /* \"@openzeppelin/contracts/utils/structs/EnumerableMap.sol\":2657:2661  bool */\n      0x00\n        /* \"@openzeppelin/contracts/utils/structs/EnumerableMap.sol\":2692:2697  value */\n      dup2\n        /* \"@openzeppelin/contracts/utils/structs/EnumerableMap.sol\":2673:2676  map */\n      dup5\n        /* \"@openzeppelin/contracts/utils/structs/EnumerableMap.sol\":2673:2684  map._values */\n      0x02\n      add\n        /* \"@openzeppelin/contracts/utils/structs/EnumerableMap.sol\":2673:2689  map._values[key] */\n      0x00\n        /* \"@openzeppelin/contracts/utils/structs/EnumerableMap.sol\":2685:2688  key */\n      dup6\n        /* \"@openzeppelin/contracts/utils/structs/EnumerableMap.sol\":2673:2689  map._values[key] */\n      dup2\n      mstore\n      0x20\n      add\n      swap1\n      dup2\n      mstore\n      0x20\n      add\n      0x00\n      keccak256\n        /* \"@openzeppelin/contracts/utils/structs/EnumerableMap.sol\":2673:2697  map._values[key] = value */\n      dup2\n      swap1\n      sstore\n      pop\n        /* \"@openzeppelin/contracts/utils/structs/EnumerableMap.sol\":2714:2732  map._keys.add(key) */\n      tag_88\n        /* \"@openzeppelin/contracts/utils/structs/EnumerableMap.sol\":2728:2731  key */\n      dup4\n        /* \"@openzeppelin/contracts/utils/structs/EnumerableMap.sol\":2714:2717  map */\n      dup6\n        /* \"@openzeppelin/contracts/utils/structs/EnumerableMap.sol\":2714:2723  map._keys */\n      0x00\n      add\n        /* \"@openzeppelin/contracts/utils/structs/EnumerableMap.sol\":2714:2727  map._keys.add */\n      tag_89\n      swap1\n        /* \"@openzeppelin/contracts/utils/structs/EnumerableMap.sol\":2714:2732  map._keys.add(key) */\n      swap2\n      swap1\n      0xffffffff\n      and\n      jump\t// in\n    tag_88:\n        /* \"@openzeppelin/contracts/utils/structs/EnumerableMap.sol\":2707:2732  return map._keys.add(key) */\n      swap1\n      pop\n        /* \"@openzeppelin/contracts/utils/structs/EnumerableMap.sol\":2535:2739  function set(... */\n      swap4\n      swap3\n      pop\n      pop\n      pop\n      jump\t// out\n        /* \"@openzeppelin/contracts/utils/structs/EnumerableMap.sol\":4637:4884  function get(Bytes32ToBytes32Map storage map, bytes32 key) internal view returns (bytes32) {... */\n    tag_71:\n        /* \"@openzeppelin/contracts/utils/structs/EnumerableMap.sol\":4719:4726  bytes32 */\n      0x00\n        /* \"@openzeppelin/contracts/utils/structs/EnumerableMap.sol\":4738:4751  bytes32 value */\n      dup1\n        /* \"@openzeppelin/contracts/utils/structs/EnumerableMap.sol\":4754:4757  map */\n      dup4\n        /* \"@openzeppelin/contracts/utils/structs/EnumerableMap.sol\":4754:4765  map._values */\n      0x02\n      add\n        /* \"@openzeppelin/contracts/utils/structs/EnumerableMap.sol\":4754:4770  map._values[key] */\n      0x00\n        /* \"@openzeppelin/contracts/utils/structs/EnumerableMap.sol\":4766:4769  key */\n      dup5\n        /* \"@openzeppelin/contracts/utils/structs/EnumerableMap.sol\":4754:4770  map._values[key] */\n      dup2\n      mstore\n      0x20\n      add\n      swap1\n      dup2\n      mstore\n      0x20\n      add\n      0x00\n      keccak256\n      sload\n        /* \"@openzeppelin/contracts/utils/structs/EnumerableMap.sol\":4738:4770  bytes32 value = map._values[key] */\n      swap1\n      pop\n        /* \"@openzeppelin/contracts/utils/structs/EnumerableMap.sol\":4797:4798  0 */\n      0x00\n        /* \"@openzeppelin/contracts/utils/structs/EnumerableMap.sol\":4788:4798  value != 0 */\n      dup1\n      shl\n        /* \"@openzeppelin/contracts/utils/structs/EnumerableMap.sol\":4788:4793  value */\n      dup2\n        /* \"@openzeppelin/contracts/utils/structs/EnumerableMap.sol\":4788:4798  value != 0 */\n      eq\n      iszero\n        /* \"@openzeppelin/contracts/utils/structs/EnumerableMap.sol\":4788:4820  value != 0 || contains(map, key) */\n      dup1\n      tag_91\n      jumpi\n      pop\n        /* \"@openzeppelin/contracts/utils/structs/EnumerableMap.sol\":4802:4820  contains(map, key) */\n      tag_92\n        /* \"@openzeppelin/contracts/utils/structs/EnumerableMap.sol\":4811:4814  map */\n      dup5\n        /* \"@openzeppelin/contracts/utils/structs/EnumerableMap.sol\":4816:4819  key */\n      dup5\n        /* \"@openzeppelin/contracts/utils/structs/EnumerableMap.sol\":4802:4810  contains */\n      tag_86\n        /* \"@openzeppelin/contracts/utils/structs/EnumerableMap.sol\":4802:4820  contains(map, key) */\n      jump\t// in\n    tag_92:\n        /* \"@openzeppelin/contracts/utils/structs/EnumerableMap.sol\":4788:4820  value != 0 || contains(map, key) */\n    tag_91:\n        /* \"@openzeppelin/contracts/utils/structs/EnumerableMap.sol\":4780:4855  require(value != 0 || contains(map, key), \"EnumerableMap: nonexistent key\") */\n      tag_93\n      jumpi\n      mload(0x40)\n      0x08c379a000000000000000000000000000000000000000000000000000000000\n      dup2\n      mstore\n      0x04\n      add\n      tag_94\n      swap1\n      tag_95\n      jump\t// in\n    tag_94:\n      mload(0x40)\n      dup1\n      swap2\n      sub\n      swap1\n      revert\n    tag_93:\n        /* \"@openzeppelin/contracts/utils/structs/EnumerableMap.sol\":4872:4877  value */\n      dup1\n        /* \"@openzeppelin/contracts/utils/structs/EnumerableMap.sol\":4865:4877  return value */\n      swap2\n      pop\n      pop\n        /* \"@openzeppelin/contracts/utils/structs/EnumerableMap.sol\":4637:4884  function get(Bytes32ToBytes32Map storage map, bytes32 key) internal view returns (bytes32) {... */\n      swap3\n      swap2\n      pop\n      pop\n      jump\t// out\n        /* \"@openzeppelin/contracts/utils/structs/EnumerableMap.sol\":4188:4486  function tryGet(Bytes32ToBytes32Map storage map, bytes32 key) internal view returns (bool, bytes32) {... */\n    tag_74:\n        /* \"@openzeppelin/contracts/utils/structs/EnumerableMap.sol\":4273:4277  bool */\n      0x00\n        /* \"@openzeppelin/contracts/utils/structs/EnumerableMap.sol\":4279:4286  bytes32 */\n      dup1\n        /* \"@openzeppelin/contracts/utils/structs/EnumerableMap.sol\":4298:4311  bytes32 value */\n      0x00\n        /* \"@openzeppelin/contracts/utils/structs/EnumerableMap.sol\":4314:4317  map */\n      dup5\n        /* \"@openzeppelin/contracts/utils/structs/EnumerableMap.sol\":4314:4325  map._values */\n      0x02\n      add\n        /* \"@openzeppelin/contracts/utils/structs/EnumerableMap.sol\":4314:4330  map._values[key] */\n      0x00\n        /* \"@openzeppelin/contracts/utils/structs/EnumerableMap.sol\":4326:4329  key */\n      dup6\n        /* \"@openzeppelin/contracts/utils/structs/EnumerableMap.sol\":4314:4330  map._values[key] */\n      dup2\n      mstore\n      0x20\n      add\n      swap1\n      dup2\n      mstore\n      0x20\n      add\n      0x00\n      keccak256\n      sload\n        /* \"@openzeppelin/contracts/utils/structs/EnumerableMap.sol\":4298:4330  bytes32 value = map._values[key] */\n      swap1\n      pop\n        /* \"@openzeppelin/contracts/utils/structs/EnumerableMap.sol\":4361:4362  0 */\n      0x00\n        /* \"@openzeppelin/contracts/utils/structs/EnumerableMap.sol\":4353:4363  bytes32(0) */\n      dup1\n      shl\n        /* \"@openzeppelin/contracts/utils/structs/EnumerableMap.sol\":4344:4349  value */\n      dup2\n        /* \"@openzeppelin/contracts/utils/structs/EnumerableMap.sol\":4344:4363  value == bytes32(0) */\n      eq\n        /* \"@openzeppelin/contracts/utils/structs/EnumerableMap.sol\":4340:4480  if (value == bytes32(0)) {... */\n      iszero\n      tag_97\n      jumpi\n        /* \"@openzeppelin/contracts/utils/structs/EnumerableMap.sol\":4387:4405  contains(map, key) */\n      tag_98\n        /* \"@openzeppelin/contracts/utils/structs/EnumerableMap.sol\":4396:4399  map */\n      dup6\n        /* \"@openzeppelin/contracts/utils/structs/EnumerableMap.sol\":4401:4404  key */\n      dup6\n        /* \"@openzeppelin/contracts/utils/structs/EnumerableMap.sol\":4387:4395  contains */\n      tag_86\n        /* \"@openzeppelin/contracts/utils/structs/EnumerableMap.sol\":4387:4405  contains(map, key) */\n      jump\t// in\n    tag_98:\n        /* \"@openzeppelin/contracts/utils/structs/EnumerableMap.sol\":4415:4416  0 */\n      0x00\n        /* \"@openzeppelin/contracts/utils/structs/EnumerableMap.sol\":4407:4417  bytes32(0) */\n      dup1\n      shl\n        /* \"@openzeppelin/contracts/utils/structs/EnumerableMap.sol\":4379:4418  return (contains(map, key), bytes32(0)) */\n      swap3\n      pop\n      swap3\n      pop\n      pop\n      jump(tag_96)\n        /* \"@openzeppelin/contracts/utils/structs/EnumerableMap.sol\":4340:4480  if (value == bytes32(0)) {... */\n    tag_97:\n        /* \"@openzeppelin/contracts/utils/structs/EnumerableMap.sol\":4457:4461  true */\n      0x01\n        /* \"@openzeppelin/contracts/utils/structs/EnumerableMap.sol\":4463:4468  value */\n      dup2\n        /* \"@openzeppelin/contracts/utils/structs/EnumerableMap.sol\":4449:4469  return (true, value) */\n      swap3\n      pop\n      swap3\n      pop\n      pop\n        /* \"@openzeppelin/contracts/utils/structs/EnumerableMap.sol\":4188:4486  function tryGet(Bytes32ToBytes32Map storage map, bytes32 key) internal view returns (bool, bytes32) {... */\n    tag_96:\n      swap3\n      pop\n      swap3\n      swap1\n      pop\n      jump\t// out\n        /* \"@openzeppelin/contracts/utils/structs/EnumerableMap.sol\":3380:3503  function length(Bytes32ToBytes32Map storage map) internal view returns (uint256) {... */\n    tag_77:\n        /* \"@openzeppelin/contracts/utils/structs/EnumerableMap.sol\":3452:3459  uint256 */\n      0x00\n        /* \"@openzeppelin/contracts/utils/structs/EnumerableMap.sol\":3478:3496  map._keys.length() */\n      tag_101\n        /* \"@openzeppelin/contracts/utils/structs/EnumerableMap.sol\":3478:3481  map */\n      dup3\n        /* \"@openzeppelin/contracts/utils/structs/EnumerableMap.sol\":3478:3487  map._keys */\n      0x00\n      add\n        /* \"@openzeppelin/contracts/utils/structs/EnumerableMap.sol\":3478:3494  map._keys.length */\n      tag_102\n        /* \"@openzeppelin/contracts/utils/structs/EnumerableMap.sol\":3478:3496  map._keys.length() */\n      jump\t// in\n    tag_101:\n        /* \"@openzeppelin/contracts/utils/structs/EnumerableMap.sol\":3471:3496  return map._keys.length() */\n      swap1\n      pop\n        /* \"@openzeppelin/contracts/utils/structs/EnumerableMap.sol\":3380:3503  function length(Bytes32ToBytes32Map storage map) internal view returns (uint256) {... */\n      swap2\n      swap1\n      pop\n      jump\t// out\n        /* \"@openzeppelin/contracts/utils/structs/EnumerableMap.sol\":3856:4047  function at(Bytes32ToBytes32Map storage map, uint256 index) internal view returns (bytes32, bytes32) {... */\n    tag_80:\n        /* \"@openzeppelin/contracts/utils/structs/EnumerableMap.sol\":3939:3946  bytes32 */\n      0x00\n        /* \"@openzeppelin/contracts/utils/structs/EnumerableMap.sol\":3948:3955  bytes32 */\n      dup1\n        /* \"@openzeppelin/contracts/utils/structs/EnumerableMap.sol\":3967:3978  bytes32 key */\n      0x00\n        /* \"@openzeppelin/contracts/utils/structs/EnumerableMap.sol\":3981:4000  map._keys.at(index) */\n      tag_104\n        /* \"@openzeppelin/contracts/utils/structs/EnumerableMap.sol\":3994:3999  index */\n      dup5\n        /* \"@openzeppelin/contracts/utils/structs/EnumerableMap.sol\":3981:3984  map */\n      dup7\n        /* \"@openzeppelin/contracts/utils/structs/EnumerableMap.sol\":3981:3990  map._keys */\n      0x00\n      add\n        /* \"@openzeppelin/contracts/utils/structs/EnumerableMap.sol\":3981:3993  map._keys.at */\n      tag_105\n      swap1\n        /* \"@openzeppelin/contracts/utils/structs/EnumerableMap.sol\":3981:4000  map._keys.at(index) */\n      swap2\n      swap1\n      0xffffffff\n      and\n      jump\t// in\n    tag_104:\n        /* \"@openzeppelin/contracts/utils/structs/EnumerableMap.sol\":3967:4000  bytes32 key = map._keys.at(index) */\n      swap1\n      pop\n        /* \"@openzeppelin/contracts/utils/structs/EnumerableMap.sol\":4018:4021  key */\n      dup1\n        /* \"@openzeppelin/contracts/utils/structs/EnumerableMap.sol\":4023:4026  map */\n      dup6\n        /* \"@openzeppelin/contracts/utils/structs/EnumerableMap.sol\":4023:4034  map._values */\n      0x02\n      add\n        /* \"@openzeppelin/contracts/utils/structs/EnumerableMap.sol\":4023:4039  map._values[key] */\n      0x00\n        /* \"@openzeppelin/contracts/utils/structs/EnumerableMap.sol\":4035:4038  key */\n      dup4\n        /* \"@openzeppelin/contracts/utils/structs/EnumerableMap.sol\":4023:4039  map._values[key] */\n      dup2\n      mstore\n      0x20\n      add\n      swap1\n      dup2\n      mstore\n      0x20\n      add\n      0x00\n      keccak256\n      sload\n        /* \"@openzeppelin/contracts/utils/structs/EnumerableMap.sol\":4010:4040  return (key, map._values[key]) */\n      swap3\n      pop\n      swap3\n      pop\n      pop\n        /* \"@openzeppelin/contracts/utils/structs/EnumerableMap.sol\":3856:4047  function at(Bytes32ToBytes32Map storage map, uint256 index) internal view returns (bytes32, bytes32) {... */\n      swap3\n      pop\n      swap3\n      swap1\n      pop\n      jump\t// out\n        /* \"@openzeppelin/contracts/utils/structs/EnumerableMap.sol\":2907:3071  function remove(Bytes32ToBytes32Map storage map, bytes32 key) internal returns (bool) {... */\n    tag_83:\n        /* \"@openzeppelin/contracts/utils/structs/EnumerableMap.sol\":2987:2991  bool */\n      0x00\n        /* \"@openzeppelin/contracts/utils/structs/EnumerableMap.sol\":3010:3013  map */\n      dup3\n        /* \"@openzeppelin/contracts/utils/structs/EnumerableMap.sol\":3010:3021  map._values */\n      0x02\n      add\n        /* \"@openzeppelin/contracts/utils/structs/EnumerableMap.sol\":3010:3026  map._values[key] */\n      0x00\n        /* \"@openzeppelin/contracts/utils/structs/EnumerableMap.sol\":3022:3025  key */\n      dup4\n        /* \"@openzeppelin/contracts/utils/structs/EnumerableMap.sol\":3010:3026  map._values[key] */\n      dup2\n      mstore\n      0x20\n      add\n      swap1\n      dup2\n      mstore\n      0x20\n      add\n      0x00\n      keccak256\n        /* \"@openzeppelin/contracts/utils/structs/EnumerableMap.sol\":3003:3026  delete map._values[key] */\n      0x00\n      swap1\n      sstore\n        /* \"@openzeppelin/contracts/utils/structs/EnumerableMap.sol\":3043:3064  map._keys.remove(key) */\n      tag_107\n        /* \"@openzeppelin/contracts/utils/structs/EnumerableMap.sol\":3060:3063  key */\n      dup3\n        /* \"@openzeppelin/contracts/utils/structs/EnumerableMap.sol\":3043:3046  map */\n      dup5\n        /* \"@openzeppelin/contracts/utils/structs/EnumerableMap.sol\":3043:3052  map._keys */\n      0x00\n      add\n        /* \"@openzeppelin/contracts/utils/structs/EnumerableMap.sol\":3043:3059  map._keys.remove */\n      tag_108\n      swap1\n        /* \"@openzeppelin/contracts/utils/structs/EnumerableMap.sol\":3043:3064  map._keys.remove(key) */\n      swap2\n      swap1\n      0xffffffff\n      and\n      jump\t// in\n    tag_107:\n        /* \"@openzeppelin/contracts/utils/structs/EnumerableMap.sol\":3036:3064  return map._keys.remove(key) */\n      swap1\n      pop\n        /* \"@openzeppelin/contracts/utils/structs/EnumerableMap.sol\":2907:3071  function remove(Bytes32ToBytes32Map storage map, bytes32 key) internal returns (bool) {... */\n      swap3\n      swap2\n      pop\n      pop\n      jump\t// out\n        /* \"@openzeppelin/contracts/utils/structs/EnumerableMap.sol\":3150:3290  function contains(Bytes32ToBytes32Map storage map, bytes32 key) internal view returns (bool) {... */\n    tag_86:\n        /* \"@openzeppelin/contracts/utils/structs/EnumerableMap.sol\":3237:3241  bool */\n      0x00\n        /* \"@openzeppelin/contracts/utils/structs/EnumerableMap.sol\":3260:3283  map._keys.contains(key) */\n      tag_110\n        /* \"@openzeppelin/contracts/utils/structs/EnumerableMap.sol\":3279:3282  key */\n      dup3\n        /* \"@openzeppelin/contracts/utils/structs/EnumerableMap.sol\":3260:3263  map */\n      dup5\n        /* \"@openzeppelin/contracts/utils/structs/EnumerableMap.sol\":3260:3269  map._keys */\n      0x00\n      add\n        /* \"@openzeppelin/contracts/utils/structs/EnumerableMap.sol\":3260:3278  map._keys.contains */\n      tag_111\n      swap1\n        /* \"@openzeppelin/contracts/utils/structs/EnumerableMap.sol\":3260:3283  map._keys.contains(key) */\n      swap2\n      swap1\n      0xffffffff\n      and\n      jump\t// in\n    tag_110:\n        /* \"@openzeppelin/contracts/utils/structs/EnumerableMap.sol\":3253:3283  return map._keys.contains(key) */\n      swap1\n      pop\n        /* \"@openzeppelin/contracts/utils/structs/EnumerableMap.sol\":3150:3290  function contains(Bytes32ToBytes32Map storage map, bytes32 key) internal view returns (bool) {... */\n      swap3\n      swap2\n      pop\n      pop\n      jump\t// out\n        /* \"@openzeppelin/contracts/utils/structs/EnumerableSet.sol\":5911:6034  function add(Bytes32Set storage set, bytes32 value) internal returns (bool) {... */\n    tag_89:\n        /* \"@openzeppelin/contracts/utils/structs/EnumerableSet.sol\":5981:5985  bool */\n      0x00\n        /* \"@openzeppelin/contracts/utils/structs/EnumerableSet.sol\":6004:6027  _add(set._inner, value) */\n      tag_113\n        /* \"@openzeppelin/contracts/utils/structs/EnumerableSet.sol\":6009:6012  set */\n      dup4\n        /* \"@openzeppelin/contracts/utils/structs/EnumerableSet.sol\":6009:6019  set._inner */\n      0x00\n      add\n        /* \"@openzeppelin/contracts/utils/structs/EnumerableSet.sol\":6021:6026  value */\n      dup4\n        /* \"@openzeppelin/contracts/utils/structs/EnumerableSet.sol\":6004:6008  _add */\n      tag_114\n        /* \"@openzeppelin/contracts/utils/structs/EnumerableSet.sol\":6004:6027  _add(set._inner, value) */\n      jump\t// in\n    tag_113:\n        /* \"@openzeppelin/contracts/utils/structs/EnumerableSet.sol\":5997:6027  return _add(set._inner, value) */\n      swap1\n      pop\n        /* \"@openzeppelin/contracts/utils/structs/EnumerableSet.sol\":5911:6034  function add(Bytes32Set storage set, bytes32 value) internal returns (bool) {... */\n      swap3\n      swap2\n      pop\n      pop\n      jump\t// out\n        /* \"@openzeppelin/contracts/utils/structs/EnumerableSet.sol\":6631:6746  function length(Bytes32Set storage set) internal view returns (uint256) {... */\n    tag_102:\n        /* \"@openzeppelin/contracts/utils/structs/EnumerableSet.sol\":6694:6701  uint256 */\n      0x00\n        /* \"@openzeppelin/contracts/utils/structs/EnumerableSet.sol\":6720:6739  _length(set._inner) */\n      tag_116\n        /* \"@openzeppelin/contracts/utils/structs/EnumerableSet.sol\":6728:6731  set */\n      dup3\n        /* \"@openzeppelin/contracts/utils/structs/EnumerableSet.sol\":6728:6738  set._inner */\n      0x00\n      add\n        /* \"@openzeppelin/contracts/utils/structs/EnumerableSet.sol\":6720:6727  _length */\n      tag_117\n        /* \"@openzeppelin/contracts/utils/structs/EnumerableSet.sol\":6720:6739  _length(set._inner) */\n      jump\t// in\n    tag_116:\n        /* \"@openzeppelin/contracts/utils/structs/EnumerableSet.sol\":6713:6739  return _length(set._inner) */\n      swap1\n      pop\n        /* \"@openzeppelin/contracts/utils/structs/EnumerableSet.sol\":6631:6746  function length(Bytes32Set storage set) internal view returns (uint256) {... */\n      swap2\n      swap1\n      pop\n      jump\t// out\n        /* \"@openzeppelin/contracts/utils/structs/EnumerableSet.sol\":7088:7217  function at(Bytes32Set storage set, uint256 index) internal view returns (bytes32) {... */\n    tag_105:\n        /* \"@openzeppelin/contracts/utils/structs/EnumerableSet.sol\":7162:7169  bytes32 */\n      0x00\n        /* \"@openzeppelin/contracts/utils/structs/EnumerableSet.sol\":7188:7210  _at(set._inner, index) */\n      tag_119\n        /* \"@openzeppelin/contracts/utils/structs/EnumerableSet.sol\":7192:7195  set */\n      dup4\n        /* \"@openzeppelin/contracts/utils/structs/EnumerableSet.sol\":7192:7202  set._inner */\n      0x00\n      add\n        /* \"@openzeppelin/contracts/utils/structs/EnumerableSet.sol\":7204:7209  index */\n      dup4\n        /* \"@openzeppelin/contracts/utils/structs/EnumerableSet.sol\":7188:7191  _at */\n      tag_120\n        /* \"@openzeppelin/contracts/utils/structs/EnumerableSet.sol\":7188:7210  _at(set._inner, index) */\n      jump\t// in\n    tag_119:\n        /* \"@openzeppelin/contracts/utils/structs/EnumerableSet.sol\":7181:7210  return _at(set._inner, index) */\n      swap1\n      pop\n        /* \"@openzeppelin/contracts/utils/structs/EnumerableSet.sol\":7088:7217  function at(Bytes32Set storage set, uint256 index) internal view returns (bytes32) {... */\n      swap3\n      swap2\n      pop\n      pop\n      jump\t// out\n        /* \"@openzeppelin/contracts/utils/structs/EnumerableSet.sol\":6202:6331  function remove(Bytes32Set storage set, bytes32 value) internal returns (bool) {... */\n    tag_108:\n        /* \"@openzeppelin/contracts/utils/structs/EnumerableSet.sol\":6275:6279  bool */\n      0x00\n        /* \"@openzeppelin/contracts/utils/structs/EnumerableSet.sol\":6298:6324  _remove(set._inner, value) */\n      tag_122\n        /* \"@openzeppelin/contracts/utils/structs/EnumerableSet.sol\":6306:6309  set */\n      dup4\n        /* \"@openzeppelin/contracts/utils/structs/EnumerableSet.sol\":6306:6316  set._inner */\n      0x00\n      add\n        /* \"@openzeppelin/contracts/utils/structs/EnumerableSet.sol\":6318:6323  value */\n      dup4\n        /* \"@openzeppelin/contracts/utils/structs/EnumerableSet.sol\":6298:6305  _remove */\n      tag_123\n        /* \"@openzeppelin/contracts/utils/structs/EnumerableSet.sol\":6298:6324  _remove(set._inner, value) */\n      jump\t// in\n    tag_122:\n        /* \"@openzeppelin/contracts/utils/structs/EnumerableSet.sol\":6291:6324  return _remove(set._inner, value) */\n      swap1\n      pop\n        /* \"@openzeppelin/contracts/utils/structs/EnumerableSet.sol\":6202:6331  function remove(Bytes32Set storage set, bytes32 value) internal returns (bool) {... */\n      swap3\n      swap2\n      pop\n      pop\n      jump\t// out\n        /* \"@openzeppelin/contracts/utils/structs/EnumerableSet.sol\":6412:6550  function contains(Bytes32Set storage set, bytes32 value) internal view returns (bool) {... */\n    tag_111:\n        /* \"@openzeppelin/contracts/utils/structs/EnumerableSet.sol\":6492:6496  bool */\n      0x00\n        /* \"@openzeppelin/contracts/utils/structs/EnumerableSet.sol\":6515:6543  _contains(set._inner, value) */\n      tag_125\n        /* \"@openzeppelin/contracts/utils/structs/EnumerableSet.sol\":6525:6528  set */\n      dup4\n        /* \"@openzeppelin/contracts/utils/structs/EnumerableSet.sol\":6525:6535  set._inner */\n      0x00\n      add\n        /* \"@openzeppelin/contracts/utils/structs/EnumerableSet.sol\":6537:6542  value */\n      dup4\n        /* \"@openzeppelin/contracts/utils/structs/EnumerableSet.sol\":6515:6524  _contains */\n      tag_126\n        /* \"@openzeppelin/contracts/utils/structs/EnumerableSet.sol\":6515:6543  _contains(set._inner, value) */\n      jump\t// in\n    tag_125:\n        /* \"@openzeppelin/contracts/utils/structs/EnumerableSet.sol\":6508:6543  return _contains(set._inner, value) */\n      swap1\n      pop\n        /* \"@openzeppelin/contracts/utils/structs/EnumerableSet.sol\":6412:6550  function contains(Bytes32Set storage set, bytes32 value) internal view returns (bool) {... */\n      swap3\n      swap2\n      pop\n      pop\n      jump\t// out\n        /* \"@openzeppelin/contracts/utils/structs/EnumerableSet.sol\":2206:2610  function _add(Set storage set, bytes32 value) private returns (bool) {... */\n    tag_114:\n        /* \"@openzeppelin/contracts/utils/structs/EnumerableSet.sol\":2269:2273  bool */\n      0x00\n        /* \"@openzeppelin/contracts/utils/structs/EnumerableSet.sol\":2290:2311  _contains(set, value) */\n      tag_128\n        /* \"@openzeppelin/contracts/utils/structs/EnumerableSet.sol\":2300:2303  set */\n      dup4\n        /* \"@openzeppelin/contracts/utils/structs/EnumerableSet.sol\":2305:2310  value */\n      dup4\n        /* \"@openzeppelin/contracts/utils/structs/EnumerableSet.sol\":2290:2299  _contains */\n      tag_126\n        /* \"@openzeppelin/contracts/utils/structs/EnumerableSet.sol\":2290:2311  _contains(set, value) */\n      jump\t// in\n    tag_128:\n        /* \"@openzeppelin/contracts/utils/structs/EnumerableSet.sol\":2285:2604  if (!_contains(set, value)) {... */\n      tag_129\n      jumpi\n        /* \"@openzeppelin/contracts/utils/structs/EnumerableSet.sol\":2327:2330  set */\n      dup3\n        /* \"@openzeppelin/contracts/utils/structs/EnumerableSet.sol\":2327:2338  set._values */\n      0x00\n      add\n        /* \"@openzeppelin/contracts/utils/structs/EnumerableSet.sol\":2344:2349  value */\n      dup3\n        /* \"@openzeppelin/contracts/utils/structs/EnumerableSet.sol\":2327:2350  set._values.push(value) */\n      swap1\n      dup1\n      0x01\n      dup2\n      sload\n      add\n      dup1\n      dup3\n      sstore\n      dup1\n      swap2\n      pop\n      pop\n      0x01\n      swap1\n      sub\n      swap1\n      0x00\n      mstore\n      keccak256(0x00, 0x20)\n      add\n      0x00\n      swap1\n      swap2\n      swap1\n      swap2\n      swap1\n      swap2\n      pop\n      sstore\n        /* \"@openzeppelin/contracts/utils/structs/EnumerableSet.sol\":2507:2510  set */\n      dup3\n        /* \"@openzeppelin/contracts/utils/structs/EnumerableSet.sol\":2507:2518  set._values */\n      0x00\n      add\n        /* \"@openzeppelin/contracts/utils/structs/EnumerableSet.sol\":2507:2525  set._values.length */\n      dup1\n      sload\n      swap1\n      pop\n        /* \"@openzeppelin/contracts/utils/structs/EnumerableSet.sol\":2485:2488  set */\n      dup4\n        /* \"@openzeppelin/contracts/utils/structs/EnumerableSet.sol\":2485:2497  set._indexes */\n      0x01\n      add\n        /* \"@openzeppelin/contracts/utils/structs/EnumerableSet.sol\":2485:2504  set._indexes[value] */\n      0x00\n        /* \"@openzeppelin/contracts/utils/structs/EnumerableSet.sol\":2498:2503  value */\n      dup5\n        /* \"@openzeppelin/contracts/utils/structs/EnumerableSet.sol\":2485:2504  set._indexes[value] */\n      dup2\n      mstore\n      0x20\n      add\n      swap1\n      dup2\n      mstore\n      0x20\n      add\n      0x00\n      keccak256\n        /* \"@openzeppelin/contracts/utils/structs/EnumerableSet.sol\":2485:2525  set._indexes[value] = set._values.length */\n      dup2\n      swap1\n      sstore\n      pop\n        /* \"@openzeppelin/contracts/utils/structs/EnumerableSet.sol\":2546:2550  true */\n      0x01\n        /* \"@openzeppelin/contracts/utils/structs/EnumerableSet.sol\":2539:2550  return true */\n      swap1\n      pop\n      jump(tag_127)\n        /* \"@openzeppelin/contracts/utils/structs/EnumerableSet.sol\":2285:2604  if (!_contains(set, value)) {... */\n    tag_129:\n        /* \"@openzeppelin/contracts/utils/structs/EnumerableSet.sol\":2588:2593  false */\n      0x00\n        /* \"@openzeppelin/contracts/utils/structs/EnumerableSet.sol\":2581:2593  return false */\n      swap1\n      pop\n        /* \"@openzeppelin/contracts/utils/structs/EnumerableSet.sol\":2206:2610  function _add(Set storage set, bytes32 value) private returns (bool) {... */\n    tag_127:\n      swap3\n      swap2\n      pop\n      pop\n      jump\t// out\n        /* \"@openzeppelin/contracts/utils/structs/EnumerableSet.sol\":4455:4562  function _length(Set storage set) private view returns (uint256) {... */\n    tag_117:\n        /* \"@openzeppelin/contracts/utils/structs/EnumerableSet.sol\":4511:4518  uint256 */\n      0x00\n        /* \"@openzeppelin/contracts/utils/structs/EnumerableSet.sol\":4537:4540  set */\n      dup2\n        /* \"@openzeppelin/contracts/utils/structs/EnumerableSet.sol\":4537:4548  set._values */\n      0x00\n      add\n        /* \"@openzeppelin/contracts/utils/structs/EnumerableSet.sol\":4537:4555  set._values.length */\n      dup1\n      sload\n      swap1\n      pop\n        /* \"@openzeppelin/contracts/utils/structs/EnumerableSet.sol\":4530:4555  return set._values.length */\n      swap1\n      pop\n        /* \"@openzeppelin/contracts/utils/structs/EnumerableSet.sol\":4455:4562  function _length(Set storage set) private view returns (uint256) {... */\n      swap2\n      swap1\n      pop\n      jump\t// out\n        /* \"@openzeppelin/contracts/utils/structs/EnumerableSet.sol\":4904:5022  function _at(Set storage set, uint256 index) private view returns (bytes32) {... */\n    tag_120:\n        /* \"@openzeppelin/contracts/utils/structs/EnumerableSet.sol\":4971:4978  bytes32 */\n      0x00\n        /* \"@openzeppelin/contracts/utils/structs/EnumerableSet.sol\":4997:5000  set */\n      dup3\n        /* \"@openzeppelin/contracts/utils/structs/EnumerableSet.sol\":4997:5008  set._values */\n      0x00\n      add\n        /* \"@openzeppelin/contracts/utils/structs/EnumerableSet.sol\":5009:5014  index */\n      dup3\n        /* \"@openzeppelin/contracts/utils/structs/EnumerableSet.sol\":4997:5015  set._values[index] */\n      dup2\n      sload\n      dup2\n      lt\n      tag_134\n      jumpi\n      tag_135\n      tag_136\n      jump\t// in\n    tag_135:\n    tag_134:\n      swap1\n      0x00\n      mstore\n      keccak256(0x00, 0x20)\n      add\n      sload\n        /* \"@openzeppelin/contracts/utils/structs/EnumerableSet.sol\":4990:5015  return set._values[index] */\n      swap1\n      pop\n        /* \"@openzeppelin/contracts/utils/structs/EnumerableSet.sol\":4904:5022  function _at(Set storage set, uint256 index) private view returns (bytes32) {... */\n      swap3\n      swap2\n      pop\n      pop\n      jump\t// out\n        /* \"@openzeppelin/contracts/utils/structs/EnumerableSet.sol\":2778:4166  function _remove(Set storage set, bytes32 value) private returns (bool) {... */\n    tag_123:\n        /* \"@openzeppelin/contracts/utils/structs/EnumerableSet.sol\":2844:2848  bool */\n      0x00\n        /* \"@openzeppelin/contracts/utils/structs/EnumerableSet.sol\":2960:2978  uint256 valueIndex */\n      dup1\n        /* \"@openzeppelin/contracts/utils/structs/EnumerableSet.sol\":2981:2984  set */\n      dup4\n        /* \"@openzeppelin/contracts/utils/structs/EnumerableSet.sol\":2981:2993  set._indexes */\n      0x01\n      add\n        /* \"@openzeppelin/contracts/utils/structs/EnumerableSet.sol\":2981:3000  set._indexes[value] */\n      0x00\n        /* \"@openzeppelin/contracts/utils/structs/EnumerableSet.sol\":2994:2999  value */\n      dup5\n        /* \"@openzeppelin/contracts/utils/structs/EnumerableSet.sol\":2981:3000  set._indexes[value] */\n      dup2\n      mstore\n      0x20\n      add\n      swap1\n      dup2\n      mstore\n      0x20\n      add\n      0x00\n      keccak256\n      sload\n        /* \"@openzeppelin/contracts/utils/structs/EnumerableSet.sol\":2960:3000  uint256 valueIndex = set._indexes[value] */\n      swap1\n      pop\n        /* \"@openzeppelin/contracts/utils/structs/EnumerableSet.sol\":3029:3030  0 */\n      0x00\n        /* \"@openzeppelin/contracts/utils/structs/EnumerableSet.sol\":3015:3025  valueIndex */\n      dup2\n        /* \"@openzeppelin/contracts/utils/structs/EnumerableSet.sol\":3015:3030  valueIndex != 0 */\n      eq\n        /* \"@openzeppelin/contracts/utils/structs/EnumerableSet.sol\":3011:4160  if (valueIndex != 0) {... */\n      tag_139\n      jumpi\n        /* \"@openzeppelin/contracts/utils/structs/EnumerableSet.sol\":3384:3405  uint256 toDeleteIndex */\n      0x00\n        /* \"@openzeppelin/contracts/utils/structs/EnumerableSet.sol\":3421:3422  1 */\n      0x01\n        /* \"@openzeppelin/contracts/utils/structs/EnumerableSet.sol\":3408:3418  valueIndex */\n      dup3\n        /* \"@openzeppelin/contracts/utils/structs/EnumerableSet.sol\":3408:3422  valueIndex - 1 */\n      tag_140\n      swap2\n      swap1\n      tag_141\n      jump\t// in\n    tag_140:\n        /* \"@openzeppelin/contracts/utils/structs/EnumerableSet.sol\":3384:3422  uint256 toDeleteIndex = valueIndex - 1 */\n      swap1\n      pop\n        /* \"@openzeppelin/contracts/utils/structs/EnumerableSet.sol\":3436:3453  uint256 lastIndex */\n      0x00\n        /* \"@openzeppelin/contracts/utils/structs/EnumerableSet.sol\":3477:3478  1 */\n      0x01\n        /* \"@openzeppelin/contracts/utils/structs/EnumerableSet.sol\":3456:3459  set */\n      dup7\n        /* \"@openzeppelin/contracts/utils/structs/EnumerableSet.sol\":3456:3467  set._values */\n      0x00\n      add\n        /* \"@openzeppelin/contracts/utils/structs/EnumerableSet.sol\":3456:3474  set._values.length */\n      dup1\n      sload\n      swap1\n      pop\n        /* \"@openzeppelin/contracts/utils/structs/EnumerableSet.sol\":3456:3478  set._values.length - 1 */\n      tag_142\n      swap2\n      swap1\n      tag_141\n      jump\t// in\n    tag_142:\n        /* \"@openzeppelin/contracts/utils/structs/EnumerableSet.sol\":3436:3478  uint256 lastIndex = set._values.length - 1 */\n      swap1\n      pop\n        /* \"@openzeppelin/contracts/utils/structs/EnumerableSet.sol\":3510:3523  toDeleteIndex */\n      dup2\n        /* \"@openzeppelin/contracts/utils/structs/EnumerableSet.sol\":3497:3506  lastIndex */\n      dup2\n        /* \"@openzeppelin/contracts/utils/structs/EnumerableSet.sol\":3497:3523  lastIndex != toDeleteIndex */\n      eq\n        /* \"@openzeppelin/contracts/utils/structs/EnumerableSet.sol\":3493:3891  if (lastIndex != toDeleteIndex) {... */\n      tag_143\n      jumpi\n        /* \"@openzeppelin/contracts/utils/structs/EnumerableSet.sol\":3543:3560  bytes32 lastValue */\n      0x00\n        /* \"@openzeppelin/contracts/utils/structs/EnumerableSet.sol\":3563:3566  set */\n      dup7\n        /* \"@openzeppelin/contracts/utils/structs/EnumerableSet.sol\":3563:3574  set._values */\n      0x00\n      add\n        /* \"@openzeppelin/contracts/utils/structs/EnumerableSet.sol\":3575:3584  lastIndex */\n      dup3\n        /* \"@openzeppelin/contracts/utils/structs/EnumerableSet.sol\":3563:3585  set._values[lastIndex] */\n      dup2\n      sload\n      dup2\n      lt\n      tag_144\n      jumpi\n      tag_145\n      tag_136\n      jump\t// in\n    tag_145:\n    tag_144:\n      swap1\n      0x00\n      mstore\n      keccak256(0x00, 0x20)\n      add\n      sload\n        /* \"@openzeppelin/contracts/utils/structs/EnumerableSet.sol\":3543:3585  bytes32 lastValue = set._values[lastIndex] */\n      swap1\n      pop\n        /* \"@openzeppelin/contracts/utils/structs/EnumerableSet.sol\":3714:3723  lastValue */\n      dup1\n        /* \"@openzeppelin/contracts/utils/structs/EnumerableSet.sol\":3685:3688  set */\n      dup8\n        /* \"@openzeppelin/contracts/utils/structs/EnumerableSet.sol\":3685:3696  set._values */\n      0x00\n      add\n        /* \"@openzeppelin/contracts/utils/structs/EnumerableSet.sol\":3697:3710  toDeleteIndex */\n      dup5\n        /* \"@openzeppelin/contracts/utils/structs/EnumerableSet.sol\":3685:3711  set._values[toDeleteIndex] */\n      dup2\n      sload\n      dup2\n      lt\n      tag_147\n      jumpi\n      tag_148\n      tag_136\n      jump\t// in\n    tag_148:\n    tag_147:\n      swap1\n      0x00\n      mstore\n      keccak256(0x00, 0x20)\n      add\n        /* \"@openzeppelin/contracts/utils/structs/EnumerableSet.sol\":3685:3723  set._values[toDeleteIndex] = lastValue */\n      dup2\n      swap1\n      sstore\n      pop\n        /* \"@openzeppelin/contracts/utils/structs/EnumerableSet.sol\":3823:3833  valueIndex */\n      dup4\n        /* \"@openzeppelin/contracts/utils/structs/EnumerableSet.sol\":3797:3800  set */\n      dup8\n        /* \"@openzeppelin/contracts/utils/structs/EnumerableSet.sol\":3797:3809  set._indexes */\n      0x01\n      add\n        /* \"@openzeppelin/contracts/utils/structs/EnumerableSet.sol\":3797:3820  set._indexes[lastValue] */\n      0x00\n        /* \"@openzeppelin/contracts/utils/structs/EnumerableSet.sol\":3810:3819  lastValue */\n      dup4\n        /* \"@openzeppelin/contracts/utils/structs/EnumerableSet.sol\":3797:3820  set._indexes[lastValue] */\n      dup2\n      mstore\n      0x20\n      add\n      swap1\n      dup2\n      mstore\n      0x20\n      add\n      0x00\n      keccak256\n        /* \"@openzeppelin/contracts/utils/structs/EnumerableSet.sol\":3797:3833  set._indexes[lastValue] = valueIndex */\n      dup2\n      swap1\n      sstore\n      pop\n        /* \"@openzeppelin/contracts/utils/structs/EnumerableSet.sol\":3525:3891  {... */\n      pop\n        /* \"@openzeppelin/contracts/utils/structs/EnumerableSet.sol\":3493:3891  if (lastIndex != toDeleteIndex) {... */\n    tag_143:\n        /* \"@openzeppelin/contracts/utils/structs/EnumerableSet.sol\":3969:3972  set */\n      dup6\n        /* \"@openzeppelin/contracts/utils/structs/EnumerableSet.sol\":3969:3980  set._values */\n      0x00\n      add\n        /* \"@openzeppelin/contracts/utils/structs/EnumerableSet.sol\":3969:3986  set._values.pop() */\n      dup1\n      sload\n      dup1\n      tag_150\n      jumpi\n      tag_151\n      tag_152\n      jump\t// in\n    tag_151:\n    tag_150:\n      0x01\n      swap1\n      sub\n      dup2\n      dup2\n      swap1\n      0x00\n      mstore\n      keccak256(0x00, 0x20)\n      add\n      0x00\n      swap1\n      sstore\n      swap1\n      sstore\n        /* \"@openzeppelin/contracts/utils/structs/EnumerableSet.sol\":4061:4064  set */\n      dup6\n        /* \"@openzeppelin/contracts/utils/structs/EnumerableSet.sol\":4061:4073  set._indexes */\n      0x01\n      add\n        /* \"@openzeppelin/contracts/utils/structs/EnumerableSet.sol\":4061:4080  set._indexes[value] */\n      0x00\n        /* \"@openzeppelin/contracts/utils/structs/EnumerableSet.sol\":4074:4079  value */\n      dup7\n        /* \"@openzeppelin/contracts/utils/structs/EnumerableSet.sol\":4061:4080  set._indexes[value] */\n      dup2\n      mstore\n      0x20\n      add\n      swap1\n      dup2\n      mstore\n      0x20\n      add\n      0x00\n      keccak256\n        /* \"@openzeppelin/contracts/utils/structs/EnumerableSet.sol\":4054:4080  delete set._indexes[value] */\n      0x00\n      swap1\n      sstore\n        /* \"@openzeppelin/contracts/utils/structs/EnumerableSet.sol\":4102:4106  true */\n      0x01\n        /* \"@openzeppelin/contracts/utils/structs/EnumerableSet.sol\":4095:4106  return true */\n      swap4\n      pop\n      pop\n      pop\n      pop\n      jump(tag_138)\n        /* \"@openzeppelin/contracts/utils/structs/EnumerableSet.sol\":3011:4160  if (valueIndex != 0) {... */\n    tag_139:\n        /* \"@openzeppelin/contracts/utils/structs/EnumerableSet.sol\":4144:4149  false */\n      0x00\n        /* \"@openzeppelin/contracts/utils/structs/EnumerableSet.sol\":4137:4149  return false */\n      swap2\n      pop\n      pop\n        /* \"@openzeppelin/contracts/utils/structs/EnumerableSet.sol\":2778:4166  function _remove(Set storage set, bytes32 value) private returns (bool) {... */\n    tag_138:\n      swap3\n      swap2\n      pop\n      pop\n      jump\t// out\n        /* \"@openzeppelin/contracts/utils/structs/EnumerableSet.sol\":4247:4374  function _contains(Set storage set, bytes32 value) private view returns (bool) {... */\n    tag_126:\n        /* \"@openzeppelin/contracts/utils/structs/EnumerableSet.sol\":4320:4324  bool */\n      0x00\n        /* \"@openzeppelin/contracts/utils/structs/EnumerableSet.sol\":4366:4367  0 */\n      dup1\n        /* \"@openzeppelin/contracts/utils/structs/EnumerableSet.sol\":4343:4346  set */\n      dup4\n        /* \"@openzeppelin/contracts/utils/structs/EnumerableSet.sol\":4343:4355  set._indexes */\n      0x01\n      add\n        /* \"@openzeppelin/contracts/utils/structs/EnumerableSet.sol\":4343:4362  set._indexes[value] */\n      0x00\n        /* \"@openzeppelin/contracts/utils/structs/EnumerableSet.sol\":4356:4361  value */\n      dup5\n        /* \"@openzeppelin/contracts/utils/structs/EnumerableSet.sol\":4343:4362  set._indexes[value] */\n      dup2\n      mstore\n      0x20\n      add\n      swap1\n      dup2\n      mstore\n      0x20\n      add\n      0x00\n      keccak256\n      sload\n        /* \"@openzeppelin/contracts/utils/structs/EnumerableSet.sol\":4343:4367  set._indexes[value] != 0 */\n      eq\n      iszero\n        /* \"@openzeppelin/contracts/utils/structs/EnumerableSet.sol\":4336:4367  return set._indexes[value] != 0 */\n      swap1\n      pop\n        /* \"@openzeppelin/contracts/utils/structs/EnumerableSet.sol\":4247:4374  function _contains(Set storage set, bytes32 value) private view returns (bool) {... */\n      swap3\n      swap2\n      pop\n      pop\n      jump\t// out\n        /* \"#utility.yul\":7:146   */\n    tag_157:\n        /* \"#utility.yul\":53:58   */\n      0x00\n        /* \"#utility.yul\":91:97   */\n      dup2\n        /* \"#utility.yul\":78:98   */\n      calldataload\n        /* \"#utility.yul\":69:98   */\n      swap1\n      pop\n        /* \"#utility.yul\":107:140   */\n      tag_159\n        /* \"#utility.yul\":134:139   */\n      dup2\n        /* \"#utility.yul\":107:140   */\n      tag_160\n      jump\t// in\n    tag_159:\n        /* \"#utility.yul\":7:146   */\n      swap3\n      swap2\n      pop\n      pop\n      jump\t// out\n        /* \"#utility.yul\":152:291   */\n    tag_161:\n        /* \"#utility.yul\":198:203   */\n      0x00\n        /* \"#utility.yul\":236:242   */\n      dup2\n        /* \"#utility.yul\":223:243   */\n      calldataload\n        /* \"#utility.yul\":214:243   */\n      swap1\n      pop\n        /* \"#utility.yul\":252:285   */\n      tag_163\n        /* \"#utility.yul\":279:284   */\n      dup2\n        /* \"#utility.yul\":252:285   */\n      tag_164\n      jump\t// in\n    tag_163:\n        /* \"#utility.yul\":152:291   */\n      swap3\n      swap2\n      pop\n      pop\n      jump\t// out\n        /* \"#utility.yul\":297:626   */\n    tag_19:\n        /* \"#utility.yul\":356:362   */\n      0x00\n        /* \"#utility.yul\":405:407   */\n      0x20\n        /* \"#utility.yul\":393:402   */\n      dup3\n        /* \"#utility.yul\":384:391   */\n      dup5\n        /* \"#utility.yul\":380:403   */\n      sub\n        /* \"#utility.yul\":376:408   */\n      slt\n        /* \"#utility.yul\":373:492   */\n      iszero\n      tag_166\n      jumpi\n        /* \"#utility.yul\":411:490   */\n      tag_167\n      tag_168\n      jump\t// in\n    tag_167:\n        /* \"#utility.yul\":373:492   */\n    tag_166:\n        /* \"#utility.yul\":531:532   */\n      0x00\n        /* \"#utility.yul\":556:609   */\n      tag_169\n        /* \"#utility.yul\":601:608   */\n      dup5\n        /* \"#utility.yul\":592:598   */\n      dup3\n        /* \"#utility.yul\":581:590   */\n      dup6\n        /* \"#utility.yul\":577:599   */\n      add\n        /* \"#utility.yul\":556:609   */\n      tag_161\n      jump\t// in\n    tag_169:\n        /* \"#utility.yul\":546:609   */\n      swap2\n      pop\n        /* \"#utility.yul\":502:619   */\n      pop\n        /* \"#utility.yul\":297:626   */\n      swap3\n      swap2\n      pop\n      pop\n      jump\t// out\n        /* \"#utility.yul\":632:1106   */\n    tag_13:\n        /* \"#utility.yul\":700:706   */\n      0x00\n        /* \"#utility.yul\":708:714   */\n      dup1\n        /* \"#utility.yul\":757:759   */\n      0x40\n        /* \"#utility.yul\":745:754   */\n      dup4\n        /* \"#utility.yul\":736:743   */\n      dup6\n        /* \"#utility.yul\":732:755   */\n      sub\n        /* \"#utility.yul\":728:760   */\n      slt\n        /* \"#utility.yul\":725:844   */\n      iszero\n      tag_171\n      jumpi\n        /* \"#utility.yul\":763:842   */\n      tag_172\n      tag_168\n      jump\t// in\n    tag_172:\n        /* \"#utility.yul\":725:844   */\n    tag_171:\n        /* \"#utility.yul\":883:884   */\n      0x00\n        /* \"#utility.yul\":908:961   */\n      tag_173\n        /* \"#utility.yul\":953:960   */\n      dup6\n        /* \"#utility.yul\":944:950   */\n      dup3\n        /* \"#utility.yul\":933:942   */\n      dup7\n        /* \"#utility.yul\":929:951   */\n      add\n        /* \"#utility.yul\":908:961   */\n      tag_161\n      jump\t// in\n    tag_173:\n        /* \"#utility.yul\":898:961   */\n      swap3\n      pop\n        /* \"#utility.yul\":854:971   */\n      pop\n        /* \"#utility.yul\":1010:1012   */\n      0x20\n        /* \"#utility.yul\":1036:1089   */\n      tag_174\n        /* \"#utility.yul\":1081:1088   */\n      dup6\n        /* \"#utility.yul\":1072:1078   */\n      dup3\n        /* \"#utility.yul\":1061:1070   */\n      dup7\n        /* \"#utility.yul\":1057:1079   */\n      add\n        /* \"#utility.yul\":1036:1089   */\n      tag_157\n      jump\t// in\n    tag_174:\n        /* \"#utility.yul\":1026:1089   */\n      swap2\n      pop\n        /* \"#utility.yul\":981:1099   */\n      pop\n        /* \"#utility.yul\":632:1106   */\n      swap3\n      pop\n      swap3\n      swap1\n      pop\n      jump\t// out\n        /* \"#utility.yul\":1112:1230   */\n    tag_175:\n        /* \"#utility.yul\":1199:1223   */\n      tag_177\n        /* \"#utility.yul\":1217:1222   */\n      dup2\n        /* \"#utility.yul\":1199:1223   */\n      tag_178\n      jump\t// in\n    tag_177:\n        /* \"#utility.yul\":1194:1197   */\n      dup3\n        /* \"#utility.yul\":1187:1224   */\n      mstore\n        /* \"#utility.yul\":1112:1230   */\n      pop\n      pop\n      jump\t// out\n        /* \"#utility.yul\":1236:1345   */\n    tag_179:\n        /* \"#utility.yul\":1317:1338   */\n      tag_181\n        /* \"#utility.yul\":1332:1337   */\n      dup2\n        /* \"#utility.yul\":1317:1338   */\n      tag_182\n      jump\t// in\n    tag_181:\n        /* \"#utility.yul\":1312:1315   */\n      dup3\n        /* \"#utility.yul\":1305:1339   */\n      mstore\n        /* \"#utility.yul\":1236:1345   */\n      pop\n      pop\n      jump\t// out\n        /* \"#utility.yul\":1351:1717   */\n    tag_183:\n        /* \"#utility.yul\":1493:1496   */\n      0x00\n        /* \"#utility.yul\":1514:1581   */\n      tag_185\n        /* \"#utility.yul\":1578:1580   */\n      0x1e\n        /* \"#utility.yul\":1573:1576   */\n      dup4\n        /* \"#utility.yul\":1514:1581   */\n      tag_186\n      jump\t// in\n    tag_185:\n        /* \"#utility.yul\":1507:1581   */\n      swap2\n      pop\n        /* \"#utility.yul\":1590:1683   */\n      tag_187\n        /* \"#utility.yul\":1679:1682   */\n      dup3\n        /* \"#utility.yul\":1590:1683   */\n      tag_188\n      jump\t// in\n    tag_187:\n        /* \"#utility.yul\":1708:1710   */\n      0x20\n        /* \"#utility.yul\":1703:1706   */\n      dup3\n        /* \"#utility.yul\":1699:1711   */\n      add\n        /* \"#utility.yul\":1692:1711   */\n      swap1\n      pop\n        /* \"#utility.yul\":1351:1717   */\n      swap2\n      swap1\n      pop\n      jump\t// out\n        /* \"#utility.yul\":1723:1841   */\n    tag_189:\n        /* \"#utility.yul\":1810:1834   */\n      tag_191\n        /* \"#utility.yul\":1828:1833   */\n      dup2\n        /* \"#utility.yul\":1810:1834   */\n      tag_192\n      jump\t// in\n    tag_191:\n        /* \"#utility.yul\":1805:1808   */\n      dup3\n        /* \"#utility.yul\":1798:1835   */\n      mstore\n        /* \"#utility.yul\":1723:1841   */\n      pop\n      pop\n      jump\t// out\n        /* \"#utility.yul\":1847:2069   */\n    tag_22:\n        /* \"#utility.yul\":1940:1944   */\n      0x00\n        /* \"#utility.yul\":1978:1980   */\n      0x20\n        /* \"#utility.yul\":1967:1976   */\n      dup3\n        /* \"#utility.yul\":1963:1981   */\n      add\n        /* \"#utility.yul\":1955:1981   */\n      swap1\n      pop\n        /* \"#utility.yul\":1991:2062   */\n      tag_194\n        /* \"#utility.yul\":2059:2060   */\n      0x00\n        /* \"#utility.yul\":2048:2057   */\n      dup4\n        /* \"#utility.yul\":2044:2061   */\n      add\n        /* \"#utility.yul\":2035:2041   */\n      dup5\n        /* \"#utility.yul\":1991:2062   */\n      tag_175\n      jump\t// in\n    tag_194:\n        /* \"#utility.yul\":1847:2069   */\n      swap3\n      swap2\n      pop\n      pop\n      jump\t// out\n        /* \"#utility.yul\":2075:2285   */\n    tag_16:\n        /* \"#utility.yul\":2162:2166   */\n      0x00\n        /* \"#utility.yul\":2200:2202   */\n      0x20\n        /* \"#utility.yul\":2189:2198   */\n      dup3\n        /* \"#utility.yul\":2185:2203   */\n      add\n        /* \"#utility.yul\":2177:2203   */\n      swap1\n      pop\n        /* \"#utility.yul\":2213:2278   */\n      tag_196\n        /* \"#utility.yul\":2275:2276   */\n      0x00\n        /* \"#utility.yul\":2264:2273   */\n      dup4\n        /* \"#utility.yul\":2260:2277   */\n      add\n        /* \"#utility.yul\":2251:2257   */\n      dup5\n        /* \"#utility.yul\":2213:2278   */\n      tag_179\n      jump\t// in\n    tag_196:\n        /* \"#utility.yul\":2075:2285   */\n      swap3\n      swap2\n      pop\n      pop\n      jump\t// out\n        /* \"#utility.yul\":2291:2611   */\n    tag_27:\n        /* \"#utility.yul\":2406:2410   */\n      0x00\n        /* \"#utility.yul\":2444:2446   */\n      0x40\n        /* \"#utility.yul\":2433:2442   */\n      dup3\n        /* \"#utility.yul\":2429:2447   */\n      add\n        /* \"#utility.yul\":2421:2447   */\n      swap1\n      pop\n        /* \"#utility.yul\":2457:2522   */\n      tag_198\n        /* \"#utility.yul\":2519:2520   */\n      0x00\n        /* \"#utility.yul\":2508:2517   */\n      dup4\n        /* \"#utility.yul\":2504:2521   */\n      add\n        /* \"#utility.yul\":2495:2501   */\n      dup6\n        /* \"#utility.yul\":2457:2522   */\n      tag_179\n      jump\t// in\n    tag_198:\n        /* \"#utility.yul\":2532:2604   */\n      tag_199\n        /* \"#utility.yul\":2600:2602   */\n      0x20\n        /* \"#utility.yul\":2589:2598   */\n      dup4\n        /* \"#utility.yul\":2585:2603   */\n      add\n        /* \"#utility.yul\":2576:2582   */\n      dup5\n        /* \"#utility.yul\":2532:2604   */\n      tag_175\n      jump\t// in\n    tag_199:\n        /* \"#utility.yul\":2291:2611   */\n      swap4\n      swap3\n      pop\n      pop\n      pop\n      jump\t// out\n        /* \"#utility.yul\":2617:3036   */\n    tag_95:\n        /* \"#utility.yul\":2783:2787   */\n      0x00\n        /* \"#utility.yul\":2821:2823   */\n      0x20\n        /* \"#utility.yul\":2810:2819   */\n      dup3\n        /* \"#utility.yul\":2806:2824   */\n      add\n        /* \"#utility.yul\":2798:2824   */\n      swap1\n      pop\n        /* \"#utility.yul\":2870:2879   */\n      dup2\n        /* \"#utility.yul\":2864:2868   */\n      dup2\n        /* \"#utility.yul\":2860:2880   */\n      sub\n        /* \"#utility.yul\":2856:2857   */\n      0x00\n        /* \"#utility.yul\":2845:2854   */\n      dup4\n        /* \"#utility.yul\":2841:2858   */\n      add\n        /* \"#utility.yul\":2834:2881   */\n      mstore\n        /* \"#utility.yul\":2898:3029   */\n      tag_201\n        /* \"#utility.yul\":3024:3028   */\n      dup2\n        /* \"#utility.yul\":2898:3029   */\n      tag_183\n      jump\t// in\n    tag_201:\n        /* \"#utility.yul\":2890:3029   */\n      swap1\n      pop\n        /* \"#utility.yul\":2617:3036   */\n      swap2\n      swap1\n      pop\n      jump\t// out\n        /* \"#utility.yul\":3042:3264   */\n    tag_31:\n        /* \"#utility.yul\":3135:3139   */\n      0x00\n        /* \"#utility.yul\":3173:3175   */\n      0x20\n        /* \"#utility.yul\":3162:3171   */\n      dup3\n        /* \"#utility.yul\":3158:3176   */\n      add\n        /* \"#utility.yul\":3150:3176   */\n      swap1\n      pop\n        /* \"#utility.yul\":3186:3257   */\n      tag_203\n        /* \"#utility.yul\":3254:3255   */\n      0x00\n        /* \"#utility.yul\":3243:3252   */\n      dup4\n        /* \"#utility.yul\":3239:3256   */\n      add\n        /* \"#utility.yul\":3230:3236   */\n      dup5\n        /* \"#utility.yul\":3186:3257   */\n      tag_189\n      jump\t// in\n    tag_203:\n        /* \"#utility.yul\":3042:3264   */\n      swap3\n      swap2\n      pop\n      pop\n      jump\t// out\n        /* \"#utility.yul\":3270:3602   */\n    tag_36:\n        /* \"#utility.yul\":3391:3395   */\n      0x00\n        /* \"#utility.yul\":3429:3431   */\n      0x40\n        /* \"#utility.yul\":3418:3427   */\n      dup3\n        /* \"#utility.yul\":3414:3432   */\n      add\n        /* \"#utility.yul\":3406:3432   */\n      swap1\n      pop\n        /* \"#utility.yul\":3442:3513   */\n      tag_205\n        /* \"#utility.yul\":3510:3511   */\n      0x00\n        /* \"#utility.yul\":3499:3508   */\n      dup4\n        /* \"#utility.yul\":3495:3512   */\n      add\n        /* \"#utility.yul\":3486:3492   */\n      dup6\n        /* \"#utility.yul\":3442:3513   */\n      tag_189\n      jump\t// in\n    tag_205:\n        /* \"#utility.yul\":3523:3595   */\n      tag_206\n        /* \"#utility.yul\":3591:3593   */\n      0x20\n        /* \"#utility.yul\":3580:3589   */\n      dup4\n        /* \"#utility.yul\":3576:3594   */\n      add\n        /* \"#utility.yul\":3567:3573   */\n      dup5\n        /* \"#utility.yul\":3523:3595   */\n      tag_175\n      jump\t// in\n    tag_206:\n        /* \"#utility.yul\":3270:3602   */\n      swap4\n      swap3\n      pop\n      pop\n      pop\n      jump\t// out\n        /* \"#utility.yul\":3689:3858   */\n    tag_186:\n        /* \"#utility.yul\":3773:3784   */\n      0x00\n        /* \"#utility.yul\":3807:3813   */\n      dup3\n        /* \"#utility.yul\":3802:3805   */\n      dup3\n        /* \"#utility.yul\":3795:3814   */\n      mstore\n        /* \"#utility.yul\":3847:3851   */\n      0x20\n        /* \"#utility.yul\":3842:3845   */\n      dup3\n        /* \"#utility.yul\":3838:3852   */\n      add\n        /* \"#utility.yul\":3823:3852   */\n      swap1\n      pop\n        /* \"#utility.yul\":3689:3858   */\n      swap3\n      swap2\n      pop\n      pop\n      jump\t// out\n        /* \"#utility.yul\":3864:4055   */\n    tag_141:\n        /* \"#utility.yul\":3904:3908   */\n      0x00\n        /* \"#utility.yul\":3924:3944   */\n      tag_211\n        /* \"#utility.yul\":3942:3943   */\n      dup3\n        /* \"#utility.yul\":3924:3944   */\n      tag_192\n      jump\t// in\n    tag_211:\n        /* \"#utility.yul\":3919:3944   */\n      swap2\n      pop\n        /* \"#utility.yul\":3958:3978   */\n      tag_212\n        /* \"#utility.yul\":3976:3977   */\n      dup4\n        /* \"#utility.yul\":3958:3978   */\n      tag_192\n      jump\t// in\n    tag_212:\n        /* \"#utility.yul\":3953:3978   */\n      swap3\n      pop\n        /* \"#utility.yul\":3997:3998   */\n      dup3\n        /* \"#utility.yul\":3994:3995   */\n      dup3\n        /* \"#utility.yul\":3991:3999   */\n      lt\n        /* \"#utility.yul\":3988:4022   */\n      iszero\n      tag_213\n      jumpi\n        /* \"#utility.yul\":4002:4020   */\n      tag_214\n      tag_215\n      jump\t// in\n    tag_214:\n        /* \"#utility.yul\":3988:4022   */\n    tag_213:\n        /* \"#utility.yul\":4047:4048   */\n      dup3\n        /* \"#utility.yul\":4044:4045   */\n      dup3\n        /* \"#utility.yul\":4040:4049   */\n      sub\n        /* \"#utility.yul\":4032:4049   */\n      swap1\n      pop\n        /* \"#utility.yul\":3864:4055   */\n      swap3\n      swap2\n      pop\n      pop\n      jump\t// out\n        /* \"#utility.yul\":4061:4157   */\n    tag_178:\n        /* \"#utility.yul\":4098:4105   */\n      0x00\n        /* \"#utility.yul\":4127:4151   */\n      tag_217\n        /* \"#utility.yul\":4145:4150   */\n      dup3\n        /* \"#utility.yul\":4127:4151   */\n      tag_218\n      jump\t// in\n    tag_217:\n        /* \"#utility.yul\":4116:4151   */\n      swap1\n      pop\n        /* \"#utility.yul\":4061:4157   */\n      swap2\n      swap1\n      pop\n      jump\t// out\n        /* \"#utility.yul\":4163:4253   */\n    tag_182:\n        /* \"#utility.yul\":4197:4204   */\n      0x00\n        /* \"#utility.yul\":4240:4245   */\n      dup2\n        /* \"#utility.yul\":4233:4246   */\n      iszero\n        /* \"#utility.yul\":4226:4247   */\n      iszero\n        /* \"#utility.yul\":4215:4247   */\n      swap1\n      pop\n        /* \"#utility.yul\":4163:4253   */\n      swap2\n      swap1\n      pop\n      jump\t// out\n        /* \"#utility.yul\":4259:4385   */\n    tag_218:\n        /* \"#utility.yul\":4296:4303   */\n      0x00\n        /* \"#utility.yul\":4336:4378   */\n      0xffffffffffffffffffffffffffffffffffffffff\n        /* \"#utility.yul\":4329:4334   */\n      dup3\n        /* \"#utility.yul\":4325:4379   */\n      and\n        /* \"#utility.yul\":4314:4379   */\n      swap1\n      pop\n        /* \"#utility.yul\":4259:4385   */\n      swap2\n      swap1\n      pop\n      jump\t// out\n        /* \"#utility.yul\":4391:4468   */\n    tag_192:\n        /* \"#utility.yul\":4428:4435   */\n      0x00\n        /* \"#utility.yul\":4457:4462   */\n      dup2\n        /* \"#utility.yul\":4446:4462   */\n      swap1\n      pop\n        /* \"#utility.yul\":4391:4468   */\n      swap2\n      swap1\n      pop\n      jump\t// out\n        /* \"#utility.yul\":4474:4654   */\n    tag_215:\n        /* \"#utility.yul\":4522:4599   */\n      0x4e487b7100000000000000000000000000000000000000000000000000000000\n        /* \"#utility.yul\":4519:4520   */\n      0x00\n        /* \"#utility.yul\":4512:4600   */\n      mstore\n        /* \"#utility.yul\":4619:4623   */\n      0x11\n        /* \"#utility.yul\":4616:4617   */\n      0x04\n        /* \"#utility.yul\":4609:4624   */\n      mstore\n        /* \"#utility.yul\":4643:4647   */\n      0x24\n        /* \"#utility.yul\":4640:4641   */\n      0x00\n        /* \"#utility.yul\":4633:4648   */\n      revert\n        /* \"#utility.yul\":4660:4840   */\n    tag_152:\n        /* \"#utility.yul\":4708:4785   */\n      0x4e487b7100000000000000000000000000000000000000000000000000000000\n        /* \"#utility.yul\":4705:4706   */\n      0x00\n        /* \"#utility.yul\":4698:4786   */\n      mstore\n        /* \"#utility.yul\":4805:4809   */\n      0x31\n        /* \"#utility.yul\":4802:4803   */\n      0x04\n        /* \"#utility.yul\":4795:4810   */\n      mstore\n        /* \"#utility.yul\":4829:4833   */\n      0x24\n        /* \"#utility.yul\":4826:4827   */\n      0x00\n        /* \"#utility.yul\":4819:4834   */\n      revert\n        /* \"#utility.yul\":4846:5026   */\n    tag_136:\n        /* \"#utility.yul\":4894:4971   */\n      0x4e487b7100000000000000000000000000000000000000000000000000000000\n        /* \"#utility.yul\":4891:4892   */\n      0x00\n        /* \"#utility.yul\":4884:4972   */\n      mstore\n        /* \"#utility.yul\":4991:4995   */\n      0x32\n        /* \"#utility.yul\":4988:4989   */\n      0x04\n        /* \"#utility.yul\":4981:4996   */\n      mstore\n        /* \"#utility.yul\":5015:5019   */\n      0x24\n        /* \"#utility.yul\":5012:5013   */\n      0x00\n        /* \"#utility.yul\":5005:5020   */\n      revert\n        /* \"#utility.yul\":5155:5272   */\n    tag_168:\n        /* \"#utility.yul\":5264:5265   */\n      0x00\n        /* \"#utility.yul\":5261:5262   */\n      dup1\n        /* \"#utility.yul\":5254:5266   */\n      revert\n        /* \"#utility.yul\":5278:5458   */\n    tag_188:\n        /* \"#utility.yul\":5418:5450   */\n      0x456e756d657261626c654d61703a206e6f6e6578697374656e74206b65790000\n        /* \"#utility.yul\":5414:5415   */\n      0x00\n        /* \"#utility.yul\":5406:5412   */\n      dup3\n        /* \"#utility.yul\":5402:5416   */\n      add\n        /* \"#utility.yul\":5395:5451   */\n      mstore\n        /* \"#utility.yul\":5278:5458   */\n      pop\n      jump\t// out\n        /* \"#utility.yul\":5464:5586   */\n    tag_160:\n        /* \"#utility.yul\":5537:5561   */\n      tag_230\n        /* \"#utility.yul\":5555:5560   */\n      dup2\n        /* \"#utility.yul\":5537:5561   */\n      tag_178\n      jump\t// in\n    tag_230:\n        /* \"#utility.yul\":5530:5535   */\n      dup2\n        /* \"#utility.yul\":5527:5562   */\n      eq\n        /* \"#utility.yul\":5517:5580   */\n      tag_231\n      jumpi\n        /* \"#utility.yul\":5576:5577   */\n      0x00\n        /* \"#utility.yul\":5573:5574   */\n      dup1\n        /* \"#utility.yul\":5566:5578   */\n      revert\n        /* \"#utility.yul\":5517:5580   */\n    tag_231:\n        /* \"#utility.yul\":5464:5586   */\n      pop\n      jump\t// out\n        /* \"#utility.yul\":5592:5714   */\n    tag_164:\n        /* \"#utility.yul\":5665:5689   */\n      tag_233\n        /* \"#utility.yul\":5683:5688   */\n      dup2\n        /* \"#utility.yul\":5665:5689   */\n      tag_192\n      jump\t// in\n    tag_233:\n        /* \"#utility.yul\":5658:5663   */\n      dup2\n        /* \"#utility.yul\":5655:5690   */\n      eq\n        /* \"#utility.yul\":5645:5708   */\n      tag_234\n      jumpi\n        /* \"#utility.yul\":5704:5705   */\n      0x00\n        /* \"#utility.yul\":5701:5702   */\n      dup1\n        /* \"#utility.yul\":5694:5706   */\n      revert\n        /* \"#utility.yul\":5645:5708   */\n    tag_234:\n        /* \"#utility.yul\":5592:5714   */\n      pop\n      jump\t// out\n\n    auxdata: 0xa2646970667358221220d7901d66424015f5d0fb8b3ce09c35a00be9447e5ab151b9a9a5553282047b8864736f6c63430008070033\n}\n",
				"bytecode": {
					"linkReferences": {},
					"object": "608060405234801561001057600080fd5b50610adc806100206000396000f3fe608060405234801561001057600080fd5b506004361061007d5760003560e01c80638d9fe83a1161005b5780638d9fe83a14610113578063c337923f14610131578063c85cc5d914610162578063e8f9d887146101925761007d565b80631797864d1461008257806321a16452146100b25780637c4dd385146100e2575b600080fd5b61009c600480360381019061009791906107dd565b6101c2565b6040516100a99190610888565b60405180910390f35b6100cc60048036038101906100c791906107b0565b6101e2565b6040516100d9919061086d565b60405180910390f35b6100fc60048036038101906100f791906107b0565b6101ff565b60405161010a9291906108a3565b60405180910390f35b61011b61021f565b60405161012891906108ec565b60405180910390f35b61014b600480360381019061014691906107b0565b610230565b604051610159929190610907565b60405180910390f35b61017c600480360381019061017791906107b0565b610250565b6040516101899190610888565b60405180910390f35b6101ac60048036038101906101a791906107b0565b61026d565b6040516101b99190610888565b60405180910390f35b60006101da8383600061028a9092919063ffffffff16565b905092915050565b60006101f88260006102bf90919063ffffffff16565b9050919050565b6000806102168360006102dc90919063ffffffff16565b91509150915091565b600061022b6000610308565b905090565b60008061024783600061031d90919063ffffffff16565b91509150915091565b600061026682600061034990919063ffffffff16565b9050919050565b600061028382600061036390919063ffffffff16565b9050919050565b60006102b6846000018460001b8473ffffffffffffffffffffffffffffffffffffffff1660001b61037d565b90509392505050565b60006102d1836000018360001b6103b8565b60001c905092915050565b6000806000806102f2866000018660001b610434565b91509150818160001c9350935050509250929050565b600061031682600001610484565b9050919050565b6000806000806103308660000186610499565b915091508160001c8160001c9350935050509250929050565b600061035b836000018360001b6104d9565b905092915050565b6000610375836000018360001b610512565b905092915050565b600081846002016000858152602001908152602001600020819055506103af838560000161053290919063ffffffff16565b90509392505050565b6000808360020160008481526020019081526020016000205490506000801b811415806103eb57506103ea8484610512565b5b61042a576040517f08c379a0000000000000000000000000000000000000000000000000000000008152600401610421906108cc565b60405180910390fd5b8091505092915050565b60008060008460020160008581526020019081526020016000205490506000801b811415610474576104668585610512565b6000801b925092505061047d565b60018192509250505b9250929050565b600061049282600001610549565b9050919050565b60008060006104b4848660000161055e90919063ffffffff16565b9050808560020160008381526020019081526020016000205492509250509250929050565b60008260020160008381526020019081526020016000206000905561050a828460000161057590919063ffffffff16565b905092915050565b600061052a828460000161058c90919063ffffffff16565b905092915050565b600061054183600001836105a3565b905092915050565b600061055782600001610613565b9050919050565b600061056d8360000183610624565b905092915050565b6000610584836000018361064f565b905092915050565b600061059b8360000183610763565b905092915050565b60006105af8383610763565b61060857826000018290806001815401808255809150506001900390600052602060002001600090919091909150558260000180549050836001016000848152602001908152602001600020819055506001905061060d565b600090505b92915050565b600081600001805490509050919050565b600082600001828154811061063c5761063b610a1b565b5b9060005260206000200154905092915050565b600080836001016000848152602001908152602001600020549050600081146107575760006001826106819190610941565b90506000600186600001805490506106999190610941565b90508181146107085760008660000182815481106106ba576106b9610a1b565b5b90600052602060002001549050808760000184815481106106de576106dd610a1b565b5b90600052602060002001819055508387600101600083815260200190815260200160002081905550505b8560000180548061071c5761071b6109ec565b5b60019003818190600052602060002001600090559055856001016000868152602001908152602001600020600090556001935050505061075d565b60009150505b92915050565b600080836001016000848152602001908152602001600020541415905092915050565b60008135905061079581610a78565b92915050565b6000813590506107aa81610a8f565b92915050565b6000602082840312156107c6576107c5610a4a565b5b60006107d48482850161079b565b91505092915050565b600080604083850312156107f4576107f3610a4a565b5b60006108028582860161079b565b925050602061081385828601610786565b9150509250929050565b61082681610975565b82525050565b61083581610987565b82525050565b6000610848601e83610930565b915061085382610a4f565b602082019050919050565b610867816109b3565b82525050565b6000602082019050610882600083018461081d565b92915050565b600060208201905061089d600083018461082c565b92915050565b60006040820190506108b8600083018561082c565b6108c5602083018461081d565b9392505050565b600060208201905081810360008301526108e58161083b565b9050919050565b6000602082019050610901600083018461085e565b92915050565b600060408201905061091c600083018561085e565b610929602083018461081d565b9392505050565b600082825260208201905092915050565b600061094c826109b3565b9150610957836109b3565b92508282101561096a576109696109bd565b5b828203905092915050565b600061098082610993565b9050919050565b60008115159050919050565b600073ffffffffffffffffffffffffffffffffffffffff82169050919050565b6000819050919050565b7f4e487b7100000000000000000000000000000000000000000000000000000000600052601160045260246000fd5b7f4e487b7100000000000000000000000000000000000000000000000000000000600052603160045260246000fd5b7f4e487b7100000000000000000000000000000000000000000000000000000000600052603260045260246000fd5b600080fd5b7f456e756d657261626c654d61703a206e6f6e6578697374656e74206b65790000600082015250565b610a8181610975565b8114610a8c57600080fd5b50565b610a98816109b3565b8114610aa357600080fd5b5056fea2646970667358221220d7901d66424015f5d0fb8b3ce09c35a00be9447e5ab151b9a9a5553282047b8864736f6c63430008070033",
					"opcodes": "PUSH1 0x80 PUSH1 0x40 MSTORE CALLVALUE DUP1 ISZERO PUSH2 0x10 JUMPI PUSH1 0x0 DUP1 REVERT JUMPDEST POP PUSH2 0xADC DUP1 PUSH2 0x20 PUSH1 0x0 CODECOPY PUSH1 0x0 RETURN INVALID PUSH1 0x80 PUSH1 0x40 MSTORE CALLVALUE DUP1 ISZERO PUSH2 0x10 JUMPI PUSH1 0x0 DUP1 REVERT JUMPDEST POP PUSH1 0x4 CALLDATASIZE LT PUSH2 0x7D JUMPI PUSH1 0x0 CALLDATALOAD PUSH1 0xE0 SHR DUP1 PUSH4 0x8D9FE83A GT PUSH2 0x5B JUMPI DUP1 PUSH4 0x8D9FE83A EQ PUSH2 0x113 JUMPI DUP1 PUSH4 0xC337923F EQ PUSH2 0x131 JUMPI DUP1 PUSH4 0xC85CC5D9 EQ PUSH2 0x162 JUMPI DUP1 PUSH4 0xE8F9D887 EQ PUSH2 0x192 JUMPI PUSH2 0x7D JUMP JUMPDEST DUP1 PUSH4 0x1797864D EQ PUSH2 0x82 JUMPI DUP1 PUSH4 0x21A16452 EQ PUSH2 0xB2 JUMPI DUP1 PUSH4 0x7C4DD385 EQ PUSH2 0xE2 JUMPI JUMPDEST PUSH1 0x0 DUP1 REVERT JUMPDEST PUSH2 0x9C PUSH1 0x4 DUP1 CALLDATASIZE SUB DUP2 ADD SWAP1 PUSH2 0x97 SWAP2 SWAP1 PUSH2 0x7DD JUMP JUMPDEST PUSH2 0x1C2 JUMP JUMPDEST PUSH1 0x40 MLOAD PUSH2 0xA9 SWAP2 SWAP1 PUSH2 0x888 JUMP JUMPDEST PUSH1 0x40 MLOAD DUP1 SWAP2 SUB SWAP1 RETURN JUMPDEST PUSH2 0xCC PUSH1 0x4 DUP1 CALLDATASIZE SUB DUP2 ADD SWAP1 PUSH2 0xC7 SWAP2 SWAP1 PUSH2 0x7B0 JUMP JUMPDEST PUSH2 0x1E2 JUMP JUMPDEST PUSH1 0x40 MLOAD PUSH2 0xD9 SWAP2 SWAP1 PUSH2 0x86D JUMP JUMPDEST PUSH1 0x40 MLOAD DUP1 SWAP2 SUB SWAP1 RETURN JUMPDEST PUSH2 0xFC PUSH1 0x4 DUP1 CALLDATASIZE SUB DUP2 ADD SWAP1 PUSH2 0xF7 SWAP2 SWAP1 PUSH2 0x7B0 JUMP JUMPDEST PUSH2 0x1FF JUMP JUMPDEST PUSH1 0x40 MLOAD PUSH2 0x10A SWAP3 SWAP2 SWAP1 PUSH2 0x8A3 JUMP JUMPDEST PUSH1 0x40 MLOAD DUP1 SWAP2 SUB SWAP1 RETURN JUMPDEST PUSH2 0x11B PUSH2 0x21F JUMP JUMPDEST PUSH1 0x40 MLOAD PUSH2 0x128 SWAP2 SWAP1 PUSH2 0x8EC JUMP JUMPDEST PUSH1 0x40 MLOAD DUP1 SWAP2 SUB SWAP1 RETURN JUMPDEST PUSH2 0x14B PUSH1 0x4 DUP1 CALLDATASIZE SUB DUP2 ADD SWAP1 PUSH2 0x146 SWAP2 SWAP1 PUSH2 0x7B0 JUMP JUMPDEST PUSH2 0x230 JUMP JUMPDEST PUSH1 0x40 MLOAD PUSH2 0x159 SWAP3 SWAP2 SWAP1 PUSH2 0x907 JUMP JUMPDEST PUSH1 0x40 MLOAD DUP1 SWAP2 SUB SWAP1 RETURN JUMPDEST PUSH2 0x17C PUSH1 0x4 DUP1 CALLDATASIZE SUB DUP2 ADD SWAP1 PUSH2 0x177 SWAP2 SWAP1 PUSH2 0x7B0 JUMP JUMPDEST PUSH2 0x250 JUMP JUMPDEST PUSH1 0x40 MLOAD PUSH2 0x189 SWAP2 SWAP1 PUSH2 0x888 JUMP JUMPDEST PUSH1 0x40 MLOAD DUP1 SWAP2 SUB SWAP1 RETURN JUMPDEST PUSH2 0x1AC PUSH1 0x4 DUP1 CALLDATASIZE SUB DUP2 ADD SWAP1 PUSH2 0x1A7 SWAP2 SWAP1 PUSH2 0x7B0 JUMP JUMPDEST PUSH2 0x26D JUMP JUMPDEST PUSH1 0x40 MLOAD PUSH2 0x1B9 SWAP2 SWAP1 PUSH2 0x888 JUMP JUMPDEST PUSH1 0x40 MLOAD DUP1 SWAP2 SUB SWAP1 RETURN JUMPDEST PUSH1 0x0 PUSH2 0x1DA DUP4 DUP4 PUSH1 0x0 PUSH2 0x28A SWAP1 SWAP3 SWAP2 SWAP1 PUSH4 0xFFFFFFFF AND JUMP JUMPDEST SWAP1 POP SWAP3 SWAP2 POP POP JUMP JUMPDEST PUSH1 0x0 PUSH2 0x1F8 DUP3 PUSH1 0x0 PUSH2 0x2BF SWAP1 SWAP2 SWAP1 PUSH4 0xFFFFFFFF AND JUMP JUMPDEST SWAP1 POP SWAP2 SWAP1 POP JUMP JUMPDEST PUSH1 0x0 DUP1 PUSH2 0x216 DUP4 PUSH1 0x0 PUSH2 0x2DC SWAP1 SWAP2 SWAP1 PUSH4 0xFFFFFFFF AND JUMP JUMPDEST SWAP2 POP SWAP2 POP SWAP2 POP SWAP2 JUMP JUMPDEST PUSH1 0x0 PUSH2 0x22B PUSH1 0x0 PUSH2 0x308 JUMP JUMPDEST SWAP1 POP SWAP1 JUMP JUMPDEST PUSH1 0x0 DUP1 PUSH2 0x247 DUP4 PUSH1 0x0 PUSH2 0x31D SWAP1 SWAP2 SWAP1 PUSH4 0xFFFFFFFF AND JUMP JUMPDEST SWAP2 POP SWAP2 POP SWAP2 POP SWAP2 JUMP JUMPDEST PUSH1 0x0 PUSH2 0x266 DUP3 PUSH1 0x0 PUSH2 0x349 SWAP1 SWAP2 SWAP1 PUSH4 0xFFFFFFFF AND JUMP JUMPDEST SWAP1 POP SWAP2 SWAP1 POP JUMP JUMPDEST PUSH1 0x0 PUSH2 0x283 DUP3 PUSH1 0x0 PUSH2 0x363 SWAP1 SWAP2 SWAP1 PUSH4 0xFFFFFFFF AND JUMP JUMPDEST SWAP1 POP SWAP2 SWAP1 POP JUMP JUMPDEST PUSH1 0x0 PUSH2 0x2B6 DUP5 PUSH1 0x0 ADD DUP5 PUSH1 0x0 SHL DUP5 PUSH20 0xFFFFFFFFFFFFFFFFFFFFFFFFFFFFFFFFFFFFFFFF AND PUSH1 0x0 SHL PUSH2 0x37D JUMP JUMPDEST SWAP1 POP SWAP4 SWAP3 POP POP POP JUMP JUMPDEST PUSH1 0x0 PUSH2 0x2D1 DUP4 PUSH1 0x0 ADD DUP4 PUSH1 0x0 SHL PUSH2 0x3B8 JUMP JUMPDEST PUSH1 0x0 SHR SWAP1 POP SWAP3 SWAP2 POP POP JUMP JUMPDEST PUSH1 0x0 DUP1 PUSH1 0x0 DUP1 PUSH2 0x2F2 DUP7 PUSH1 0x0 ADD DUP7 PUSH1 0x0 SHL PUSH2 0x434 JUMP JUMPDEST SWAP2 POP SWAP2 POP DUP2 DUP2 PUSH1 0x0 SHR SWAP4 POP SWAP4 POP POP POP SWAP3 POP SWAP3 SWAP1 POP JUMP JUMPDEST PUSH1 0x0 PUSH2 0x316 DUP3 PUSH1 0x0 ADD PUSH2 0x484 JUMP JUMPDEST SWAP1 POP SWAP2 SWAP1 POP JUMP JUMPDEST PUSH1 0x0 DUP1 PUSH1 0x0 DUP1 PUSH2 0x330 DUP7 PUSH1 0x0 ADD DUP7 PUSH2 0x499 JUMP JUMPDEST SWAP2 POP SWAP2 POP DUP2 PUSH1 0x0 SHR DUP2 PUSH1 0x0 SHR SWAP4 POP SWAP4 POP POP POP SWAP3 POP SWAP3 SWAP1 POP JUMP JUMPDEST PUSH1 0x0 PUSH2 0x35B DUP4 PUSH1 0x0 ADD DUP4 PUSH1 0x0 SHL PUSH2 0x4D9 JUMP JUMPDEST SWAP1 POP SWAP3 SWAP2 POP POP JUMP JUMPDEST PUSH1 0x0 PUSH2 0x375 DUP4 PUSH1 0x0 ADD DUP4 PUSH1 0x0 SHL PUSH2 0x512 JUMP JUMPDEST SWAP1 POP SWAP3 SWAP2 POP POP JUMP JUMPDEST PUSH1 0x0 DUP2 DUP5 PUSH1 0x2 ADD PUSH1 0x0 DUP6 DUP2 MSTORE PUSH1 0x20 ADD SWAP1 DUP2 MSTORE PUSH1 0x20 ADD PUSH1 0x0 KECCAK256 DUP2 SWAP1 SSTORE POP PUSH2 0x3AF DUP4 DUP6 PUSH1 0x0 ADD PUSH2 0x532 SWAP1 SWAP2 SWAP1 PUSH4 0xFFFFFFFF AND JUMP JUMPDEST SWAP1 POP SWAP4 SWAP3 POP POP POP JUMP JUMPDEST PUSH1 0x0 DUP1 DUP4 PUSH1 0x2 ADD PUSH1 0x0 DUP5 DUP2 MSTORE PUSH1 0x20 ADD SWAP1 DUP2 MSTORE PUSH1 0x20 ADD PUSH1 0x0 KECCAK256 SLOAD SWAP1 POP PUSH1 0x0 DUP1 SHL DUP2 EQ ISZERO DUP1 PUSH2 0x3EB JUMPI POP PUSH2 0x3EA DUP5 DUP5 PUSH2 0x512 JUMP JUMPDEST JUMPDEST PUSH2 0x42A JUMPI PUSH1 0x40 MLOAD PUSH32 0x8C379A000000000000000000000000000000000000000000000000000000000 DUP2 MSTORE PUSH1 0x4 ADD PUSH2 0x421 SWAP1 PUSH2 0x8CC JUMP JUMPDEST PUSH1 0x40 MLOAD DUP1 SWAP2 SUB SWAP1 REVERT JUMPDEST DUP1 SWAP2 POP POP SWAP3 SWAP2 POP POP JUMP JUMPDEST PUSH1 0x0 DUP1 PUSH1 0x0 DUP5 PUSH1 0x2 ADD PUSH1 0x0 DUP6 DUP2 MSTORE PUSH1 0x20 ADD SWAP1 DUP2 MSTORE PUSH1 0x20 ADD PUSH1 0x0 KECCAK256 SLOAD SWAP1 POP PUSH1 0x0 DUP1 SHL DUP2 EQ ISZERO PUSH2 0x474 JUMPI PUSH2 0x466 DUP6 DUP6 PUSH2 0x512 JUMP JUMPDEST PUSH1 0x0 DUP1 SHL SWAP3 POP SWAP3 POP POP PUSH2 0x47D JUMP JUMPDEST PUSH1 0x1 DUP2 SWAP3 POP SWAP3 POP POP JUMPDEST SWAP3 POP SWAP3 SWAP1 POP JUMP JUMPDEST PUSH1 0x0 PUSH2 0x492 DUP3 PUSH1 0x0 ADD PUSH2 0x549 JUMP JUMPDEST SWAP1 POP SWAP2 SWAP1 POP JUMP JUMPDEST PUSH1 0x0 DUP1 PUSH1 0x0 PUSH2 0x4B4 DUP5 DUP7 PUSH1 0x0 ADD PUSH2 0x55E SWAP1 SWAP2 SWAP1 PUSH4 0xFFFFFFFF AND JUMP JUMPDEST SWAP1 POP DUP1 DUP6 PUSH1 0x2 ADD PUSH1 0x0 DUP4 DUP2 MSTORE PUSH1 0x20 ADD SWAP1 DUP2 MSTORE PUSH1 0x20 ADD PUSH1 0x0 KECCAK256 SLOAD SWAP3 POP SWAP3 POP POP SWAP3 POP SWAP3 SWAP1 POP JUMP JUMPDEST PUSH1 0x0 DUP3 PUSH1 0x2 ADD PUSH1 0x0 DUP4 DUP2 MSTORE PUSH1 0x20 ADD SWAP1 DUP2 MSTORE PUSH1 0x20 ADD PUSH1 0x0 KECCAK256 PUSH1 0x0 SWAP1 SSTORE PUSH2 0x50A DUP3 DUP5 PUSH1 0x0 ADD PUSH2 0x575 SWAP1 SWAP2 SWAP1 PUSH4 0xFFFFFFFF AND JUMP JUMPDEST SWAP1 POP SWAP3 SWAP2 POP POP JUMP JUMPDEST PUSH1 0x0 PUSH2 0x52A DUP3 DUP5 PUSH1 0x0 ADD PUSH2 0x58C SWAP1 SWAP2 SWAP1 PUSH4 0xFFFFFFFF AND JUMP JUMPDEST SWAP1 POP SWAP3 SWAP2 POP POP JUMP JUMPDEST PUSH1 0x0 PUSH2 0x541 DUP4 PUSH1 0x0 ADD DUP4 PUSH2 0x5A3 JUMP JUMPDEST SWAP1 POP SWAP3 SWAP2 POP POP JUMP JUMPDEST PUSH1 0x0 PUSH2 0x557 DUP3 PUSH1 0x0 ADD PUSH2 0x613 JUMP JUMPDEST SWAP1 POP SWAP2 SWAP1 POP JUMP JUMPDEST PUSH1 0x0 PUSH2 0x56D DUP4 PUSH1 0x0 ADD DUP4 PUSH2 0x624 JUMP JUMPDEST SWAP1 POP SWAP3 SWAP2 POP POP JUMP JUMPDEST PUSH1 0x0 PUSH2 0x584 DUP4 PUSH1 0x0 ADD DUP4 PUSH2 0x64F JUMP JUMPDEST SWAP1 POP SWAP3 SWAP2 POP POP JUMP JUMPDEST PUSH1 0x0 PUSH2 0x59B DUP4 PUSH1 0x0 ADD DUP4 PUSH2 0x763 JUMP JUMPDEST SWAP1 POP SWAP3 SWAP2 POP POP JUMP JUMPDEST PUSH1 0x0 PUSH2 0x5AF DUP4 DUP4 PUSH2 0x763 JUMP JUMPDEST PUSH2 0x608 JUMPI DUP3 PUSH1 0x0 ADD DUP3 SWAP1 DUP1 PUSH1 0x1 DUP2 SLOAD ADD DUP1 DUP3 SSTORE DUP1 SWAP2 POP POP PUSH1 0x1 SWAP1 SUB SWAP1 PUSH1 0x0 MSTORE PUSH1 0x20 PUSH1 0x0 KECCAK256 ADD PUSH1 0x0 SWAP1 SWAP2 SWAP1 SWAP2 SWAP1 SWAP2 POP SSTORE DUP3 PUSH1 0x0 ADD DUP1 SLOAD SWAP1 POP DUP4 PUSH1 0x1 ADD PUSH1 0x0 DUP5 DUP2 MSTORE PUSH1 0x20 ADD SWAP1 DUP2 MSTORE PUSH1 0x20 ADD PUSH1 0x0 KECCAK256 DUP2 SWAP1 SSTORE POP PUSH1 0x1 SWAP1 POP PUSH2 0x60D JUMP JUMPDEST PUSH1 0x0 SWAP1 POP JUMPDEST SWAP3 SWAP2 POP POP JUMP JUMPDEST PUSH1 0x0 DUP2 PUSH1 0x0 ADD DUP1 SLOAD SWAP1 POP SWAP1 POP SWAP2 SWAP1 POP JUMP JUMPDEST PUSH1 0x0 DUP3 PUSH1 0x0 ADD DUP3 DUP2 SLOAD DUP2 LT PUSH2 0x63C JUMPI PUSH2 0x63B PUSH2 0xA1B JUMP JUMPDEST JUMPDEST SWAP1 PUSH1 0x0 MSTORE PUSH1 0x20 PUSH1 0x0 KECCAK256 ADD SLOAD SWAP1 POP SWAP3 SWAP2 POP POP JUMP JUMPDEST PUSH1 0x0 DUP1 DUP4 PUSH1 0x1 ADD PUSH1 0x0 DUP5 DUP2 MSTORE PUSH1 0x20 ADD SWAP1 DUP2 MSTORE PUSH1 0x20 ADD PUSH1 0x0 KECCAK256 SLOAD SWAP1 POP PUSH1 0x0 DUP2 EQ PUSH2 0x757 JUMPI PUSH1 0x0 PUSH1 0x1 DUP3 PUSH2 0x681 SWAP2 SWAP1 PUSH2 0x941 JUMP JUMPDEST SWAP1 POP PUSH1 0x0 PUSH1 0x1 DUP7 PUSH1 0x0 ADD DUP1 SLOAD SWAP1 POP PUSH2 0x699 SWAP2 SWAP1 PUSH2 0x941 JUMP JUMPDEST SWAP1 POP DUP2 DUP2 EQ PUSH2 0x708 JUMPI PUSH1 0x0 DUP7 PUSH1 0x0 ADD DUP3 DUP2 SLOAD DUP2 LT PUSH2 0x6BA JUMPI PUSH2 0x6B9 PUSH2 0xA1B JUMP JUMPDEST JUMPDEST SWAP1 PUSH1 0x0 MSTORE PUSH1 0x20 PUSH1 0x0 KECCAK256 ADD SLOAD SWAP1 POP DUP1 DUP8 PUSH1 0x0 ADD DUP5 DUP2 SLOAD DUP2 LT PUSH2 0x6DE JUMPI PUSH2 0x6DD PUSH2 0xA1B JUMP JUMPDEST JUMPDEST SWAP1 PUSH1 0x0 MSTORE PUSH1 0x20 PUSH1 0x0 KECCAK256 ADD DUP2 SWAP1 SSTORE POP DUP4 DUP8 PUSH1 0x1 ADD PUSH1 0x0 DUP4 DUP2 MSTORE PUSH1 0x20 ADD SWAP1 DUP2 MSTORE PUSH1 0x20 ADD PUSH1 0x0 KECCAK256 DUP2 SWAP1 SSTORE POP POP JUMPDEST DUP6 PUSH1 0x0 ADD DUP1 SLOAD DUP1 PUSH2 0x71C JUMPI PUSH2 0x71B PUSH2 0x9EC JUMP JUMPDEST JUMPDEST PUSH1 0x1 SWAP1 SUB DUP2 DUP2 SWAP1 PUSH1 0x0 MSTORE PUSH1 0x20 PUSH1 0x0 KECCAK256 ADD PUSH1 0x0 SWAP1 SSTORE SWAP1 SSTORE DUP6 PUSH1 0x1 ADD PUSH1 0x0 DUP7 DUP2 MSTORE PUSH1 0x20 ADD SWAP1 DUP2 MSTORE PUSH1 0x20 ADD PUSH1 0x0 KECCAK256 PUSH1 0x0 SWAP1 SSTORE PUSH1 0x1 SWAP4 POP POP POP POP PUSH2 0x75D JUMP JUMPDEST PUSH1 0x0 SWAP2 POP POP JUMPDEST SWAP3 SWAP2 POP POP JUMP JUMPDEST PUSH1 0x0 DUP1 DUP4 PUSH1 0x1 ADD PUSH1 0x0 DUP5 DUP2 MSTORE PUSH1 0x20 ADD SWAP1 DUP2 MSTORE PUSH1 0x20 ADD PUSH1 0x0 KECCAK256 SLOAD EQ ISZERO SWAP1 POP SWAP3 SWAP2 POP POP JUMP JUMPDEST PUSH1 0x0 DUP2 CALLDATALOAD SWAP1 POP PUSH2 0x795 DUP2 PUSH2 0xA78 JUMP JUMPDEST SWAP3 SWAP2 POP POP JUMP JUMPDEST PUSH1 0x0 DUP2 CALLDATALOAD SWAP1 POP PUSH2 0x7AA DUP2 PUSH2 0xA8F JUMP JUMPDEST SWAP3 SWAP2 POP POP JUMP JUMPDEST PUSH1 0x0 PUSH1 0x20 DUP3 DUP5 SUB SLT ISZERO PUSH2 0x7C6 JUMPI PUSH2 0x7C5 PUSH2 0xA4A JUMP JUMPDEST JUMPDEST PUSH1 0x0 PUSH2 0x7D4 DUP5 DUP3 DUP6 ADD PUSH2 0x79B JUMP JUMPDEST SWAP2 POP POP SWAP3 SWAP2 POP POP JUMP JUMPDEST PUSH1 0x0 DUP1 PUSH1 0x40 DUP4 DUP6 SUB SLT ISZERO PUSH2 0x7F4 JUMPI PUSH2 0x7F3 PUSH2 0xA4A JUMP JUMPDEST JUMPDEST PUSH1 0x0 PUSH2 0x802 DUP6 DUP3 DUP7 ADD PUSH2 0x79B JUMP JUMPDEST SWAP3 POP POP PUSH1 0x20 PUSH2 0x813 DUP6 DUP3 DUP7 ADD PUSH2 0x786 JUMP JUMPDEST SWAP2 POP POP SWAP3 POP SWAP3 SWAP1 POP JUMP JUMPDEST PUSH2 0x826 DUP2 PUSH2 0x975 JUMP JUMPDEST DUP3 MSTORE POP POP JUMP JUMPDEST PUSH2 0x835 DUP2 PUSH2 0x987 JUMP JUMPDEST DUP3 MSTORE POP POP JUMP JUMPDEST PUSH1 0x0 PUSH2 0x848 PUSH1 0x1E DUP4 PUSH2 0x930 JUMP JUMPDEST SWAP2 POP PUSH2 0x853 DUP3 PUSH2 0xA4F JUMP JUMPDEST PUSH1 0x20 DUP3 ADD SWAP1 POP SWAP2 SWAP1 POP JUMP JUMPDEST PUSH2 0x867 DUP2 PUSH2 0x9B3 JUMP JUMPDEST DUP3 MSTORE POP POP JUMP JUMPDEST PUSH1 0x0 PUSH1 0x20 DUP3 ADD SWAP1 POP PUSH2 0x882 PUSH1 0x0 DUP4 ADD DUP5 PUSH2 0x81D JUMP JUMPDEST SWAP3 SWAP2 POP POP JUMP JUMPDEST PUSH1 0x0 PUSH1 0x20 DUP3 ADD SWAP1 POP PUSH2 0x89D PUSH1 0x0 DUP4 ADD DUP5 PUSH2 0x82C JUMP JUMPDEST SWAP3 SWAP2 POP POP JUMP JUMPDEST PUSH1 0x0 PUSH1 0x40 DUP3 ADD SWAP1 POP PUSH2 0x8B8 PUSH1 0x0 DUP4 ADD DUP6 PUSH2 0x82C JUMP JUMPDEST PUSH2 0x8C5 PUSH1 0x20 DUP4 ADD DUP5 PUSH2 0x81D JUMP JUMPDEST SWAP4 SWAP3 POP POP POP JUMP JUMPDEST PUSH1 0x0 PUSH1 0x20 DUP3 ADD SWAP1 POP DUP2 DUP2 SUB PUSH1 0x0 DUP4 ADD MSTORE PUSH2 0x8E5 DUP2 PUSH2 0x83B JUMP JUMPDEST SWAP1 POP SWAP2 SWAP1 POP JUMP JUMPDEST PUSH1 0x0 PUSH1 0x20 DUP3 ADD SWAP1 POP PUSH2 0x901 PUSH1 0x0 DUP4 ADD DUP5 PUSH2 0x85E JUMP JUMPDEST SWAP3 SWAP2 POP POP JUMP JUMPDEST PUSH1 0x0 PUSH1 0x40 DUP3 ADD SWAP1 POP PUSH2 0x91C PUSH1 0x0 DUP4 ADD DUP6 PUSH2 0x85E JUMP JUMPDEST PUSH2 0x929 PUSH1 0x20 DUP4 ADD DUP5 PUSH2 0x81D JUMP JUMPDEST SWAP4 SWAP3 POP POP POP JUMP JUMPDEST PUSH1 0x0 DUP3 DUP3 MSTORE PUSH1 0x20 DUP3 ADD SWAP1 POP SWAP3 SWAP2 POP POP JUMP JUMPDEST PUSH1 0x0 PUSH2 0x94C DUP3 PUSH2 0x9B3 JUMP JUMPDEST SWAP2 POP PUSH2 0x957 DUP4 PUSH2 0x9B3 JUMP JUMPDEST SWAP3 POP DUP3 DUP3 LT ISZERO PUSH2 0x96A JUMPI PUSH2 0x969 PUSH2 0x9BD JUMP JUMPDEST JUMPDEST DUP3 DUP3 SUB SWAP1 POP SWAP3 SWAP2 POP POP JUMP JUMPDEST PUSH1 0x0 PUSH2 0x980 DUP3 PUSH2 0x993 JUMP JUMPDEST SWAP1 POP SWAP2 SWAP1 POP JUMP JUMPDEST PUSH1 0x0 DUP2 ISZERO ISZERO SWAP1 POP SWAP2 SWAP1 POP JUMP JUMPDEST PUSH1 0x0 PUSH20 0xFFFFFFFFFFFFFFFFFFFFFFFFFFFFFFFFFFFFFFFF DUP3 AND SWAP1 POP SWAP2 SWAP1 POP JUMP JUMPDEST PUSH1 0x0 DUP2 SWAP1 POP SWAP2 SWAP1 POP JUMP JUMPDEST PUSH32 0x4E487B7100000000000000000000000000000000000000000000000000000000 PUSH1 0x0 MSTORE PUSH1 0x11 PUSH1 0x4 MSTORE PUSH1 0x24 PUSH1 0x0 REVERT JUMPDEST PUSH32 0x4E487B7100000000000000000000000000000000000000000000000000000000 PUSH1 0x0 MSTORE PUSH1 0x31 PUSH1 0x4 MSTORE PUSH1 0x24 PUSH1 0x0 REVERT JUMPDEST PUSH32 0x4E487B7100000000000000000000000000000000000000000000000000000000 PUSH1 0x0 MSTORE PUSH1 0x32 PUSH1 0x4 MSTORE PUSH1 0x24 PUSH1 0x0 REVERT JUMPDEST PUSH1 0x0 DUP1 REVERT JUMPDEST PUSH32 0x456E756D657261626C654D61703A206E6F6E6578697374656E74206B65790000 PUSH1 0x0 DUP3 ADD MSTORE POP JUMP JUMPDEST PUSH2 0xA81 DUP2 PUSH2 0x975 JUMP JUMPDEST DUP2 EQ PUSH2 0xA8C JUMPI PUSH1 0x0 DUP1 REVERT JUMPDEST POP JUMP JUMPDEST PUSH2 0xA98 DUP2 PUSH2 0x9B3 JUMP JUMPDEST DUP2 EQ PUSH2 0xAA3 JUMPI PUSH1 0x0 DUP1 REVERT JUMPDEST POP JUMP INVALID LOG2 PUSH5 0x6970667358 0x22 SLT KECCAK256 0xD7 SWAP1 SAR PUSH7 0x424015F5D0FB8B EXTCODECOPY 0xE0 SWAP13 CALLDATALOAD LOG0 SIGNEXTEND 0xE9 DIFFICULTY PUSH31 0x5AB151B9A9A5553282047B8864736F6C634300080700330000000000000000 "
				},
				"gasEstimates": {
					"creation": {
						"codeDepositCost": "556000",
						"executionCost": "587",
						"totalCost": "556587"
					},
					"external": {
						"at_(uint256)": "infinite",
						"contains_(uint256)": "infinite",
						"get_(uint256)": "infinite",
						"length_()": "2641",
						"remove_(uint256)": "infinite",
						"set_(uint256,address)": "infinite",
						"tryGet_(uint256)": "infinite"
					}
				},
				"methodIdentifiers": {
					"at_(uint256)": "c337923f",
					"contains_(uint256)": "e8f9d887",
					"get_(uint256)": "21a16452",
					"length_()": "8d9fe83a",
					"remove_(uint256)": "c85cc5d9",
					"set_(uint256,address)": "1797864d",
					"tryGet_(uint256)": "7c4dd385"
				}
			},
			"storageLayout": {
				"storage": [
					{
						"astId": 1744,
						"contract": "Openzepellin/EnumerableTest/EnumerableMapTest.sol:usinEnumMap",
						"label": "myMap",
						"offset": 0,
						"slot": "0",
						"type": "t_struct(UintToAddressMap)452_storage"
					}
				],
				"types": {
					"t_array(t_bytes32)dyn_storage": {
						"base": "t_bytes32",
						"encoding": "dynamic_array",
						"label": "bytes32[]",
						"numberOfBytes": "32"
					},
					"t_bytes32": {
						"encoding": "inplace",
						"label": "bytes32",
						"numberOfBytes": "32"
					},
					"t_mapping(t_bytes32,t_bytes32)": {
						"encoding": "mapping",
						"key": "t_bytes32",
						"label": "mapping(bytes32 => bytes32)",
						"numberOfBytes": "32",
						"value": "t_bytes32"
					},
					"t_mapping(t_bytes32,t_uint256)": {
						"encoding": "mapping",
						"key": "t_bytes32",
						"label": "mapping(bytes32 => uint256)",
						"numberOfBytes": "32",
						"value": "t_uint256"
					},
					"t_struct(Bytes32Set)1326_storage": {
						"encoding": "inplace",
						"label": "struct EnumerableSet.Bytes32Set",
						"members": [
							{
								"astId": 1325,
								"contract": "Openzepellin/EnumerableTest/EnumerableMapTest.sol:usinEnumMap",
								"label": "_inner",
								"offset": 0,
								"slot": "0",
								"type": "t_struct(Set)1132_storage"
							}
						],
						"numberOfBytes": "64"
					},
					"t_struct(Bytes32ToBytes32Map)15_storage": {
						"encoding": "inplace",
						"label": "struct EnumerableMap.Bytes32ToBytes32Map",
						"members": [
							{
								"astId": 10,
								"contract": "Openzepellin/EnumerableTest/EnumerableMapTest.sol:usinEnumMap",
								"label": "_keys",
								"offset": 0,
								"slot": "0",
								"type": "t_struct(Bytes32Set)1326_storage"
							},
							{
								"astId": 14,
								"contract": "Openzepellin/EnumerableTest/EnumerableMapTest.sol:usinEnumMap",
								"label": "_values",
								"offset": 0,
								"slot": "2",
								"type": "t_mapping(t_bytes32,t_bytes32)"
							}
						],
						"numberOfBytes": "96"
					},
					"t_struct(Set)1132_storage": {
						"encoding": "inplace",
						"label": "struct EnumerableSet.Set",
						"members": [
							{
								"astId": 1127,
								"contract": "Openzepellin/EnumerableTest/EnumerableMapTest.sol:usinEnumMap",
								"label": "_values",
								"offset": 0,
								"slot": "0",
								"type": "t_array(t_bytes32)dyn_storage"
							},
							{
								"astId": 1131,
								"contract": "Openzepellin/EnumerableTest/EnumerableMapTest.sol:usinEnumMap",
								"label": "_indexes",
								"offset": 0,
								"slot": "1",
								"type": "t_mapping(t_bytes32,t_uint256)"
							}
						],
						"numberOfBytes": "64"
					},
					"t_struct(UintToAddressMap)452_storage": {
						"encoding": "inplace",
						"label": "struct EnumerableMap.UintToAddressMap",
						"members": [
							{
								"astId": 451,
								"contract": "Openzepellin/EnumerableTest/EnumerableMapTest.sol:usinEnumMap",
								"label": "_inner",
								"offset": 0,
								"slot": "0",
								"type": "t_struct(Bytes32ToBytes32Map)15_storage"
							}
						],
						"numberOfBytes": "96"
					},
					"t_uint256": {
						"encoding": "inplace",
						"label": "uint256",
						"numberOfBytes": "32"
					}
				}
			},
			"userdoc": {
				"kind": "user",
				"methods": {},
				"version": 1
			}
		}
	}
}