{
	"Casos de Uso/SupplyChain.sol": {
		"SupplyChain": {
			"abi": [
				{
					"anonymous": false,
					"inputs": [
						{
							"indexed": false,
							"internalType": "string",
							"name": "",
							"type": "string"
						},
						{
							"indexed": false,
							"internalType": "address",
							"name": "",
							"type": "address"
						},
						{
							"indexed": false,
							"internalType": "uint256",
							"name": "",
							"type": "uint256"
						},
						{
							"indexed": false,
							"internalType": "enum SupplyChain.Status",
							"name": "",
							"type": "uint8"
						},
						{
							"indexed": false,
							"internalType": "string",
							"name": "",
							"type": "string"
						}
					],
					"name": "cambioStatus",
					"type": "event"
				},
				{
					"anonymous": false,
					"inputs": [
						{
							"indexed": false,
							"internalType": "enum SupplyChain.Status",
							"name": "",
							"type": "uint8"
						},
						{
							"indexed": false,
							"internalType": "string",
							"name": "",
							"type": "string"
						}
					],
					"name": "registroProducto",
					"type": "event"
				},
				{
					"inputs": [
						{
							"internalType": "uint256",
							"name": "nProducto",
							"type": "uint256"
						},
						{
							"internalType": "string",
							"name": "menssage",
							"type": "string"
						}
					],
					"name": "ChangeStatus",
					"outputs": [],
					"stateMutability": "nonpayable",
					"type": "function"
				},
				{
					"inputs": [
						{
							"internalType": "uint256",
							"name": "nProducto",
							"type": "uint256"
						}
					],
					"name": "EstadoActualProducto",
					"outputs": [
						{
							"internalType": "enum SupplyChain.Status",
							"name": "",
							"type": "uint8"
						}
					],
					"stateMutability": "view",
					"type": "function"
				},
				{
					"inputs": [
						{
							"internalType": "uint256",
							"name": "",
							"type": "uint256"
						},
						{
							"internalType": "uint256",
							"name": "",
							"type": "uint256"
						}
					],
					"name": "Productos",
					"outputs": [
						{
							"internalType": "enum SupplyChain.Status",
							"name": "status",
							"type": "uint8"
						},
						{
							"internalType": "string",
							"name": "metadata",
							"type": "string"
						}
					],
					"stateMutability": "view",
					"type": "function"
				},
				{
					"inputs": [
						{
							"internalType": "uint256",
							"name": "nProducto",
							"type": "uint256"
						}
					],
					"name": "registerProduct",
					"outputs": [],
					"stateMutability": "nonpayable",
					"type": "function"
				}
			],
			"devdoc": {
				"kind": "dev",
				"methods": {},
				"version": 1
			},
			"evm": {
				"assembly": "    /* \"Casos de Uso/SupplyChain.sol\":73:1659  contract SupplyChain {\r... */\n  mstore(0x40, 0x80)\n  callvalue\n  dup1\n  iszero\n  tag_1\n  jumpi\n  0x00\n  dup1\n  revert\ntag_1:\n  pop\n  dataSize(sub_0)\n  dup1\n  dataOffset(sub_0)\n  0x00\n  codecopy\n  0x00\n  return\nstop\n\nsub_0: assembly {\n        /* \"Casos de Uso/SupplyChain.sol\":73:1659  contract SupplyChain {\r... */\n      mstore(0x40, 0x80)\n      callvalue\n      dup1\n      iszero\n      tag_1\n      jumpi\n      0x00\n      dup1\n      revert\n    tag_1:\n      pop\n      jumpi(tag_2, lt(calldatasize, 0x04))\n      shr(0xe0, calldataload(0x00))\n      dup1\n      0x936892f6\n      eq\n      tag_3\n      jumpi\n      dup1\n      0xc08e0f96\n      eq\n      tag_4\n      jumpi\n      dup1\n      0xc15bbbd0\n      eq\n      tag_5\n      jumpi\n      dup1\n      0xdb4a7908\n      eq\n      tag_6\n      jumpi\n    tag_2:\n      0x00\n      dup1\n      revert\n        /* \"Casos de Uso/SupplyChain.sol\":334:373  mapping (uint=>Step[]) public Productos */\n    tag_3:\n      tag_7\n      0x04\n      dup1\n      calldatasize\n      sub\n      dup2\n      add\n      swap1\n      tag_8\n      swap2\n      swap1\n      tag_9\n      jump\t// in\n    tag_8:\n      tag_10\n      jump\t// in\n    tag_7:\n      mload(0x40)\n      tag_11\n      swap3\n      swap2\n      swap1\n      tag_12\n      jump\t// in\n    tag_11:\n      mload(0x40)\n      dup1\n      swap2\n      sub\n      swap1\n      return\n        /* \"Casos de Uso/SupplyChain.sol\":429:778  function registerProduct(uint nProducto) public   {\r... */\n    tag_4:\n      tag_13\n      0x04\n      dup1\n      calldatasize\n      sub\n      dup2\n      add\n      swap1\n      tag_14\n      swap2\n      swap1\n      tag_15\n      jump\t// in\n    tag_14:\n      tag_16\n      jump\t// in\n    tag_13:\n      stop\n        /* \"Casos de Uso/SupplyChain.sol\":1413:1646  function EstadoActualProducto(uint nProducto) public view returns (Status) {\r... */\n    tag_5:\n      tag_17\n      0x04\n      dup1\n      calldatasize\n      sub\n      dup2\n      add\n      swap1\n      tag_18\n      swap2\n      swap1\n      tag_15\n      jump\t// in\n    tag_18:\n      tag_19\n      jump\t// in\n    tag_17:\n      mload(0x40)\n      tag_20\n      swap2\n      swap1\n      tag_21\n      jump\t// in\n    tag_20:\n      mload(0x40)\n      dup1\n      swap2\n      sub\n      swap1\n      return\n        /* \"Casos de Uso/SupplyChain.sol\":852:1405  function ChangeStatus(uint nProducto, string memory menssage) public  {\r... */\n    tag_6:\n      tag_22\n      0x04\n      dup1\n      calldatasize\n      sub\n      dup2\n      add\n      swap1\n      tag_23\n      swap2\n      swap1\n      tag_24\n      jump\t// in\n    tag_23:\n      tag_25\n      jump\t// in\n    tag_22:\n      stop\n        /* \"Casos de Uso/SupplyChain.sol\":334:373  mapping (uint=>Step[]) public Productos */\n    tag_10:\n      mstore(0x20, 0x00)\n      dup2\n      0x00\n      mstore\n      keccak256(0x00, 0x40)\n      dup2\n      dup2\n      sload\n      dup2\n      lt\n      tag_26\n      jumpi\n      0x00\n      dup1\n      revert\n    tag_26:\n      swap1\n      0x00\n      mstore\n      keccak256(0x00, 0x20)\n      swap1\n      0x02\n      mul\n      add\n      0x00\n      swap2\n      pop\n      swap2\n      pop\n      pop\n      dup1\n      0x00\n      add\n      0x00\n      swap1\n      sload\n      swap1\n      0x0100\n      exp\n      swap1\n      div\n      0xff\n      and\n      swap1\n      dup1\n      0x01\n      add\n      dup1\n      sload\n      tag_28\n      swap1\n      tag_29\n      jump\t// in\n    tag_28:\n      dup1\n      0x1f\n      add\n      0x20\n      dup1\n      swap2\n      div\n      mul\n      0x20\n      add\n      mload(0x40)\n      swap1\n      dup2\n      add\n      0x40\n      mstore\n      dup1\n      swap3\n      swap2\n      swap1\n      dup2\n      dup2\n      mstore\n      0x20\n      add\n      dup3\n      dup1\n      sload\n      tag_30\n      swap1\n      tag_29\n      jump\t// in\n    tag_30:\n      dup1\n      iszero\n      tag_31\n      jumpi\n      dup1\n      0x1f\n      lt\n      tag_32\n      jumpi\n      0x0100\n      dup1\n      dup4\n      sload\n      div\n      mul\n      dup4\n      mstore\n      swap2\n      0x20\n      add\n      swap2\n      jump(tag_31)\n    tag_32:\n      dup3\n      add\n      swap2\n      swap1\n      0x00\n      mstore\n      keccak256(0x00, 0x20)\n      swap1\n    tag_33:\n      dup2\n      sload\n      dup2\n      mstore\n      swap1\n      0x01\n      add\n      swap1\n      0x20\n      add\n      dup1\n      dup4\n      gt\n      tag_33\n      jumpi\n      dup3\n      swap1\n      sub\n      0x1f\n      and\n      dup3\n      add\n      swap2\n    tag_31:\n      pop\n      pop\n      pop\n      pop\n      pop\n      swap1\n      pop\n      dup3\n      jump\t// out\n        /* \"Casos de Uso/SupplyChain.sol\":429:778  function registerProduct(uint nProducto) public   {\r... */\n    tag_16:\n        /* \"Casos de Uso/SupplyChain.sol\":538:539  0 */\n      0x00\n        /* \"Casos de Uso/SupplyChain.sol\":508:517  Productos */\n      dup1\n        /* \"Casos de Uso/SupplyChain.sol\":508:528  Productos[nProducto] */\n      0x00\n        /* \"Casos de Uso/SupplyChain.sol\":518:527  nProducto */\n      dup4\n        /* \"Casos de Uso/SupplyChain.sol\":508:528  Productos[nProducto] */\n      dup2\n      mstore\n      0x20\n      add\n      swap1\n      dup2\n      mstore\n      0x20\n      add\n      0x00\n      keccak256\n        /* \"Casos de Uso/SupplyChain.sol\":508:535  Productos[nProducto].length */\n      dup1\n      sload\n      swap1\n      pop\n        /* \"Casos de Uso/SupplyChain.sol\":508:539  Productos[nProducto].length ==0 */\n      eq\n        /* \"Casos de Uso/SupplyChain.sol\":500:580  require(Productos[nProducto].length ==0, \"El Lote-Codigo de producto ya existe\") */\n      tag_35\n      jumpi\n      mload(0x40)\n      0x08c379a000000000000000000000000000000000000000000000000000000000\n      dup2\n      mstore\n      0x04\n      add\n      tag_36\n      swap1\n      tag_37\n      jump\t// in\n    tag_36:\n      mload(0x40)\n      dup1\n      swap2\n      sub\n      swap1\n      revert\n    tag_35:\n        /* \"Casos de Uso/SupplyChain.sol\":593:602  Productos */\n      0x00\n        /* \"Casos de Uso/SupplyChain.sol\":593:613  Productos[nProducto] */\n      dup1\n        /* \"Casos de Uso/SupplyChain.sol\":603:612  nProducto */\n      dup3\n        /* \"Casos de Uso/SupplyChain.sol\":593:613  Productos[nProducto] */\n      dup2\n      mstore\n      0x20\n      add\n      swap1\n      dup2\n      mstore\n      0x20\n      add\n      0x00\n      keccak256\n        /* \"Casos de Uso/SupplyChain.sol\":619:675  Step(Status.CREATED,\"Lote-Codigo Id de producto creado\") */\n      mload(0x40)\n      dup1\n      0x40\n      add\n      0x40\n      mstore\n      dup1\n        /* \"Casos de Uso/SupplyChain.sol\":624:638  Status.CREATED */\n      0x00\n        /* \"Casos de Uso/SupplyChain.sol\":619:675  Step(Status.CREATED,\"Lote-Codigo Id de producto creado\") */\n      0x04\n      dup2\n      gt\n      iszero\n      tag_38\n      jumpi\n      tag_39\n      tag_40\n      jump\t// in\n    tag_39:\n    tag_38:\n      dup2\n      mstore\n      0x20\n      add\n      mload(0x40)\n      dup1\n      0x60\n      add\n      0x40\n      mstore\n      dup1\n      0x21\n      dup2\n      mstore\n      0x20\n      add\n      data_2b9cc2144b2f11c175ecbfac580c2e65cf05b3ef89a0e21fe9807450931771d1\n      0x21\n      swap2\n      codecopy\n      dup2\n      mstore\n      pop\n        /* \"Casos de Uso/SupplyChain.sol\":593:676  Productos[nProducto].push(Step(Status.CREATED,\"Lote-Codigo Id de producto creado\")) */\n      swap1\n      dup1\n      0x01\n      dup2\n      sload\n      add\n      dup1\n      dup3\n      sstore\n      dup1\n      swap2\n      pop\n      pop\n      0x01\n      swap1\n      sub\n      swap1\n      0x00\n      mstore\n      keccak256(0x00, 0x20)\n      swap1\n      0x02\n      mul\n      add\n      0x00\n      swap1\n      swap2\n      swap1\n      swap2\n      swap1\n      swap2\n      pop\n      0x00\n      dup3\n      add\n      mload\n      dup2\n      0x00\n      add\n      exp(0x0100, 0x00)\n      dup2\n      sload\n      dup2\n      0xff\n      mul\n      not\n      and\n      swap1\n      dup4\n      0x04\n      dup2\n      gt\n      iszero\n      tag_42\n      jumpi\n      tag_43\n      tag_40\n      jump\t// in\n    tag_43:\n    tag_42:\n      mul\n      or\n      swap1\n      sstore\n      pop\n      0x20\n      dup3\n      add\n      mload\n      dup2\n      0x01\n      add\n      swap1\n      dup1\n      mload\n      swap1\n      0x20\n      add\n      swap1\n      tag_44\n      swap3\n      swap2\n      swap1\n      tag_45\n      jump\t// in\n    tag_44:\n      pop\n      pop\n      pop\n        /* \"Casos de Uso/SupplyChain.sol\":694:762  registroProducto(Status.CREATED,\"Lote-Codigo Id de producto creado\") */\n      0x5eb9a63a869a92a03b6256b4a442b251cf74b2d386299e41895148fdab0e4094\n        /* \"Casos de Uso/SupplyChain.sol\":711:725  Status.CREATED */\n      0x00\n        /* \"Casos de Uso/SupplyChain.sol\":694:762  registroProducto(Status.CREATED,\"Lote-Codigo Id de producto creado\") */\n      mload(0x40)\n      tag_46\n      swap2\n      swap1\n      tag_47\n      jump\t// in\n    tag_46:\n      mload(0x40)\n      dup1\n      swap2\n      sub\n      swap1\n      log1\n        /* \"Casos de Uso/SupplyChain.sol\":429:778  function registerProduct(uint nProducto) public   {\r... */\n      pop\n      jump\t// out\n        /* \"Casos de Uso/SupplyChain.sol\":1413:1646  function EstadoActualProducto(uint nProducto) public view returns (Status) {\r... */\n    tag_19:\n        /* \"Casos de Uso/SupplyChain.sol\":1480:1486  Status */\n      0x00\n        /* \"Casos de Uso/SupplyChain.sol\":1539:1540  0 */\n      dup1\n        /* \"Casos de Uso/SupplyChain.sol\":1509:1518  Productos */\n      0x00\n        /* \"Casos de Uso/SupplyChain.sol\":1509:1529  Productos[nProducto] */\n      dup1\n        /* \"Casos de Uso/SupplyChain.sol\":1519:1528  nProducto */\n      dup5\n        /* \"Casos de Uso/SupplyChain.sol\":1509:1529  Productos[nProducto] */\n      dup2\n      mstore\n      0x20\n      add\n      swap1\n      dup2\n      mstore\n      0x20\n      add\n      0x00\n      keccak256\n        /* \"Casos de Uso/SupplyChain.sol\":1509:1536  Productos[nProducto].length */\n      dup1\n      sload\n      swap1\n      pop\n        /* \"Casos de Uso/SupplyChain.sol\":1509:1540  Productos[nProducto].length !=0 */\n      eq\n      iszero\n        /* \"Casos de Uso/SupplyChain.sol\":1501:1581  require(Productos[nProducto].length !=0, \"El Lote-Codigo de producto NO existe\") */\n      tag_49\n      jumpi\n      mload(0x40)\n      0x08c379a000000000000000000000000000000000000000000000000000000000\n      dup2\n      mstore\n      0x04\n      add\n      tag_50\n      swap1\n      tag_51\n      jump\t// in\n    tag_50:\n      mload(0x40)\n      dup1\n      swap2\n      sub\n      swap1\n      revert\n    tag_49:\n        /* \"Casos de Uso/SupplyChain.sol\":1636:1637  1 */\n      0x01\n        /* \"Casos de Uso/SupplyChain.sol\":1608:1617  Productos */\n      0x00\n        /* \"Casos de Uso/SupplyChain.sol\":1608:1628  Productos[nProducto] */\n      dup1\n        /* \"Casos de Uso/SupplyChain.sol\":1618:1627  nProducto */\n      dup5\n        /* \"Casos de Uso/SupplyChain.sol\":1608:1628  Productos[nProducto] */\n      dup2\n      mstore\n      0x20\n      add\n      swap1\n      dup2\n      mstore\n      0x20\n      add\n      0x00\n      keccak256\n        /* \"Casos de Uso/SupplyChain.sol\":1608:1635  Productos[nProducto].length */\n      dup1\n      sload\n      swap1\n      pop\n        /* \"Casos de Uso/SupplyChain.sol\":1608:1637  Productos[nProducto].length-1 */\n      tag_52\n      swap2\n      swap1\n      tag_53\n      jump\t// in\n    tag_52:\n        /* \"Casos de Uso/SupplyChain.sol\":1601:1638  Status(Productos[nProducto].length-1) */\n      0x04\n      dup2\n      gt\n      iszero\n      tag_54\n      jumpi\n      tag_55\n      tag_40\n      jump\t// in\n    tag_55:\n    tag_54:\n        /* \"Casos de Uso/SupplyChain.sol\":1594:1638  return Status(Productos[nProducto].length-1) */\n      swap1\n      pop\n        /* \"Casos de Uso/SupplyChain.sol\":1413:1646  function EstadoActualProducto(uint nProducto) public view returns (Status) {\r... */\n      swap2\n      swap1\n      pop\n      jump\t// out\n        /* \"Casos de Uso/SupplyChain.sol\":852:1405  function ChangeStatus(uint nProducto, string memory menssage) public  {\r... */\n    tag_25:\n        /* \"Casos de Uso/SupplyChain.sol\":971:972  0 */\n      0x00\n        /* \"Casos de Uso/SupplyChain.sol\":941:950  Productos */\n      dup1\n        /* \"Casos de Uso/SupplyChain.sol\":941:961  Productos[nProducto] */\n      0x00\n        /* \"Casos de Uso/SupplyChain.sol\":951:960  nProducto */\n      dup5\n        /* \"Casos de Uso/SupplyChain.sol\":941:961  Productos[nProducto] */\n      dup2\n      mstore\n      0x20\n      add\n      swap1\n      dup2\n      mstore\n      0x20\n      add\n      0x00\n      keccak256\n        /* \"Casos de Uso/SupplyChain.sol\":941:968  Productos[nProducto].length */\n      dup1\n      sload\n      swap1\n      pop\n        /* \"Casos de Uso/SupplyChain.sol\":941:972  Productos[nProducto].length !=0 */\n      eq\n      iszero\n        /* \"Casos de Uso/SupplyChain.sol\":933:1013  require(Productos[nProducto].length !=0, \"El Lote-Codigo de producto NO existe\") */\n      tag_57\n      jumpi\n      mload(0x40)\n      0x08c379a000000000000000000000000000000000000000000000000000000000\n      dup2\n      mstore\n      0x04\n      add\n      tag_58\n      swap1\n      tag_51\n      jump\t// in\n    tag_58:\n      mload(0x40)\n      dup1\n      swap2\n      sub\n      swap1\n      revert\n    tag_57:\n        /* \"Casos de Uso/SupplyChain.sol\":1067:1083  Status.DELIVERED */\n      0x04\n        /* \"Casos de Uso/SupplyChain.sol\":1062:1084  uint(Status.DELIVERED) */\n      dup1\n      dup2\n      gt\n      iszero\n      tag_59\n      jumpi\n      tag_60\n      tag_40\n      jump\t// in\n    tag_60:\n    tag_59:\n        /* \"Casos de Uso/SupplyChain.sol\":1060:1061  1 */\n      0x01\n        /* \"Casos de Uso/SupplyChain.sol\":1032:1041  Productos */\n      0x00\n        /* \"Casos de Uso/SupplyChain.sol\":1032:1052  Productos[nProducto] */\n      dup1\n        /* \"Casos de Uso/SupplyChain.sol\":1042:1051  nProducto */\n      dup6\n        /* \"Casos de Uso/SupplyChain.sol\":1032:1052  Productos[nProducto] */\n      dup2\n      mstore\n      0x20\n      add\n      swap1\n      dup2\n      mstore\n      0x20\n      add\n      0x00\n      keccak256\n        /* \"Casos de Uso/SupplyChain.sol\":1032:1059  Productos[nProducto].length */\n      dup1\n      sload\n      swap1\n      pop\n        /* \"Casos de Uso/SupplyChain.sol\":1032:1061  Productos[nProducto].length-1 */\n      tag_61\n      swap2\n      swap1\n      tag_53\n      jump\t// in\n    tag_61:\n        /* \"Casos de Uso/SupplyChain.sol\":1032:1084  Productos[nProducto].length-1<uint(Status.DELIVERED) */\n      lt\n        /* \"Casos de Uso/SupplyChain.sol\":1024:1135  require(Productos[nProducto].length-1<uint(Status.DELIVERED), \"ya no hay mas pasos, el producto fue entregado\") */\n      tag_62\n      jumpi\n      mload(0x40)\n      0x08c379a000000000000000000000000000000000000000000000000000000000\n      dup2\n      mstore\n      0x04\n      add\n      tag_63\n      swap1\n      tag_64\n      jump\t// in\n    tag_63:\n      mload(0x40)\n      dup1\n      swap2\n      sub\n      swap1\n      revert\n    tag_62:\n        /* \"Casos de Uso/SupplyChain.sol\":1148:1164  Status newstatus */\n      0x00\n        /* \"Casos de Uso/SupplyChain.sol\":1194:1203  Productos */\n      dup1\n        /* \"Casos de Uso/SupplyChain.sol\":1194:1214  Productos[nProducto] */\n      0x00\n        /* \"Casos de Uso/SupplyChain.sol\":1204:1213  nProducto */\n      dup5\n        /* \"Casos de Uso/SupplyChain.sol\":1194:1214  Productos[nProducto] */\n      dup2\n      mstore\n      0x20\n      add\n      swap1\n      dup2\n      mstore\n      0x20\n      add\n      0x00\n      keccak256\n        /* \"Casos de Uso/SupplyChain.sol\":1194:1221  Productos[nProducto].length */\n      dup1\n      sload\n      swap1\n      pop\n        /* \"Casos de Uso/SupplyChain.sol\":1187:1222  Status(Productos[nProducto].length) */\n      0x04\n      dup2\n      gt\n      iszero\n      tag_65\n      jumpi\n      tag_66\n      tag_40\n      jump\t// in\n    tag_66:\n    tag_65:\n        /* \"Casos de Uso/SupplyChain.sol\":1175:1222  newstatus = Status(Productos[nProducto].length) */\n      swap1\n      pop\n        /* \"Casos de Uso/SupplyChain.sol\":1243:1252  Productos */\n      0x00\n        /* \"Casos de Uso/SupplyChain.sol\":1243:1263  Productos[nProducto] */\n      dup1\n        /* \"Casos de Uso/SupplyChain.sol\":1253:1262  nProducto */\n      dup5\n        /* \"Casos de Uso/SupplyChain.sol\":1243:1263  Productos[nProducto] */\n      dup2\n      mstore\n      0x20\n      add\n      swap1\n      dup2\n      mstore\n      0x20\n      add\n      0x00\n      keccak256\n        /* \"Casos de Uso/SupplyChain.sol\":1269:1293  Step(newstatus,menssage) */\n      mload(0x40)\n      dup1\n      0x40\n      add\n      0x40\n      mstore\n      dup1\n        /* \"Casos de Uso/SupplyChain.sol\":1274:1283  newstatus */\n      dup4\n        /* \"Casos de Uso/SupplyChain.sol\":1269:1293  Step(newstatus,menssage) */\n      0x04\n      dup2\n      gt\n      iszero\n      tag_67\n      jumpi\n      tag_68\n      tag_40\n      jump\t// in\n    tag_68:\n    tag_67:\n      dup2\n      mstore\n      0x20\n      add\n        /* \"Casos de Uso/SupplyChain.sol\":1284:1292  menssage */\n      dup5\n        /* \"Casos de Uso/SupplyChain.sol\":1269:1293  Step(newstatus,menssage) */\n      dup2\n      mstore\n      pop\n        /* \"Casos de Uso/SupplyChain.sol\":1243:1294  Productos[nProducto].push(Step(newstatus,menssage)) */\n      swap1\n      dup1\n      0x01\n      dup2\n      sload\n      add\n      dup1\n      dup3\n      sstore\n      dup1\n      swap2\n      pop\n      pop\n      0x01\n      swap1\n      sub\n      swap1\n      0x00\n      mstore\n      keccak256(0x00, 0x20)\n      swap1\n      0x02\n      mul\n      add\n      0x00\n      swap1\n      swap2\n      swap1\n      swap2\n      swap1\n      swap2\n      pop\n      0x00\n      dup3\n      add\n      mload\n      dup2\n      0x00\n      add\n      exp(0x0100, 0x00)\n      dup2\n      sload\n      dup2\n      0xff\n      mul\n      not\n      and\n      swap1\n      dup4\n      0x04\n      dup2\n      gt\n      iszero\n      tag_70\n      jumpi\n      tag_71\n      tag_40\n      jump\t// in\n    tag_71:\n    tag_70:\n      mul\n      or\n      swap1\n      sstore\n      pop\n      0x20\n      dup3\n      add\n      mload\n      dup2\n      0x01\n      add\n      swap1\n      dup1\n      mload\n      swap1\n      0x20\n      add\n      swap1\n      tag_72\n      swap3\n      swap2\n      swap1\n      tag_45\n      jump\t// in\n    tag_72:\n      pop\n      pop\n      pop\n        /* \"Casos de Uso/SupplyChain.sol\":1310:1397  cambioStatus (\"El producto cambio de estado\",msg.sender,nProducto, newstatus,menssage ) */\n      0x69473d85141fe924e8deb804a628e89f2c898807c30052dd683f82463f4023f3\n        /* \"Casos de Uso/SupplyChain.sol\":1355:1365  msg.sender */\n      caller\n        /* \"Casos de Uso/SupplyChain.sol\":1366:1375  nProducto */\n      dup5\n        /* \"Casos de Uso/SupplyChain.sol\":1377:1386  newstatus */\n      dup4\n        /* \"Casos de Uso/SupplyChain.sol\":1387:1395  menssage */\n      dup6\n        /* \"Casos de Uso/SupplyChain.sol\":1310:1397  cambioStatus (\"El producto cambio de estado\",msg.sender,nProducto, newstatus,menssage ) */\n      mload(0x40)\n      tag_73\n      swap5\n      swap4\n      swap3\n      swap2\n      swap1\n      tag_74\n      jump\t// in\n    tag_73:\n      mload(0x40)\n      dup1\n      swap2\n      sub\n      swap1\n      log1\n        /* \"Casos de Uso/SupplyChain.sol\":922:1405  {\r... */\n      pop\n        /* \"Casos de Uso/SupplyChain.sol\":852:1405  function ChangeStatus(uint nProducto, string memory menssage) public  {\r... */\n      pop\n      pop\n      jump\t// out\n    tag_45:\n      dup3\n      dup1\n      sload\n      tag_75\n      swap1\n      tag_29\n      jump\t// in\n    tag_75:\n      swap1\n      0x00\n      mstore\n      keccak256(0x00, 0x20)\n      swap1\n      0x1f\n      add\n      0x20\n      swap1\n      div\n      dup2\n      add\n      swap3\n      dup3\n      tag_77\n      jumpi\n      0x00\n      dup6\n      sstore\n      jump(tag_76)\n    tag_77:\n      dup3\n      0x1f\n      lt\n      tag_78\n      jumpi\n      dup1\n      mload\n      not(0xff)\n      and\n      dup4\n      dup1\n      add\n      or\n      dup6\n      sstore\n      jump(tag_76)\n    tag_78:\n      dup3\n      dup1\n      add\n      0x01\n      add\n      dup6\n      sstore\n      dup3\n      iszero\n      tag_76\n      jumpi\n      swap2\n      dup3\n      add\n    tag_79:\n      dup3\n      dup2\n      gt\n      iszero\n      tag_80\n      jumpi\n      dup3\n      mload\n      dup3\n      sstore\n      swap2\n      0x20\n      add\n      swap2\n      swap1\n      0x01\n      add\n      swap1\n      jump(tag_79)\n    tag_80:\n    tag_76:\n      pop\n      swap1\n      pop\n      tag_81\n      swap2\n      swap1\n      tag_82\n      jump\t// in\n    tag_81:\n      pop\n      swap1\n      jump\t// out\n    tag_82:\n    tag_83:\n      dup1\n      dup3\n      gt\n      iszero\n      tag_84\n      jumpi\n      0x00\n      dup2\n      0x00\n      swap1\n      sstore\n      pop\n      0x01\n      add\n      jump(tag_83)\n    tag_84:\n      pop\n      swap1\n      jump\t// out\n        /* \"#utility.yul\":7:419   */\n    tag_86:\n        /* \"#utility.yul\":85:90   */\n      0x00\n        /* \"#utility.yul\":110:176   */\n      tag_88\n        /* \"#utility.yul\":126:175   */\n      tag_89\n        /* \"#utility.yul\":168:174   */\n      dup5\n        /* \"#utility.yul\":126:175   */\n      tag_90\n      jump\t// in\n    tag_89:\n        /* \"#utility.yul\":110:176   */\n      tag_91\n      jump\t// in\n    tag_88:\n        /* \"#utility.yul\":101:176   */\n      swap1\n      pop\n        /* \"#utility.yul\":199:205   */\n      dup3\n        /* \"#utility.yul\":192:197   */\n      dup2\n        /* \"#utility.yul\":185:206   */\n      mstore\n        /* \"#utility.yul\":237:241   */\n      0x20\n        /* \"#utility.yul\":230:235   */\n      dup2\n        /* \"#utility.yul\":226:242   */\n      add\n        /* \"#utility.yul\":275:278   */\n      dup5\n        /* \"#utility.yul\":266:272   */\n      dup5\n        /* \"#utility.yul\":261:264   */\n      dup5\n        /* \"#utility.yul\":257:273   */\n      add\n        /* \"#utility.yul\":254:279   */\n      gt\n        /* \"#utility.yul\":251:363   */\n      iszero\n      tag_92\n      jumpi\n        /* \"#utility.yul\":282:361   */\n      tag_93\n      tag_94\n      jump\t// in\n    tag_93:\n        /* \"#utility.yul\":251:363   */\n    tag_92:\n        /* \"#utility.yul\":372:413   */\n      tag_95\n        /* \"#utility.yul\":406:412   */\n      dup5\n        /* \"#utility.yul\":401:404   */\n      dup3\n        /* \"#utility.yul\":396:399   */\n      dup6\n        /* \"#utility.yul\":372:413   */\n      tag_96\n      jump\t// in\n    tag_95:\n        /* \"#utility.yul\":91:419   */\n      pop\n        /* \"#utility.yul\":7:419   */\n      swap4\n      swap3\n      pop\n      pop\n      pop\n      jump\t// out\n        /* \"#utility.yul\":439:779   */\n    tag_97:\n        /* \"#utility.yul\":495:500   */\n      0x00\n        /* \"#utility.yul\":544:547   */\n      dup3\n        /* \"#utility.yul\":537:541   */\n      0x1f\n        /* \"#utility.yul\":529:535   */\n      dup4\n        /* \"#utility.yul\":525:542   */\n      add\n        /* \"#utility.yul\":521:548   */\n      slt\n        /* \"#utility.yul\":511:633   */\n      tag_99\n      jumpi\n        /* \"#utility.yul\":552:631   */\n      tag_100\n      tag_101\n      jump\t// in\n    tag_100:\n        /* \"#utility.yul\":511:633   */\n    tag_99:\n        /* \"#utility.yul\":669:675   */\n      dup2\n        /* \"#utility.yul\":656:676   */\n      calldataload\n        /* \"#utility.yul\":694:773   */\n      tag_102\n        /* \"#utility.yul\":769:772   */\n      dup5\n        /* \"#utility.yul\":761:767   */\n      dup3\n        /* \"#utility.yul\":754:758   */\n      0x20\n        /* \"#utility.yul\":746:752   */\n      dup7\n        /* \"#utility.yul\":742:759   */\n      add\n        /* \"#utility.yul\":694:773   */\n      tag_86\n      jump\t// in\n    tag_102:\n        /* \"#utility.yul\":685:773   */\n      swap2\n      pop\n        /* \"#utility.yul\":501:779   */\n      pop\n        /* \"#utility.yul\":439:779   */\n      swap3\n      swap2\n      pop\n      pop\n      jump\t// out\n        /* \"#utility.yul\":785:924   */\n    tag_103:\n        /* \"#utility.yul\":831:836   */\n      0x00\n        /* \"#utility.yul\":869:875   */\n      dup2\n        /* \"#utility.yul\":856:876   */\n      calldataload\n        /* \"#utility.yul\":847:876   */\n      swap1\n      pop\n        /* \"#utility.yul\":885:918   */\n      tag_105\n        /* \"#utility.yul\":912:917   */\n      dup2\n        /* \"#utility.yul\":885:918   */\n      tag_106\n      jump\t// in\n    tag_105:\n        /* \"#utility.yul\":785:924   */\n      swap3\n      swap2\n      pop\n      pop\n      jump\t// out\n        /* \"#utility.yul\":930:1259   */\n    tag_15:\n        /* \"#utility.yul\":989:995   */\n      0x00\n        /* \"#utility.yul\":1038:1040   */\n      0x20\n        /* \"#utility.yul\":1026:1035   */\n      dup3\n        /* \"#utility.yul\":1017:1024   */\n      dup5\n        /* \"#utility.yul\":1013:1036   */\n      sub\n        /* \"#utility.yul\":1009:1041   */\n      slt\n        /* \"#utility.yul\":1006:1125   */\n      iszero\n      tag_108\n      jumpi\n        /* \"#utility.yul\":1044:1123   */\n      tag_109\n      tag_110\n      jump\t// in\n    tag_109:\n        /* \"#utility.yul\":1006:1125   */\n    tag_108:\n        /* \"#utility.yul\":1164:1165   */\n      0x00\n        /* \"#utility.yul\":1189:1242   */\n      tag_111\n        /* \"#utility.yul\":1234:1241   */\n      dup5\n        /* \"#utility.yul\":1225:1231   */\n      dup3\n        /* \"#utility.yul\":1214:1223   */\n      dup6\n        /* \"#utility.yul\":1210:1232   */\n      add\n        /* \"#utility.yul\":1189:1242   */\n      tag_103\n      jump\t// in\n    tag_111:\n        /* \"#utility.yul\":1179:1242   */\n      swap2\n      pop\n        /* \"#utility.yul\":1135:1252   */\n      pop\n        /* \"#utility.yul\":930:1259   */\n      swap3\n      swap2\n      pop\n      pop\n      jump\t// out\n        /* \"#utility.yul\":1265:1919   */\n    tag_24:\n        /* \"#utility.yul\":1343:1349   */\n      0x00\n        /* \"#utility.yul\":1351:1357   */\n      dup1\n        /* \"#utility.yul\":1400:1402   */\n      0x40\n        /* \"#utility.yul\":1388:1397   */\n      dup4\n        /* \"#utility.yul\":1379:1386   */\n      dup6\n        /* \"#utility.yul\":1375:1398   */\n      sub\n        /* \"#utility.yul\":1371:1403   */\n      slt\n        /* \"#utility.yul\":1368:1487   */\n      iszero\n      tag_113\n      jumpi\n        /* \"#utility.yul\":1406:1485   */\n      tag_114\n      tag_110\n      jump\t// in\n    tag_114:\n        /* \"#utility.yul\":1368:1487   */\n    tag_113:\n        /* \"#utility.yul\":1526:1527   */\n      0x00\n        /* \"#utility.yul\":1551:1604   */\n      tag_115\n        /* \"#utility.yul\":1596:1603   */\n      dup6\n        /* \"#utility.yul\":1587:1593   */\n      dup3\n        /* \"#utility.yul\":1576:1585   */\n      dup7\n        /* \"#utility.yul\":1572:1594   */\n      add\n        /* \"#utility.yul\":1551:1604   */\n      tag_103\n      jump\t// in\n    tag_115:\n        /* \"#utility.yul\":1541:1604   */\n      swap3\n      pop\n        /* \"#utility.yul\":1497:1614   */\n      pop\n        /* \"#utility.yul\":1681:1683   */\n      0x20\n        /* \"#utility.yul\":1670:1679   */\n      dup4\n        /* \"#utility.yul\":1666:1684   */\n      add\n        /* \"#utility.yul\":1653:1685   */\n      calldataload\n        /* \"#utility.yul\":1712:1730   */\n      0xffffffffffffffff\n        /* \"#utility.yul\":1704:1710   */\n      dup2\n        /* \"#utility.yul\":1701:1731   */\n      gt\n        /* \"#utility.yul\":1698:1815   */\n      iszero\n      tag_116\n      jumpi\n        /* \"#utility.yul\":1734:1813   */\n      tag_117\n      tag_118\n      jump\t// in\n    tag_117:\n        /* \"#utility.yul\":1698:1815   */\n    tag_116:\n        /* \"#utility.yul\":1839:1902   */\n      tag_119\n        /* \"#utility.yul\":1894:1901   */\n      dup6\n        /* \"#utility.yul\":1885:1891   */\n      dup3\n        /* \"#utility.yul\":1874:1883   */\n      dup7\n        /* \"#utility.yul\":1870:1892   */\n      add\n        /* \"#utility.yul\":1839:1902   */\n      tag_97\n      jump\t// in\n    tag_119:\n        /* \"#utility.yul\":1829:1902   */\n      swap2\n      pop\n        /* \"#utility.yul\":1624:1912   */\n      pop\n        /* \"#utility.yul\":1265:1919   */\n      swap3\n      pop\n      swap3\n      swap1\n      pop\n      jump\t// out\n        /* \"#utility.yul\":1925:2399   */\n    tag_9:\n        /* \"#utility.yul\":1993:1999   */\n      0x00\n        /* \"#utility.yul\":2001:2007   */\n      dup1\n        /* \"#utility.yul\":2050:2052   */\n      0x40\n        /* \"#utility.yul\":2038:2047   */\n      dup4\n        /* \"#utility.yul\":2029:2036   */\n      dup6\n        /* \"#utility.yul\":2025:2048   */\n      sub\n        /* \"#utility.yul\":2021:2053   */\n      slt\n        /* \"#utility.yul\":2018:2137   */\n      iszero\n      tag_121\n      jumpi\n        /* \"#utility.yul\":2056:2135   */\n      tag_122\n      tag_110\n      jump\t// in\n    tag_122:\n        /* \"#utility.yul\":2018:2137   */\n    tag_121:\n        /* \"#utility.yul\":2176:2177   */\n      0x00\n        /* \"#utility.yul\":2201:2254   */\n      tag_123\n        /* \"#utility.yul\":2246:2253   */\n      dup6\n        /* \"#utility.yul\":2237:2243   */\n      dup3\n        /* \"#utility.yul\":2226:2235   */\n      dup7\n        /* \"#utility.yul\":2222:2244   */\n      add\n        /* \"#utility.yul\":2201:2254   */\n      tag_103\n      jump\t// in\n    tag_123:\n        /* \"#utility.yul\":2191:2254   */\n      swap3\n      pop\n        /* \"#utility.yul\":2147:2264   */\n      pop\n        /* \"#utility.yul\":2303:2305   */\n      0x20\n        /* \"#utility.yul\":2329:2382   */\n      tag_124\n        /* \"#utility.yul\":2374:2381   */\n      dup6\n        /* \"#utility.yul\":2365:2371   */\n      dup3\n        /* \"#utility.yul\":2354:2363   */\n      dup7\n        /* \"#utility.yul\":2350:2372   */\n      add\n        /* \"#utility.yul\":2329:2382   */\n      tag_103\n      jump\t// in\n    tag_124:\n        /* \"#utility.yul\":2319:2382   */\n      swap2\n      pop\n        /* \"#utility.yul\":2274:2392   */\n      pop\n        /* \"#utility.yul\":1925:2399   */\n      swap3\n      pop\n      swap3\n      swap1\n      pop\n      jump\t// out\n        /* \"#utility.yul\":2405:2523   */\n    tag_125:\n        /* \"#utility.yul\":2492:2516   */\n      tag_127\n        /* \"#utility.yul\":2510:2515   */\n      dup2\n        /* \"#utility.yul\":2492:2516   */\n      tag_128\n      jump\t// in\n    tag_127:\n        /* \"#utility.yul\":2487:2490   */\n      dup3\n        /* \"#utility.yul\":2480:2517   */\n      mstore\n        /* \"#utility.yul\":2405:2523   */\n      pop\n      pop\n      jump\t// out\n        /* \"#utility.yul\":2529:2672   */\n    tag_129:\n        /* \"#utility.yul\":2622:2665   */\n      tag_131\n        /* \"#utility.yul\":2659:2664   */\n      dup2\n        /* \"#utility.yul\":2622:2665   */\n      tag_132\n      jump\t// in\n    tag_131:\n        /* \"#utility.yul\":2617:2620   */\n      dup3\n        /* \"#utility.yul\":2610:2666   */\n      mstore\n        /* \"#utility.yul\":2529:2672   */\n      pop\n      pop\n      jump\t// out\n        /* \"#utility.yul\":2678:3042   */\n    tag_133:\n        /* \"#utility.yul\":2766:2769   */\n      0x00\n        /* \"#utility.yul\":2794:2833   */\n      tag_135\n        /* \"#utility.yul\":2827:2832   */\n      dup3\n        /* \"#utility.yul\":2794:2833   */\n      tag_136\n      jump\t// in\n    tag_135:\n        /* \"#utility.yul\":2849:2920   */\n      tag_137\n        /* \"#utility.yul\":2913:2919   */\n      dup2\n        /* \"#utility.yul\":2908:2911   */\n      dup6\n        /* \"#utility.yul\":2849:2920   */\n      tag_138\n      jump\t// in\n    tag_137:\n        /* \"#utility.yul\":2842:2920   */\n      swap4\n      pop\n        /* \"#utility.yul\":2929:2981   */\n      tag_139\n        /* \"#utility.yul\":2974:2980   */\n      dup2\n        /* \"#utility.yul\":2969:2972   */\n      dup6\n        /* \"#utility.yul\":2962:2966   */\n      0x20\n        /* \"#utility.yul\":2955:2960   */\n      dup7\n        /* \"#utility.yul\":2951:2967   */\n      add\n        /* \"#utility.yul\":2929:2981   */\n      tag_140\n      jump\t// in\n    tag_139:\n        /* \"#utility.yul\":3006:3035   */\n      tag_141\n        /* \"#utility.yul\":3028:3034   */\n      dup2\n        /* \"#utility.yul\":3006:3035   */\n      tag_142\n      jump\t// in\n    tag_141:\n        /* \"#utility.yul\":3001:3004   */\n      dup5\n        /* \"#utility.yul\":2997:3036   */\n      add\n        /* \"#utility.yul\":2990:3036   */\n      swap2\n      pop\n        /* \"#utility.yul\":2770:3042   */\n      pop\n        /* \"#utility.yul\":2678:3042   */\n      swap3\n      swap2\n      pop\n      pop\n      jump\t// out\n        /* \"#utility.yul\":3048:3414   */\n    tag_143:\n        /* \"#utility.yul\":3190:3193   */\n      0x00\n        /* \"#utility.yul\":3211:3278   */\n      tag_145\n        /* \"#utility.yul\":3275:3277   */\n      0x21\n        /* \"#utility.yul\":3270:3273   */\n      dup4\n        /* \"#utility.yul\":3211:3278   */\n      tag_138\n      jump\t// in\n    tag_145:\n        /* \"#utility.yul\":3204:3278   */\n      swap2\n      pop\n        /* \"#utility.yul\":3287:3380   */\n      tag_146\n        /* \"#utility.yul\":3376:3379   */\n      dup3\n        /* \"#utility.yul\":3287:3380   */\n      tag_147\n      jump\t// in\n    tag_146:\n        /* \"#utility.yul\":3405:3407   */\n      0x40\n        /* \"#utility.yul\":3400:3403   */\n      dup3\n        /* \"#utility.yul\":3396:3408   */\n      add\n        /* \"#utility.yul\":3389:3408   */\n      swap1\n      pop\n        /* \"#utility.yul\":3048:3414   */\n      swap2\n      swap1\n      pop\n      jump\t// out\n        /* \"#utility.yul\":3420:3786   */\n    tag_148:\n        /* \"#utility.yul\":3562:3565   */\n      0x00\n        /* \"#utility.yul\":3583:3650   */\n      tag_150\n        /* \"#utility.yul\":3647:3649   */\n      0x1c\n        /* \"#utility.yul\":3642:3645   */\n      dup4\n        /* \"#utility.yul\":3583:3650   */\n      tag_138\n      jump\t// in\n    tag_150:\n        /* \"#utility.yul\":3576:3650   */\n      swap2\n      pop\n        /* \"#utility.yul\":3659:3752   */\n      tag_151\n        /* \"#utility.yul\":3748:3751   */\n      dup3\n        /* \"#utility.yul\":3659:3752   */\n      tag_152\n      jump\t// in\n    tag_151:\n        /* \"#utility.yul\":3777:3779   */\n      0x20\n        /* \"#utility.yul\":3772:3775   */\n      dup3\n        /* \"#utility.yul\":3768:3780   */\n      add\n        /* \"#utility.yul\":3761:3780   */\n      swap1\n      pop\n        /* \"#utility.yul\":3420:3786   */\n      swap2\n      swap1\n      pop\n      jump\t// out\n        /* \"#utility.yul\":3792:4158   */\n    tag_153:\n        /* \"#utility.yul\":3934:3937   */\n      0x00\n        /* \"#utility.yul\":3955:4022   */\n      tag_155\n        /* \"#utility.yul\":4019:4021   */\n      0x24\n        /* \"#utility.yul\":4014:4017   */\n      dup4\n        /* \"#utility.yul\":3955:4022   */\n      tag_138\n      jump\t// in\n    tag_155:\n        /* \"#utility.yul\":3948:4022   */\n      swap2\n      pop\n        /* \"#utility.yul\":4031:4124   */\n      tag_156\n        /* \"#utility.yul\":4120:4123   */\n      dup3\n        /* \"#utility.yul\":4031:4124   */\n      tag_157\n      jump\t// in\n    tag_156:\n        /* \"#utility.yul\":4149:4151   */\n      0x40\n        /* \"#utility.yul\":4144:4147   */\n      dup3\n        /* \"#utility.yul\":4140:4152   */\n      add\n        /* \"#utility.yul\":4133:4152   */\n      swap1\n      pop\n        /* \"#utility.yul\":3792:4158   */\n      swap2\n      swap1\n      pop\n      jump\t// out\n        /* \"#utility.yul\":4164:4530   */\n    tag_158:\n        /* \"#utility.yul\":4306:4309   */\n      0x00\n        /* \"#utility.yul\":4327:4394   */\n      tag_160\n        /* \"#utility.yul\":4391:4393   */\n      0x24\n        /* \"#utility.yul\":4386:4389   */\n      dup4\n        /* \"#utility.yul\":4327:4394   */\n      tag_138\n      jump\t// in\n    tag_160:\n        /* \"#utility.yul\":4320:4394   */\n      swap2\n      pop\n        /* \"#utility.yul\":4403:4496   */\n      tag_161\n        /* \"#utility.yul\":4492:4495   */\n      dup3\n        /* \"#utility.yul\":4403:4496   */\n      tag_162\n      jump\t// in\n    tag_161:\n        /* \"#utility.yul\":4521:4523   */\n      0x40\n        /* \"#utility.yul\":4516:4519   */\n      dup3\n        /* \"#utility.yul\":4512:4524   */\n      add\n        /* \"#utility.yul\":4505:4524   */\n      swap1\n      pop\n        /* \"#utility.yul\":4164:4530   */\n      swap2\n      swap1\n      pop\n      jump\t// out\n        /* \"#utility.yul\":4536:4902   */\n    tag_163:\n        /* \"#utility.yul\":4678:4681   */\n      0x00\n        /* \"#utility.yul\":4699:4766   */\n      tag_165\n        /* \"#utility.yul\":4763:4765   */\n      0x2e\n        /* \"#utility.yul\":4758:4761   */\n      dup4\n        /* \"#utility.yul\":4699:4766   */\n      tag_138\n      jump\t// in\n    tag_165:\n        /* \"#utility.yul\":4692:4766   */\n      swap2\n      pop\n        /* \"#utility.yul\":4775:4868   */\n      tag_166\n        /* \"#utility.yul\":4864:4867   */\n      dup3\n        /* \"#utility.yul\":4775:4868   */\n      tag_167\n      jump\t// in\n    tag_166:\n        /* \"#utility.yul\":4893:4895   */\n      0x40\n        /* \"#utility.yul\":4888:4891   */\n      dup3\n        /* \"#utility.yul\":4884:4896   */\n      add\n        /* \"#utility.yul\":4877:4896   */\n      swap1\n      pop\n        /* \"#utility.yul\":4536:4902   */\n      swap2\n      swap1\n      pop\n      jump\t// out\n        /* \"#utility.yul\":4908:5026   */\n    tag_168:\n        /* \"#utility.yul\":4995:5019   */\n      tag_170\n        /* \"#utility.yul\":5013:5018   */\n      dup2\n        /* \"#utility.yul\":4995:5019   */\n      tag_171\n      jump\t// in\n    tag_170:\n        /* \"#utility.yul\":4990:4993   */\n      dup3\n        /* \"#utility.yul\":4983:5020   */\n      mstore\n        /* \"#utility.yul\":4908:5026   */\n      pop\n      pop\n      jump\t// out\n        /* \"#utility.yul\":5032:5266   */\n    tag_21:\n        /* \"#utility.yul\":5131:5135   */\n      0x00\n        /* \"#utility.yul\":5169:5171   */\n      0x20\n        /* \"#utility.yul\":5158:5167   */\n      dup3\n        /* \"#utility.yul\":5154:5172   */\n      add\n        /* \"#utility.yul\":5146:5172   */\n      swap1\n      pop\n        /* \"#utility.yul\":5182:5259   */\n      tag_173\n        /* \"#utility.yul\":5256:5257   */\n      0x00\n        /* \"#utility.yul\":5245:5254   */\n      dup4\n        /* \"#utility.yul\":5241:5258   */\n      add\n        /* \"#utility.yul\":5232:5238   */\n      dup5\n        /* \"#utility.yul\":5182:5259   */\n      tag_129\n      jump\t// in\n    tag_173:\n        /* \"#utility.yul\":5032:5266   */\n      swap3\n      swap2\n      pop\n      pop\n      jump\t// out\n        /* \"#utility.yul\":5272:5707   */\n    tag_12:\n        /* \"#utility.yul\":5419:5423   */\n      0x00\n        /* \"#utility.yul\":5457:5459   */\n      0x40\n        /* \"#utility.yul\":5446:5455   */\n      dup3\n        /* \"#utility.yul\":5442:5460   */\n      add\n        /* \"#utility.yul\":5434:5460   */\n      swap1\n      pop\n        /* \"#utility.yul\":5470:5547   */\n      tag_175\n        /* \"#utility.yul\":5544:5545   */\n      0x00\n        /* \"#utility.yul\":5533:5542   */\n      dup4\n        /* \"#utility.yul\":5529:5546   */\n      add\n        /* \"#utility.yul\":5520:5526   */\n      dup6\n        /* \"#utility.yul\":5470:5547   */\n      tag_129\n      jump\t// in\n    tag_175:\n        /* \"#utility.yul\":5594:5603   */\n      dup2\n        /* \"#utility.yul\":5588:5592   */\n      dup2\n        /* \"#utility.yul\":5584:5604   */\n      sub\n        /* \"#utility.yul\":5579:5581   */\n      0x20\n        /* \"#utility.yul\":5568:5577   */\n      dup4\n        /* \"#utility.yul\":5564:5582   */\n      add\n        /* \"#utility.yul\":5557:5605   */\n      mstore\n        /* \"#utility.yul\":5622:5700   */\n      tag_176\n        /* \"#utility.yul\":5695:5699   */\n      dup2\n        /* \"#utility.yul\":5686:5692   */\n      dup5\n        /* \"#utility.yul\":5622:5700   */\n      tag_133\n      jump\t// in\n    tag_176:\n        /* \"#utility.yul\":5614:5700   */\n      swap1\n      pop\n        /* \"#utility.yul\":5272:5707   */\n      swap4\n      swap3\n      pop\n      pop\n      pop\n      jump\t// out\n        /* \"#utility.yul\":5713:6254   */\n    tag_47:\n        /* \"#utility.yul\":5913:5917   */\n      0x00\n        /* \"#utility.yul\":5951:5953   */\n      0x40\n        /* \"#utility.yul\":5940:5949   */\n      dup3\n        /* \"#utility.yul\":5936:5954   */\n      add\n        /* \"#utility.yul\":5928:5954   */\n      swap1\n      pop\n        /* \"#utility.yul\":5964:6041   */\n      tag_178\n        /* \"#utility.yul\":6038:6039   */\n      0x00\n        /* \"#utility.yul\":6027:6036   */\n      dup4\n        /* \"#utility.yul\":6023:6040   */\n      add\n        /* \"#utility.yul\":6014:6020   */\n      dup5\n        /* \"#utility.yul\":5964:6041   */\n      tag_129\n      jump\t// in\n    tag_178:\n        /* \"#utility.yul\":6088:6097   */\n      dup2\n        /* \"#utility.yul\":6082:6086   */\n      dup2\n        /* \"#utility.yul\":6078:6098   */\n      sub\n        /* \"#utility.yul\":6073:6075   */\n      0x20\n        /* \"#utility.yul\":6062:6071   */\n      dup4\n        /* \"#utility.yul\":6058:6076   */\n      add\n        /* \"#utility.yul\":6051:6099   */\n      mstore\n        /* \"#utility.yul\":6116:6247   */\n      tag_179\n        /* \"#utility.yul\":6242:6246   */\n      dup2\n        /* \"#utility.yul\":6116:6247   */\n      tag_143\n      jump\t// in\n    tag_179:\n        /* \"#utility.yul\":6108:6247   */\n      swap1\n      pop\n        /* \"#utility.yul\":5713:6254   */\n      swap3\n      swap2\n      pop\n      pop\n      jump\t// out\n        /* \"#utility.yul\":6260:7224   */\n    tag_74:\n        /* \"#utility.yul\":6564:6568   */\n      0x00\n        /* \"#utility.yul\":6602:6605   */\n      0xa0\n        /* \"#utility.yul\":6591:6600   */\n      dup3\n        /* \"#utility.yul\":6587:6606   */\n      add\n        /* \"#utility.yul\":6579:6606   */\n      swap1\n      pop\n        /* \"#utility.yul\":6652:6661   */\n      dup2\n        /* \"#utility.yul\":6646:6650   */\n      dup2\n        /* \"#utility.yul\":6642:6662   */\n      sub\n        /* \"#utility.yul\":6638:6639   */\n      0x00\n        /* \"#utility.yul\":6627:6636   */\n      dup4\n        /* \"#utility.yul\":6623:6640   */\n      add\n        /* \"#utility.yul\":6616:6663   */\n      mstore\n        /* \"#utility.yul\":6680:6811   */\n      tag_181\n        /* \"#utility.yul\":6806:6810   */\n      dup2\n        /* \"#utility.yul\":6680:6811   */\n      tag_148\n      jump\t// in\n    tag_181:\n        /* \"#utility.yul\":6672:6811   */\n      swap1\n      pop\n        /* \"#utility.yul\":6821:6893   */\n      tag_182\n        /* \"#utility.yul\":6889:6891   */\n      0x20\n        /* \"#utility.yul\":6878:6887   */\n      dup4\n        /* \"#utility.yul\":6874:6892   */\n      add\n        /* \"#utility.yul\":6865:6871   */\n      dup8\n        /* \"#utility.yul\":6821:6893   */\n      tag_125\n      jump\t// in\n    tag_182:\n        /* \"#utility.yul\":6903:6975   */\n      tag_183\n        /* \"#utility.yul\":6971:6973   */\n      0x40\n        /* \"#utility.yul\":6960:6969   */\n      dup4\n        /* \"#utility.yul\":6956:6974   */\n      add\n        /* \"#utility.yul\":6947:6953   */\n      dup7\n        /* \"#utility.yul\":6903:6975   */\n      tag_168\n      jump\t// in\n    tag_183:\n        /* \"#utility.yul\":6985:7063   */\n      tag_184\n        /* \"#utility.yul\":7059:7061   */\n      0x60\n        /* \"#utility.yul\":7048:7057   */\n      dup4\n        /* \"#utility.yul\":7044:7062   */\n      add\n        /* \"#utility.yul\":7035:7041   */\n      dup6\n        /* \"#utility.yul\":6985:7063   */\n      tag_129\n      jump\t// in\n    tag_184:\n        /* \"#utility.yul\":7111:7120   */\n      dup2\n        /* \"#utility.yul\":7105:7109   */\n      dup2\n        /* \"#utility.yul\":7101:7121   */\n      sub\n        /* \"#utility.yul\":7095:7098   */\n      0x80\n        /* \"#utility.yul\":7084:7093   */\n      dup4\n        /* \"#utility.yul\":7080:7099   */\n      add\n        /* \"#utility.yul\":7073:7122   */\n      mstore\n        /* \"#utility.yul\":7139:7217   */\n      tag_185\n        /* \"#utility.yul\":7212:7216   */\n      dup2\n        /* \"#utility.yul\":7203:7209   */\n      dup5\n        /* \"#utility.yul\":7139:7217   */\n      tag_133\n      jump\t// in\n    tag_185:\n        /* \"#utility.yul\":7131:7217   */\n      swap1\n      pop\n        /* \"#utility.yul\":6260:7224   */\n      swap6\n      swap5\n      pop\n      pop\n      pop\n      pop\n      pop\n      jump\t// out\n        /* \"#utility.yul\":7230:7649   */\n    tag_51:\n        /* \"#utility.yul\":7396:7400   */\n      0x00\n        /* \"#utility.yul\":7434:7436   */\n      0x20\n        /* \"#utility.yul\":7423:7432   */\n      dup3\n        /* \"#utility.yul\":7419:7437   */\n      add\n        /* \"#utility.yul\":7411:7437   */\n      swap1\n      pop\n        /* \"#utility.yul\":7483:7492   */\n      dup2\n        /* \"#utility.yul\":7477:7481   */\n      dup2\n        /* \"#utility.yul\":7473:7493   */\n      sub\n        /* \"#utility.yul\":7469:7470   */\n      0x00\n        /* \"#utility.yul\":7458:7467   */\n      dup4\n        /* \"#utility.yul\":7454:7471   */\n      add\n        /* \"#utility.yul\":7447:7494   */\n      mstore\n        /* \"#utility.yul\":7511:7642   */\n      tag_187\n        /* \"#utility.yul\":7637:7641   */\n      dup2\n        /* \"#utility.yul\":7511:7642   */\n      tag_153\n      jump\t// in\n    tag_187:\n        /* \"#utility.yul\":7503:7642   */\n      swap1\n      pop\n        /* \"#utility.yul\":7230:7649   */\n      swap2\n      swap1\n      pop\n      jump\t// out\n        /* \"#utility.yul\":7655:8074   */\n    tag_37:\n        /* \"#utility.yul\":7821:7825   */\n      0x00\n        /* \"#utility.yul\":7859:7861   */\n      0x20\n        /* \"#utility.yul\":7848:7857   */\n      dup3\n        /* \"#utility.yul\":7844:7862   */\n      add\n        /* \"#utility.yul\":7836:7862   */\n      swap1\n      pop\n        /* \"#utility.yul\":7908:7917   */\n      dup2\n        /* \"#utility.yul\":7902:7906   */\n      dup2\n        /* \"#utility.yul\":7898:7918   */\n      sub\n        /* \"#utility.yul\":7894:7895   */\n      0x00\n        /* \"#utility.yul\":7883:7892   */\n      dup4\n        /* \"#utility.yul\":7879:7896   */\n      add\n        /* \"#utility.yul\":7872:7919   */\n      mstore\n        /* \"#utility.yul\":7936:8067   */\n      tag_189\n        /* \"#utility.yul\":8062:8066   */\n      dup2\n        /* \"#utility.yul\":7936:8067   */\n      tag_158\n      jump\t// in\n    tag_189:\n        /* \"#utility.yul\":7928:8067   */\n      swap1\n      pop\n        /* \"#utility.yul\":7655:8074   */\n      swap2\n      swap1\n      pop\n      jump\t// out\n        /* \"#utility.yul\":8080:8499   */\n    tag_64:\n        /* \"#utility.yul\":8246:8250   */\n      0x00\n        /* \"#utility.yul\":8284:8286   */\n      0x20\n        /* \"#utility.yul\":8273:8282   */\n      dup3\n        /* \"#utility.yul\":8269:8287   */\n      add\n        /* \"#utility.yul\":8261:8287   */\n      swap1\n      pop\n        /* \"#utility.yul\":8333:8342   */\n      dup2\n        /* \"#utility.yul\":8327:8331   */\n      dup2\n        /* \"#utility.yul\":8323:8343   */\n      sub\n        /* \"#utility.yul\":8319:8320   */\n      0x00\n        /* \"#utility.yul\":8308:8317   */\n      dup4\n        /* \"#utility.yul\":8304:8321   */\n      add\n        /* \"#utility.yul\":8297:8344   */\n      mstore\n        /* \"#utility.yul\":8361:8492   */\n      tag_191\n        /* \"#utility.yul\":8487:8491   */\n      dup2\n        /* \"#utility.yul\":8361:8492   */\n      tag_163\n      jump\t// in\n    tag_191:\n        /* \"#utility.yul\":8353:8492   */\n      swap1\n      pop\n        /* \"#utility.yul\":8080:8499   */\n      swap2\n      swap1\n      pop\n      jump\t// out\n        /* \"#utility.yul\":8505:8634   */\n    tag_91:\n        /* \"#utility.yul\":8539:8545   */\n      0x00\n        /* \"#utility.yul\":8566:8586   */\n      tag_193\n      tag_194\n      jump\t// in\n    tag_193:\n        /* \"#utility.yul\":8556:8586   */\n      swap1\n      pop\n        /* \"#utility.yul\":8595:8628   */\n      tag_195\n        /* \"#utility.yul\":8623:8627   */\n      dup3\n        /* \"#utility.yul\":8615:8621   */\n      dup3\n        /* \"#utility.yul\":8595:8628   */\n      tag_196\n      jump\t// in\n    tag_195:\n        /* \"#utility.yul\":8505:8634   */\n      swap2\n      swap1\n      pop\n      jump\t// out\n        /* \"#utility.yul\":8640:8715   */\n    tag_194:\n        /* \"#utility.yul\":8673:8679   */\n      0x00\n        /* \"#utility.yul\":8706:8708   */\n      0x40\n        /* \"#utility.yul\":8700:8709   */\n      mload\n        /* \"#utility.yul\":8690:8709   */\n      swap1\n      pop\n        /* \"#utility.yul\":8640:8715   */\n      swap1\n      jump\t// out\n        /* \"#utility.yul\":8721:9029   */\n    tag_90:\n        /* \"#utility.yul\":8783:8787   */\n      0x00\n        /* \"#utility.yul\":8873:8891   */\n      0xffffffffffffffff\n        /* \"#utility.yul\":8865:8871   */\n      dup3\n        /* \"#utility.yul\":8862:8892   */\n      gt\n        /* \"#utility.yul\":8859:8915   */\n      iszero\n      tag_199\n      jumpi\n        /* \"#utility.yul\":8895:8913   */\n      tag_200\n      tag_201\n      jump\t// in\n    tag_200:\n        /* \"#utility.yul\":8859:8915   */\n    tag_199:\n        /* \"#utility.yul\":8933:8962   */\n      tag_202\n        /* \"#utility.yul\":8955:8961   */\n      dup3\n        /* \"#utility.yul\":8933:8962   */\n      tag_142\n      jump\t// in\n    tag_202:\n        /* \"#utility.yul\":8925:8962   */\n      swap1\n      pop\n        /* \"#utility.yul\":9017:9021   */\n      0x20\n        /* \"#utility.yul\":9011:9015   */\n      dup2\n        /* \"#utility.yul\":9007:9022   */\n      add\n        /* \"#utility.yul\":8999:9022   */\n      swap1\n      pop\n        /* \"#utility.yul\":8721:9029   */\n      swap2\n      swap1\n      pop\n      jump\t// out\n        /* \"#utility.yul\":9035:9134   */\n    tag_136:\n        /* \"#utility.yul\":9087:9093   */\n      0x00\n        /* \"#utility.yul\":9121:9126   */\n      dup2\n        /* \"#utility.yul\":9115:9127   */\n      mload\n        /* \"#utility.yul\":9105:9127   */\n      swap1\n      pop\n        /* \"#utility.yul\":9035:9134   */\n      swap2\n      swap1\n      pop\n      jump\t// out\n        /* \"#utility.yul\":9140:9309   */\n    tag_138:\n        /* \"#utility.yul\":9224:9235   */\n      0x00\n        /* \"#utility.yul\":9258:9264   */\n      dup3\n        /* \"#utility.yul\":9253:9256   */\n      dup3\n        /* \"#utility.yul\":9246:9265   */\n      mstore\n        /* \"#utility.yul\":9298:9302   */\n      0x20\n        /* \"#utility.yul\":9293:9296   */\n      dup3\n        /* \"#utility.yul\":9289:9303   */\n      add\n        /* \"#utility.yul\":9274:9303   */\n      swap1\n      pop\n        /* \"#utility.yul\":9140:9309   */\n      swap3\n      swap2\n      pop\n      pop\n      jump\t// out\n        /* \"#utility.yul\":9315:9506   */\n    tag_53:\n        /* \"#utility.yul\":9355:9359   */\n      0x00\n        /* \"#utility.yul\":9375:9395   */\n      tag_206\n        /* \"#utility.yul\":9393:9394   */\n      dup3\n        /* \"#utility.yul\":9375:9395   */\n      tag_171\n      jump\t// in\n    tag_206:\n        /* \"#utility.yul\":9370:9395   */\n      swap2\n      pop\n        /* \"#utility.yul\":9409:9429   */\n      tag_207\n        /* \"#utility.yul\":9427:9428   */\n      dup4\n        /* \"#utility.yul\":9409:9429   */\n      tag_171\n      jump\t// in\n    tag_207:\n        /* \"#utility.yul\":9404:9429   */\n      swap3\n      pop\n        /* \"#utility.yul\":9448:9449   */\n      dup3\n        /* \"#utility.yul\":9445:9446   */\n      dup3\n        /* \"#utility.yul\":9442:9450   */\n      lt\n        /* \"#utility.yul\":9439:9473   */\n      iszero\n      tag_208\n      jumpi\n        /* \"#utility.yul\":9453:9471   */\n      tag_209\n      tag_210\n      jump\t// in\n    tag_209:\n        /* \"#utility.yul\":9439:9473   */\n    tag_208:\n        /* \"#utility.yul\":9498:9499   */\n      dup3\n        /* \"#utility.yul\":9495:9496   */\n      dup3\n        /* \"#utility.yul\":9491:9500   */\n      sub\n        /* \"#utility.yul\":9483:9500   */\n      swap1\n      pop\n        /* \"#utility.yul\":9315:9506   */\n      swap3\n      swap2\n      pop\n      pop\n      jump\t// out\n        /* \"#utility.yul\":9512:9608   */\n    tag_128:\n        /* \"#utility.yul\":9549:9556   */\n      0x00\n        /* \"#utility.yul\":9578:9602   */\n      tag_212\n        /* \"#utility.yul\":9596:9601   */\n      dup3\n        /* \"#utility.yul\":9578:9602   */\n      tag_213\n      jump\t// in\n    tag_212:\n        /* \"#utility.yul\":9567:9602   */\n      swap1\n      pop\n        /* \"#utility.yul\":9512:9608   */\n      swap2\n      swap1\n      pop\n      jump\t// out\n        /* \"#utility.yul\":9614:9741   */\n    tag_214:\n        /* \"#utility.yul\":9659:9666   */\n      0x00\n        /* \"#utility.yul\":9688:9693   */\n      dup2\n        /* \"#utility.yul\":9677:9693   */\n      swap1\n      pop\n        /* \"#utility.yul\":9694:9735   */\n      tag_216\n        /* \"#utility.yul\":9729:9734   */\n      dup3\n        /* \"#utility.yul\":9694:9735   */\n      tag_217\n      jump\t// in\n    tag_216:\n        /* \"#utility.yul\":9614:9741   */\n      swap2\n      swap1\n      pop\n      jump\t// out\n        /* \"#utility.yul\":9747:9873   */\n    tag_213:\n        /* \"#utility.yul\":9784:9791   */\n      0x00\n        /* \"#utility.yul\":9824:9866   */\n      0xffffffffffffffffffffffffffffffffffffffff\n        /* \"#utility.yul\":9817:9822   */\n      dup3\n        /* \"#utility.yul\":9813:9867   */\n      and\n        /* \"#utility.yul\":9802:9867   */\n      swap1\n      pop\n        /* \"#utility.yul\":9747:9873   */\n      swap2\n      swap1\n      pop\n      jump\t// out\n        /* \"#utility.yul\":9879:9956   */\n    tag_171:\n        /* \"#utility.yul\":9916:9923   */\n      0x00\n        /* \"#utility.yul\":9945:9950   */\n      dup2\n        /* \"#utility.yul\":9934:9950   */\n      swap1\n      pop\n        /* \"#utility.yul\":9879:9956   */\n      swap2\n      swap1\n      pop\n      jump\t// out\n        /* \"#utility.yul\":9962:10089   */\n    tag_132:\n        /* \"#utility.yul\":10018:10027   */\n      0x00\n        /* \"#utility.yul\":10051:10083   */\n      tag_221\n        /* \"#utility.yul\":10077:10082   */\n      dup3\n        /* \"#utility.yul\":10051:10083   */\n      tag_214\n      jump\t// in\n    tag_221:\n        /* \"#utility.yul\":10038:10083   */\n      swap1\n      pop\n        /* \"#utility.yul\":9962:10089   */\n      swap2\n      swap1\n      pop\n      jump\t// out\n        /* \"#utility.yul\":10095:10249   */\n    tag_96:\n        /* \"#utility.yul\":10179:10185   */\n      dup3\n        /* \"#utility.yul\":10174:10177   */\n      dup2\n        /* \"#utility.yul\":10169:10172   */\n      dup4\n        /* \"#utility.yul\":10156:10186   */\n      calldatacopy\n        /* \"#utility.yul\":10241:10242   */\n      0x00\n        /* \"#utility.yul\":10232:10238   */\n      dup4\n        /* \"#utility.yul\":10227:10230   */\n      dup4\n        /* \"#utility.yul\":10223:10239   */\n      add\n        /* \"#utility.yul\":10216:10243   */\n      mstore\n        /* \"#utility.yul\":10095:10249   */\n      pop\n      pop\n      pop\n      jump\t// out\n        /* \"#utility.yul\":10255:10562   */\n    tag_140:\n        /* \"#utility.yul\":10323:10324   */\n      0x00\n        /* \"#utility.yul\":10333:10446   */\n    tag_224:\n        /* \"#utility.yul\":10347:10353   */\n      dup4\n        /* \"#utility.yul\":10344:10345   */\n      dup2\n        /* \"#utility.yul\":10341:10354   */\n      lt\n        /* \"#utility.yul\":10333:10446   */\n      iszero\n      tag_226\n      jumpi\n        /* \"#utility.yul\":10432:10433   */\n      dup1\n        /* \"#utility.yul\":10427:10430   */\n      dup3\n        /* \"#utility.yul\":10423:10434   */\n      add\n        /* \"#utility.yul\":10417:10435   */\n      mload\n        /* \"#utility.yul\":10413:10414   */\n      dup2\n        /* \"#utility.yul\":10408:10411   */\n      dup5\n        /* \"#utility.yul\":10404:10415   */\n      add\n        /* \"#utility.yul\":10397:10436   */\n      mstore\n        /* \"#utility.yul\":10369:10371   */\n      0x20\n        /* \"#utility.yul\":10366:10367   */\n      dup2\n        /* \"#utility.yul\":10362:10372   */\n      add\n        /* \"#utility.yul\":10357:10372   */\n      swap1\n      pop\n        /* \"#utility.yul\":10333:10446   */\n      jump(tag_224)\n    tag_226:\n        /* \"#utility.yul\":10464:10470   */\n      dup4\n        /* \"#utility.yul\":10461:10462   */\n      dup2\n        /* \"#utility.yul\":10458:10471   */\n      gt\n        /* \"#utility.yul\":10455:10556   */\n      iszero\n      tag_227\n      jumpi\n        /* \"#utility.yul\":10544:10545   */\n      0x00\n        /* \"#utility.yul\":10535:10541   */\n      dup5\n        /* \"#utility.yul\":10530:10533   */\n      dup5\n        /* \"#utility.yul\":10526:10542   */\n      add\n        /* \"#utility.yul\":10519:10546   */\n      mstore\n        /* \"#utility.yul\":10455:10556   */\n    tag_227:\n        /* \"#utility.yul\":10304:10562   */\n      pop\n        /* \"#utility.yul\":10255:10562   */\n      pop\n      pop\n      pop\n      jump\t// out\n        /* \"#utility.yul\":10568:10888   */\n    tag_29:\n        /* \"#utility.yul\":10612:10618   */\n      0x00\n        /* \"#utility.yul\":10649:10650   */\n      0x02\n        /* \"#utility.yul\":10643:10647   */\n      dup3\n        /* \"#utility.yul\":10639:10651   */\n      div\n        /* \"#utility.yul\":10629:10651   */\n      swap1\n      pop\n        /* \"#utility.yul\":10696:10697   */\n      0x01\n        /* \"#utility.yul\":10690:10694   */\n      dup3\n        /* \"#utility.yul\":10686:10698   */\n      and\n        /* \"#utility.yul\":10717:10735   */\n      dup1\n        /* \"#utility.yul\":10707:10788   */\n      tag_229\n      jumpi\n        /* \"#utility.yul\":10773:10777   */\n      0x7f\n        /* \"#utility.yul\":10765:10771   */\n      dup3\n        /* \"#utility.yul\":10761:10778   */\n      and\n        /* \"#utility.yul\":10751:10778   */\n      swap2\n      pop\n        /* \"#utility.yul\":10707:10788   */\n    tag_229:\n        /* \"#utility.yul\":10835:10837   */\n      0x20\n        /* \"#utility.yul\":10827:10833   */\n      dup3\n        /* \"#utility.yul\":10824:10838   */\n      lt\n        /* \"#utility.yul\":10804:10822   */\n      dup2\n        /* \"#utility.yul\":10801:10839   */\n      eq\n        /* \"#utility.yul\":10798:10882   */\n      iszero\n      tag_230\n      jumpi\n        /* \"#utility.yul\":10854:10872   */\n      tag_231\n      tag_232\n      jump\t// in\n    tag_231:\n        /* \"#utility.yul\":10798:10882   */\n    tag_230:\n        /* \"#utility.yul\":10619:10888   */\n      pop\n        /* \"#utility.yul\":10568:10888   */\n      swap2\n      swap1\n      pop\n      jump\t// out\n        /* \"#utility.yul\":10894:11175   */\n    tag_196:\n        /* \"#utility.yul\":10977:11004   */\n      tag_234\n        /* \"#utility.yul\":10999:11003   */\n      dup3\n        /* \"#utility.yul\":10977:11004   */\n      tag_142\n      jump\t// in\n    tag_234:\n        /* \"#utility.yul\":10969:10975   */\n      dup2\n        /* \"#utility.yul\":10965:11005   */\n      add\n        /* \"#utility.yul\":11107:11113   */\n      dup2\n        /* \"#utility.yul\":11095:11105   */\n      dup2\n        /* \"#utility.yul\":11092:11114   */\n      lt\n        /* \"#utility.yul\":11071:11089   */\n      0xffffffffffffffff\n        /* \"#utility.yul\":11059:11069   */\n      dup3\n        /* \"#utility.yul\":11056:11090   */\n      gt\n        /* \"#utility.yul\":11053:11115   */\n      or\n        /* \"#utility.yul\":11050:11138   */\n      iszero\n      tag_235\n      jumpi\n        /* \"#utility.yul\":11118:11136   */\n      tag_236\n      tag_201\n      jump\t// in\n    tag_236:\n        /* \"#utility.yul\":11050:11138   */\n    tag_235:\n        /* \"#utility.yul\":11158:11168   */\n      dup1\n        /* \"#utility.yul\":11154:11156   */\n      0x40\n        /* \"#utility.yul\":11147:11169   */\n      mstore\n        /* \"#utility.yul\":10937:11175   */\n      pop\n        /* \"#utility.yul\":10894:11175   */\n      pop\n      pop\n      jump\t// out\n        /* \"#utility.yul\":11181:11361   */\n    tag_210:\n        /* \"#utility.yul\":11229:11306   */\n      0x4e487b7100000000000000000000000000000000000000000000000000000000\n        /* \"#utility.yul\":11226:11227   */\n      0x00\n        /* \"#utility.yul\":11219:11307   */\n      mstore\n        /* \"#utility.yul\":11326:11330   */\n      0x11\n        /* \"#utility.yul\":11323:11324   */\n      0x04\n        /* \"#utility.yul\":11316:11331   */\n      mstore\n        /* \"#utility.yul\":11350:11354   */\n      0x24\n        /* \"#utility.yul\":11347:11348   */\n      0x00\n        /* \"#utility.yul\":11340:11355   */\n      revert\n        /* \"#utility.yul\":11367:11547   */\n    tag_40:\n        /* \"#utility.yul\":11415:11492   */\n      0x4e487b7100000000000000000000000000000000000000000000000000000000\n        /* \"#utility.yul\":11412:11413   */\n      0x00\n        /* \"#utility.yul\":11405:11493   */\n      mstore\n        /* \"#utility.yul\":11512:11516   */\n      0x21\n        /* \"#utility.yul\":11509:11510   */\n      0x04\n        /* \"#utility.yul\":11502:11517   */\n      mstore\n        /* \"#utility.yul\":11536:11540   */\n      0x24\n        /* \"#utility.yul\":11533:11534   */\n      0x00\n        /* \"#utility.yul\":11526:11541   */\n      revert\n        /* \"#utility.yul\":11553:11733   */\n    tag_232:\n        /* \"#utility.yul\":11601:11678   */\n      0x4e487b7100000000000000000000000000000000000000000000000000000000\n        /* \"#utility.yul\":11598:11599   */\n      0x00\n        /* \"#utility.yul\":11591:11679   */\n      mstore\n        /* \"#utility.yul\":11698:11702   */\n      0x22\n        /* \"#utility.yul\":11695:11696   */\n      0x04\n        /* \"#utility.yul\":11688:11703   */\n      mstore\n        /* \"#utility.yul\":11722:11726   */\n      0x24\n        /* \"#utility.yul\":11719:11720   */\n      0x00\n        /* \"#utility.yul\":11712:11727   */\n      revert\n        /* \"#utility.yul\":11739:11919   */\n    tag_201:\n        /* \"#utility.yul\":11787:11864   */\n      0x4e487b7100000000000000000000000000000000000000000000000000000000\n        /* \"#utility.yul\":11784:11785   */\n      0x00\n        /* \"#utility.yul\":11777:11865   */\n      mstore\n        /* \"#utility.yul\":11884:11888   */\n      0x41\n        /* \"#utility.yul\":11881:11882   */\n      0x04\n        /* \"#utility.yul\":11874:11889   */\n      mstore\n        /* \"#utility.yul\":11908:11912   */\n      0x24\n        /* \"#utility.yul\":11905:11906   */\n      0x00\n        /* \"#utility.yul\":11898:11913   */\n      revert\n        /* \"#utility.yul\":11925:12042   */\n    tag_101:\n        /* \"#utility.yul\":12034:12035   */\n      0x00\n        /* \"#utility.yul\":12031:12032   */\n      dup1\n        /* \"#utility.yul\":12024:12036   */\n      revert\n        /* \"#utility.yul\":12048:12165   */\n    tag_94:\n        /* \"#utility.yul\":12157:12158   */\n      0x00\n        /* \"#utility.yul\":12154:12155   */\n      dup1\n        /* \"#utility.yul\":12147:12159   */\n      revert\n        /* \"#utility.yul\":12171:12288   */\n    tag_118:\n        /* \"#utility.yul\":12280:12281   */\n      0x00\n        /* \"#utility.yul\":12277:12278   */\n      dup1\n        /* \"#utility.yul\":12270:12282   */\n      revert\n        /* \"#utility.yul\":12294:12411   */\n    tag_110:\n        /* \"#utility.yul\":12403:12404   */\n      0x00\n        /* \"#utility.yul\":12400:12401   */\n      dup1\n        /* \"#utility.yul\":12393:12405   */\n      revert\n        /* \"#utility.yul\":12417:12519   */\n    tag_142:\n        /* \"#utility.yul\":12458:12464   */\n      0x00\n        /* \"#utility.yul\":12509:12511   */\n      0x1f\n        /* \"#utility.yul\":12505:12512   */\n      not\n        /* \"#utility.yul\":12500:12502   */\n      0x1f\n        /* \"#utility.yul\":12493:12498   */\n      dup4\n        /* \"#utility.yul\":12489:12503   */\n      add\n        /* \"#utility.yul\":12485:12513   */\n      and\n        /* \"#utility.yul\":12475:12513   */\n      swap1\n      pop\n        /* \"#utility.yul\":12417:12519   */\n      swap2\n      swap1\n      pop\n      jump\t// out\n        /* \"#utility.yul\":12525:12745   */\n    tag_147:\n        /* \"#utility.yul\":12665:12699   */\n      0x4c6f74652d436f6469676f2049642064652070726f647563746f206372656164\n        /* \"#utility.yul\":12661:12662   */\n      0x00\n        /* \"#utility.yul\":12653:12659   */\n      dup3\n        /* \"#utility.yul\":12649:12663   */\n      add\n        /* \"#utility.yul\":12642:12700   */\n      mstore\n        /* \"#utility.yul\":12734:12737   */\n      0x6f00000000000000000000000000000000000000000000000000000000000000\n        /* \"#utility.yul\":12729:12731   */\n      0x20\n        /* \"#utility.yul\":12721:12727   */\n      dup3\n        /* \"#utility.yul\":12717:12732   */\n      add\n        /* \"#utility.yul\":12710:12738   */\n      mstore\n        /* \"#utility.yul\":12525:12745   */\n      pop\n      jump\t// out\n        /* \"#utility.yul\":12751:12929   */\n    tag_152:\n        /* \"#utility.yul\":12891:12921   */\n      0x456c2070726f647563746f2063616d62696f2064652065737461646f00000000\n        /* \"#utility.yul\":12887:12888   */\n      0x00\n        /* \"#utility.yul\":12879:12885   */\n      dup3\n        /* \"#utility.yul\":12875:12889   */\n      add\n        /* \"#utility.yul\":12868:12922   */\n      mstore\n        /* \"#utility.yul\":12751:12929   */\n      pop\n      jump\t// out\n        /* \"#utility.yul\":12935:13158   */\n    tag_157:\n        /* \"#utility.yul\":13075:13109   */\n      0x456c204c6f74652d436f6469676f2064652070726f647563746f204e4f206578\n        /* \"#utility.yul\":13071:13072   */\n      0x00\n        /* \"#utility.yul\":13063:13069   */\n      dup3\n        /* \"#utility.yul\":13059:13073   */\n      add\n        /* \"#utility.yul\":13052:13110   */\n      mstore\n        /* \"#utility.yul\":13144:13150   */\n      0x6973746500000000000000000000000000000000000000000000000000000000\n        /* \"#utility.yul\":13139:13141   */\n      0x20\n        /* \"#utility.yul\":13131:13137   */\n      dup3\n        /* \"#utility.yul\":13127:13142   */\n      add\n        /* \"#utility.yul\":13120:13151   */\n      mstore\n        /* \"#utility.yul\":12935:13158   */\n      pop\n      jump\t// out\n        /* \"#utility.yul\":13164:13387   */\n    tag_162:\n        /* \"#utility.yul\":13304:13338   */\n      0x456c204c6f74652d436f6469676f2064652070726f647563746f207961206578\n        /* \"#utility.yul\":13300:13301   */\n      0x00\n        /* \"#utility.yul\":13292:13298   */\n      dup3\n        /* \"#utility.yul\":13288:13302   */\n      add\n        /* \"#utility.yul\":13281:13339   */\n      mstore\n        /* \"#utility.yul\":13373:13379   */\n      0x6973746500000000000000000000000000000000000000000000000000000000\n        /* \"#utility.yul\":13368:13370   */\n      0x20\n        /* \"#utility.yul\":13360:13366   */\n      dup3\n        /* \"#utility.yul\":13356:13371   */\n      add\n        /* \"#utility.yul\":13349:13380   */\n      mstore\n        /* \"#utility.yul\":13164:13387   */\n      pop\n      jump\t// out\n        /* \"#utility.yul\":13393:13626   */\n    tag_167:\n        /* \"#utility.yul\":13533:13567   */\n      0x7961206e6f20686179206d6173207061736f732c20656c2070726f647563746f\n        /* \"#utility.yul\":13529:13530   */\n      0x00\n        /* \"#utility.yul\":13521:13527   */\n      dup3\n        /* \"#utility.yul\":13517:13531   */\n      add\n        /* \"#utility.yul\":13510:13568   */\n      mstore\n        /* \"#utility.yul\":13602:13618   */\n      0x2066756520656e7472656761646f000000000000000000000000000000000000\n        /* \"#utility.yul\":13597:13599   */\n      0x20\n        /* \"#utility.yul\":13589:13595   */\n      dup3\n        /* \"#utility.yul\":13585:13600   */\n      add\n        /* \"#utility.yul\":13578:13619   */\n      mstore\n        /* \"#utility.yul\":13393:13626   */\n      pop\n      jump\t// out\n        /* \"#utility.yul\":13632:13745   */\n    tag_217:\n        /* \"#utility.yul\":13713:13714   */\n      0x05\n        /* \"#utility.yul\":13706:13711   */\n      dup2\n        /* \"#utility.yul\":13703:13715   */\n      lt\n        /* \"#utility.yul\":13693:13739   */\n      tag_252\n      jumpi\n        /* \"#utility.yul\":13719:13737   */\n      tag_253\n      tag_40\n      jump\t// in\n    tag_253:\n        /* \"#utility.yul\":13693:13739   */\n    tag_252:\n        /* \"#utility.yul\":13632:13745   */\n      pop\n      jump\t// out\n        /* \"#utility.yul\":13751:13873   */\n    tag_106:\n        /* \"#utility.yul\":13824:13848   */\n      tag_255\n        /* \"#utility.yul\":13842:13847   */\n      dup2\n        /* \"#utility.yul\":13824:13848   */\n      tag_171\n      jump\t// in\n    tag_255:\n        /* \"#utility.yul\":13817:13822   */\n      dup2\n        /* \"#utility.yul\":13814:13849   */\n      eq\n        /* \"#utility.yul\":13804:13867   */\n      tag_256\n      jumpi\n        /* \"#utility.yul\":13863:13864   */\n      0x00\n        /* \"#utility.yul\":13860:13861   */\n      dup1\n        /* \"#utility.yul\":13853:13865   */\n      revert\n        /* \"#utility.yul\":13804:13867   */\n    tag_256:\n        /* \"#utility.yul\":13751:13873   */\n      pop\n      jump\t// out\n    stop\n    data_2b9cc2144b2f11c175ecbfac580c2e65cf05b3ef89a0e21fe9807450931771d1 4c6f74652d436f6469676f2049642064652070726f647563746f2063726561646f\n\n    auxdata: 0xa26469706673582212209507941c4ad90a6266f2c1f3e52040d5a080448718d7b119c1869e50f3f788c964736f6c63430008070033\n}\n",
				"bytecode": {
					"linkReferences": {},
					"object": "608060405234801561001057600080fd5b50610e51806100206000396000f3fe608060405234801561001057600080fd5b506004361061004c5760003560e01c8063936892f614610051578063c08e0f9614610082578063c15bbbd01461009e578063db4a7908146100ce575b600080fd5b61006b60048036038101906100669190610750565b6100ea565b6040516100799291906108c0565b60405180910390f35b61009c600480360381019061009791906106c7565b6101c0565b005b6100b860048036038101906100b391906106c7565b61031d565b6040516100c591906108a5565b60405180910390f35b6100e860048036038101906100e391906106f4565b6103b2565b005b6000602052816000526040600020818154811061010657600080fd5b9060005260206000209060020201600091509150508060000160009054906101000a900460ff169080600101805461013d90610b26565b80601f016020809104026020016040519081016040528092919081815260200182805461016990610b26565b80156101b65780601f1061018b576101008083540402835291602001916101b6565b820191906000526020600020905b81548152906001019060200180831161019957829003601f168201915b5050505050905082565b60008060008381526020019081526020016000208054905014610218576040517f08c379a000000000000000000000000000000000000000000000000000000000815260040161020f9061099d565b60405180910390fd5b60008082815260200190815260200160002060405180604001604052806000600481111561024957610248610bb8565b5b8152602001604051806060016040528060218152602001610dfb60219139815250908060018154018082558091505060019003906000526020600020906002020160009091909190915060008201518160000160006101000a81548160ff021916908360048111156102be576102bd610bb8565b5b021790555060208201518160010190805190602001906102df92919061059f565b5050507f5eb9a63a869a92a03b6256b4a442b251cf74b2d386299e41895148fdab0e4094600060405161031291906108f0565b60405180910390a150565b600080600080848152602001908152602001600020805490501415610377576040517f08c379a000000000000000000000000000000000000000000000000000000000815260040161036e9061097d565b60405180910390fd5b6001600080848152602001908152602001600020805490506103999190610a4f565b60048111156103ab576103aa610bb8565b5b9050919050565b600080600084815260200190815260200160002080549050141561040b576040517f08c379a00000000000000000000000000000000000000000000000000000000081526004016104029061097d565b60405180910390fd5b60048081111561041e5761041d610bb8565b5b6001600080858152602001908152602001600020805490506104409190610a4f565b10610480576040517f08c379a0000000000000000000000000000000000000000000000000000000008152600401610477906109bd565b60405180910390fd5b60008060008481526020019081526020016000208054905060048111156104aa576104a9610bb8565b5b905060008084815260200190815260200160002060405180604001604052808360048111156104dc576104db610bb8565b5b815260200184815250908060018154018082558091505060019003906000526020600020906002020160009091909190915060008201518160000160006101000a81548160ff0219169083600481111561053957610538610bb8565b5b0217905550602082015181600101908051906020019061055a92919061059f565b5050507f69473d85141fe924e8deb804a628e89f2c898807c30052dd683f82463f4023f333848385604051610592949392919061091e565b60405180910390a1505050565b8280546105ab90610b26565b90600052602060002090601f0160209004810192826105cd5760008555610614565b82601f106105e657805160ff1916838001178555610614565b82800160010185558215610614579182015b828111156106135782518255916020019190600101906105f8565b5b5090506106219190610625565b5090565b5b8082111561063e576000816000905550600101610626565b5090565b600061065561065084610a02565b6109dd565b90508281526020810184848401111561067157610670610c4a565b5b61067c848285610ae4565b509392505050565b600082601f83011261069957610698610c45565b5b81356106a9848260208601610642565b91505092915050565b6000813590506106c181610de3565b92915050565b6000602082840312156106dd576106dc610c54565b5b60006106eb848285016106b2565b91505092915050565b6000806040838503121561070b5761070a610c54565b5b6000610719858286016106b2565b925050602083013567ffffffffffffffff81111561073a57610739610c4f565b5b61074685828601610684565b9150509250929050565b6000806040838503121561076757610766610c54565b5b6000610775858286016106b2565b9250506020610786858286016106b2565b9150509250929050565b61079981610a83565b82525050565b6107a881610ad2565b82525050565b60006107b982610a33565b6107c38185610a3e565b93506107d3818560208601610af3565b6107dc81610c59565b840191505092915050565b60006107f4602183610a3e565b91506107ff82610c6a565b604082019050919050565b6000610817601c83610a3e565b915061082282610cb9565b602082019050919050565b600061083a602483610a3e565b915061084582610ce2565b604082019050919050565b600061085d602483610a3e565b915061086882610d31565b604082019050919050565b6000610880602e83610a3e565b915061088b82610d80565b604082019050919050565b61089f81610ac8565b82525050565b60006020820190506108ba600083018461079f565b92915050565b60006040820190506108d5600083018561079f565b81810360208301526108e781846107ae565b90509392505050565b6000604082019050610905600083018461079f565b8181036020830152610916816107e7565b905092915050565b600060a08201905081810360008301526109378161080a565b90506109466020830187610790565b6109536040830186610896565b610960606083018561079f565b818103608083015261097281846107ae565b905095945050505050565b600060208201905081810360008301526109968161082d565b9050919050565b600060208201905081810360008301526109b681610850565b9050919050565b600060208201905081810360008301526109d681610873565b9050919050565b60006109e76109f8565b90506109f38282610b58565b919050565b6000604051905090565b600067ffffffffffffffff821115610a1d57610a1c610c16565b5b610a2682610c59565b9050602081019050919050565b600081519050919050565b600082825260208201905092915050565b6000610a5a82610ac8565b9150610a6583610ac8565b925082821015610a7857610a77610b89565b5b828203905092915050565b6000610a8e82610aa8565b9050919050565b6000819050610aa382610dcf565b919050565b600073ffffffffffffffffffffffffffffffffffffffff82169050919050565b6000819050919050565b6000610add82610a95565b9050919050565b82818337600083830152505050565b60005b83811015610b11578082015181840152602081019050610af6565b83811115610b20576000848401525b50505050565b60006002820490506001821680610b3e57607f821691505b60208210811415610b5257610b51610be7565b5b50919050565b610b6182610c59565b810181811067ffffffffffffffff82111715610b8057610b7f610c16565b5b80604052505050565b7f4e487b7100000000000000000000000000000000000000000000000000000000600052601160045260246000fd5b7f4e487b7100000000000000000000000000000000000000000000000000000000600052602160045260246000fd5b7f4e487b7100000000000000000000000000000000000000000000000000000000600052602260045260246000fd5b7f4e487b7100000000000000000000000000000000000000000000000000000000600052604160045260246000fd5b600080fd5b600080fd5b600080fd5b600080fd5b6000601f19601f8301169050919050565b7f4c6f74652d436f6469676f2049642064652070726f647563746f20637265616460008201527f6f00000000000000000000000000000000000000000000000000000000000000602082015250565b7f456c2070726f647563746f2063616d62696f2064652065737461646f00000000600082015250565b7f456c204c6f74652d436f6469676f2064652070726f647563746f204e4f20657860008201527f6973746500000000000000000000000000000000000000000000000000000000602082015250565b7f456c204c6f74652d436f6469676f2064652070726f647563746f20796120657860008201527f6973746500000000000000000000000000000000000000000000000000000000602082015250565b7f7961206e6f20686179206d6173207061736f732c20656c2070726f647563746f60008201527f2066756520656e7472656761646f000000000000000000000000000000000000602082015250565b60058110610de057610ddf610bb8565b5b50565b610dec81610ac8565b8114610df757600080fd5b5056fe4c6f74652d436f6469676f2049642064652070726f647563746f2063726561646fa26469706673582212209507941c4ad90a6266f2c1f3e52040d5a080448718d7b119c1869e50f3f788c964736f6c63430008070033",
					"opcodes": "PUSH1 0x80 PUSH1 0x40 MSTORE CALLVALUE DUP1 ISZERO PUSH2 0x10 JUMPI PUSH1 0x0 DUP1 REVERT JUMPDEST POP PUSH2 0xE51 DUP1 PUSH2 0x20 PUSH1 0x0 CODECOPY PUSH1 0x0 RETURN INVALID PUSH1 0x80 PUSH1 0x40 MSTORE CALLVALUE DUP1 ISZERO PUSH2 0x10 JUMPI PUSH1 0x0 DUP1 REVERT JUMPDEST POP PUSH1 0x4 CALLDATASIZE LT PUSH2 0x4C JUMPI PUSH1 0x0 CALLDATALOAD PUSH1 0xE0 SHR DUP1 PUSH4 0x936892F6 EQ PUSH2 0x51 JUMPI DUP1 PUSH4 0xC08E0F96 EQ PUSH2 0x82 JUMPI DUP1 PUSH4 0xC15BBBD0 EQ PUSH2 0x9E JUMPI DUP1 PUSH4 0xDB4A7908 EQ PUSH2 0xCE JUMPI JUMPDEST PUSH1 0x0 DUP1 REVERT JUMPDEST PUSH2 0x6B PUSH1 0x4 DUP1 CALLDATASIZE SUB DUP2 ADD SWAP1 PUSH2 0x66 SWAP2 SWAP1 PUSH2 0x750 JUMP JUMPDEST PUSH2 0xEA JUMP JUMPDEST PUSH1 0x40 MLOAD PUSH2 0x79 SWAP3 SWAP2 SWAP1 PUSH2 0x8C0 JUMP JUMPDEST PUSH1 0x40 MLOAD DUP1 SWAP2 SUB SWAP1 RETURN JUMPDEST PUSH2 0x9C PUSH1 0x4 DUP1 CALLDATASIZE SUB DUP2 ADD SWAP1 PUSH2 0x97 SWAP2 SWAP1 PUSH2 0x6C7 JUMP JUMPDEST PUSH2 0x1C0 JUMP JUMPDEST STOP JUMPDEST PUSH2 0xB8 PUSH1 0x4 DUP1 CALLDATASIZE SUB DUP2 ADD SWAP1 PUSH2 0xB3 SWAP2 SWAP1 PUSH2 0x6C7 JUMP JUMPDEST PUSH2 0x31D JUMP JUMPDEST PUSH1 0x40 MLOAD PUSH2 0xC5 SWAP2 SWAP1 PUSH2 0x8A5 JUMP JUMPDEST PUSH1 0x40 MLOAD DUP1 SWAP2 SUB SWAP1 RETURN JUMPDEST PUSH2 0xE8 PUSH1 0x4 DUP1 CALLDATASIZE SUB DUP2 ADD SWAP1 PUSH2 0xE3 SWAP2 SWAP1 PUSH2 0x6F4 JUMP JUMPDEST PUSH2 0x3B2 JUMP JUMPDEST STOP JUMPDEST PUSH1 0x0 PUSH1 0x20 MSTORE DUP2 PUSH1 0x0 MSTORE PUSH1 0x40 PUSH1 0x0 KECCAK256 DUP2 DUP2 SLOAD DUP2 LT PUSH2 0x106 JUMPI PUSH1 0x0 DUP1 REVERT JUMPDEST SWAP1 PUSH1 0x0 MSTORE PUSH1 0x20 PUSH1 0x0 KECCAK256 SWAP1 PUSH1 0x2 MUL ADD PUSH1 0x0 SWAP2 POP SWAP2 POP POP DUP1 PUSH1 0x0 ADD PUSH1 0x0 SWAP1 SLOAD SWAP1 PUSH2 0x100 EXP SWAP1 DIV PUSH1 0xFF AND SWAP1 DUP1 PUSH1 0x1 ADD DUP1 SLOAD PUSH2 0x13D SWAP1 PUSH2 0xB26 JUMP JUMPDEST DUP1 PUSH1 0x1F ADD PUSH1 0x20 DUP1 SWAP2 DIV MUL PUSH1 0x20 ADD PUSH1 0x40 MLOAD SWAP1 DUP2 ADD PUSH1 0x40 MSTORE DUP1 SWAP3 SWAP2 SWAP1 DUP2 DUP2 MSTORE PUSH1 0x20 ADD DUP3 DUP1 SLOAD PUSH2 0x169 SWAP1 PUSH2 0xB26 JUMP JUMPDEST DUP1 ISZERO PUSH2 0x1B6 JUMPI DUP1 PUSH1 0x1F LT PUSH2 0x18B JUMPI PUSH2 0x100 DUP1 DUP4 SLOAD DIV MUL DUP4 MSTORE SWAP2 PUSH1 0x20 ADD SWAP2 PUSH2 0x1B6 JUMP JUMPDEST DUP3 ADD SWAP2 SWAP1 PUSH1 0x0 MSTORE PUSH1 0x20 PUSH1 0x0 KECCAK256 SWAP1 JUMPDEST DUP2 SLOAD DUP2 MSTORE SWAP1 PUSH1 0x1 ADD SWAP1 PUSH1 0x20 ADD DUP1 DUP4 GT PUSH2 0x199 JUMPI DUP3 SWAP1 SUB PUSH1 0x1F AND DUP3 ADD SWAP2 JUMPDEST POP POP POP POP POP SWAP1 POP DUP3 JUMP JUMPDEST PUSH1 0x0 DUP1 PUSH1 0x0 DUP4 DUP2 MSTORE PUSH1 0x20 ADD SWAP1 DUP2 MSTORE PUSH1 0x20 ADD PUSH1 0x0 KECCAK256 DUP1 SLOAD SWAP1 POP EQ PUSH2 0x218 JUMPI PUSH1 0x40 MLOAD PUSH32 0x8C379A000000000000000000000000000000000000000000000000000000000 DUP2 MSTORE PUSH1 0x4 ADD PUSH2 0x20F SWAP1 PUSH2 0x99D JUMP JUMPDEST PUSH1 0x40 MLOAD DUP1 SWAP2 SUB SWAP1 REVERT JUMPDEST PUSH1 0x0 DUP1 DUP3 DUP2 MSTORE PUSH1 0x20 ADD SWAP1 DUP2 MSTORE PUSH1 0x20 ADD PUSH1 0x0 KECCAK256 PUSH1 0x40 MLOAD DUP1 PUSH1 0x40 ADD PUSH1 0x40 MSTORE DUP1 PUSH1 0x0 PUSH1 0x4 DUP2 GT ISZERO PUSH2 0x249 JUMPI PUSH2 0x248 PUSH2 0xBB8 JUMP JUMPDEST JUMPDEST DUP2 MSTORE PUSH1 0x20 ADD PUSH1 0x40 MLOAD DUP1 PUSH1 0x60 ADD PUSH1 0x40 MSTORE DUP1 PUSH1 0x21 DUP2 MSTORE PUSH1 0x20 ADD PUSH2 0xDFB PUSH1 0x21 SWAP2 CODECOPY DUP2 MSTORE POP SWAP1 DUP1 PUSH1 0x1 DUP2 SLOAD ADD DUP1 DUP3 SSTORE DUP1 SWAP2 POP POP PUSH1 0x1 SWAP1 SUB SWAP1 PUSH1 0x0 MSTORE PUSH1 0x20 PUSH1 0x0 KECCAK256 SWAP1 PUSH1 0x2 MUL ADD PUSH1 0x0 SWAP1 SWAP2 SWAP1 SWAP2 SWAP1 SWAP2 POP PUSH1 0x0 DUP3 ADD MLOAD DUP2 PUSH1 0x0 ADD PUSH1 0x0 PUSH2 0x100 EXP DUP2 SLOAD DUP2 PUSH1 0xFF MUL NOT AND SWAP1 DUP4 PUSH1 0x4 DUP2 GT ISZERO PUSH2 0x2BE JUMPI PUSH2 0x2BD PUSH2 0xBB8 JUMP JUMPDEST JUMPDEST MUL OR SWAP1 SSTORE POP PUSH1 0x20 DUP3 ADD MLOAD DUP2 PUSH1 0x1 ADD SWAP1 DUP1 MLOAD SWAP1 PUSH1 0x20 ADD SWAP1 PUSH2 0x2DF SWAP3 SWAP2 SWAP1 PUSH2 0x59F JUMP JUMPDEST POP POP POP PUSH32 0x5EB9A63A869A92A03B6256B4A442B251CF74B2D386299E41895148FDAB0E4094 PUSH1 0x0 PUSH1 0x40 MLOAD PUSH2 0x312 SWAP2 SWAP1 PUSH2 0x8F0 JUMP JUMPDEST PUSH1 0x40 MLOAD DUP1 SWAP2 SUB SWAP1 LOG1 POP JUMP JUMPDEST PUSH1 0x0 DUP1 PUSH1 0x0 DUP1 DUP5 DUP2 MSTORE PUSH1 0x20 ADD SWAP1 DUP2 MSTORE PUSH1 0x20 ADD PUSH1 0x0 KECCAK256 DUP1 SLOAD SWAP1 POP EQ ISZERO PUSH2 0x377 JUMPI PUSH1 0x40 MLOAD PUSH32 0x8C379A000000000000000000000000000000000000000000000000000000000 DUP2 MSTORE PUSH1 0x4 ADD PUSH2 0x36E SWAP1 PUSH2 0x97D JUMP JUMPDEST PUSH1 0x40 MLOAD DUP1 SWAP2 SUB SWAP1 REVERT JUMPDEST PUSH1 0x1 PUSH1 0x0 DUP1 DUP5 DUP2 MSTORE PUSH1 0x20 ADD SWAP1 DUP2 MSTORE PUSH1 0x20 ADD PUSH1 0x0 KECCAK256 DUP1 SLOAD SWAP1 POP PUSH2 0x399 SWAP2 SWAP1 PUSH2 0xA4F JUMP JUMPDEST PUSH1 0x4 DUP2 GT ISZERO PUSH2 0x3AB JUMPI PUSH2 0x3AA PUSH2 0xBB8 JUMP JUMPDEST JUMPDEST SWAP1 POP SWAP2 SWAP1 POP JUMP JUMPDEST PUSH1 0x0 DUP1 PUSH1 0x0 DUP5 DUP2 MSTORE PUSH1 0x20 ADD SWAP1 DUP2 MSTORE PUSH1 0x20 ADD PUSH1 0x0 KECCAK256 DUP1 SLOAD SWAP1 POP EQ ISZERO PUSH2 0x40B JUMPI PUSH1 0x40 MLOAD PUSH32 0x8C379A000000000000000000000000000000000000000000000000000000000 DUP2 MSTORE PUSH1 0x4 ADD PUSH2 0x402 SWAP1 PUSH2 0x97D JUMP JUMPDEST PUSH1 0x40 MLOAD DUP1 SWAP2 SUB SWAP1 REVERT JUMPDEST PUSH1 0x4 DUP1 DUP2 GT ISZERO PUSH2 0x41E JUMPI PUSH2 0x41D PUSH2 0xBB8 JUMP JUMPDEST JUMPDEST PUSH1 0x1 PUSH1 0x0 DUP1 DUP6 DUP2 MSTORE PUSH1 0x20 ADD SWAP1 DUP2 MSTORE PUSH1 0x20 ADD PUSH1 0x0 KECCAK256 DUP1 SLOAD SWAP1 POP PUSH2 0x440 SWAP2 SWAP1 PUSH2 0xA4F JUMP JUMPDEST LT PUSH2 0x480 JUMPI PUSH1 0x40 MLOAD PUSH32 0x8C379A000000000000000000000000000000000000000000000000000000000 DUP2 MSTORE PUSH1 0x4 ADD PUSH2 0x477 SWAP1 PUSH2 0x9BD JUMP JUMPDEST PUSH1 0x40 MLOAD DUP1 SWAP2 SUB SWAP1 REVERT JUMPDEST PUSH1 0x0 DUP1 PUSH1 0x0 DUP5 DUP2 MSTORE PUSH1 0x20 ADD SWAP1 DUP2 MSTORE PUSH1 0x20 ADD PUSH1 0x0 KECCAK256 DUP1 SLOAD SWAP1 POP PUSH1 0x4 DUP2 GT ISZERO PUSH2 0x4AA JUMPI PUSH2 0x4A9 PUSH2 0xBB8 JUMP JUMPDEST JUMPDEST SWAP1 POP PUSH1 0x0 DUP1 DUP5 DUP2 MSTORE PUSH1 0x20 ADD SWAP1 DUP2 MSTORE PUSH1 0x20 ADD PUSH1 0x0 KECCAK256 PUSH1 0x40 MLOAD DUP1 PUSH1 0x40 ADD PUSH1 0x40 MSTORE DUP1 DUP4 PUSH1 0x4 DUP2 GT ISZERO PUSH2 0x4DC JUMPI PUSH2 0x4DB PUSH2 0xBB8 JUMP JUMPDEST JUMPDEST DUP2 MSTORE PUSH1 0x20 ADD DUP5 DUP2 MSTORE POP SWAP1 DUP1 PUSH1 0x1 DUP2 SLOAD ADD DUP1 DUP3 SSTORE DUP1 SWAP2 POP POP PUSH1 0x1 SWAP1 SUB SWAP1 PUSH1 0x0 MSTORE PUSH1 0x20 PUSH1 0x0 KECCAK256 SWAP1 PUSH1 0x2 MUL ADD PUSH1 0x0 SWAP1 SWAP2 SWAP1 SWAP2 SWAP1 SWAP2 POP PUSH1 0x0 DUP3 ADD MLOAD DUP2 PUSH1 0x0 ADD PUSH1 0x0 PUSH2 0x100 EXP DUP2 SLOAD DUP2 PUSH1 0xFF MUL NOT AND SWAP1 DUP4 PUSH1 0x4 DUP2 GT ISZERO PUSH2 0x539 JUMPI PUSH2 0x538 PUSH2 0xBB8 JUMP JUMPDEST JUMPDEST MUL OR SWAP1 SSTORE POP PUSH1 0x20 DUP3 ADD MLOAD DUP2 PUSH1 0x1 ADD SWAP1 DUP1 MLOAD SWAP1 PUSH1 0x20 ADD SWAP1 PUSH2 0x55A SWAP3 SWAP2 SWAP1 PUSH2 0x59F JUMP JUMPDEST POP POP POP PUSH32 0x69473D85141FE924E8DEB804A628E89F2C898807C30052DD683F82463F4023F3 CALLER DUP5 DUP4 DUP6 PUSH1 0x40 MLOAD PUSH2 0x592 SWAP5 SWAP4 SWAP3 SWAP2 SWAP1 PUSH2 0x91E JUMP JUMPDEST PUSH1 0x40 MLOAD DUP1 SWAP2 SUB SWAP1 LOG1 POP POP POP JUMP JUMPDEST DUP3 DUP1 SLOAD PUSH2 0x5AB SWAP1 PUSH2 0xB26 JUMP JUMPDEST SWAP1 PUSH1 0x0 MSTORE PUSH1 0x20 PUSH1 0x0 KECCAK256 SWAP1 PUSH1 0x1F ADD PUSH1 0x20 SWAP1 DIV DUP2 ADD SWAP3 DUP3 PUSH2 0x5CD JUMPI PUSH1 0x0 DUP6 SSTORE PUSH2 0x614 JUMP JUMPDEST DUP3 PUSH1 0x1F LT PUSH2 0x5E6 JUMPI DUP1 MLOAD PUSH1 0xFF NOT AND DUP4 DUP1 ADD OR DUP6 SSTORE PUSH2 0x614 JUMP JUMPDEST DUP3 DUP1 ADD PUSH1 0x1 ADD DUP6 SSTORE DUP3 ISZERO PUSH2 0x614 JUMPI SWAP2 DUP3 ADD JUMPDEST DUP3 DUP2 GT ISZERO PUSH2 0x613 JUMPI DUP3 MLOAD DUP3 SSTORE SWAP2 PUSH1 0x20 ADD SWAP2 SWAP1 PUSH1 0x1 ADD SWAP1 PUSH2 0x5F8 JUMP JUMPDEST JUMPDEST POP SWAP1 POP PUSH2 0x621 SWAP2 SWAP1 PUSH2 0x625 JUMP JUMPDEST POP SWAP1 JUMP JUMPDEST JUMPDEST DUP1 DUP3 GT ISZERO PUSH2 0x63E JUMPI PUSH1 0x0 DUP2 PUSH1 0x0 SWAP1 SSTORE POP PUSH1 0x1 ADD PUSH2 0x626 JUMP JUMPDEST POP SWAP1 JUMP JUMPDEST PUSH1 0x0 PUSH2 0x655 PUSH2 0x650 DUP5 PUSH2 0xA02 JUMP JUMPDEST PUSH2 0x9DD JUMP JUMPDEST SWAP1 POP DUP3 DUP2 MSTORE PUSH1 0x20 DUP2 ADD DUP5 DUP5 DUP5 ADD GT ISZERO PUSH2 0x671 JUMPI PUSH2 0x670 PUSH2 0xC4A JUMP JUMPDEST JUMPDEST PUSH2 0x67C DUP5 DUP3 DUP6 PUSH2 0xAE4 JUMP JUMPDEST POP SWAP4 SWAP3 POP POP POP JUMP JUMPDEST PUSH1 0x0 DUP3 PUSH1 0x1F DUP4 ADD SLT PUSH2 0x699 JUMPI PUSH2 0x698 PUSH2 0xC45 JUMP JUMPDEST JUMPDEST DUP2 CALLDATALOAD PUSH2 0x6A9 DUP5 DUP3 PUSH1 0x20 DUP7 ADD PUSH2 0x642 JUMP JUMPDEST SWAP2 POP POP SWAP3 SWAP2 POP POP JUMP JUMPDEST PUSH1 0x0 DUP2 CALLDATALOAD SWAP1 POP PUSH2 0x6C1 DUP2 PUSH2 0xDE3 JUMP JUMPDEST SWAP3 SWAP2 POP POP JUMP JUMPDEST PUSH1 0x0 PUSH1 0x20 DUP3 DUP5 SUB SLT ISZERO PUSH2 0x6DD JUMPI PUSH2 0x6DC PUSH2 0xC54 JUMP JUMPDEST JUMPDEST PUSH1 0x0 PUSH2 0x6EB DUP5 DUP3 DUP6 ADD PUSH2 0x6B2 JUMP JUMPDEST SWAP2 POP POP SWAP3 SWAP2 POP POP JUMP JUMPDEST PUSH1 0x0 DUP1 PUSH1 0x40 DUP4 DUP6 SUB SLT ISZERO PUSH2 0x70B JUMPI PUSH2 0x70A PUSH2 0xC54 JUMP JUMPDEST JUMPDEST PUSH1 0x0 PUSH2 0x719 DUP6 DUP3 DUP7 ADD PUSH2 0x6B2 JUMP JUMPDEST SWAP3 POP POP PUSH1 0x20 DUP4 ADD CALLDATALOAD PUSH8 0xFFFFFFFFFFFFFFFF DUP2 GT ISZERO PUSH2 0x73A JUMPI PUSH2 0x739 PUSH2 0xC4F JUMP JUMPDEST JUMPDEST PUSH2 0x746 DUP6 DUP3 DUP7 ADD PUSH2 0x684 JUMP JUMPDEST SWAP2 POP POP SWAP3 POP SWAP3 SWAP1 POP JUMP JUMPDEST PUSH1 0x0 DUP1 PUSH1 0x40 DUP4 DUP6 SUB SLT ISZERO PUSH2 0x767 JUMPI PUSH2 0x766 PUSH2 0xC54 JUMP JUMPDEST JUMPDEST PUSH1 0x0 PUSH2 0x775 DUP6 DUP3 DUP7 ADD PUSH2 0x6B2 JUMP JUMPDEST SWAP3 POP POP PUSH1 0x20 PUSH2 0x786 DUP6 DUP3 DUP7 ADD PUSH2 0x6B2 JUMP JUMPDEST SWAP2 POP POP SWAP3 POP SWAP3 SWAP1 POP JUMP JUMPDEST PUSH2 0x799 DUP2 PUSH2 0xA83 JUMP JUMPDEST DUP3 MSTORE POP POP JUMP JUMPDEST PUSH2 0x7A8 DUP2 PUSH2 0xAD2 JUMP JUMPDEST DUP3 MSTORE POP POP JUMP JUMPDEST PUSH1 0x0 PUSH2 0x7B9 DUP3 PUSH2 0xA33 JUMP JUMPDEST PUSH2 0x7C3 DUP2 DUP6 PUSH2 0xA3E JUMP JUMPDEST SWAP4 POP PUSH2 0x7D3 DUP2 DUP6 PUSH1 0x20 DUP7 ADD PUSH2 0xAF3 JUMP JUMPDEST PUSH2 0x7DC DUP2 PUSH2 0xC59 JUMP JUMPDEST DUP5 ADD SWAP2 POP POP SWAP3 SWAP2 POP POP JUMP JUMPDEST PUSH1 0x0 PUSH2 0x7F4 PUSH1 0x21 DUP4 PUSH2 0xA3E JUMP JUMPDEST SWAP2 POP PUSH2 0x7FF DUP3 PUSH2 0xC6A JUMP JUMPDEST PUSH1 0x40 DUP3 ADD SWAP1 POP SWAP2 SWAP1 POP JUMP JUMPDEST PUSH1 0x0 PUSH2 0x817 PUSH1 0x1C DUP4 PUSH2 0xA3E JUMP JUMPDEST SWAP2 POP PUSH2 0x822 DUP3 PUSH2 0xCB9 JUMP JUMPDEST PUSH1 0x20 DUP3 ADD SWAP1 POP SWAP2 SWAP1 POP JUMP JUMPDEST PUSH1 0x0 PUSH2 0x83A PUSH1 0x24 DUP4 PUSH2 0xA3E JUMP JUMPDEST SWAP2 POP PUSH2 0x845 DUP3 PUSH2 0xCE2 JUMP JUMPDEST PUSH1 0x40 DUP3 ADD SWAP1 POP SWAP2 SWAP1 POP JUMP JUMPDEST PUSH1 0x0 PUSH2 0x85D PUSH1 0x24 DUP4 PUSH2 0xA3E JUMP JUMPDEST SWAP2 POP PUSH2 0x868 DUP3 PUSH2 0xD31 JUMP JUMPDEST PUSH1 0x40 DUP3 ADD SWAP1 POP SWAP2 SWAP1 POP JUMP JUMPDEST PUSH1 0x0 PUSH2 0x880 PUSH1 0x2E DUP4 PUSH2 0xA3E JUMP JUMPDEST SWAP2 POP PUSH2 0x88B DUP3 PUSH2 0xD80 JUMP JUMPDEST PUSH1 0x40 DUP3 ADD SWAP1 POP SWAP2 SWAP1 POP JUMP JUMPDEST PUSH2 0x89F DUP2 PUSH2 0xAC8 JUMP JUMPDEST DUP3 MSTORE POP POP JUMP JUMPDEST PUSH1 0x0 PUSH1 0x20 DUP3 ADD SWAP1 POP PUSH2 0x8BA PUSH1 0x0 DUP4 ADD DUP5 PUSH2 0x79F JUMP JUMPDEST SWAP3 SWAP2 POP POP JUMP JUMPDEST PUSH1 0x0 PUSH1 0x40 DUP3 ADD SWAP1 POP PUSH2 0x8D5 PUSH1 0x0 DUP4 ADD DUP6 PUSH2 0x79F JUMP JUMPDEST DUP2 DUP2 SUB PUSH1 0x20 DUP4 ADD MSTORE PUSH2 0x8E7 DUP2 DUP5 PUSH2 0x7AE JUMP JUMPDEST SWAP1 POP SWAP4 SWAP3 POP POP POP JUMP JUMPDEST PUSH1 0x0 PUSH1 0x40 DUP3 ADD SWAP1 POP PUSH2 0x905 PUSH1 0x0 DUP4 ADD DUP5 PUSH2 0x79F JUMP JUMPDEST DUP2 DUP2 SUB PUSH1 0x20 DUP4 ADD MSTORE PUSH2 0x916 DUP2 PUSH2 0x7E7 JUMP JUMPDEST SWAP1 POP SWAP3 SWAP2 POP POP JUMP JUMPDEST PUSH1 0x0 PUSH1 0xA0 DUP3 ADD SWAP1 POP DUP2 DUP2 SUB PUSH1 0x0 DUP4 ADD MSTORE PUSH2 0x937 DUP2 PUSH2 0x80A JUMP JUMPDEST SWAP1 POP PUSH2 0x946 PUSH1 0x20 DUP4 ADD DUP8 PUSH2 0x790 JUMP JUMPDEST PUSH2 0x953 PUSH1 0x40 DUP4 ADD DUP7 PUSH2 0x896 JUMP JUMPDEST PUSH2 0x960 PUSH1 0x60 DUP4 ADD DUP6 PUSH2 0x79F JUMP JUMPDEST DUP2 DUP2 SUB PUSH1 0x80 DUP4 ADD MSTORE PUSH2 0x972 DUP2 DUP5 PUSH2 0x7AE JUMP JUMPDEST SWAP1 POP SWAP6 SWAP5 POP POP POP POP POP JUMP JUMPDEST PUSH1 0x0 PUSH1 0x20 DUP3 ADD SWAP1 POP DUP2 DUP2 SUB PUSH1 0x0 DUP4 ADD MSTORE PUSH2 0x996 DUP2 PUSH2 0x82D JUMP JUMPDEST SWAP1 POP SWAP2 SWAP1 POP JUMP JUMPDEST PUSH1 0x0 PUSH1 0x20 DUP3 ADD SWAP1 POP DUP2 DUP2 SUB PUSH1 0x0 DUP4 ADD MSTORE PUSH2 0x9B6 DUP2 PUSH2 0x850 JUMP JUMPDEST SWAP1 POP SWAP2 SWAP1 POP JUMP JUMPDEST PUSH1 0x0 PUSH1 0x20 DUP3 ADD SWAP1 POP DUP2 DUP2 SUB PUSH1 0x0 DUP4 ADD MSTORE PUSH2 0x9D6 DUP2 PUSH2 0x873 JUMP JUMPDEST SWAP1 POP SWAP2 SWAP1 POP JUMP JUMPDEST PUSH1 0x0 PUSH2 0x9E7 PUSH2 0x9F8 JUMP JUMPDEST SWAP1 POP PUSH2 0x9F3 DUP3 DUP3 PUSH2 0xB58 JUMP JUMPDEST SWAP2 SWAP1 POP JUMP JUMPDEST PUSH1 0x0 PUSH1 0x40 MLOAD SWAP1 POP SWAP1 JUMP JUMPDEST PUSH1 0x0 PUSH8 0xFFFFFFFFFFFFFFFF DUP3 GT ISZERO PUSH2 0xA1D JUMPI PUSH2 0xA1C PUSH2 0xC16 JUMP JUMPDEST JUMPDEST PUSH2 0xA26 DUP3 PUSH2 0xC59 JUMP JUMPDEST SWAP1 POP PUSH1 0x20 DUP2 ADD SWAP1 POP SWAP2 SWAP1 POP JUMP JUMPDEST PUSH1 0x0 DUP2 MLOAD SWAP1 POP SWAP2 SWAP1 POP JUMP JUMPDEST PUSH1 0x0 DUP3 DUP3 MSTORE PUSH1 0x20 DUP3 ADD SWAP1 POP SWAP3 SWAP2 POP POP JUMP JUMPDEST PUSH1 0x0 PUSH2 0xA5A DUP3 PUSH2 0xAC8 JUMP JUMPDEST SWAP2 POP PUSH2 0xA65 DUP4 PUSH2 0xAC8 JUMP JUMPDEST SWAP3 POP DUP3 DUP3 LT ISZERO PUSH2 0xA78 JUMPI PUSH2 0xA77 PUSH2 0xB89 JUMP JUMPDEST JUMPDEST DUP3 DUP3 SUB SWAP1 POP SWAP3 SWAP2 POP POP JUMP JUMPDEST PUSH1 0x0 PUSH2 0xA8E DUP3 PUSH2 0xAA8 JUMP JUMPDEST SWAP1 POP SWAP2 SWAP1 POP JUMP JUMPDEST PUSH1 0x0 DUP2 SWAP1 POP PUSH2 0xAA3 DUP3 PUSH2 0xDCF JUMP JUMPDEST SWAP2 SWAP1 POP JUMP JUMPDEST PUSH1 0x0 PUSH20 0xFFFFFFFFFFFFFFFFFFFFFFFFFFFFFFFFFFFFFFFF DUP3 AND SWAP1 POP SWAP2 SWAP1 POP JUMP JUMPDEST PUSH1 0x0 DUP2 SWAP1 POP SWAP2 SWAP1 POP JUMP JUMPDEST PUSH1 0x0 PUSH2 0xADD DUP3 PUSH2 0xA95 JUMP JUMPDEST SWAP1 POP SWAP2 SWAP1 POP JUMP JUMPDEST DUP3 DUP2 DUP4 CALLDATACOPY PUSH1 0x0 DUP4 DUP4 ADD MSTORE POP POP POP JUMP JUMPDEST PUSH1 0x0 JUMPDEST DUP4 DUP2 LT ISZERO PUSH2 0xB11 JUMPI DUP1 DUP3 ADD MLOAD DUP2 DUP5 ADD MSTORE PUSH1 0x20 DUP2 ADD SWAP1 POP PUSH2 0xAF6 JUMP JUMPDEST DUP4 DUP2 GT ISZERO PUSH2 0xB20 JUMPI PUSH1 0x0 DUP5 DUP5 ADD MSTORE JUMPDEST POP POP POP POP JUMP JUMPDEST PUSH1 0x0 PUSH1 0x2 DUP3 DIV SWAP1 POP PUSH1 0x1 DUP3 AND DUP1 PUSH2 0xB3E JUMPI PUSH1 0x7F DUP3 AND SWAP2 POP JUMPDEST PUSH1 0x20 DUP3 LT DUP2 EQ ISZERO PUSH2 0xB52 JUMPI PUSH2 0xB51 PUSH2 0xBE7 JUMP JUMPDEST JUMPDEST POP SWAP2 SWAP1 POP JUMP JUMPDEST PUSH2 0xB61 DUP3 PUSH2 0xC59 JUMP JUMPDEST DUP2 ADD DUP2 DUP2 LT PUSH8 0xFFFFFFFFFFFFFFFF DUP3 GT OR ISZERO PUSH2 0xB80 JUMPI PUSH2 0xB7F PUSH2 0xC16 JUMP JUMPDEST JUMPDEST DUP1 PUSH1 0x40 MSTORE POP POP POP JUMP JUMPDEST PUSH32 0x4E487B7100000000000000000000000000000000000000000000000000000000 PUSH1 0x0 MSTORE PUSH1 0x11 PUSH1 0x4 MSTORE PUSH1 0x24 PUSH1 0x0 REVERT JUMPDEST PUSH32 0x4E487B7100000000000000000000000000000000000000000000000000000000 PUSH1 0x0 MSTORE PUSH1 0x21 PUSH1 0x4 MSTORE PUSH1 0x24 PUSH1 0x0 REVERT JUMPDEST PUSH32 0x4E487B7100000000000000000000000000000000000000000000000000000000 PUSH1 0x0 MSTORE PUSH1 0x22 PUSH1 0x4 MSTORE PUSH1 0x24 PUSH1 0x0 REVERT JUMPDEST PUSH32 0x4E487B7100000000000000000000000000000000000000000000000000000000 PUSH1 0x0 MSTORE PUSH1 0x41 PUSH1 0x4 MSTORE PUSH1 0x24 PUSH1 0x0 REVERT JUMPDEST PUSH1 0x0 DUP1 REVERT JUMPDEST PUSH1 0x0 DUP1 REVERT JUMPDEST PUSH1 0x0 DUP1 REVERT JUMPDEST PUSH1 0x0 DUP1 REVERT JUMPDEST PUSH1 0x0 PUSH1 0x1F NOT PUSH1 0x1F DUP4 ADD AND SWAP1 POP SWAP2 SWAP1 POP JUMP JUMPDEST PUSH32 0x4C6F74652D436F6469676F2049642064652070726F647563746F206372656164 PUSH1 0x0 DUP3 ADD MSTORE PUSH32 0x6F00000000000000000000000000000000000000000000000000000000000000 PUSH1 0x20 DUP3 ADD MSTORE POP JUMP JUMPDEST PUSH32 0x456C2070726F647563746F2063616D62696F2064652065737461646F00000000 PUSH1 0x0 DUP3 ADD MSTORE POP JUMP JUMPDEST PUSH32 0x456C204C6F74652D436F6469676F2064652070726F647563746F204E4F206578 PUSH1 0x0 DUP3 ADD MSTORE PUSH32 0x6973746500000000000000000000000000000000000000000000000000000000 PUSH1 0x20 DUP3 ADD MSTORE POP JUMP JUMPDEST PUSH32 0x456C204C6F74652D436F6469676F2064652070726F647563746F207961206578 PUSH1 0x0 DUP3 ADD MSTORE PUSH32 0x6973746500000000000000000000000000000000000000000000000000000000 PUSH1 0x20 DUP3 ADD MSTORE POP JUMP JUMPDEST PUSH32 0x7961206E6F20686179206D6173207061736F732C20656C2070726F647563746F PUSH1 0x0 DUP3 ADD MSTORE PUSH32 0x2066756520656E7472656761646F000000000000000000000000000000000000 PUSH1 0x20 DUP3 ADD MSTORE POP JUMP JUMPDEST PUSH1 0x5 DUP2 LT PUSH2 0xDE0 JUMPI PUSH2 0xDDF PUSH2 0xBB8 JUMP JUMPDEST JUMPDEST POP JUMP JUMPDEST PUSH2 0xDEC DUP2 PUSH2 0xAC8 JUMP JUMPDEST DUP2 EQ PUSH2 0xDF7 JUMPI PUSH1 0x0 DUP1 REVERT JUMPDEST POP JUMP INVALID 0x4C PUSH16 0x74652D436F6469676F20496420646520 PUSH17 0x726F647563746F2063726561646FA26469 PUSH17 0x6673582212209507941C4AD90A6266F2C1 RETURN 0xE5 KECCAK256 BLOCKHASH 0xD5 LOG0 DUP1 DIFFICULTY DUP8 XOR 0xD7 0xB1 NOT 0xC1 DUP7 SWAP15 POP RETURN 0xF7 DUP9 0xC9 PUSH5 0x736F6C6343 STOP ADDMOD SMOD STOP CALLER "
				},
				"gasEstimates": {
					"creation": {
						"codeDepositCost": "733000",
						"executionCost": "766",
						"totalCost": "733766"
					},
					"external": {
						"ChangeStatus(uint256,string)": "infinite",
						"EstadoActualProducto(uint256)": "infinite",
						"Productos(uint256,uint256)": "infinite",
						"registerProduct(uint256)": "infinite"
					}
				},
				"methodIdentifiers": {
					"ChangeStatus(uint256,string)": "db4a7908",
					"EstadoActualProducto(uint256)": "c15bbbd0",
					"Productos(uint256,uint256)": "936892f6",
					"registerProduct(uint256)": "c08e0f96"
				}
			},
			"storageLayout": {
				"storage": [
					{
						"astId": 19,
						"contract": "Casos de Uso/SupplyChain.sol:SupplyChain",
						"label": "Productos",
						"offset": 0,
						"slot": "0",
						"type": "t_mapping(t_uint256,t_array(t_struct(Step)13_storage)dyn_storage)"
					}
				],
				"types": {
					"t_array(t_struct(Step)13_storage)dyn_storage": {
						"base": "t_struct(Step)13_storage",
						"encoding": "dynamic_array",
						"label": "struct SupplyChain.Step[]",
						"numberOfBytes": "32"
					},
					"t_enum(Status)7": {
						"encoding": "inplace",
						"label": "enum SupplyChain.Status",
						"numberOfBytes": "1"
					},
					"t_mapping(t_uint256,t_array(t_struct(Step)13_storage)dyn_storage)": {
						"encoding": "mapping",
						"key": "t_uint256",
						"label": "mapping(uint256 => struct SupplyChain.Step[])",
						"numberOfBytes": "32",
						"value": "t_array(t_struct(Step)13_storage)dyn_storage"
					},
					"t_string_storage": {
						"encoding": "bytes",
						"label": "string",
						"numberOfBytes": "32"
					},
					"t_struct(Step)13_storage": {
						"encoding": "inplace",
						"label": "struct SupplyChain.Step",
						"members": [
							{
								"astId": 10,
								"contract": "Casos de Uso/SupplyChain.sol:SupplyChain",
								"label": "status",
								"offset": 0,
								"slot": "0",
								"type": "t_enum(Status)7"
							},
							{
								"astId": 12,
								"contract": "Casos de Uso/SupplyChain.sol:SupplyChain",
								"label": "metadata",
								"offset": 0,
								"slot": "1",
								"type": "t_string_storage"
							}
						],
						"numberOfBytes": "64"
					},
					"t_uint256": {
						"encoding": "inplace",
						"label": "uint256",
						"numberOfBytes": "32"
					}
				}
			},
			"userdoc": {
				"kind": "user",
				"methods": {},
				"version": 1
			}
		}
	}
}